:10000000A02E0120E1020000DD020000DD02000060
:10001000DD020000DD020000DD0200000000000043
:10002000000000000000000000000000DD020000F1
:10003000DD02000000000000DD020000DD02000023
:10004000DD020000DD020000DD020000DD02000034
:10005000DD020000DD020000DD020000DD02000024
:10006000DD020000DD020000DD020000DD02000014
:10007000DD020000DD020000DD020000DD02000004
:10008000DD020000DD020000DD020000DD020000F4
:10009000DD020000DD020000DD020000DD020000E4
:1000A000DD020000DD020000DD020000DD020000D4
:1000B000DD020000DD020000DD0200006110000032
:1000C0006D100000791000008510000091100000F4
:1000D000DD020000DD020000DD020000DD020000A4
:1000E000DD020000DD020000000000000000000052
:1000F000000000006D110000DD020000DD020000C4
:10010000DD020000DD020000DD020000DD02000073
:10011000DD020000DD020000DD020000DD02000063
:10012000DD020000DD020000DD020000DD02000053
:10013000DD020000DD020000DD020000DD02000043
:10014000DD020000DD020000DD020000DD02000033
:10015000DD020000DD020000DD020000DD02000023
:10016000DD020000DD020000DD020000DD02000013
:10017000DD020000DD020000DD020000DD02000003
:10018000DD020000DD020000DD020000DD020000F3
:10019000DD020000DD020000DD020000DD020000E3
:1001A000DD020000DD020000DD020000DD020000D3
:1001B000DD020000DD020000DD020000DD020000C3
:1001C000DD020000DD020000DD020000DD020000B3
:1001D000DD020000DD020000DD020000DD020000A3
:1001E000DD020000DD020000DD020000DD02000093
:1001F000DD020000DD020000F9260000DD02000043
:10020000DD020000DD020000F5070000DD02000055
:10021000DD020000DD020000DD020000DD02000062
:10022000DD020000DD020000DD020000DD02000052
:10023000DD020000DD020000DD020000DD02000042
:10024000DD020000DD020000DD020000DD02000032
:10025000DD020000DD020000DD020000DD02000022
:10026000DD02000010B5054C237833B9044B13B1FF
:100270000448AFF300800123237010BD600100200B
:1002800000000000B89C00000C4B43B10C480D4925
:1002900010B5AFF300800C48036823B910BD0A48BD
:1002A000036833B97047094B002BF7D0BDE8104005
:1002B0001847064B002BF5D0184700BF0000000080
:1002C000B89C000064010020B89C00000000000001
:1002D00008B5014B984708BD01060000FEE7000085
:1002E00008B5154B154A9A4209D0134B134A03E03F
:1002F000116819600433043211498B42F8D3114B51
:1003000002E000221A6004330F4A9342F9D30F4BE4
:100310000F4A22F07F029A60D3F8882042F47002DC
:10032000C3F88820BFF34F8FBFF36F8F094B9847F7
:10033000094B9847FEE700BF00000020B89C000072
:1003400054010020600100209C2E002000ED00E000
:1003500000000000C9990000A1230000164B93F88B
:10036000562002F0FB0283F8562093F8562002F044
:10037000FE0242F0010283F8562093F83B2002F07F
:10038000F00242F0020283F83B2093F8572002F07B
:10039000FB0283F8572093F8572002F0FE0242F048
:1003A000010283F8572093F83B2002F00F0242F03D
:1003B000200283F83B20704700800041064B40221A
:1003C000C3F8E0204322C3F88C20044A936943F425
:1003D00080639361704700BF001C0040000800402C
:1003E00008B5044B984704490448054B9847054B0A
:1003F000984708BDBD03000000400141D003002024
:10040000010B00005D0300002C4B4FF48032C3F859
:100410009420C3F888204FF08041C3F8A810284AE0
:10042000C3F8A82093F8D02002F0FE0242F00102A7
:1004300083F8D02093F8B82002F0F00242F00202D4
:1004400083F8B8204FF40032C3F89420C3F8882012
:10045000C3F8A8101B4AC3F8A82093F8D12002F0D3
:10046000FE0242F0010283F8D12093F8B82002F096
:100470000F0242F0200283F8B8200222C3F8842041
:10048000114AC3F8A820114AC3F8A82093F8C12044
:1004900002F0FB0283F8C12093F8C12002F0FE02B3
:1004A00042F0010283F8C12093F8B02002F00F025D
:1004B00042F0300283F8B020704700BF0080004156
:1004C000010000C0020000C002000240000002C0A3
:1004D000064B4022C3F80C214322C3F88C20044A67
:1004E000136A43F002031362704700BF001C004010
:1004F0000008004008B5044B984704490448054BE0
:100500009847054B984708BDD104000000040043FC
:10051000A0030020350C000009040000164B93F8DE
:10052000C82102F0FB0283F8C82193F8C82102F029
:10053000FE0242F0010283F8C82193F8B42102F0D0
:10054000F00242F0020283F8B42193F8C92102F0CC
:10055000FB0283F8C92193F8C92102F0FE0242F0A0
:10056000010283F8C92193F8B42102F00F0242F08E
:10057000200283F8B421704700800041064B4022DE
:10058000C3F814214322C3F88C20044A136A43F0B1
:1005900008031362704700BF001C004000080040C1
:1005A00008B5044B984704490448054B9847054B48
:1005B000984708BD7D050000000C00438003002023
:1005C000010B00001D050000044A936943F48043B9
:1005D00093614022024BC3F8E820704700080040B6
:1005E000001C0040044A136A43F040031362402297
:1005F000024BC3F81C21704700080040001C00405B
:1006000008B5194B9847194B40225A619A6002F17C
:1006100080429A624FF04041996293F8462002F07E
:10062000FE0283F846200122C3F89820C3F88820F0
:1006300002F18042C3F8A820C3F8A81093F8C020A4
:1006400002F0FE0283F8C020094B9847094B9847F7
:10065000094B9847094B9847094B9847094B9847CE
:10066000094B984708BD00BF210D000000800041E4
:10067000E1030000F5040000A1050000C905000029
:10068000991D0000E50500005D1E00000122114BD0
:10069000C3F8982003F500539B6BDA680E4B9A421F
:1006A0000DD00E4B022283F8442001200949C1F8E5
:1006B000940083F854200022094B1A7070470123DC
:1006C000074A1370074A13704FF48022064BDA6012
:1006D000704700BF008000417805002000A0004165
:1006E000880500204005002000E100E030B40C88BF
:1006F000A4B244F001040C800C88A4B244F00604B7
:100700000C800C88A4B224F01804BDF80C50ED0045
:1007100005F018052C430C800C88A4B224F4407416
:10072000A4B20C80032814D8DFE800F00239254B6E
:10073000088880B240F480600880088880B220F485
:10074000006080B208801A4448684A608A68264A75
:100750008A600A8892B222F4805292B20A800A8891
:10076000C2F30C020A809BB24A884B80CB68029B82
:10077000CB6030BC70470A8892B222F4806292B299
:100780000A800A8892B222F4006292B20A80174A62
:10079000126848684A608A68134A8A60D9E70888FC
:1007A00080B220F4806080B20880088880B240F473
:1007B0000060088048680C4848601A4488688A606D
:1007C000C7E70A8892B222F4806292B20A800A884D
:1007D00092B222F4006292B20A804A68024A4A60E7
:1007E0008A68034A8A60B4E728040043109A00002C
:1007F00040040020F0B583B0164A937A43F0010319
:1008000093720122144B1A70144B1B7883B100238E
:1008100001931146124AC2F8941002F500520221C7
:1008200082F8441082F854100C4A137003B0F0BDE3
:100830000B4B0125C3F89850084E00243470C3F8C0
:10084000945021462046074FB84721462846B847CE
:100850003470EBE7001800434105002088050020B4
:1008600000800041151000002DE9F04F83B0DFF843
:10087000B881614F02260196DFF8B091CDF8009063
:100880001323D8F80420394600205C4DA847D8F837
:1008900008B001965A4C009443235A46494600201A
:1008A000A847584B1A68DFF888910196CDF8009058
:1008B0000B2321460020A84700240194DFF874A1EF
:1008C000CDF800A003235A4649462046A847019682
:1008D000DFF864B1CDF800B040234B4A51462046C2
:1008E000A8470196DFF854A1CDF800A01323D8F84B
:1008F0000C2059462046A847D8F810200194DFF86C
:100900004081CDF80080032351462046A847019638
:10091000CDF800904023224641463046A847DFF8F4
:1009200024810196DFF82091CDF800901323224610
:1009300041460320A8470196DFF810A1CDF800A09A
:100940004323224649460320A847DFF80491019635
:10095000CDF800900B23224651460320A84701966C
:10096000DFF8F0A0CDF800A043232246494603203B
:10097000A8470196DFF8E0B0CDF800B01323224677
:1009800051460320A8470194DFF8D0A0CDF800A07D
:100990000323224659461846A8470196CDF80090F1
:1009A0004023194A1A4451460120A847174D184AB6
:1009B00031462846174B9847D8F80C30009398E8F2
:1009C0000E002046144EB047FB68009397E80E00D7
:1009D0000120B0472846114B98470126104BC3F819
:1009E0009460214620460F4DA84721463046A8472F
:1009F00003B0BDE8F08F00BF30050020ED06000019
:100A0000580500200000002080040020A0030020E2
:100A10008D060000A90C00009D100000810C000054
:100A20000080004115100000109A000060040020B2
:100A3000100400203004002020050020680500205C
:100A40002004002070040020000500201005002074
:100A500078050020F0030020000400204805002055
:100A600010B5044B1C68044B984701462046034BC5
:100A7000984710BD7C010020E10C0000190D00001A
:100A800010B5044B1C68044B984701462046034BA5
:100A9000984710BD7C010020F90C0000190D0000E2
:100AA00010B584B00389ADF80430144602924FF4B7
:100AB0000043ADF80630039101A91438034B984761
:100AC00010B9204604B010BD0446FAE7A117000093
:100AD00010B584B00389ADF804301446029248F290
:100AE0000103ADF80630039101A91438034B984770
:100AF00010B9204604B010BD0446FAE7A117000063
:100B000038B50D4604465E220849003018BF012062
:100B1000074B984729462046064B9847034618B985
:100B2000054AA261054A6261184638BD249A000050
:100B3000D90C0000F9160000D10A0000A10A00003B
:100B400008B5014B984708BD29170000C1F30901FA
:100B500002F480620A4382831046704714300860B2
:100B60000020704770B50D461646044668B151B175
:100B7000012034220649074B98472368324629460C
:100B80002046984770BD0020F3E70020F1E700BF42
:100B9000409A0000D90C000070B50D461646044678
:100BA00068B151B101203D220649074B984763685F
:100BB000324629462046984770BD0020F3E70020C2
:100BC000F1E700BF409A0000D90C000070B50D4657
:100BD0001646044698220749003018BF0120064BEC
:100BE0009847334600222946A4F12000034CA04731
:100BF00070BD00BF549A0000D90C0000851C000095
:100C000070B50D461646044681220749003018BFCC
:100C10000120064B984733462A460021A4F12000C4
:100C2000034CA04770BD00BF549A0000D90C0000CF
:100C3000851C000038B50C460546A8B191B10120CD
:100C40003B220A490A4B9847284640F8044F214660
:100C5000084B9847034618B9074AAA62074A6A62CE
:100C6000184638BD0020EBE70020E9E7549A000061
:100C7000D90C0000511A0000010C0000CD0B00003F
:100C800010B5044651220549003018BF0120044B1D
:100C90009847201D034B984710BD00BF549A000091
:100CA000D90C0000CD1B000070B50D461646044659
:100CB000A8220649003018BF0120054B984732464C
:100CC0002946201D034B984770BD00BF549A000071
:100CD000D90C0000011C000000B900BE70470000E4
:100CE000642303FB00F00230024BA3FB00304008FA
:100CF000704700BFABAAAAAA642303FB00F3023328
:100D00000448A0FB03235B084FF47A7000FB03F058
:100D1000704700BFABAAAAAA0139FDD8704700BF2F
:100D200008B50D4A13889BB243F4C06313800B4B84
:100D300098470B4B98470B4B98470B4B984740F6FF
:100D4000FF700A4B98470A4A136943F40073136112
:100D5000084B984708BD00BF00400041F910000053
:100D60000D110000ED10000029110000C910000055
:100D700000080040F90D000008B51D4A138C03F06F
:100D80001F031C4800EB0310128C12F4807F0AD161
:100D9000174A128C12F4007F10D1154A128C12F4EB
:100DA000806F17D108BD1B0103F1824202F520427A
:100DB000012182F84E104368984708BD1B0103F1DA
:100DC000824202F52042022182F84E10094AD3588D
:100DD000984708BD1B0103F1824202F5204204211D
:100DE00082F84E10034A13449B689847DAE700BF25
:100DF00000A000418001002030B43D4A13889BB21E
:100E000023F002039BB2138053889BB223F47C53DC
:100E10009BB2538013889BB243F001031380344B81
:100E20001B8813F0010FFAD1314A4FF4706313801D
:100E3000537B03F0FE0343F001035373002353611C
:100E40002C4951632C49916316E02C4A52F83350D7
:100E5000274C191D09016018655002EBC302117976
:100E6000417151798171D48822491A0188188C52B4
:100E70000022C2600133DBB21F2BE6D900230AE057
:100E800003F11F010AB2002A10DA002A1CDA002A34
:100E900024DA0133DBB2042BF2D9154A13889BB252
:100EA00043F002031380002030BC7047500901F06A
:100EB0001F050124AC402030114D45F82040BFF300
:100EC0004F8FBFF36F8FE0E7500901F01F0501243A
:100ED000AC4060300A4D45F82040D8E7520901F097
:100EE0001F01012000FA01F1054840F82210D0E767
:100EF00000A000419005002090070020709A00009B
:100F000000E100E091B942B9000100F1824000F532
:100F10002040022380F84C307047000100F18240ED
:100F200000F52040022380F84D307047012902D09F
:100F3000022912D070473AB9000100F1824000F551
:100F4000204080F84C107047000100F1824000F50D
:100F50002040012380F84D30704742B1000100F17C
:100F6000824000F52040042380F84D30E2E7000184
:100F700000F1824000F52040042380F84C30704797
:100F8000024B03EB001081600020704790050020A9
:100F9000024B03EB001041600020704790050020D9
:100FA000054A0001135A9BB223F4806343EA81216E
:100FB00089B21152002070479005002030B4144CC3
:100FC0000201A3189D68A35AC3F30123A25A12F485
:100FD000006F06D001FA03F42C440D4A02EB001214
:100FE00094600B4C0201A5186D68A25A12F4806F30
:100FF00005D001FA03F32B4404EB0012536089B2CD
:10100000034B03EB00104180002030BC704700BF51
:101010009005002010B40C4C0201A35A9BB243F07F
:101020000103A352094C031D1B01E25842F00202C6
:10103000E25029B1012303FA00F022691043206134
:1010400000205DF8044B70479005002000A000418F
:10105000024B03EB0111016000207047800100206A
:1010600008B5014B984708BD790D000008B5014B44
:10107000984708BD790D000008B5014B984708BD99
:10108000790D000008B5014B984708BD790D0000A7
:1010900008B5014B984708BD790D000084B070B4C5
:1010A00085B0064609A880E80E000FC88DE80F003D
:1010B000044D05EB061585E80F0005B070BC04B0C3
:1010C000704700BF9005002010F0010F08D0054ABE
:1010D000054B1A62044B5A6843F6FD731A42F9D164
:1010E000704700BF08010100001C00400122014BB5
:1010F0005A71704700080040034BDA6902F47C52D1
:10110000DA6101221A74704700140040044A054B4A
:101110009A61044B1B6913F0020FFAD0704700BFAD
:10112000062600030010004031220E4B9A640D4B3E
:101130001B6D13F0060FFAD10A4B0B4ADA64022238
:1011400083F84420074B1B6D13F0020FFAD1054BB7
:101150005B6D13F0010F04D1024B5B6D13F0020FB6
:10116000F5D07047001000406000020000B583B069
:101170000D4B9B78DBB20193019B13F0020F06D05D
:101180000A4B1B681BB1084A5068984709E0019B4D
:1011900013F0010F05D0054B5B6813B1024A50688C
:1011A000984703B05DF804FB00000241900900205D
:1011B00070B489B006466C460C4D0FCD0FC495E84F
:1011C0000F0084E80F00002007280AD808AB03EBC3
:1011D000800353F8203CB34201D00130F4E7C0B2A1
:1011E00000E0002009B070BC704700BF709B000099
:1011F000C36913F0010F09D1036843F002030360D0
:10120000C36913F0030FFBD1002070476FF0030098
:101210007047C36913F0040F09D1436843F40033E6
:101220004360C36913F0170FFBD1002070476FF0C4
:1012300003007047C36913F0040F09D1436823F416
:1012400000334360C36913F0170FFBD100207047D0
:101250006FF0030070472830704728307047000057
:1012600008B5044B9847052801D0002008BD01208F
:1012700008BD00BFB111000008B5044B9847052810
:1012800001D0002008BD012008BD00BFB111000041
:1012900008B5074B9847072807D8DFE800F0040493
:1012A000040404060404012008BD002008BD00BF9A
:1012B000B111000008B5C3689B6803B1984708BD29
:1012C00008B5C368DB6803B1984708BD08B5C368B3
:1012D0005B6803B1984708BD08B5C3681B6903B1D3
:1012E000984708BD08B50E4B98470023012B0DD831
:1012F00003EB4302D1000B4A0A4492F83820904293
:1013000002D00133DBB2F1E758B208BD40F2A73298
:1013100005490020054B98474FF0FF3008BD00BF3E
:10132000B1110000709B0000FC9B0000D90C000074
:1013300038B505460C460846334B9847C0B2E369BA
:1013400013F0010F22D100EB4003DA002F4B1344BE
:10135000DA6B02F01C02E36913F0030FFBD1236880
:1013600013F0020F0BD0236823F002032360E3691C
:1013700013F0030FFBD1E36913F0020FFBD142F02E
:1013800001022260E36913F0030FFBD1E36913F05C
:10139000010FFBD100EB4003DA001C4B1344DB6B65
:1013A0002360E36913F0030FFBD100EB4003DA0085
:1013B000164B13441B6C6360E36913F0040FFBD1FD
:1013C00042000244D100114B0B445A6CE26093F886
:1013D0003F3003F00303AB81012B94BF00230123B3
:1013E000626A22F4804242EA83336362E36913F063
:1013F000040FFBD100EB4000C200044B1344B3F8D0
:101400004A30EB81002038BDE5120000709B0000DF
:1014100070B5054604692668C6F3C06640F2A65258
:101420009949003018BF0120984B98476B68012BF1
:1014300057D0636823F480236360E36913F0040FDB
:10144000FBD12B8813F4806F56D06A8812F0010FFD
:1014500004D06A8892B242F480626A8040F2FE72DE
:1014600002EA4302E36913F0040FFBD1636A03F459
:101470008043134343F400436362E36913F0040FB2
:10148000FBD12E694FF6FF72337EDBB21846511E38
:101490001AB10A4613F0030FF6D02268C2F3C062F5
:1014A000E36913F0040FFBD1638B9BB210F0010FC3
:1014B00000F09C8013F0020F32D0012222766A885D
:1014C00092B242F480526A806A8892B222F48072A8
:1014D00092B26A8013F0010F00F0D1806FF0040027
:1014E00070BD002EA5D0636843F480236360E36978
:1014F00013F0040FFBD1A4E75B00DBB26A8802F0B3
:1015000001021A43E36913F0040FFBD1636A03F489
:10151000804313436362E36913F0040FFBD1B0E728
:1015200013F0040F1FD16B8813F4806F39D02B8810
:101530001B125B0003F00602E36913F0040FFBD1FA
:10154000636A03F48043134343F0F1036362E36986
:1015500013F0040FFBD16B889BB223F480639BB222
:101560006B80002070BD6B68002B04DD6B889BB224
:1015700043F480536B806B8813F4004F08D16B8861
:101580009BB223F480739BB26B806FF0010070BD3F
:10159000636843F440336360E36913F0040FFBD1E5
:1015A000EDE7686898B96B8813F4004F06D16B8833
:1015B0009BB223F480739BB26B8070BD636843F46D
:1015C00040336360E36913F0040FFBD1EFE7AB68CE
:1015D0001B78A362E36913F0040FFBD1AB680133FE
:1015E000AB606B68013B6B60002070BD10F0020FB8
:1015F00048D0696800293DD013F0040F3AD1013971
:10160000696001B9E2B1012918D06B684BB96B88E8
:1016100013F4004F1DD16B889BB223F480739BB2EF
:101620006B80AA68531CAB60E36913F0040FFBD115
:10163000A36A137002232376002070BD002AE4D031
:10164000636843F480236360E36913F0040FFBD104
:10165000DBE7636823F480736360E36913F0040FCE
:10166000FBD1636843F440336360E36913F0040F14
:10167000FBD1D0E7022323766FF0010070BD6FF03D
:10168000030070BD002070BDFC9B0000D90C000061
:1016900010B5044668B103684BB1012040F6FE3234
:1016A0000549064B98472068054B984710BD002018
:1016B000F4E70020F2E700BFFC9B0000D90C00001B
:1016C0001312000010B5044668B103684BB1012045
:1016D00040F605420549064B98472068054B984758
:1016E00010BD0020F4E70020F2E700BFFC9B0000E3
:1016F000D90C00003512000038B50D46044640F202
:1017000019520649003018BF0120054B9847256142
:1017100029462046034B984738BD00BFFC9B00007C
:10172000D90C00003113000070B51B4E044640F286
:1017300036523146003018BF0120184DA8472469A1
:1017400040F206623146201C18BF0120A8472368DA
:1017500043F002032360E36913F0030FFBD104217C
:101760004FF6FF72E36913F0040FFBD1638BC3F3F1
:101770000113012B0BD0013A002AF3DC013908D008
:1017800010236383E36913F0040FFBD1E8E7002023
:1017900070BD6FF0050070BDFC9B0000D90C00000F
:1017A0002DE9F04105460E460469DFF8A08240F2BB
:1017B000D1524146003018BF0120A24FB8472869D6
:1017C00040F2D2524146003018BF0120B84740F2E3
:1017D000D3524146301C18BF0120B8476B8813F420
:1017E000807F40F02A8173889BB243F480737380BA
:1017F00096E8070085E80700636843F48073636038
:10180000E36913F0040FFBD128468F4B984703463A
:10181000002800F0B0806A8892B222F4807292B2FE
:101820006A80BDE8F0816FF00400B7E0738813F4BC
:10183000004F07D16B889BB223F480739BB26B80FF
:10184000BDE8F081636843F440336360E36913F0FB
:10185000040FFBD1EEE713F0040F1FD16B8813F4D4
:10186000806F39D02B881B125B0003F00602E369FE
:1018700013F0040FFBD1636A03F48043134343F076
:10188000F1036362E36913F0040FFBD16B889BB231
:1018900023F480639BB26B8000206BE06B68002BAD
:1018A00004DD6B889BB243F480536B806B8813F428
:1018B000004F08D16B889BB223F480739BB26B807E
:1018C0006FF0010056E0636843F440336360E369FE
:1018D00013F0040FFBD1EDE7686898B96B8813F437
:1018E000004F06D16B889BB223F480739BB26B8050
:1018F00040E0636843F440336360E36913F0040F2E
:10190000FBD1EFE7AB681B78A362E36913F0040F28
:10191000FBD1AB680133AB606B68013B6B600020AF
:1019200028E017F0020F00F083806968002977D063
:1019300013F0040F74D10139696009B9002A55D038
:10194000012951D06B684BB96B8813F4004F56D105
:101950006B889BB223F480739BB26B80AA68531C84
:10196000AB60E36913F0040FFBD1A36A1370022389
:101970002376002003466A8812F4807F5AD02869B3
:101980004FF6FF72037EDBB21F46511E002A3FF462
:101990004AAF0A4613F0030FF4D0002000287FF46A
:1019A00045AF2268C2F3C062E36913F0040FFBD1B4
:1019B000638B9BB217F0010FB3D013F0020F3FF40B
:1019C0004AAF012222766A8892B242F480526A803B
:1019D0006A8892B222F4807292B26A8013F0010F88
:1019E00023D06FF00400C5E7002AABD0636843F44E
:1019F00080236360E36913F0040FFBD1A2E76368FF
:101A000023F480736360E36913F0040FFBD1636810
:101A100043F440336360E36913F0040FFBD197E7AD
:101A2000022323766FF00100A4E76FF00300A1E723
:101A300000209FE71846BDE8F0816FF00500BDE883
:101A4000F08100BFD90C000011140000FC9B0000C5
:101A500070B505460C460846504B98470023002BAE
:101A600072D00026002D7BD0002C77D0012040F6CC
:101A7000B3424B494B4B9847002E00F08B80E369F3
:101A800013F0010F1DD1336803F01C02E36913F05A
:101A9000030FFBD1236813F0020F0BD0236823F050
:101AA00002032360E36913F0030FFBD1E36913F032
:101AB000020FFBD142F001022260E36913F0030F31
:101AC000FBD1E36913F0010FFBD12C60002C4BD04C
:101AD000002E47D0012040F60A123149314B984779
:101AE000336823F4817323F001032360E36913F067
:101AF000030FFBD1736823F4383323F4107343F4DA
:101B000000336360E36913F0170FFBD1337B23735A
:101B1000737B84F830302046234B984730BB2046F7
:101B2000224B9847014605F11C00214B9847EB6971
:101B3000DD60EB691F4A1A60EB691F4A5A60EB6966
:101B40001E4A9A60002070BD052802D00133DBB226
:101B500085E703EB03161A4B1E4483E7002086E754
:101B6000002084E70020B6E70020B4E72046154BAC
:101B70009847014605F11C000D4B9847EB69DD6065
:101B8000EB69114A1A60EB690B4A5A60EB690B4A20
:101B90009A60C4E76FF00C0070BD00BFB111000087
:101BA000FC9B0000D90C00007912000061120000BB
:101BB00051100000CD120000D9120000C112000027
:101BC000E89B000091120000B512000010B5044619
:101BD00068B103684BB1012040F6E1420549064B6C
:101BE00098472068054B984710BD0020F4E7002077
:101BF000F2E700BFFC9B0000D90C0000F1110000CF
:101C000070B505461446032935D8DFE801F0020D0A
:101C10002A186A600068184B9847221C18BF0122D6
:101C20000021164B984770BDAA600068144B984776
:101C3000221C18BF01220021104B984770BD2A6159
:101C400000680F4B9847003418BF01242246012139
:101C50000A4EB0472868084B984722460121B047F2
:101C600070BDEA600068064B9847221C18BF01222D
:101C70000221024B984770BD61120000050F000061
:101C8000911200002DE9F0470546894690461F460F
:101C900004682046334B98470023002B3FD04FF079
:101CA000000A2046304B9847064620462F4B98475F
:101CB0000446B8F1000F3CD028462D4B98472868C1
:101CC0002C4B9847014630462B4B984741463046AF
:101CD0002A4B984739463046294B984700213046D1
:101CE000284B9847B9F1000F27D049462046224B90
:101CF00098472868244B9847014620461F4B984731
:101D000001212046214B9847394620461C4B9847D5
:101D1000002120461B4B98470020BDE8F08705288E
:101D200002D00133DBB2B8E703EB031A184B9A4435
:101D3000B7E72846174B9847D4E70AF10E0120462B
:101D40000D4B98472868104B9847014620460B4B8F
:101D50009847002120460D4B984739462046084BAE
:101D60009847D5E7B1110000911200006112000000
:101D70009116000057120000910F0000810F000023
:101D8000BD0F0000151000005B120000A10F000045
:101D9000E89B0000C51600002F4B1B6913F0010FD4
:101DA00020D12D4B1B6913F0030FFAD12A4B1B686E
:101DB00013F0020F0ED0284A136823F002031360B9
:101DC000254B1B6913F0030FFAD1234B1B6913F04A
:101DD000020FFAD10122204B1A601F4B1B6913F02E
:101DE000030FFAD11C4B1B6913F0010FFAD14FF40A
:101DF000A062194B1A60184B1B6913F0030FFAD13C
:101E0000154B00225A71FF221A7101221A7343F6F0
:101E100008529A83104B1B6913F0C00FFAD141F698
:101E200069020D4BDA830C4B1B6913F0C00FFAD11A
:101E3000094B4FF48072DA8021225A72DE221A7224
:101E40001A6842F002021A60034B1B6913F0030F79
:101E5000FAD10020704700BF00C00141294B1B6927
:101E600013F0010F20D1274B1B6913F0030FFAD198
:101E7000244B1B6813F0020F0ED0224A136823F084
:101E8000020313601F4B1B6913F0030FFAD11D4BA4
:101E90001B6913F0020FFAD101221A4B1A60194B79
:101EA0001B6913F0030FFAD1164B1B6913F0010FD6
:101EB000FAD14FF48062134B1A60124B1B6913F076
:101EC000030FFAD10F4B00225A71FF221A7101221F
:101ED0001A7341F669029A830A4B1B6913F0C00F0B
:101EE000FAD1084B01225A72FE221A721A6842F085
:101EF00002021A60034B1B6913F0030FFAD1002092
:101F0000704700BF001800432DE9F84F04460D4606
:101F100017461E46022900F0BB80032900F0768197
:101F2000012901D0BDE8F88F00F54678034600F599
:101F3000847200F504714046DFF8C492C84704F289
:101F4000144241462846AC4B984704F6844904F6AF
:101F5000245A04F6C45B5B46524649464046DFF8C5
:101F6000A482C0475B465246494604F5915004306E
:101F7000DFF89482C047012F16D0022F33D0012EF4
:101F800050D0022E63D09D4B1A6841F26C23E35C63
:101F9000013B03EB43032B4407EE903AF8EEE77A5C
:101FA000C2ED087ABDE8F88F944B1A68D4F818137C
:101FB00011601B68D4F824235A60D4F830239A6047
:101FC000D4F81C235A61D4F828239A61D4F8342316
:101FD000DA61D4F82023DA62D4F82C231A63D4F817
:101FE00038235A63CBE7854B1A68D4F83C13116049
:101FF0001B68D4F848235A60D4F854239A60D4F864
:1020000040235A61D4F84C239A61D4F85823DA61FA
:10201000D4F84423DA62D4F850231A63D4F85C234A
:102020005A63ACE7754B1B68D4F85423DA60D4F8D4
:1020300060231A61D4F858235A62D4F864239A6250
:10204000D4F85C239A63D4F86823DA639BE76B4B7C
:102050001B6804F5915204321268DA6004F591525B
:10206000083212681A6104F591520C3212685A62F1
:1020700004F59152103212689A6204F591521432AA
:1020800012689A6304F5915218321268DA637AE79B
:1020900000F55B7800F1580300F5B07200F51A7195
:1020A0004046DFF85C91C84704F214424146284696
:1020B000514B984704F6646904F6047A04F6A47B4D
:1020C0005B46524649464046DFF83881C0475B468A
:1020D0005246494604F591501C30DFF82C81C04728
:1020E000012F16D0022F33D0012E50D0022E63D0F4
:1020F000424B1A6841F26C23E35C013B03EB430360
:102100002B4407EE903AF8EEE77AC2ED087ABDE884
:10211000F88F3A4B1A68D4F86C1311601B68D4F826
:1021200078235A60D4F884239A60D4F870235A61D3
:10213000D4F87C239A61D4F88823DA61D4F8742324
:10214000DA62D4F880231A63D4F88C235A63CBE77D
:102150002A4B1A68D4F8901311601B68D4F89C239A
:102160005A60D4F8A8239A60D4F894235A61D4F81A
:10217000A0239A61D4F8AC23DA61D4F89823DA6208
:10218000D4F8A4231A63D4F8B0235A63ACE71B4BEA
:102190001B68D4F8A823DA60D4F8B4231A61D4F801
:1021A000AC235A62D4F8B8239A62D4F8B0239A6365
:1021B000D4F8BC23DA639BE7104B1B6804F59152FB
:1021C0001C321268DA6004F5925212681A6104F542
:1021D0009252043212685A6204F59252083212681E
:1021E0009A6204F592520C3212689A6304F5925284
:1021F00010321268DA637BE7A166000074000020E9
:102200009D640000717D0000297E000000F570785B
:1022100000F1B00300F5DC7200F530714046DFF8E4
:102220007491C84704F2144241462846574B9847D8
:1022300004F5825909F1040904F5875A0AF1040AE0
:1022400004F58C5B0BF1040B5B4652464946404655
:10225000DFF84481C0475B465246494604F5925038
:102260001430DFF83881C047012F15D0022F32D04B
:10227000012E51D0022E69D0454B1A6841F26C23D1
:10228000E35C013B03EB43031D4407EE905AF8EE79
:10229000E77AC2ED087A45E63D4B1A68D4F8C013D8
:1022A00011601B68D4F8CC235A60D4F8D8239A6004
:1022B000D4F8C4235A61D4F8D0239A61D4F8DC232B
:1022C000DA61D4F8C823DA62D4F8D4231A63D4F8D4
:1022D000E0235A63CCE72E4B1A68D4F8E41311605C
:1022E0001B68D4F8F0235A60D4F8FC239A60D4F821
:1022F000E8235A61D4F8F4239A6104F580621268E5
:10230000DA61D4F8EC23DA62D4F8F8231A6304F221
:10231000044212685A63ABE71D4B1B68D4F8FC23D8
:10232000DA6004F5816212681A6104F5806212684D
:102330005A6204F20C4212689A6204F20442126871
:102340009A6304F582621268DA6395E7104B1B68A2
:1023500004F5925214321268DA6004F5925218327F
:1023600012681A6104F592521C3212685A6204F51E
:10237000935212689A6204F59352043212689A6377
:1023800004F5935208321268DA6375E7A16600001B
:10239000740000209D640000717D0000297E000013
:1023A00080B588B0A34B9847A34B9847DFF8FC82D1
:1023B000A24E41463046A24FB8473046A14CA047F6
:1023C000A14DA2492846B8472846A0474022A04B25
:1023D0005A6100239F4A13709F4A13709F4A1370DB
:1023E0009F4A13709F4D28469F4B98479F4B1880DC
:1023F00001239F4A13709F4A13709F4A13709F4A8C
:1024000013709F4F02223A70A5F5307485F8AC3FE7
:10241000D8F80030069305960495A5F15803039368
:10242000A5F1B0030293A5F584730193A5F5B073EC
:102430000093A5F5DC73A5F50472A5F51A71204685
:10244000904EB04795F8AC1F05F5AA708E4B984793
:1024500005F6C4630493A03B0393A03B029305F6E7
:10246000E443019305F64443009305F6A43305F6CF
:10247000043205F6642105F6C410844CA0470A20F6
:10248000834B98473B78022B52D00A20804B9847C9
:102490004FF480427F4BDA606F4B1B78002B00F0CB
:1024A00083806C4B1B7893B16C4B1B787BB9714B61
:1024B0001B78012B00F082806E4B1B78022B00F002
:1024C0009B800022634B1A700122644B1A70634B8D
:1024D0001B78002BE0D0704B1B78002BDCD0604BBE
:1024E0001B78002BD8D1634B1B78012B00F0E480C4
:1024F000604B1B78022B00F0E9805D4A13780133B2
:10250000DBB21370644A1278042BC5D10122584BF8
:102510001A7058490B781344DBB20B7050490A709B
:10252000574A12789342B7D90122524B1A70B3E737
:102530005A4C41F26C256355444B1B680693424B41
:10254000059304F53073049304F51A73039304F5AB
:102550000473029304F5DC73019304F5B0730093E4
:1025600004F5847304F1B00204F158012046B04729
:10257000615D04F21440444B9847494B0493A03BDF
:102580000393A03B029304F6A473019304F604732F
:10259000009304F6646304F6C45204F6245104F66E
:1025A00084403A4CA04770E732203E4B98470122C6
:1025B000294B1A700022294B1A7072E73A49A1F58B
:1025C00084703A4B1B6806931C4B059300F53073DF
:1025D000049300F51A73039300F50473029300F556
:1025E000DC73019300F5B07300930B46A1F1580220
:1025F000B0392F4CA0475FE72E49A1F58470134BEB
:102600001B680693104B059300F53073049300F597
:102610001A73039300F50473029300F5DC730193BE
:1026200000F5B07300930B46A1F15802B039204C6D
:10263000A04746E7D102000069080000D00300204F
:102640005D0B0000410B000080030020201C0020D7
:1026500000800041141C0020281C00201D1C0020AC
:10266000251C0020EC1E0020555D0000261C0020CB
:10267000A1090020291C0020A0090020151C002011
:10268000241C00203D63000049270000517D00000C
:10269000810A000000E100E040050020A4090020BC
:1026A000281B00203D620000341D0020181C002063
:1026B00081620000AC0A0020094B1B78094A12789D
:1026C0000949097809480A4CA04711E7044B1B78CF
:1026D000044A1278044909780648054CA0470CE7DB
:1026E000A0090020151C0020A10900202C1C00209E
:1026F000091F0000A40900200F4B9B7A13F0010F63
:1027000010D10D4B9B7A13F0200F0AD00A4A937A0E
:1027100043F0200393720122084B1A700022084BE9
:102720001A707047044A937A43F0010393720022AF
:10273000044B1A70704700BF00C00141141C0020F8
:10274000251C0020281C0020012903D0022901F0AB
:10275000A38370472DE9F04FDFEDD94AC0ED004A61
:102760009FEDD85A80ED035ADFEDD75AC0ED065AD7
:102770009FEDD66A80ED096ADFEDD56AC0ED0C6A7F
:102780009FEDD47A80ED0F7ADFEDD37AC0ED127A27
:10279000DFF8E8B4C0F854B0DFF8E4A4C0F860A0F3
:1027A000DFF8E094C0F86C90DFF8DC84C0F8788043
:1027B000DFF8D8C4C0F884C0DFF8D4E4C0F890E0F3
:1027C000C64FC0F89C70C64EC0F8A860C54DC0F892
:1027D000B450C54CC0F8C040C449C0F8CC10C44A7D
:1027E000C0F8D820C34BC0F8E4309FEDC34A80ED59
:1027F0003C4A9FEDC24A80ED3F4A9FEDC14A80EDC1
:10280000424A9FEDC04A80ED454A9FEDBF4A80EDA8
:10281000484A9FEDBE4A80ED4B4A9FEDBD4A80ED90
:102820004E4A9FEDBC4A80ED514A9FEDBB4A80ED78
:10283000544A9FEDBA4A80ED574A9FEDB94A80ED60
:102840005A4A9FEDB84A80ED5D4A9FEDB74A80ED48
:10285000604A9FEDB64A80ED634A9FEDB54A80ED30
:10286000664A9FEDB44A80ED694A9FEDB34A80ED18
:102870006C4A9FEDB24A80ED6F4A9FEDB14A80ED00
:10288000724A9FEDB04A80ED754A9FEDAF4A80EDE8
:10289000784A9FEDAE4A80ED7B4A9FEDAD4A80EDD0
:1028A0007E4A9FEDAC4A80ED814A9FEDAB4A80EDB8
:1028B000844A9FEDAA4A80ED874A9FEDA94A80EDA0
:1028C0008A4A9FEDA84A80ED8D4A9FEDA74A80ED88
:1028D000904A9FEDA64A80ED934A9FEDA54A80ED70
:1028E000964A9FEDA44A80ED994A9FEDA34A80ED58
:1028F0009C4A9FEDA24A80ED9F4A9FEDA14A80ED40
:10290000A24A9FEDA04A80EDA54A9FED9F4A80ED27
:10291000A84A9FED9E4A80EDAB4A9FED9D4A80ED0F
:10292000AE4A9FED9C4A80EDB14AC0ED014A80ED70
:10293000045AC0ED075A80ED0A6AC0ED0D6A80EDB9
:10294000107AC0ED137AC0F858B0C0F864A0C0F88F
:102950007090C0F87C80C0F888C0C0F894E0C0F8DF
:10296000A070C0F8AC60C0F8B850C0F8C440C0F85F
:10297000D010C0F8DC20C0F8E830874BC0F8F43045
:10298000864BC0F80031864BC0F80C31854BC0F83F
:102990001831854BC0F82431844BC0F83031844B5A
:1029A000C0F83C31834BC0F84831834BC0F85431F8
:1029B000824BC0F86031824BC0F86C31814BC0F85B
:1029C0007831814BC0F88431804BC0F89031804B16
:1029D000C0F89C317F4BC0F8A8317F4BC0F8B431B0
:1029E0007E4BC0F8C0317E4BC0F8CC317D4BC0F877
:1029F000D8317D4BC0F8E4317C4BC0F8F0317C4BD2
:102A0000C0F8FC317B4BC0F808327B4BC0F8143265
:102A10007A4BC0F820327A4BC0F82C32794BC0F890
:102A20003832794BC0F84432784BC0F85032784B8A
:102A3000C0F85C32774BC0F86832774BC0F874321C
:102A4000764BC0F88032764BC0F88C32754BC0F8AC
:102A50009832754BC0F8A432744BC0F8B032744B46
:102A6000C0F8BC32734BC0F8C832734B8360734BF1
:102A70004361734B0362734BC362734B8363734B4A
:102A80004364734B0365734BC365734B8366734B2E
:102A90004367734BC0F88030724BC0F88C30724B78
:102AA000C0F89830714BC0F8A430714BC0F8B0300A
:102AB000704BC0F8BC30704BC0F8C830EAE000BFC3
:102AC0007C0C0D2A14E92F296FD6452A48F5D4B17C
:102AD000EEB8032BFA4CC0AA0999A8B138CEA4AA23
:102AE000BBC93BB22459C0B84099BB29CC0D563163
:102AF0005C30D838A52C593F867A63AA4C42CF283F
:102B000048217BAAE3027FB1E994122BF919C0A9ED
:102B1000C8F187B0520F39AA095B95B2FFA405BA74
:102B20007EC71BA9B4FD562A4A6FAF30FC43D0A91B
:102B30000C5249B1E2FC8CB781781CA866F1CBB08D
:102B4000AC51DBB7DDE2273E4C8B5A2A5FCD1F2A02
:102B5000EB4B77AA2A347A309311122B4944F9AA05
:102B60003CAA0CB2613BECA9511D6BB2C340F5B954
:102B70007B5BC8289285542AB522EB31836F9F2A4C
:102B8000E8F53932E1B1D5381DAF65AA28803EB2EB
:102B9000616677B953E9BDBF5CD68E2A1AFA392B24
:102BA000CA1A0EAB653DA8B128B03A2A7F883A2BE5
:102BB000CA44143257B27AA950C28DAF3C768C36D3
:102BC000DDEBA3A82A2219AA2B528EABDD80ABA97C
:102BD00065D5A1B2DC5D08BAF683D1AAA04985B259
:102BE000A3FC70B9048C8BBFC01AF32A3A020B2BDA
:102BF000F665AC28904BDA3099BF8728DDE72C2B9F
:102C000092F11C327E168828CE2E1DB0FB54CEB712
:102C100094233BAAEC661E285C1A6A31640986AAD2
:102C20006F73D5B2D7AE18BA1B3009AAC53096B1AA
:102C30003DD083B86C3E21BE3256992BE94FDCA9BA
:102C400017A0B02CB06C4E34C6DD49ABE003892B25
:102C5000B68A9532F009F3A7D08D9EB1E73E1DB933
:102C60001E15F3AA8F7BA42CE5E14734FFF2182C44
:102C70003EAAAC33A6FE3D3A90950F2C3AE709AA3E
:102C80007B0882B2A446FBB9C4189DA9342EE3AADE
:102C9000EEE07AB2B64BC0F8D430B64BC0F8E030B4
:102CA000B54BC0F8EC30B54BC0F8F830B44BC0F8B9
:102CB0000431B44BC0F81031B34BC0F81C31B34BE6
:102CC000C0F82831B24BC0F83431B24BC0F84031B3
:102CD000B14BC0F84C31B14BC0F85831B04BC0F8D3
:102CE0006431B04BC0F87031AF4BC0F87C31AF4BA2
:102CF000C0F88831AE4BC0F89431AE4BC0F8A0316B
:102D0000AD4BC0F8AC31AD4BC0F8B831AC4BC0F8EE
:102D1000C431AC4BC0F8D031AB4BC0F8DC31AB4B5D
:102D2000C0F8E831AA4BC0F8F431AA4BC0F8003221
:102D3000A94BC0F80C32A94BC0F81832A84BC0F808
:102D40002432A84BC0F83032A74BC0F83C32A74B16
:102D5000C0F84832A64BC0F85432A64BC0F86032D7
:102D6000A54BC0F86C32A54BC0F87832A44BC0F824
:102D70008432A44BC0F89032A34BC0F89C32A34BD2
:102D8000C0F8A832A24BC0F8B432A24BC0F8C0328F
:102D9000A14BC0F8CC32A14BC0F8D032A04BC0F848
:102DA000DC32A04BC0F8E8329F4BC0F8F43200236D
:102DB000C0F800339D4BC0F80C339D4BC0F818335E
:102DC0009C4BC0F824339C4BC0F830339B4BC0F86D
:102DD0003C339B4BC0F848339A4BC0F854339A4B62
:102DE000C0F86033994BC0F86C33994BC0F8783316
:102DF000984BC0F88433984BC0F89033974BC0F889
:102E00009C33974BC0F8A833964BC0F8B433964B1D
:102E1000C0F8C033954BC0F8CC33954BC0F8D833CD
:102E2000944BC0F8E433944BC0F8F033934BC0F8A4
:102E3000FC3300F58163924A1A6000F21443914A10
:102E40001A6000F58463904A1A6000F22C438F4A9E
:102E50001A6000F587638E4A1A6000F244438D4A77
:102E60001A6000F58A638C4A1A6000F25C438B4A50
:102E70001A6000F58D638A4A1A6000F27443894A29
:102E80001A6000F59063884A1A6000F28C43874A02
:102E90001A6000F59363864A1A6000F2A443854ADB
:102EA0001A6000F59663844A1A6000F2BC43834AB4
:102EB0001A6000F59963824A1A6000F2D443814A8D
:102EC0001A6000F59C63804A1A6000F2EC437F4A66
:102ED0001A6000F59F637E4A1A6000F204537D4A2F
:102EE0001A6000F5A2637C4A1A6000F21C537B4A08
:102EF0001A6000F5A5637A4A1A6000F23453794AE1
:102F00001A6000F5A863784A1A6000F24C53774AB9
:102F10001A6000F5AB63764A1A6000F26453754A92
:102F20001A6000F5AE63744A1A6000F27C53734A6B
:102F30001A6000F5B163724A1A6000F29453714A44
:102F40001A60714BC0F8D432704BC0F8E032704B4D
:102F5000C0F8EC326F4BC0F8F8326F4BC0F8043356
:102F60006E4BC0F810336E4BC0F81C33DAE000BF74
:102F700027B6FD33DC19A23A9E152E40B44C8B2A9D
:102F80001C72522A4E5AC82C7A575F347FE98F2A16
:102F9000F11792ABFE29A4B2C1B865AA9C1059B230
:102FA0002DB67CB9870522AB81A7542C425434340A
:102FB0003503AB2B15A64F33572ADA398B51302CFA
:102FC0005A3619347A78D03A4ADE8940E06309AA41
:102FD000B9CF422B89A29F2CA3A53C3457DB102CE0
:102FE0000EBBD4ABE11F0DB33398DE2B05F07A3363
:102FF000F679163AA83693AA33F52C2C976A15342D
:103000002DB3DE2B49548F33738C2B3A4C2BA82BCA
:1030100070F39633673ED439B4A216C064C1902BC6
:10302000290BD72B59DFC52A203A11B2217CF62A69
:1030300030CB243241221AAB96B105B30D4635BAD6
:10304000B9AACE2BAC2EEBA9CDBE1FB2BC8AEB2900
:1030500099E58BB001762AB8512A0BAB66161AB3E4
:10306000E71C2EBAF82B4EC0E275E5A81CE7AB2989
:10307000B76EBBAA161508B2B8D7442BBC4F1D2B90
:1030800078D668320CA4B22953313EB2768C0CBA91
:10309000BA3B5C2A9975A129EAAB50B0FE10992978
:1030A00069091531AE2DCA377DF618A89EE41DB109
:1030B000A4CA49B8D8D313BDCCCAB72B337404AB58
:1030C000F2FB3C298B3A57317B82842AC5CA432ABA
:1030D0009826B631AF3BCDAAEBFED9B24EDB28BA6B
:1030E000E14344AAE2987B2B8AF4EB326A2038AAA7
:1030F0007B0872B158827736805D2429CCF38F31FA
:10310000E2F507B5F7BFA5BECD8D35AB930F712B9B
:1031100068919BAB5050E1B211394BAB8A1D8E299F
:10312000672B26B1B04BC0F82833B04BC0F834330E
:10313000AF4BC0F84033AF4BC0F84C33AE4BC0F888
:103140005833AE4BC0F86433AD4BC0F87033AD4B61
:10315000C0F87C33AC4BC0F88833AC4BC0F8943328
:10316000AB4BC0F8A033AB4BC0F8AC33AA4BC0F8A4
:10317000B833AA4BC0F8C433A94BC0F8D033A94B1D
:10318000C0F8DC33A84BC0F8E833A84BC0F8F433E0
:1031900000F58063A64A1A6000F20C43A54A1A6043
:1031A00000F58363A44A1A6000F22443A34A1A601C
:1031B00000F58663A24A1A6000F23C43A14A1A60F5
:1031C00000F58963A04A1A6000F254439F4A1A60CE
:1031D00000F58C639E4A1A6000F26C439D4A1A60A7
:1031E00000F58F639C4A1A6000F284439B4A1A6080
:1031F00000F592639A4A1A6000F29C43994A1A6059
:1032000000F59563984A1A6000F2B443974A1A6031
:1032100000F59863964A1A6000F2CC43954A1A600A
:1032200000F59B63944A1A6000F2E443934A1A60E3
:1032300000F59E63924A1A6000F2FC43914A1A60BC
:1032400000F5A163904A1A6000F214538F4A1A6085
:1032500000F5A4638E4A1A6000F22C538D4A1A605E
:1032600000F5A7638C4A1A6000F244538B4A1A6037
:1032700000F5AA638A4A1A6000F25C53894A1A6010
:1032800000F5AD63884A1A6000F27453874A1A60E9
:1032900000F5B063864A1A6000F28C53854A1A60C2
:1032A00000F5B363844A1A60844BC0F8D832844B6B
:1032B000C0F8E432834BC0F8F032834BC0F8FC32E4
:1032C000824BC0F80833824BC0F81433814BC0F8EE
:1032D0002033814BC0F82C33804BC0F83833804BFF
:1032E000C0F844337F4BC0F850337F4BC0F85C3399
:1032F0007E4BC0F868337E4BC0F874337D4BC0F80A
:1033000080337D4BC0F88C337C4BC0F898337C4BBA
:10331000C0F8A4337B4BC0F8B0337B4BC0F8BC3350
:103320007A4BC0F8C8337A4BC0F8D433794BC0F825
:10333000E033794BC0F8EC33784BC0F8F83300F247
:103340000443774A1A6000F58263764A1A6000F2F5
:103350001C43754A1A6000F58563744A1A6000F2CE
:103360003443734A1A6000F58863724A1A6000F2A7
:103370004C43714A1A6000F58B63704A1A6000F280
:1033800064436F4A1A6000F58E636E4A1A6000F259
:103390007C436D4A1A6000F591636C4A1A6000F232
:1033A00094436B4A1A6000F594636A4A1A6000F20B
:1033B000AC43694A1A6000F59763684A1A6000F2E4
:1033C000C443674A1A6000F59A63664A1A6000F2BD
:1033D000DC43654A1A6000F59D63644A1A6000F296
:1033E000F443634A1A60C5E0F8A90A2BA733B63242
:1033F00049947B3996E4262BB8FE8AAB2091DAB249
:10340000E43732AB591F46B356C381BA56ED5D2A35
:10341000E7C76432FFC5AD3904920240AEF182289D
:10342000871EB62B95C0D329926D25B06B47852694
:10343000C00F65AA2502ABB1163DD7AAE5B25EB2B0
:103440001FC1D8B8F850672B9798CEA9C346EBB1E7
:1034500048F256AAB622DBB259A43BBA9D208D2968
:10346000E1889831DBEDF23834D2DE3E7CA8702959
:1034700005F4BA2B846E522A3A58DB318121AEAA68
:103480004253192A76590EB1100102A92D032DB10C
:103490002FAA4BB8C6E3B82AC0E4432B4A5C4C328F
:1034A0001B3752287EA8BDB2F47C3EBA97D3EEA754
:1034B000068100314ED735384825A33DA1B898ACD8
:1034C0008AD311AD313EF22B22661E3458F76EAB13
:1034D000FD4024AB62389DB2833A5CABDE4A1EB33A
:1034E000F53F22BAB0CF19AD98E48A2C627D2F3413
:1034F000A3B93F2CA9771C34DAA3E13ACBEFA22C75
:10350000B807AF340851C53BCB3B0642A457DD2B6F
:103510002BF8CAAC5DA5F92C6B2E983402BC152C87
:103520009350D52A1FE09832C421722A1F6D6EB0C5
:10353000ABBDE9B8F7C401AD6C5FE02C2D36843427
:10354000740CF62B3E3FBC333F04783A0B75D22CFB
:103550001DDCBC3413E5AA3B412FB64123AD3DA988
:103560003E3D07AB9CE91A2DDE509D343930472C87
:10357000DB4917AC00F5A063A94A1A6000F20C53AE
:10358000A84A1A6000F5A363A74A1A6000F2245300
:10359000A64A1A6000F5A663A54A1A6000F23C53D9
:1035A000A44A1A6000F5A963A34A1A6000F25453B2
:1035B000A24A1A6000F5AC63A14A1A6000F26C538B
:1035C000A04A1A6000F5AF639F4A1A6000F2845364
:1035D0009E4A1A6000F5B2639D4A1A6000F29C533D
:1035E0009C4A1A6000F5B4639B4A1A6000F2AC531F
:1035F0009A4A1A6000F5B763994A1A6000F2C453F8
:10360000984A1A6000F5BA63974A1A6000F2DC53D0
:10361000964A1A6000F5BD63954A1A6000F2F453A9
:10362000944A1A6000F5C063934A1A6000F20C6372
:10363000924A1A6000F5C363914A1A6000F224634B
:10364000904A1A6000F5C6638F4A1A6000F23C6324
:103650008E4A1A6000F5C9638D4A1A6000F25463FD
:103660008C4A1A6000F5CC638B4A1A6000F26C63D6
:103670008A4A1A6000F5CF63894A1A6000F28463AF
:10368000884A1A6000F5D263874A1A6000F29C6388
:10369000864A1A6000F5D563854A1A6000F2B46361
:1036A000844A1A6000F5D863834A1A6000F2CC633A
:1036B000824A1A6000F5DB63814A1A6000F2E46313
:1036C000804A1A6000F5DE637F4A1A6000F2FC63EC
:1036D0007E4A1A6000F5E1637D4A1A6000F21473B5
:1036E0007C4A1A6000F5E4637B4A1A6000F22C738E
:1036F0007A4A1A6000F5E763794A1A6000F2447367
:10370000784A1A6000F5EA63774A1A6000F25C733F
:10371000764A1A6000F5ED63754A1A6000F2747318
:10372000744A1A6000F5F063734A1A6000F28C73F1
:10373000724A1A6000F5F363714A1A6000F2A473CA
:10374000704A1A6000F5F6636F4A1A6000F2BC73A3
:103750006E4A1A6000F5F9636D4A1A6000F2D4737C
:103760006C4A1A6000F5FC636B4A1A6000F2EC7355
:103770006A4A1A6000F5FF63694A1A6000F604039A
:10378000684A1A6000F50163674A1A6000F61C0374
:10379000664A1A6000F62803654A1A6000F6340388
:1037A000644A1A6000F50463634A1A6000F64C0329
:1037B000624A1A6000F65803614A1A6000F6640310
:1037C000604A1A6000F2A4535F4A1A6000F5B663BB
:1037D0005E4A1A6000F2BC535D4A1A6000F5B96394
:1037E0005C4A1A6000F2D4535B4A1A6000F5BC636D
:1037F0005A4A1A6000F2EC53594A1A6000F5BF6346
:10380000584A1A6000F20463574A1A6000F5C2630E
:10381000564A1A6000F21C63554A1A60AAE000BFBB
:1038200080160CB3A75331ACEE5DCEB3A9AA55BA3E
:10383000F1F449ABD033CC2CC5948334F97BE12B24
:10384000EDDA9A33EA02383A72EDCF2C9529B73483
:103850008FB0A43B3019AD41217ADBA85DE430265E
:1038600051BEE82917A00CB1A9D7432A2BF7A3A86A
:1038700015C9ED2FF66D4AAA2F3281B257E7EAB982
:103880004A4B6B2AF04C7A2A615E1A316C48BB2A8B
:10389000E0ED8B32FCCD4D393AC96E296582673136
:1038A0001EEDF4387753B13F410356AA352B362924
:1038B0003E5F65AAC54A1FB15D7AD92A32F7D6A9FB
:1038C0008D87A8B0EF6D50AACDA38EB2D97105BA7D
:1038D0009151D429747B252A6FA517316D00BD291C
:1038E0008FA58531D1E8433850CBF827963D51AEAE
:1038F000C2F073B65CBD863EB312D62A2AB9A4AA1A
:103900000E3B40AA060F1CB19F90002B80781D2B08
:103910009F297E32EBDBEE287A8468B1497999B928
:103920007BBDEDA9570D54299C29853114B3A0AA5C
:1039300042F871B29DC42AB9DFBC26AAFE1431B286
:10394000EBDC98B97A990EC01DA0F9295133CA2A27
:1039500083A544A985FDE3B0D25E432A3C1C9E2981
:10396000AF1EBB3029201DA88BBCCCAFDEDEC3B69A
:10397000633A152900F5C563A94A1A6000F2346359
:10398000A84A1A6000F5C863A74A1A6000F24C639F
:10399000A64A1A6000F5CB63A54A1A6000F2646378
:1039A000A44A1A6000F5CE63A34A1A6000F27C6351
:1039B000A24A1A6000F5D163A14A1A6000F294632A
:1039C000A04A1A6000F5D4639F4A1A6000F2AC6303
:1039D0009E4A1A6000F5D7639D4A1A6000F2C463DC
:1039E0009C4A1A6000F5DA639B4A1A6000F2DC63B5
:1039F0009A4A1A6000F5DD63994A1A6000F2F4638E
:103A0000984A1A6000F5E063974A1A6000F20C7356
:103A1000964A1A6000F5E363954A1A6000F224732F
:103A2000944A1A6000F5E663934A1A6000F23C7308
:103A3000924A1A6000F5E963914A1A6000F25473E1
:103A4000904A1A6000F5EC638F4A1A6000F26C73BA
:103A50008E4A1A6000F5EF638D4A1A6000F2847393
:103A60008C4A1A6000F5F2638B4A1A6000F29C736C
:103A70008A4A1A6000F5F563894A1A6000F2B47345
:103A8000884A1A6000F5F863874A1A6000F2CC731E
:103A9000864A1A6000F5FB63854A1A6000F2E473F7
:103AA000844A1A6000F5FE63834A1A6000F2FC73D0
:103AB000824A1A6000F60803814A1A6000F614036D
:103AC000804A1A6000F502637F4A1A6000F62C03F0
:103AD0007E4A1A6000F638037D4A1A6000F64403F5
:103AE0007C4A1A6000F505637B4A1A6000F65C03A5
:103AF0007A4A1A6000F66803794A1A6000F5B563DD
:103B0000784A1A6000F2B453774A1A6000F5B86335
:103B1000764A1A6000F2CC53754A1A6000F5BB630E
:103B2000744A1A6000F2E453734A1A6000F5BE63E7
:103B3000724A1A6000F2FC53714A1A6000F5C163C0
:103B4000704A1A6000F214636F4A1A6000F5C46389
:103B50006E4A1A6000F22C636D4A1A6000F5C76362
:103B60006C4A1A6000F244636B4A1A6000F5CA633B
:103B70006A4A1A6000F25C63694A1A6000F5CD6314
:103B8000684A1A6000F27463674A1A6000F5D063ED
:103B9000664A1A6000F28C63654A1A6000F5D363C6
:103BA000644A1A6000F2A463634A1A6000F5D6639F
:103BB000624A1A6000F2BC63614A1A6000F5D96378
:103BC000604A1A6000F2D4635F4A1A6000F5DC6351
:103BD0005E4A1A6000F2EC635D4A1A6000F5DF632A
:103BE0005C4A1A6000F204735B4A1A6000F5E263F3
:103BF0005A4A1A6000F21C73594A1A6000F5E563CC
:103C0000584A1A6000F23473574A1A6000F5E863A4
:103C1000564A1A6000F24C73554A1A60AAE000BF77
:103C200090981529CCC831B1559E91AA36B9AEB23B
:103C3000471F06BA028BD8292158D43167CC1439D2
:103C40005586783F792C34292E81022B87D1AF2AD3
:103C5000FE968B3116EF54AA5890052BE17D0B325E
:103C6000429C70AACBBE02B2EF4095B833431B2AE8
:103C70002635242B1D8F07321DD06FAA7E4AB7B27E
:103C80000C650CBA08B0232ADF37F3310B99EC38F6
:103C9000E2DC1E3F73FD01AABE737F2A4F6B3229FF
:103CA000599F2130B0BB61AAACCAC92AC3750A3278
:103CB00085DFD6A98C4978B102F70DB85E8DB0A723
:103CC0004D22B6294A8DAAB066A36FAAA595B1B2B6
:103CD00068B40BBA8BC3C228F42D0F316C2980381D
:103CE0003502DA3E226C3D2AD0E4F5A96762FD2B4D
:103CF000FD76D2336D501BABF61CE2AA21822AB2AC
:103D00007C4929AAD7392FB2495360B91D415DAB0F
:103D1000697339AAC203553345758CAB561E66B319
:103D2000218345BA10A4AA2AD6A5F13204EAC738DD
:103D30005AA360C0EFD3E7A9CAF7F82ACCE68B2CC8
:103D4000C32A3534AC9D722B9AF2C92AC1BE1532F2
:103D5000A63322AA1C8F4AB267BC36B9BA0F9FAAF3
:103D60005D81B22B0110F8336BCFB6ABA25464B3B4
:103D7000B52715BA00F5EB632F4A1A6000F2647399
:103D80002E4A1A6000F5EE632D4A1A6000F27C7329
:103D90002C4A1A6000F5F1632B4A1A6000F2947302
:103DA0002A4A1A6000F5F463294A1A6000F2AC73DB
:103DB000284A1A6000F5F763274A1A6000F2C473B4
:103DC000264A1A6000F5FA63254A1A6000F2DC738D
:103DD000244A1A6000F5FD63234A1A6000F2F47366
:103DE000224A1A6000F50063214A1A6000F60C03AB
:103DF000204A1A6000F618031F4A1A6000F62403CE
:103E00001E4A1A6000F503631D4A1A6000F63C035F
:103E10001C4A1A6000F648031B4A1A6000F6540355
:103E20001A4A1A6000F50663194A1A6000F66C0017
:103E3000184B0360BDE8F08F4C22BB2BAFE6BD33BF
:103E4000EC88873ACDA91D40E333602B736B9DABA3
:103E5000B851A12BCDC2A933F3A0592CBB0B5C2CBC
:103E60008537B1333A4AFC2BD3F1BB33A000903AEB
:103E700026C182AB97E4B2290E215B3388D9E6AB29
:103E8000308FBEB3CE0C9EBA9348FF2AEF40FC326F
:103E90007968FAB8FB79D7C0B04B0360B04BC36008
:103EA000B04B8361B04B4362B04B0363B04BC36311
:103EB000B04B8364B04B4365B04B0366B04BC366F5
:103EC000B04B8367B04BC0F88430B04BC0F8903033
:103ED000AF4BC0F89C30AF4BC0F8A830AE4BC0F829
:103EE000B430AE4BC0F8C030AD4BC0F8CC30AD4BA9
:103EF000C0F8D830AC4BC0F8E430AC4BC0F8F03070
:103F0000AB4BC0F8FC30AB4BC0F80831AA4BC0F843
:103F10001431AA4BC0F82031A94BC0F82C31A94B61
:103F2000C0F83831A84BC0F84431A84BC0F8503124
:103F3000A74BC0F85C31A74BC0F86831A64BC0F85E
:103F40007431A64BC0F88031A54BC0F88C31A54B1D
:103F5000C0F89831A44BC0F8A431A44BC0F8B031DC
:103F6000A34BC0F8BC31A34BC0F8C831A24BC0F87A
:103F7000D431A24BC0F8E031A14BC0F8EC31A14BD9
:103F8000C0F8F831A04BC0F80432A04BC0F8103292
:103F90009F4BC0F81C329F4BC0F828329E4BC0F894
:103FA00034329E4BC0F840329D4BC0F84C329D4B92
:103FB000C0F858329C4BC0F864329C4BC0F8703249
:103FC0009B4BC0F87C329B4BC0F888329A4BC0F8B0
:103FD00094329A4BC0F8A032994BC0F8AC32994B4E
:103FE000C0F8B832984BC0F8C432984B4360984B35
:103FF0000361984BC361984B8362984B4363984B22
:104000000364984BC364984B8365984B4366984B05
:104010000367984BC367984BC0F88830974BC0F83C
:104020009430974BC0F8A030964BC0F8AC30964B0C
:10403000C0F8B830954BC0F8C430954BC0F8D030BC
:10404000944BC0F8DC30944BC0F8E830934BC0F888
:10405000F430934BC0F80031924BC0F80C31924BC6
:10406000C0F81831914BC0F82431914BC0F8303171
:10407000904BC0F83C31904BC0F848318F4BC0F8A2
:1040800054318F4BC0F860318E4BC0F86C318E4B81
:10409000C0F878318D4BC0F884318D4BC0F8903129
:1040A0008C4BC0F89C318C4BC0F8A8318B4BC0F8BE
:1040B000B4318B4BC0F8C0318A4BC0F8CC318A4B3D
:1040C000C0F8D831894BC0F8E431894BC0F8F031E1
:1040D000884BC0F8FC31884BC0F80832874BC0F8D9
:1040E0001432874BC0F82032864BC0F82C32864BF6
:1040F000C0F83832854BC0F84432854BC0F8503296
:10410000844BC0F85C32844BC0F86832834BC0F8F3
:104110007432834BC0F88032824BC0F88C32824BB1
:10412000C0F89832814BC0F8A432814BC0F8B0324D
:10413000804BC0F8BC32804BC0F8C8327F4B8360E4
:104140007F4B43617F4B03627F4BC3627F4B836333
:104150007F4B43647F4B0365FEE000BF8774BDAABD
:104160005C662D2B66ADCC2A6CB509B20D6FD9AA51
:104170009E879AAB206373B21F92AEABE94675B3CC
:104180006EB064BABAD9FA2B1639822BAE32F53139
:10419000F7FAD12BFDB540337B7AB6396766D92A59
:1041A000D5EE8F32845CB1394D841D40D84287A949
:1041B000CA61A129DE0D76AAC85E89B1376E26A92B
:1041C0008854212AE07F47313E4FF7AAFE3EE8B2ED
:1041D000B6281ABAE723892A0B285BAA00AF38B1A0
:1041E0008B598E28FE99CFB0E9D1DDB70261DDA9E8
:1041F000CE9AD1B1A7AEDFB842433FBEE01A5C2BE6
:1042000000F9D0AA769A5FA68CD69F317519722BC9
:1042100002FBFD29B8C8E63163E759ABA67F20B39E
:10422000DF6230BA653B33AB0588872933EA9631C4
:104230007F5C07AB189365B2DCA7DBB8DA6028AA0D
:104240004E5FFCB1EF482BB999D844BF116470AAF6
:104250001D9D222B4F7206AC06C30AB35EB5B22A6F
:104260006824C8A95A08DE3067CEBE2ADAB9883277
:10427000B8C9493987F69EABA23200AC6A1A43B37B
:10428000956829AB40E224B3F53244BA2B12602B77
:10429000F29627338B5D323A1B2F65402948EF2A6F
:1042A0000FA0E429652E58ABCC8EC8B212E31E2AAB
:1042B00058DCF4A91AC356B0A0BC69AA6BC4C9B132
:1042C000391CF3B7C4FCAEAAE41592ABF7000DB3EA
:1042D0007393C1AAF621CEB288E715BAD9099C29F1
:1042E00004B9C83167B86039849EBD3FF8DD682BDA
:1042F000160F1B2B02A7E9AA1C0F98B2A2BC8B2B8E
:104300000DF60E2B3EB900322CE522AB9B49A5B22F
:10431000384829B989593BA9AFCB9CAB7C2F03B353
:104320003BFD79ABE24F35B38DB437BA334ACD2973
:10433000164D0C3216E67339C976BE3F66923F2C95
:104340007CE2C4AC7F37232DD65AA634EB7932AC4D
:10435000813C0EAC3E4E38B3B54BC365B54B83665E
:10436000B54B4367B54BC0F88030B54BC0F88C30C7
:10437000B44BC0F89830B44BC0F8A430B34BC0F87D
:10438000B030B34BC0F8BC30B24BC0F8C830B24B01
:10439000C0F8D430B14BC0F8E030B14BC0F8EC30CD
:1043A000B04BC0F8F830B04BC0F80431AF4BC0F898
:1043B0001031AF4BC0F81C31AE4BC0F82831AE4BBA
:1043C000C0F83431AD4BC0F84031AD4BC0F84C3182
:1043D000AC4BC0F85831AC4BC0F86431AB4BC0F8B3
:1043E0007031AB4BC0F87C31AA4BC0F88831AA4B76
:1043F000C0F89431A94BC0F8A031A94BC0F8AC313A
:10440000A84BC0F8B831A84BC0F8C431A74BC0F8CE
:10441000D031A74BC0F8DC31A64BC0F8E831A64B31
:10442000C0F8F431A54BC0F80032A54BC0F80C32EF
:10443000A44BC0F81832A44BC0F82432A34BC0F8E8
:104440003032A34BC0F83C32A24BC0F84832A24BEA
:10445000C0F85432A14BC0F86032A14BC0F86C32A6
:10446000A04BC0F87832A04BC0F884329F4BC0F804
:1044700090329F4BC0F89C329E4BC0F8A8329E4BA6
:10448000C0F8B4329D4BC0F8C0329D4BC0F8CC325E
:104490009C4BC0F8D0329C4BC0F8DC329B4BC0F830
:1044A000E8329B4BC0F8F4329A4BC0F800339A4B79
:1044B000C0F80C33994BC0F81833994BC0F824332B
:1044C000984BC0F83033984BC0F83C33974BC0F84A
:1044D0004833974BC0F85433964BC0F86033964B33
:1044E000C0F86C33954BC0F87833954BC0F88433E3
:1044F000944BC0F89033944BC0F89C33934BC0F866
:10450000A833934BC0F8B433924BC0F8C033924BEE
:10451000C0F8CC33914BC0F8D833914BC0F8E4339A
:10452000904BC0F8F033904BC0F8FC3300F581633A
:104530008E4A1A6000F214438D4A1A6000F58463B3
:104540008C4A1A6000F22C438B4A1A6000F587638C
:104550008A4A1A6000F24443894A1A6000F58A6365
:10456000884A1A6000F25C43874A1A6000F58D633E
:10457000864A1A6000F27443854A1A6000F5906317
:10458000844A1A6000F28C43834A1A6000F59363F0
:10459000824A1A6000F2A443814A1A6000F59663C9
:1045A000804A1A6000F2BC437F4A1A6000F59963A2
:1045B0007E4A1A6000F2D4437D4A1A6000F59C637B
:1045C0007C4A1A6000F2EC437B4A1A6000F59F6354
:1045D0007A4A1A6000F20453794A1A6000F5A2631D
:1045E000784A1A6000F21C53774A1A6000F5A563F6
:1045F000764A1A6000F23453754A1A6000F5A863CF
:10460000744A1A6000F24C53734A1A6000F5AB63A7
:10461000724A1A6000F26453714A1A6000F5AE6380
:10462000704A1A6000F27C536F4A1A60DEE000BFE5
:1046300068C438ACD272DDB325FC9CBAE94265ADE2
:10464000E6589E2C81396B34A124C3AC464B2BB465
:104650009BF8B4BA0750732B79C67B3397109CB97B
:104660009D11F9C0ABF269ABF7EC1FAB5CD0D72C56
:10467000067759347E99522AE6A127AC865A39B377
:1046800056B5912A96D43FB2E76A8EB99DB767AC0A
:10469000BB55252DD86C7534914292AA05D4F732BA
:1046A000DDAFC839E20E112CD801FC336553AE3AA8
:1046B00035EF5040FF24FDABFF7518AC0242192DB9
:1046C000D3789034C345C42B66002DAC8249C2B266
:1046D00044CE182C756F8A336E550E3A9A49CCAC7D
:1046E0001881572DE5369F342723CAA92431063275
:1046F000342A91B84966832CD6563134E53CAD3A1C
:10470000E10BC33F92FB8228AA56462AB732122AEF
:10471000662461B2F4EB032B77E4F3A9751F0E2E28
:10472000FE51F4A985B799B22CFA1EBAE1194B2AA9
:104730004969D9AA25E6B3B259F9A22A51140D3212
:1047400050D02C38F6F5B72AF88776320D19B039E3
:104750002506494087C823281CFC7EA95BF302ABD1
:10476000BC4F40B23F9FC72AFFAEE52A68502C32AB
:10477000CC23842B7E21E932A6DB0EB9A7E0952954
:10478000E03C8B2928CC78B0698C652A92840A3267
:1047900034969238D73EA8A95F25AAB16AADACB8C5
:1047A0008AAB9ABE6042592B24EF70AB5CF183ABAD
:1047B000D1D624B22842442BE98C0A2BB9AD7832E9
:1047C0008C95452A90A18BB16765FBB97C8797AA28
:1047D00055BF3A2BA535AA32B85E032AB245FF3140
:1047E000C2B3B1389D2A292A96DB193200F5B1638C
:1047F000B14A1A6000F29453B04A1A60B04BC0F844
:10480000D432B04BC0F8E032AF4BC0F8EC32AF4B13
:10481000C0F8F832AE4BC0F80433AE4BC0F81033DA
:10482000AD4BC0F81C33AD4BC0F82833AC4BC0F8CF
:104830003433AC4BC0F84033AB4BC0F84C33AB4BCC
:10484000C0F85833AA4BC0F86433AA4BC0F8703391
:10485000A94BC0F87C33A94BC0F88833A84BC0F8EB
:104860009433A84BC0F8A033A74BC0F8AC33A74B88
:10487000C0F8B833A64BC0F8C433A64BC0F8D03349
:10488000A54BC0F8DC33A54BC0F8E833A44BC0F807
:10489000F43300F58063A34A1A6000F20C43A24A85
:1048A0001A6000F58363A14A1A6000F22443A04A0B
:1048B0001A6000F586639F4A1A6000F23C439E4AE4
:1048C0001A6000F589639D4A1A6000F254439C4ABD
:1048D0001A6000F58C639B4A1A6000F26C439A4A96
:1048E0001A6000F58F63994A1A6000F28443984A6F
:1048F0001A6000F59263974A1A6000F29C43964A48
:104900001A6000F59563954A1A6000F2B443944A20
:104910001A6000F59863934A1A6000F2CC43924AF9
:104920001A6000F59B63914A1A6000F2E443904AD2
:104930001A6000F59E638F4A1A6000F2FC438E4AAB
:104940001A6000F5A1638D4A1A6000F214538C4A74
:104950001A6000F5A4638B4A1A6000F22C538A4A4D
:104960001A6000F5A763894A1A6000F24453884A26
:104970001A6000F5AA63874A1A6000F25C53864AFF
:104980001A6000F5AD63854A1A6000F27453844AD8
:104990001A6000F5B063834A1A6000F28C53824AB1
:1049A0001A6000F5B363814A1A60814BC0F8D832AF
:1049B000804BC0F8E432804BC0F8F0327F4BC0F837
:1049C000FC327F4BC0F808337E4BC0F814337E4B6B
:1049D000C0F820337D4BC0F82C337D4BC0F8383302
:1049E0007C4BC0F844337C4BC0F850337B4BC0F851
:1049F0005C337B4BC0F868337A4BC0F874337A4B26
:104A0000C0F88033794BC0F88C33794BC0F89833B9
:104A1000784BC0F8A433784BC0F8B033774BC0F86C
:104A2000BC33774BC0F8C833764BC0F8D433764BE1
:104A3000C0F8E033754BC0F8EC33754BC0F8F83371
:104A400000F20443734A1A6000F58263724A1A60E6
:104A500000F21C43714A1A6000F58563704A1A60BF
:104A600000F234436F4A1A6000F588636E4A1A6098
:104A700000F24C436D4A1A6000F58B636C4A1A6071
:104A800000F264436B4A1A6000F58E636A4A1A604A
:104A900000F27C43694A1A6000F59163684A1A6023
:104AA00000F29443674A1A6000F59463664A1A60FC
:104AB00000F2AC43CAE000BF623DAE380C95BFBD0A
:104AC000E1F517290245A32B41BA99AB284A63B2F5
:104AD0007C3B0A2B7AB6302B9AF744321E5DEB2AC8
:104AE000527A9B32B57354396EEB822A2EE58AAB2B
:104AF00048A0A4B22AC004ACD90CC1B33661B1BA83
:104B00004CE671AB386239B38BC143BAFAED9DC044
:104B10001285622A10C95D2BA6BCFFAAEF4CF9B121
:104B20002060632A34415F2A3CA1493139EB06A950
:104B300003347230CA0C06380102AE2ADB9EC92A41
:104B4000F239BA31F5FE892AB14F8DB11390FEB911
:104B50008FC8F2AA18E7BEB2EF28C6B917B71DC0B2
:104B6000FC4DA52A5A2D9B2B9FB7CFAAEB5BF8B122
:104B700014DFE62AAE9FF12AA39AD631F18B1AAB45
:104B8000A6D496B20E9F15B97CD3242BBA45232BFD
:104B9000C4EE9131947474AA254ED5B212AC43BAC6
:104BA0009166A929B0412532A8748F39022BB73FED
:104BB000ECAFA92BDDC011AB098DC82CCBBE853461
:104BC0000D36D2AA819E54ACF5FB73B3468191ACED
:104BD000643F35B4B302E8BA2252BCAB16D7B02C4E
:104BE000AB538134B470852CE4DA1A34F882BB3AC2
:104BF0006369982CB1EA8934F6C1683B295C594154
:104C000040C6642B2F46E3AA66DBC82CF7277D3409
:104C1000BE0C272A84DE7FAB6D56A3B2B65A7BAB9F
:104C20005DBC33B3F36BF3B91E3812AC99DD5D2C68
:104C30003544463497736E2CBC0C1A34BA2CCB3ADC
:104C40004F34FD2C7DEFF134A058023CA94A1A6084
:104C500000F59763A84A1A6000F2C443A74A1A6095
:104C600000F59A63A64A1A6000F2DC43A54A1A606E
:104C700000F59D63A44A1A6000F2F443A34A1A6047
:104C800000F5A063A24A1A6000F20C53A14A1A6010
:104C900000F5A363A04A1A6000F224539F4A1A60E9
:104CA00000F5A6639E4A1A6000F23C539D4A1A60C2
:104CB00000F5A9639C4A1A6000F254539B4A1A609B
:104CC00000F5AC639A4A1A6000F26C53994A1A6074
:104CD00000F5AF63984A1A6000F28453974A1A604D
:104CE00000F5B263964A1A6000F29C53954A1A6026
:104CF00000F5B463944A1A6000F2AC53934A1A6008
:104D000000F5B763924A1A6000F2C453914A1A60E0
:104D100000F5BA63904A1A6000F2DC538F4A1A60B9
:104D200000F5BD638E4A1A6000F2F4538D4A1A6092
:104D300000F5C0638C4A1A6000F20C638B4A1A605B
:104D400000F5C3638A4A1A6000F22463894A1A6034
:104D500000F5C663884A1A6000F23C63874A1A600D
:104D600000F5C963864A1A6000F25463854A1A60E6
:104D700000F5CC63844A1A6000F26C63834A1A60BF
:104D800000F5CF63824A1A6000F28463814A1A6098
:104D900000F5D263804A1A6000F29C637F4A1A6071
:104DA00000F5D5637E4A1A6000F2B4637D4A1A604A
:104DB00000F5D8637C4A1A6000F2CC637B4A1A6023
:104DC00000F5DB637A4A1A6000F2E463794A1A60FC
:104DD00000F5DE63784A1A6000F2FC63774A1A60D5
:104DE00000F5E163764A1A6000F21473754A1A609E
:104DF00000F5E463744A1A6000F22C73734A1A6077
:104E000000F5E763724A1A6000F24473714A1A604F
:104E100000F5EA63704A1A6000F25C736F4A1A6028
:104E200000F5ED636E4A1A6000F274736D4A1A6001
:104E300000F5F0636C4A1A6000F28C736B4A1A60DA
:104E400000F5F3636A4A1A6000F2A473694A1A60B3
:104E500000F5F663684A1A6000F2BC73674A1A608C
:104E600000F5F963664A1A6000F2D473654A1A6065
:104E700000F5FC63644A1A6000F2EC73634A1A603E
:104E800000F5FF63624A1A6000F60403614A1A6083
:104E900000F50163604A1A6000F61C035F4A1A605D
:104EA00000F628035E4A1A6000F634035D4A1A6071
:104EB00000F504635C4A1A6000F64C035B4A1A6012
:104EC00000F658035A4A1A6000F66403594A1A60F9
:104ED00000F2A453584A1A6000F5B663574A1A60A4
:104EE00000F2BC53564A1A6000F5B963554A1A607D
:104EF000AAE000BFA5EC2C42F946812B419F8CAB68
:104F0000E53FE22CB46D8534FF70C42AB73568AC38
:104F10001C025AB38D4716AB926982B2B91B8BB78C
:104F200036474FAC7F213C2D2998AF34A9F03C2D5A
:104F3000BBD1D9341A47763B0129112D679AFC342D
:104F4000A60EF23BBAAB0D42E03B082AAE36352A3C
:104F50009184F729450324B1B256E72AE747F42A9A
:104F600018465932F697FBA9596C0BB2C0E3A1B9A8
:104F7000AD85AF2A1163992A54329731C0BCE12A1A
:104F8000006BB33289658E3968AEA2290AE8BC315C
:104F900041F655396D56F53FD86F60AA7A4099AA07
:104FA000F8616CAA7B9F7DB1C1FBA02970B8EC2A87
:104FB00045A84932AA7153AAFDBF64B24806D2B9C6
:104FC0005E2A39AACAC9A2AA2743E2B1C3EB4AAAF8
:104FD000162D23B28A24F6B88429E0A915F8EAB17F
:104FE000690F24B938F882BF24D94CA661C0A0A9A2
:104FF000BCA1ADA891498C3122B21A2BB8FD17285B
:10500000B3E72C3181D516AB1F5D06B330A829BAA2
:105010003D04B5AAB53690AB1428A8B20A839FAB5D
:10502000090558B3288512BADAE5BCAA6C41BAB2B0
:10503000DB5502BA265375C0DDC2332AD143D92AC3
:10504000747B90A91FB21AB000F2D453A94A1A6017
:1050500000F5BC63A84A1A6000F2EC53A74A1A6034
:1050600000F5BF63A64A1A6000F20463A54A1A60FD
:1050700000F5C263A44A1A6000F21C63A34A1A60D6
:1050800000F5C563A24A1A6000F23463A14A1A60AF
:1050900000F5C863A04A1A6000F24C639F4A1A6088
:1050A00000F5CB639E4A1A6000F264639D4A1A6061
:1050B00000F5CE639C4A1A6000F27C639B4A1A603A
:1050C00000F5D1639A4A1A6000F29463994A1A6013
:1050D00000F5D463984A1A6000F2AC63974A1A60EC
:1050E00000F5D763964A1A6000F2C463954A1A60C5
:1050F00000F5DA63944A1A6000F2DC63934A1A609E
:1051000000F5DD63924A1A6000F2F463914A1A6076
:1051100000F5E063904A1A6000F20C738F4A1A603F
:1051200000F5E3638E4A1A6000F224738D4A1A6018
:1051300000F5E6638C4A1A6000F23C738B4A1A60F1
:1051400000F5E9638A4A1A6000F25473894A1A60CA
:1051500000F5EC63884A1A6000F26C73874A1A60A3
:1051600000F5EF63864A1A6000F28473854A1A607C
:1051700000F5F263844A1A6000F29C73834A1A6055
:1051800000F5F563824A1A6000F2B473814A1A602E
:1051900000F5F863804A1A6000F2CC737F4A1A6007
:1051A00000F5FB637E4A1A6000F2E4737D4A1A60E0
:1051B00000F5FE637C4A1A6000F2FC737B4A1A60B9
:1051C00000F608037A4A1A6000F61403794A1A6056
:1051D00000F50263784A1A6000F62C03774A1A60D9
:1051E00000F63803764A1A6000F64403754A1A60DE
:1051F00000F50563744A1A6000F65C03734A1A608E
:1052000000F66803724A1A6000F5B563714A1A60C5
:1052100000F2B453704A1A6000F5B8636F4A1A601E
:1052200000F2CC536E4A1A6000F5BB636D4A1A60F7
:1052300000F2E4536C4A1A6000F5BE636B4A1A60D0
:1052400000F2FC536A4A1A6000F5C163694A1A60A9
:1052500000F21463684A1A6000F5C463674A1A6072
:1052600000F22C63664A1A6000F5C763654A1A604B
:1052700000F24463644A1A6000F5CA63634A1A6024
:1052800000F25C63624A1A6000F5CD63614A1A60FD
:1052900000F27463604A1A6000F5D0635F4A1A60D6
:1052A00000F28C635E4A1A6000F5D3635D4A1A60AF
:1052B00000F2A4635C4A1A6000F5D6635B4A1A6088
:1052C00000F2BC635A4A1A6000F5D963594A1A6061
:1052D00000F2D463584A1A6000F5DC63574A1A603A
:1052E00000F2EC63564A1A6000F5DF63554A1A6013
:1052F000AAE000BFE0AAA92AC42D2FAA8983F7B08B
:105300001C36082AE5839E31AE0164380D3B18290E
:1053100076362EA9EBB4A5B1F13786AA9A8FA3B23F
:1053200000F6FAB9A5AEBF29D287AC315E60DA3893
:10533000EAECD43EB0F8BAA9C1778F2B0E65302ABB
:1053400078B1BD309F0B64ABE9DA39ABBAC9AEB204
:1053500005BBC5AA15F084B2A8CA35B977DCEC2B19
:10536000AFE5982B260C0E33DB9CA72A07094A329F
:10537000F1B426B8B7BD8B2A8D638B32C985D2397B
:105380009CC43040F3B245A9D7A8E72ADB501AAA3B
:10539000A4B68CB1A69DAE2A23E02D2B31C9723262
:1053A00086ABA2AA4DEA13B2AB8B33B8319A662909
:1053B0006FF9FAAACDB18CB2207101ABDA200DB32E
:1053C000D1D639BA1A9D972A87AC9932935FD439CE
:1053D0009D112D40E1D804A906C6C4A967EADC2BBB
:1053E0004A6ABB339F8DC5AB82944EAB818FC0B2EE
:1053F000366AE3AA624CAEB2D85382B9AF5D52AB03
:105400008B232C2B887472332EA81DAB6BFC17B327
:10541000CC8E1EBA7A160F2B30B52A33B05FC9393D
:10542000075FC0BF4115812B275894ACB42B912B3B
:105430003F50B4337726352C45D5F7AA6F1E8032FE
:10544000BC2587AA251357B200F204733D4A1A609F
:1054500000F5E2633C4A1A6000F21C733B4A1A6092
:1054600000F5E5633A4A1A6000F23473394A1A606B
:1054700000F5E863384A1A6000F24C73374A1A6044
:1054800000F5EB63364A1A6000F26473354A1A601D
:1054900000F5EE63344A1A6000F27C73334A1A60F6
:1054A00000F5F163324A1A6000F29473314A1A60CF
:1054B00000F5F463304A1A6000F2AC732F4A1A60A8
:1054C00000F5F7632E4A1A6000F2C4732D4A1A6081
:1054D00000F5FA632C4A1A6000F2DC732B4A1A605A
:1054E00000F5FD632A4A1A6000F2F473294A1A6033
:1054F00000F50063284A1A6000F60C03274A1A6078
:1055000000F61803264A1A6000F62403254A1A609A
:1055100000F50363244A1A6000F63C03234A1A602C
:1055200000F64803224A1A6000F65403214A1A6022
:1055300000F50663204A1A6000F66C001F4B0360FA
:10554000704700BFCC48C2B80D19F5AC9C5FED2A7E
:10555000C8E693321134F32860E82532C019B8B890
:105560004AC6842B5237B333EF67C23AEE7CD5403C
:105570000471DA2A01ED05AC8D0A8D26982C913341
:105580002D883C2CAA20A02C3DF6E6334171902CAE
:10559000D9FF4434FBF0073B191D92AC03B0D2ACE9
:1055A0005A548FB38030D0AC576991B48F394FBB08
:1055B0008BEC23AC42A217B41D2F6EBBC5FEF3C10A
:1055C0000139032905D8DFE801F00206090C0C2394
:1055D00043704078704710234370FAE714234370F8
:1055E000F7E718234370F4E7F0B583B00646174693
:1055F0001D4602AB03F8041D012219460A4B9847C9
:1056000001280DD104462A4639463046074B9847B3
:10561000A84202D1204603B0F0BD4FF0FF34F9E7B5
:105620004FF0FF34F6E700BF650B0000990B000058
:1056300070B582B00D4616461C464FF400620178E4
:105640003046084B9847012301AA29462046064CBC
:10565000A047002803DD9DF8040002B070BDFF20C4
:10566000FBE700BF4D0B0000E955000070B582B0AC
:1056700005461E46BDF818408DF804108DF805202B
:10568000022201A9094B984702280CD12246314633
:105690002846074B9847A04202D1012002B070BDB6
:1056A0004FF0FF30FAE74FF0FF30F7E7650B0000EF
:1056B000990B000010B582B004468DF80410110A51
:1056C0008DF805108DF806208DF8073004220DEBBB
:1056D0000201094B984704280BD101220499204666
:1056E000064B9847012801D102B010BD4FF0FF30A2
:1056F000FAE74FF0FF30F7E7650B0000990B000069
:10570000082380F83830704708B5002242700270D4
:105710000E4A82604FF08142C2600D4A02610D4A1A
:1057200042614FF0804282610B4AC2610B4A0262C1
:105730004FF07E5242620A4A82620A4AC2620A4AB2
:1057400002630A4A42630A4B984708BD0000A04022
:1057500000004040000020405555D53FABAAAA3F6D
:1057600039B4483EC1CAA13E9A99193ED9CE773E76
:1057700001570000012303FA01F101F0080190F83C
:105780003830194380F83810704702290CD801F1DD
:105790001C0300EB43035A8001238B4090F8381020
:1057A00021EA030180F8381070470000F0B585B099
:1057B00004460D4617464FF4006201781846104B18
:1057C0009847AA000323009303AB02F0FC02502188
:1057D0000A980C4EB047002803DCFF26304605B07F
:1057E000F0BD9DF80C609DF80D309DF80E2042EA4A
:1057F00003223A8029462046034B9847EEE700BF34
:105800004D0B00006D5600008B57000070B504462C
:105810000D461646064B984733462A46F021204649
:10582000044CA04704460320034B9847204670BD14
:105830000157000031560000810A000010B51346E0
:105840000A468021014CA04710BD00BF3156000020
:105850002DE9F04784B005460C461046984601F005
:105860000F0646F040064FF4006229783C4B9847FB
:1058700014F008095BD0022314F0040A59D0022264
:10588000134404F002073B44DAB214F0010452D08E
:1058900002231344DBB20133DBB201AA3146404696
:1058A000304EB047002859DD002C46D09DF8052029
:1058B0009DF8063043EA0223A5F840300323002F69
:1058C00040D004AA1A4412F80C0C591C04AA114422
:1058D00011F80C2C42EA0022A5F842200233DBB278
:1058E000BAF1000F32D004AA1A4412F80C0C591C59
:1058F00004AA114411F80C2C42EA0022A5F8442015
:105900000233DBB2B9F1000F24D004AA1A4412F812
:105910000C2C013304A90B4413F80C3C43EA02237A
:10592000A5F846309DF8040004B0BDE8F0870023D8
:10593000A2E70022A4E70023ABE70023A5F840304C
:105940000123BCE70022A5F84220C9E70022A5F800
:105950004420D7E70023A5F84630E3E7FF20E3E73C
:105960004D0B0000E955000070B4428FC2F30213E2
:1059700002F00F02C18FC1F3471101F03F0501F0A2
:105980000301C5F381062D09848FC4F380240C2AFA
:1059900000F0918090ED0A5AD0ED0B4A023300EBF3
:1059A0008303D3ED005A002C00F08A80B0F8423017
:1059B00006EE903AF8EEE66ADFEDE07A76EEE76A18
:1059C00065EE266A65EEA66A012202FA01F107EE8B
:1059D000901AB8EEE76A66EE266AC0ED136A002CEC
:1059E00000F0D480B0F8443007EE103AB8EEC77A31
:1059F000DFEDD27A37EE677A25EE077A25EE877AE1
:105A00000123B34007EE903AF8EEE76A26EE877A74
:105A100080ED147A002C00F01C81B0F8463007EEBF
:105A2000903AF8EEE77A9FEDC57A77EEC77A64EEA2
:105A3000A77A65EEA77A012303FA05F507EE105A57
:105A4000B8EEC77A67EE277AC0ED157AB0F8403025
:105A500007EE903AF8EEE77A9FEDB97A77EEC77ADB
:105A6000DFEDB86A87EEA67AF3EE097A77EE277A49
:105A7000C0ED127AD0ED137A9FEDB37AF4EEC77AC7
:105A8000F1EE10FA40F34A8180ED137AD0ED147AEA
:105A90009FEDAD7AF4EEC77AF1EE10FA00F349818A
:105AA0009FEDAA7AF4EEC77AF1EE10FA40F1438145
:105AB00080ED147A3FE190ED0C5AD0ED0D4A6DE780
:105AC00003298CD8DFE801F002182E48B0F94230E3
:105AD00007EE903AF8EEE77A67EE857A25EEA77A38
