S022000053656E736F724172726179526561646F757445746865724341542E73726563E5
S1130000300E0120E1020000DD020000DD020000EC
S1130010DD020000DD020000DD020000000000003F
S1130020000000000000000000000000DD020000ED
S1130030DD02000000000000DD020000DD0200001F
S1130040DD020000DD020000DD020000DD02000030
S1130050DD020000DD020000DD020000DD02000020
S1130060DD020000DD020000DD020000DD02000010
S1130070DD020000DD020000DD020000DD02000000
S1130080DD020000DD020000DD020000DD020000F0
S1130090DD020000DD020000DD020000DD020000E0
S11300A0DD020000DD020000DD020000DD020000D0
S11300B0DD020000DD020000DD020000A90F0000E7
S11300C0B50F0000C10F0000CD0F0000D90F0000D4
S11300D0DD020000DD020000DD020000DD020000A0
S11300E0DD020000DD02000000000000000000004E
S11300F000000000B5100000DD020000DD02000079
S1130100DD020000DD020000DD020000DD0200006F
S1130110DD020000DD020000DD020000DD0200005F
S1130120DD020000DD020000DD020000DD0200004F
S1130130DD020000DD020000DD020000DD0200003F
S1130140DD020000DD020000DD020000DD0200002F
S1130150DD020000DD020000DD020000DD0200001F
S1130160DD020000DD020000DD020000DD0200000F
S1130170DD020000DD020000DD020000DD020000FF
S1130180DD020000DD020000DD020000DD020000EF
S1130190DD020000DD020000DD020000DD020000DF
S11301A0DD020000DD020000DD020000DD020000CF
S11301B0DD020000DD020000DD020000DD020000BF
S11301C0DD020000DD020000DD020000DD020000AF
S11301D0DD020000DD020000DD020000DD0200009F
S11301E0DD020000DD020000DD020000DD0200008F
S11301F0DD020000DD02000081200000DD020000BD
S1130200DD020000DD02000039070000DD0200000D
S1130210DD020000DD020000DD020000DD0200005E
S1130220DD020000DD020000DD020000DD0200004E
S1130230DD020000DD020000DD020000DD0200003E
S1130240DD020000DD020000DD020000DD0200002E
S1130250DD020000DD020000DD020000DD0200001E
S1130260DD02000010B5054C237833B9044B13B1FB
S11302700448AFF300800123237010BDF000002078
S113028000000000243100000C4B43B10C480D4920
S113029010B5AFF300800C48036823B910BD0A48B9
S11302A0036833B97047094B002BF7D0BDE8104001
S11302B01847064B002BF5D0184700BF000000007C
S11302C024310000F400002024310000000000006C
S11302D008B5014B984708BD55050000FEE700002E
S11302E008B5154B154A9A4209D0134B134A03E03B
S11302F0116819600433043211498B42F8D3114B4D
S113030002E000221A6004330F4A9342F9D30F4BE0
S11303100F4A22F07F029A60D3F8882042F47002D8
S1130320C3F88820BFF34F8FBFF36F8F094B9847F3
S1130330094B9847FEE700BF00000020243100006D
S1130340F0000020F0000020300E002000ED00E05E
S113035000000000CD2E00002D1F0000164B93F866
S1130360562002F0FB0283F8562093F8562002F040
S1130370FE0242F0010283F8562093F83B2002F07B
S1130380F00242F0020283F83B2093F8572002F077
S1130390FB0283F8572093F8572002F0FE0242F044
S11303A0010283F8572093F83B2002F00F0242F039
S11303B0200283F83B20704700800041064B402216
S11303C0C3F8E0204322C3F88C20044A936943F421
S11303D080639361704700BF001C00400008004028
S11303E008B5044B984704490448054B9847054B06
S11303F0984708BDBD0300000040014140030020B0
S1130400450A00005D0300002C4B4FF48032C3F812
S11304109420C3F888204FF08041C3F8A810284ADC
S1130420C3F8A82093F8D02002F0FE0242F00102A3
S113043083F8D02093F8B82002F0F00242F00202D0
S113044083F8B8204FF40032C3F89420C3F888200E
S1130450C3F8A8101B4AC3F8A82093F8D12002F0CF
S1130460FE0242F0010283F8D12093F8B82002F092
S11304700F0242F0200283F8B8200222C3F884203D
S1130480114AC3F8A820114AC3F8A82093F8C12040
S113049002F0FB0283F8C12093F8C12002F0FE02AF
S11304A042F0010283F8C12093F8B02002F00F0259
S11304B042F0300283F8B020704700BF0080004152
S11304C0010000C0020000C002000240000002C09F
S11304D0064B4022C3F80C214322C3F88C20044A63
S11304E0136A43F002031362704700BF001C00400C
S11304F00008004008B5044B984704490448054BDC
S11305009847054B984708BDD104000000040043F8
S113051010030020790B000009040000044A9369C9
S113052043F4804393614022024BC3F8E8207047B0
S113053000080040001C0040044A136A43F04003D2
S113054013624022024BC3F81C217047000800408C
S1130550001C004008B5184B9847184B40225A61BC
S11305609A6002F180429A624FF04041996293F896
S1130570462002F0FE0283F846200122C3F89820A8
S1130580C3F8882002F18042C3F8A820C3F8A81059
S113059093F8C02002F0FE0283F8C020084B98476D
S11305A0084B9847084B9847084B9847084B98477F
S11305B0084B984708BD00BF690C0000008000414B
S11305C0E1030000F50400001D050000DD1C00002F
S11305D039050000A11D00000122104BC3F898202A
S11305E003F500539B6BDA680D4B9A420DD00D4B0B
S11305F0022283F8442001200849C1F8940083F8BA
S113060054200022084B1A7070470122064B1A70BE
S11306104FF48022054BDA60704700BF0080004130
S1130620E804002000A00041F804002000E100E0FC
S113063030B40C88A4B244F001040C800C88A4B239
S113064044F006040C800C88A4B224F01804BDF80D
S11306500C50ED0005F018052C430C800C88A4B256
S113066024F44074A4B20C80032814D8DFE800F00A
S11306700239254B088880B240F4806008800888DD
S113068080B220F4006080B208801A4448684A604E
S11306908A68264A8A600A8892B222F4805292B208
S11306A00A800A88C2F30C020A809BB24A884B80F3
S11306B0CB68029BCB6030BC70470A8892B222F4AC
S11306C0806292B20A800A8892B222F4006292B2E4
S11306D00A80174A126848684A608A68134A8A601E
S11306E0D9E7088880B220F4806080B20880088846
S11306F080B240F40060088048680C4848601A449E
S113070088688A60C7E70A8892B222F4806292B24B
S11307100A800A8892B222F4006292B20A804A687D
S1130720024A4A608A68034A8A60B4E7280400439C
S1130730142F0000B0030020F0B583B0164A937A5A
S113074043F0010393720122144B1A70144B1B786B
S113075083B1002301931146124AC2F8941002F5A2
S11307600052022182F8441082F854100C4A13708B
S113077003B0F0BD0B4B0125C3F89850084E00247C
S11307803470C3F8945021462046074FB847214699
S11307902846B8473470EBE700180043B004002043
S11307A0F8040020008000415D0F00002DE9F04FA7
S11307B083B0DFF8B881614F02260196DFF8B0916B
S11307C0CDF800901323D8F80420394600205C4D5E
S11307D0A847D8F808B001965A4C009443235A46C7
S11307E049460020A847584B1A68DFF888910196BB
S11307F0CDF800900B2321460020A8470024019443
S1130800DFF874A1CDF800A003235A4649462046D8
S1130810A8470196DFF864B1CDF800B040234B4AF5
S113082051462046A8470196DFF854A1CDF800A010
S11308301323D8F80C2059462046A847D8F810208E
S11308400194DFF84081CDF800800323514620460F
S1130850A8470196CDF800904023224641463046F1
S1130860A847DFF824810196DFF82091CDF80090A5
S11308701323224641460320A8470196DFF810A11E
S1130880CDF800A04323224649460320A847DFF8B9
S113089004910196CDF800900B2322465146032083
S11308A0A8470196DFF8F0A0CDF800A04323224624
S11308B049460320A8470196DFF8E0B0CDF800B020
S11308C01323224651460320A8470194DFF8D0A001
S11308D0CDF800A00323224659461846A84701969E
S11308E0CDF800904023194A1A4451460120A847E4
S11308F0174D184A31462846174B9847D8F80C30FC
S1130900009398E80E002046144EB047FB6800930D
S113091097E80E000120B0472846114B984701265E
S1130920104BC3F89460214620460F4DA84721463A
S11309303046A84703B0BDE8F08F00BFA0040020F4
S113094031060000C804002000000020F00300204D
S113095010030020D9050000ED0B0000E50F000096
S1130960C50B0000008000415D0F0000142F000043
S1130970D003002080030020A00300209004002066
S1130980D804002090030020E0030020700400201D
S113099080040020E804002060030020700300208D
S11309A0B804002010B5044B1C68044B984701465A
S11309B02046034B984710BD0C010020250C000075
S11309C0610C000010B5044B1C68044B98470146A9
S11309D02046034B984710BD0C0100203D0C00003D
S11309E0610C000010B584B00389ADF804301446DE
S11309F002924FF40043ADF80630039101A9143874
S1130A00034B984710B9204604B010BD0446FAE7DA
S1130A10E516000010B584B00389ADF8043014461F
S1130A20029248F20103ADF80630039101A914388B
S1130A30034B984710B9204604B010BD0446FAE7AA
S1130A40E516000038B50D4604465E22084900301C
S1130A5018BF0120074B984729462046064B984764
S1130A60034618B9054AA261054A6261184638BDB1
S1130A70282F00001D0C00003D160000150A000080
S1130A80E509000008B5014B984708BD6D16000044
S1130A90C1F3090102F480620A438283104670475D
S1130AA0143008600020704770B50D4616460446A1
S1130AB068B151B1012034220649074B9847236895
S1130AC0324629462046984770BD0020F3E70020AF
S1130AD0F1E700BF442F00001D0C000070B50D4667
S1130AE01646044668B151B101203D220649074B20
S1130AF098476368324629462046984770BD0020CF
S1130B00F3E70020F1E700BF442F00001D0C0000B4
S1130B1070B50D461646044698220749003018BFA2
S1130B200120064B9847334600222946A4F12000B1
S1130B30034CA04770BD00BF582F00001D0C0000DF
S1130B40C91B000070B50D461646044681220749AC
S1130B50003018BF0120064B984733462A4600212F
S1130B60A4F12000034CA04770BD00BF582F000023
S1130B701D0C0000C91B000038B50C460546A8B181
S1130B8091B101203B220A490A4B9847284640F874
S1130B90044F2146084B9847034618B9074AAA62EE
S1130BA0074A6A62184638BD0020EBE70020E9E7EF
S1130BB0582F00001D0C000095190000450B000083
S1130BC0110B000010B5044651220549003018BF2E
S1130BD00120044B9847201D034B984710BD00BFCC
S1130BE0582F00001D0C0000111B000070B50D46AD
S1130BF016460446A8220649003018BF0120054BBA
S1130C00984732462946201D034B984770BD00BFC4
S1130C10582F00001D0C0000451B000000B900BE49
S1130C2070470000642303FB00F00230024BA3FB77
S1130C3000304008704700BFABAAAAAA642303FB94
S1130C4000F302330448A0FB03235B084FF47A70DB
S1130C5000FB03F0704700BFABAAAAAA0000000083
S1130C600139FDD8704700BF08B50D4A13889BB2FF
S1130C7043F4C06313800B4B98470B4B98470B4BC3
S1130C8098470B4B984740F6FF700A4B98470A4A1F
S1130C90136943F400731361084B984708BD00BF00
S1130CA000400041411000005510000035100000C4
S1130CB0711000001110000000080040410D0000F8
S1130CC008B51D4A138C03F01F031C4800EB0310E6
S1130CD0128C12F4807F0AD1174A128C12F4007F0E
S1130CE010D1154A128C12F4806F17D108BD1B0164
S1130CF003F1824202F52042012182F84E1043683A
S1130D00984708BD1B0103F1824202F520420221EB
S1130D1082F84E10094AD358984708BD1B0103F1C5
S1130D20824202F52042042182F84E10034A134401
S1130D309B689847DAE700BF00A00041100100203B
S1130D4030B43D4A13889BB223F002039BB2138054
S1130D5053889BB223F47C539BB2538013889BB279
S1130D6043F001031380344B1B8813F0010FFAD1B5
S1130D70314A4FF470631380537B03F0FE0343F056
S1130D8001035373002353612C4951632C4991632C
S1130D9016E02C4A52F83350274C191D09016018EB
S1130DA0655002EBC3021179417151798171D48884
S1130DB022491A0188188C520022C2600133DBB226
S1130DC01F2BE6D900230AE003F11F010AB2002A0F
S1130DD010DA002A1CDA002A24DA0133DBB2042BED
S1130DE0F2D9154A13889BB243F002031380002002
S1130DF030BC7047500901F01F050124AC4020307D
S1130E00114D45F82040BFF34F8FBFF36F8FE0E7DC
S1130E10500901F01F050124AC4060300A4D45F82B
S1130E202040D8E7520901F01F01012000FA01F126
S1130E30054840F82210D0E700A00041000500203A
S1130E4000070020742F000000E100E091B942B9CE
S1130E50000100F1824000F52040022380F84C306C
S1130E607047000100F1824000F52040022380F821
S1130E704D307047012902D0022912D070473AB987
S1130E80000100F1824000F5204080F84C107047CA
S1130E90000100F1824000F52040012380F84D302C
S1130EA0704742B1000100F1824000F52040042364
S1130EB080F84D30E2E7000100F1824000F5204067
S1130EC0042380F84C307047024B03EB0010816020
S1130ED00020704700050020024B03EB0010416026
S1130EE00020704700050020054A0001135A9BB2F8
S1130EF023F4806343EA812189B2115200207047B0
S1130F000005002030B4144C0201A3189D68A35AB4
S1130F10C3F30123A25A12F4006F06D001FA03F4BA
S1130F202C440D4A02EB001294600B4C0201A518EC
S1130F306D68A25A12F4806F05D001FA03F32B44B2
S1130F4004EB0012536089B2034B03EB00104180A1
S1130F50002030BC704700BF0005002010B40C4CCA
S1130F600201A35A9BB243F00103A352094C031D8F
S1130F701B01E25842F00202E25029B1012303FAB4
S1130F8000F022691043206100205DF8044B704793
S1130F900005002000A00041024B03EB0111016099
S1130FA0002070471001002008B5014B984708BD88
S1130FB0C10C000008B5014B984708BDC10C0000E6
S1130FC008B5014B984708BDC10C000008B5014B9A
S1130FD0984708BDC10C000008B5014B984708BDEF
S1130FE0C10C000084B070B485B0064609A880E83E
S1130FF00E000FC88DE80F00044D05EB061585E8BB
S11310000F0005B070BC04B0704700BF000500209D
S113101010F0010F08D0054A054B1A62044B5A68B8
S113102043F6FD731A42F9D1704700BF080101006D
S1131030001C00400122014B5A7170470008004017
S1131040034BDA6902F47C52DA6101221A747047A4
S113105000140040044A054B9A61044B1B6913F0C9
S1131060020FFAD0704700BF0626000300100040AC
S113107031220E4B9A640D4B1B6D13F0060FFAD1FF
S11310800A4B0B4ADA64022283F84420074B1B6D97
S113109013F0020FFAD1054B5B6D13F0010F04D16D
S11310A0024B5B6D13F0020FF5D070470010004047
S11310B06000020000B583B00D4B9B78DBB2019356
S11310C0019B13F0020F06D00A4B1B681BB1084AA0
S11310D05068984709E0019B13F0010F05D0054BB8
S11310E05B6813B1024A5068984703B05DF804FB8B
S11310F0000002410009002070B489B006466C4625
S11311000C4D0FCD0FC495E80F0084E80F000020AC
S113111007280AD808AB03EB800353F8203CB342FA
S113112001D00130F4E7C0B200E0002009B070BC87
S1131130704700BF74300000C36913F0010F09D178
S1131140036843F002030360C36913F0030FFBD188
S1131150002070476FF003007047C36913F0040F59
S113116009D1436843F400334360C36913F0170F94
S1131170FBD1002070476FF003007047C36913F080
S1131180040F09D1436823F400334360C36913F0A7
S1131190170FFBD1002070476FF003007047283011
S11311A0704728307047000008B5044B984705285D
S11311B001D0002008BD012008BD00BFF9100000C7
S11311C008B5044B9847052801D0002008BD01202C
S11311D008BD00BFF910000008B5074B9847072861
S11311E007D8DFE800F00404040404060404012022
S11311F008BD002008BD00BFF910000008B5C36891
S11312009B6803B1984708BD08B5C368DB6803B1A0
S1131210984708BD08B5C3685B6803B1984708BD23
S113122008B5C3681B6903B1984708BD08B50D4BE1
S11312309847002343B140F2A7320B4900200B4BDF
S113124098474FF0FF3008BD03EB4302D100084A32
S11312500A4492F83820904202D00133DBB2E9E725
S113126058B208BDF9100000E83000001D0C000061
S11312707430000038B505460C460846334B984791
S1131280C0B2E36913F0010F22D100EB4003DA008E
S11312902F4B1344DA6B02F01C02E36913F0030FC3
S11312A0FBD1236813F0020F0BD0236823F0020351
S11312B02360E36913F0030FFBD1E36913F0020F1A
S11312C0FBD142F001022260E36913F0030FFBD16A
S11312D0E36913F0010FFBD100EB4003DA001C4B70
S11312E01344DB6B2360E36913F0030FFBD100EBC2
S11312F04003DA00164B13441B6C6360E36913F07C
S1131300040FFBD142000244D100114B0B445A6C30
S1131310E26093F83F3003F00303AB81012B94BFE9
S113132000230123626A22F4804242EA8333636227
S1131330E36913F0040FFBD100EB4000C200044B3F
S11313401344B3F84A30EB81002038BD2D1200005D
S11313507430000070B5054604692668C6F3C0669B
S113136040F2A6529949003018BF0120984B984783
S11313706B68012B57D0636823F480236360E369AF
S113138013F0040FFBD12B8813F4806F56D06A88B6
S113139012F0010F04D06A8892B242F480626A802B
S11313A040F2FE7202EA4302E36913F0040FFBD138
S11313B0636A03F48043134343F400436362E369C1
S11313C013F0040FFBD12E694FF6FF72337EDBB2AC
S11313D01846511E1AB10A4613F0030FF6D02268BC
S11313E0C2F3C062E36913F0040FFBD1638B9BB2B9
S11313F010F0010F00F09C8013F0020F32D0012294
S113140022766A8892B242F480526A806A8892B2E2
S113141022F4807292B26A8013F0010F00F0D1803E
S11314206FF0040070BD002EA5D0636843F48023E0
S11314306360E36913F0040FFBD1A4E75B00DBB244
S11314406A8802F001021A43E36913F0040FFBD126
S1131450636A03F4804313436362E36913F0040F84
S1131460FBD1B0E713F0040F1FD16B8813F4806F26
S113147039D02B881B125B0003F00602E36913F0DA
S1131480040FFBD1636A03F48043134343F0F10375
S11314906362E36913F0040FFBD16B889BB223F4FE
S11314A080639BB26B80002070BD6B68002B04DDF1
S11314B06B889BB243F480536B806B8813F4004FAA
S11314C008D16B889BB223F480739BB26B806FF05E
S11314D0010070BD636843F440336360E36913F053
S11314E0040FFBD1EDE7686898B96B8813F4004FDB
S11314F006D16B889BB223F480739BB26B8070BD62
S1131500636843F440336360E36913F0040FFBD171
S1131510EFE7AB681B78A362E36913F0040FFBD118
S1131520AB680133AB606B68013B6B60002070BD3E
S113153010F0020F48D0696800293DD013F0040F61
S11315403AD10139696001B9E2B1012918D06B6857
S11315504BB96B8813F4004F1DD16B889BB223F4F5
S113156080739BB26B80AA68531CAB60E36913F071
S1131570040FFBD1A36A137002232376002070BDED
S1131580002AE4D0636843F480236360E36913F0C2
S1131590040FFBD1DBE7636823F480736360E369C2
S11315A013F0040FFBD1636843F440336360E369D1
S11315B013F0040FFBD1D0E7022323766FF0010070
S11315C070BD6FF0030070BD002070BDE8300000F6
S11315D01D0C000010B5044668B103684BB101202E
S11315E040F6FE320549064B98472068054B98475C
S11315F010BD0020F4E70020F2E700BFE83000004F
S11316001D0C00005B11000010B5044668B10368AE
S11316104BB1012040F605420549064B9847206826
S1131620054B984710BD0020F4E70020F2E700BF07
S1131630E83000001D0C00007D11000038B50D4697
S1131640044640F219520649003018BF0120054BE8
S11316509847256129462046034B984738BD00BF6B
S1131660E83000001D0C00007512000070B51B4E20
S1131670044640F236523146003018BF0120184D5E
S1131680A847246940F206623146201C18BF012095
S1131690A847236843F002032360E36913F0030FB0
S11316A0FBD104214FF6FF72E36913F0040FFBD161
S11316B0638BC3F30113012B0BD0013A002AF3DC33
S11316C0013908D010236383E36913F0040FFBD1BD
S11316D0E8E7002070BD6FF0050070BDE830000041
S11316E01D0C00002DE9F04105460E460469DFF8A3
S11316F0A08240F2D1524146003018BF0120A24FCF
S1131700B847286940F2D2524146003018BF012040
S1131710B84740F2D3524146301C18BF0120B847A5
S11317206B8813F4807F40F02A8173889BB243F462
S11317308073738096E8070085E80700636843F4C4
S113174080736360E36913F0040FFBD128468F4B69
S113175098470346002800F0B0806A8892B222F4C9
S1131760807292B26A80BDE8F0816FF00400B7E045
S1131770738813F4004F07D16B889BB223F48073F2
S11317809BB26B80BDE8F081636843F440336360CF
S1131790E36913F0040FFBD1EEE713F0040F1FD13C
S11317A06B8813F4806F39D02B881B125B0003F015
S11317B00602E36913F0040FFBD1636A03F4804368
S11317C0134343F0F1036362E36913F0040FFBD1A5
S11317D06B889BB223F480639BB26B8000206BE028
S11317E06B68002B04DD6B889BB243F480536B80E1
S11317F06B8813F4004F08D16B889BB223F4807379
S11318009BB26B806FF0010056E0636843F4403391
S11318106360E36913F0040FFBD1EDE7686898B9DE
S11318206B8813F4004F06D16B889BB223F480734A
S11318309BB26B8040E0636843F440336360E369C8
S113184013F0040FFBD1EFE7AB681B78A362E369E5
S113185013F0040FFBD1AB680133AB606B68013B41
S11318606B60002028E017F0020F00F083806968A5
S1131870002977D013F0040F74D10139696009B9D4
S1131880002A55D0012951D06B684BB96B8813F4E9
S1131890004F56D16B889BB223F480739BB26B804C
S11318A0AA68531CAB60E36913F0040FFBD1A36A6D
S11318B0137002232376002003466A8812F4807F83
S11318C05AD028694FF6FF72037EDBB21F46511EC1
S11318D0002A3FF44AAF0A4613F0030FF4D0002065
S11318E000287FF445AF2268C2F3C062E36913F0B5
S11318F0040FFBD1638B9BB217F0010FB3D013F02D
S1131900020F3FF44AAF012222766A8892B242F46F
S113191080526A806A8892B222F4807292B26A809B
S113192013F0010F23D06FF00400C5E7002AABD0F9
S1131930636843F480236360E36913F0040FFBD10D
S1131940A2E7636823F480736360E36913F0040F10
S1131950FBD1636843F440336360E36913F0040F1D
S1131960FBD197E7022323766FF00100A4E76FF021
S11319700300A1E700209FE71846BDE8F0816FF05F
S11319800500BDE8F08100BF1D0C000055130000E8
S1131990E830000070B505460C460846504B9847A1
S11319A00023002B72D00026002D7BD0002C77D092
S11319B0012040F6B3424B494B4B9847002E00F0B0
S11319C08B80E36913F0010F1DD1336803F01C020F
S11319D0E36913F0030FFBD1236813F0020F0BD05C
S11319E0236823F002032360E36913F0030FFBD1A0
S11319F0E36913F0020FFBD142F001022260E369B4
S1131A0013F0030FFBD1E36913F0010FFBD12C603A
S1131A10002C4BD0002E47D0012040F60A12314949
S1131A20314B9847336823F4817323F00103236017
S1131A30E36913F0030FFBD1736823F4383323F401
S1131A40107343F400336360E36913F0170FFBD1A1
S1131A50337B2373737B84F830302046234B9847C1
S1131A6030BB2046224B9847014605F11C00214B10
S1131A709847EB69DD60EB691F4A1A60EB691F4AFE
S1131A805A60EB691E4A9A60002070BD052802D096
S1131A900133DBB285E703EB03161A4B1E4483E7DD
S1131AA0002086E7002084E70020B6E70020B4E7A2
S1131AB02046154B9847014605F11C000D4B9847ED
S1131AC0EB69DD60EB69114A1A60EB690B4A5A60F5
S1131AD0EB690B4A9A60C4E76FF00C0070BD00BF5D
S1131AE0F9100000E83000001D0C0000C1110000D6
S1131AF0A9110000990F0000151200002112000026
S1131B0009120000D4300000D9110000FD110000BA
S1131B1010B5044668B103684BB1012040F6E142B8
S1131B200549064B98472068054B984710BD00208F
S1131B30F4E70020F2E700BFE83000001D0C0000CD
S1131B403911000070B505461446032935D8DFE87D
S1131B5001F0020D2A186A600068184B9847221C8D
S1131B6018BF01220021164B984770BDAA60006877
S1131B70144B9847221C18BF01220021104B984790
S1131B8070BD2A6100680F4B9847003418BF0124C8
S1131B90224601210A4EB0472868084B984722463E
S1131BA00121B04770BDEA600068064B9847221CCB
S1131BB018BF01220221024B984770BDA9110000F1
S1131BC04D0E0000D91100002DE9F0470546894665
S1131BD090461F4604682046334B98470023002B49
S1131BE03FD04FF0000A2046304B98470646204627
S1131BF02F4B98470446B8F1000F3CD028462D4B94
S1131C00984728682C4B9847014630462B4B9847F9
S1131C10414630462A4B984739463046294B984727
S1131C2000213046284B9847B9F1000F27D0494688
S1131C302046224B98472868244B98470146204663
S1131C401F4B984701212046214B9847394620468F
S1131C501C4B9847002120461B4B98470020BDE8A9
S1131C60F087052802D00133DBB2B8E703EB031A8F
S1131C70184B9A44B7E72846174B9847D4E70AF11C
S1131C800E0120460D4B98472868104B9847014693
S1131C9020460B4B9847002120460D4B9847394668
S1131CA02046084B9847D5E7F9100000D9110000E9
S1131CB0A9110000D51500009F110000D90E0000E5
S1131CC0C90E0000050F00005D0F0000A311000005
S1131CD0E90E0000D4300000091600002F4B1B69E8
S1131CE013F0010F20D12D4B1B6913F0030FFAD110
S1131CF02A4B1B6813F0020F0ED0284A136823F0F6
S1131D0002031360254B1B6913F0030FFAD1234B15
S1131D101B6913F0020FFAD10122204B1A601F4BEA
S1131D201B6913F0030FFAD11C4B1B6913F0010F4D
S1131D30FAD14FF4A062194B1A60184B1B6913F0C7
S1131D40030FFAD1154B00225A71FF221A71012296
S1131D501A7343F608529A83104B1B6913F0C00F91
S1131D60FAD141F669020D4BDA830C4B1B6913F06F
S1131D70C00FFAD1094B4FF48072DA8021225A72D3
S1131D80DE221A721A6842F002021A60034B1B69BF
S1131D9013F0030FFAD10020704700BF00C00141C7
S1131DA0294B1B6913F0010F20D1274B1B6913F03A
S1131DB0030FFAD1244B1B6813F0020F0ED0224AF2
S1131DC0136823F0020313601F4B1B6913F0030F06
S1131DD0FAD11D4B1B6913F0020FFAD101221A4BE1
S1131DE01A60194B1B6913F0030FFAD1164B1B69C8
S1131DF013F0010FFAD14FF48062134B1A60124BA7
S1131E001B6913F0030FFAD10F4B00225A71FF2202
S1131E101A7101221A7341F669029A830A4B1B69EB
S1131E2013F0C00FFAD1084B01225A72FE221A7223
S1131E301A6842F002021A60034B1B6913F0030F85
S1131E40FAD10020704700BF00180043022820D0B8
S1131E5003283AD0012800D0704729490B68294A41
S1131E60D06CD862106D1863526D5A63264AD06CD8
S1131E705861106D9861526DDA61244AD06C186013
S1131E800B68116D5960526D9A604FF07E521A6260
S1131E9070471B490B681E4AD06CD862106D1863DA
S1131EA0526D5A631B4AD06C5861106D9861526D23
S1131EB0DA61194AD06C18600B68116D5960526D63
S1131EC09A604FF080421A6270470D490B68134ABA
S1131ED0D06CD862106D1863526D5A63104AD06C7E
S1131EE05861106D9861526DDA610E4AD06C1860B9
S1131EF00B68116D5960526D9A600B4A1A62ABE718
S1131F0074000020D80C0020800C0020FC09002064
S1131F10D40D0020280C00207C0D0020700B002024
S1131F20180B0020CC0B00200000404080B586B088
S1131F30374B9847374B9847374E384C31462046F5
S1131F40374B98472046374B9847374C40256561B7
S1131F50A56133680593354E0496354B0393354B91
S1131F600293354B0193354B0093354B354A364933
S1131F703648374FB84765610023364A1370364AEE
S1131F801370364A13703046354B9847354B1880DA
S1131F904FF48042344BDA600222344B1A702E4BD9
S1131FA01B78002B25D02B4B1B78002BF7D02B4B09
S1131FB01B78002BF3D1184B1B6805931B4B049320
S1131FC01B4B03931B4B02931B4B01931B4B009323
S1131FD01B4B1C4A1C491D48254CA047234B187811
S1131FE0244B984700221B4B1A7001221B4B1A707A
S1131FF0D5E7214B1B6800221A6232201F4B9847F9
S11320000122154B1A700022144B1A70CBE700BF43
S1132010D1020000AD070000540A00204003002054
S1132020A10A0000850A000000800041CC0B0020BA
S11320307C0D0020FC090020180B0020280C002037
S1132040800C0020700B0020D40D0020D80C002040
S1132050C92D0000F8090020240C0020A50A002046
S113206059280000C80B002000E100E0A809002066
S11320701D2D00004D1E000074000020DD2C00000A
S11320800D4B9B7A13F0010F0DD10B4B9B7A13F080
S1132090200F07D0084A937A43F020039372012259
S11320A0064B1A707047044A937A43F00103937203
S11320B00022034B1A70704700C00141F809002048
S11320C0240C00200139032905D8DFE801F00206B9
S11320D0090C0C2343704078704710234370FAE7CF
S11320E014234370F7E718234370F4E7F0B583B083
S11320F0064617461D4602AB03F8041D0122194685
S11321000A4B984701280DD104462A4639463046E1
S1132110074B9847A84202D1204603B0F0BD4FF0C8
S1132120FF34F9E74FF0FF34F6E700BFA90A0000D7
S1132130DD0A000030B583B00D4614464FF400624A
S113214001780848084B9847012301AA29462046EC
S1132150064CA047002803DD9DF8040003B030BD01
S1132160FF20FBE740030020910A0000ED2000005F
S113217070B582B005461E46BDF818408DF80410AF
S11321808DF80520022201A9094B984702280CD199
S1132190224631462846074B9847A04202D10120E7
S11321A002B070BD4FF0FF30FAE74FF0FF30F7E7B1
S11321B0A90A0000DD0A000010B582B004468DF8BB
S11321C00410110A8DF805108DF806208DF80730DB
S11321D004220DEB0201094B984704280BD101227C
S11321E004992046064B9847012801D102B010BD3E
S11321F04FF0FF30FAE74FF0FF30F7E7A90A00008D
S1132200DD0A0000082380F83830704708B5002242
S1132210427002700E4A82604FF08142C2600D4AE1
S113222002610D4A42614FF0804282610B4AC261F1
S11322300B4A02624FF07E5242620A4A82620A4AA2
S1132240C2620A4A02630A4A42630A4B984708BDBB
S11322500000A04000004040000020405555D53FFC
S1132260ABAAAA3F39B4483EC1CAA13E9A99193EC5
S1132270D9CE773E05220000012303FA01F101F0D3
S1132280080190F83830194380F838107047022953
S11322900CD801F11C0300EB43035A8001238B404B
S11322A090F8381021EA030180F8381070470000D4
S11322B0F0B585B004460D4617461E464FF400623D
S11322C001781048104B9847AA000323009303ABEE
S11322D002F0FC02502130460C4EB047002803DCCB
S11322E0FF26304605B0F0BD9DF80C609DF80D301A
S11322F09DF80E2042EA03223A8029462046044BE8
S11323009847EEE740030020910A00007121000085
S11323108F22000038B504460D46064B98472A46DE
S1132320F0212046044B984704460320034B98476A
S1132330204638BD0522000035210000C5090000F3
S113234008B50A468021014B984708BD3521000095
S11323502DE9F04784B005460C46904601F00F067F
S113236046F040064FF4006201783D483D4B9847E3
S113237014F008095BD0022314F0040A59D0022295
S1132380134404F002073B44DAB214F0010452D0BF
S113239002231344DBB20133DBB201AA31464046C7
S11323A0314EB047002859DD002C46D09DF8052059
S11323B09DF8063043EA0223A5F840300323002F9A
S11323C040D004AA1A4412F80C0C591C04AA114453
S11323D011F80C2C42EA0022A5F842200233DBB2A9
S11323E0BAF1000F32D004AA1A4412F80C0C591C8A
S11323F004AA114411F80C2C42EA0022A5F8442046
S11324000233DBB2B9F1000F24D004AA1A4412F843
S11324100C2C013304A90B4413F80C3C43EA0223AB
S1132420A5F846309DF8040004B0BDE8F087002309
S1132430A2E70022A4E70023ABE70023A5F840307D
S11324400123BCE70022A5F84220C9E70022A5F831
S11324504420D7E70023A5F84630E3E7FF20E3E76D
S113246040030020910A0000ED20000070B4428F68
S1132470C2F3021302F00F02C18FC1F3471101F03E
S11324803F0501F00301C5F381062D09848FC4F3D0
S113249080240C2A00F0918090ED0A5AD0ED0B4A6A
S11324A0023300EB8303D3ED005A002C00F08A8042
S11324B0B0F8423006EE903AF8EEE66ADFEDE07AE4
S11324C076EEE76A65EE266A65EEA66A012202FAEE
S11324D001F107EE901AB8EEE76A66EE266AC0EDDF
S11324E0136A002C00F0D480B0F8443007EE103AA0
S11324F0B8EEC77ADFEDD27A37EE677A25EE077A3F
S113250025EE877A0123B34007EE903AF8EEE76AA6
S113251026EE877A80ED147A002C00F01C81B0F846
S1132520463007EE903AF8EEE77A9FEDC57A77EEFB
S1132530C77A64EEA77A65EEA77A012303FA05F554
S113254007EE105AB8EEC77A67EE277AC0ED157A0F
S1132550B0F8403007EE903AF8EEE77A9FEDB97A9A
S113256077EEC77ADFEDB86A87EEA67AF3EE097ADA
S113257077EE277AC0ED127AD0ED137A9FEDB37A15
S1132580F4EEC77AF1EE10FA40F34A8180ED137A43
S1132590D0ED147A9FEDAD7AF4EEC77AF1EE10FA2D
S11325A000F349819FEDAA7AF4EEC77AF1EE10FAAE
S11325B040F1438180ED147A3FE190ED0C5AD0ED67
S11325C00D4A6DE703298CD8DFE801F002182E4884
S11325D0B0F9423007EE903AF8EEE77A67EE857A82
S11325E025EEA77A012303FA01F107EE901AF8EE1B
S11325F0E77A67EE877AC0ED137A72E7B0F9423072
S113260007EE903AF8EEE77A67EE857A25EEA77A38
S1132610012303FA01F107EE901AF8EEE77A67EE68
S1132620877AC0ED137A5CE7B0F8423007EE903A4F
S1132630F8EEE77A9FED827A77EEC77A65EE277A2D
S113264065EEA77A012303FA01F107EE101AB8EE3A
S1132650C77A67EE277AC0ED137A42E7B0F84230C2
S113266007EE903AF8EEE77A9FED7A7A77EEC77A3A
S113267065EE277A65EEA77A012303FA01F107EEE6
S1132680101AB8EEC77A67EE277AC0ED137A28E7F6
S1132690032E3FF641AFDFE806F002172C45B0F9F0
S11326A0443007EE103AB8EEC77A27EE057A25EEE5
S11326B0875A0123B34007EE903AB8EEE77A27EE43
S11326C0057A80ED147A27E7B0F9443007EE103A22
S11326D0B8EEC77A27EE057A25EE875A0123B34070
S11326E007EE903AB8EEE77A27EE057A80ED147A91
S11326F012E7B0F8443007EE103AB8EEC77ADFEDCF
S1132700507A37EE677A25EE077A25EE877A012329
S1132710B34007EE903AB8EEE75A25EE077A80ED1B
S1132720147AF9E6B0F8443007EE103AB8EEC77AF6
S1132730DFED487A37EE677A25EE077A25EE877A59
S11327400123B34007EE903AB8EEE75A25EE077A34
S113275080ED147AE0E6032D3FF6FAAEDFE805F0EB
S113276002172C46B0F9463007EE903AF8EEE77AB5
S113277067EEA47A65EEA75A0123AB4007EE903AC0
S1132780F8EEE77A67EEA57AC0ED157AE0E6B0F9DF
S1132790463007EE903AF8EEE77A67EEA47A65EEF3
S11327A0A75A0123AB4007EE903AF8EEE77A67EEBA
S11327B0A57AC0ED157ACBE6B0F8463007EE903A2C
S11327C0F8EEE77A9FED1E7A77EEC77A64EEA77A81
S11327D065EEA77A012303FA05F507EE105AF8EE21
S11327E0C75A65EEA77AC0ED157AB1E6B0F846305F
S11327F007EE903AF8EEE77A9FED167A77EEC77A0D
S113280064EEA77A65EEA77A012303FA05F507EECD
S1132810105AF8EEC75A65EEA77AC0ED157A97E616
S11328209FED0B7AF4EEC77AF1EE10FA7FF5B0AEB5
S113283080ED137AACE680ED147A70BC704700BF6B
S11328400000004700A43447CDCC34420050434735
S1132850005043C70000804610B4C28F02F0030347
S1132860C2F3C124C2F3820101228A4002329A4097
S113287002EB4202930103F1C900C023A340433396
S11328801844054BA3FB0030C0F34F10083080B24E
S11328905DF8044B704700BF1F85EB51000980F0C1
S11328A0010000F001007047F0B585B005460E4602
S11328B017461C46124B98474FF40062297811487A
S11328C0114B9847B30003AA009203F0FC033A4665
S11328D0602120460D4CA04700280EDD9DF80C40D9
S11328E020460B4B984708B9204607E03A46314644
S11328F02846084B9847204600E0FF2005B0F0BD6D
S11329007922000040030020910A0000B921000050
S11329109D2800008F220000C0F3001070470000C3
S113292090F838200AB3F8B50E460546002401E0B5
S11329300134E4B2022C15D895F83830234113F051
S1132940010FF5D004F11C0205EB420233460232BA
S113295021462846064FB847064B98470028E7D03B
S1132960FF2200E000221046F8BD1046704700BF69
S1132970B12200001929000070B506460C46154620
S11329801146054B984704F00F012A4641F03001E7
S11329903046024B984770BD2129000035210000C4
S11329A010F0100F01D0FF20704700207047000086
S11329B02DE9F04182B0074688461546002402AA54
S11329C022F8024D2B4621460F4EB0470646BDF86D
S11329D0062022F0700212B24FEA081808F07008BC
S11329E042EA08022B4692B221463846074CA047D9
S11329F007463046064DA84704463846A8472043B4
S1132A00C0B202B0BDE8F081B1220000A9280000E4
S1132A10A1290000F0B583B005461B0103F0300383
S1132A20920002F00C021A4301F0030142EA01048D
S1132A3002AA002322F8023D089B02210D4EB04752
S1132A400746BDF8062022F4FC6212B242EA4412A0
S1132A50089B92B202212846074CA04706463846F6
S1132A60064DA84704463046A8472043C0B203B0E9
S1132A70F0BD00BFB1220000A9280000A129000078
S1132A80F0B583B007460C46154602AA002322F887
S1132A90023D2B4602210E4EB0470646BDF80620E5
S1132AA022F0030212B204F0030422432B4692B232
S1132AB002213846074CA04707463046064DA84732
S1132AC004463846A8472043C0B203B0F0BD00BF57
S1132AD0B1220000A9280000A1290000F0B583B0AC
S1132AE007460C46154602AA002322F8023D2B464F
S1132AF002210E4EB0470646BDF8062022F01C0205
S1132B0012B2A40004F01C0422432B4692B2022108
S1132B103846074CA04707463046064DA8470446AA
S1132B203846A8472043C0B203B0F0BDB12200002C
S1132B30A9280000A1290000F0B583B00646144678
S1132B400F1C18BF012702AA002322F8023D2346C6
S1132B5001210D4DA8470546BDF8062022F48062E8
S1132B6012B242EA8722234692B201213046074C30
S1132B70A04706462846064DA84704463046A847BF
S1132B802043C0B203B0F0BDB1220000A928000068
S1132B90A12900002DE9F04782B0044617461E46DD
S1132BA00B9D244B984794F90120002F3FD100231B
S1132BB01343002E18BF43F0010323709DF82830FF
S1132BC0A370294620461C4B9847294620461B4B98
S1132BD098471B4B984781462A4602212046194BA9
S1132BE098478246009500231A4619462046164EF9
S1132BF0B04780462A4601212046144B9847074691
S1132C002A4602212046124B984706462A460021AE
S1132C102046104B984749EA0A0948EA090847EA56
S1132C2008073E433043C0B202B0BDE8F087022338
S1132C30BEE700BFC52000004123000015230000AB
S1132C40A1290000B1290000152A0000812A0000F2
S1132C50DD2A0000392B0000F0B583B007460C468E
S1132C60154602AA002322F8023D2B4601210F4EED
S1132C70B0470646BDF8062022F4006213B2A2B2A1
S1132C80D20202F400621A432B4692B20121384662
S1132C90074CA04707463046064DA8470446384629
S1132CA0A8472043C0B203B0F0BD00BFB12200006A
S1132CB0A9280000A129000038B505460C460A469B
S1132CC00121044B984722460E212846024B98477F
S1132CD038BD00BF592C00007929000038B5034CD9
S1132CE04025A561024B9847656138BD00800041CD
S1132CF0A509000038B505460A460E21044B98473D
S1132D0004462846034B98472046034B984738BD52
S1132D10512300006D240000A12900002DE9F04F8B
S1132D2083B0884617461E461199254CA047054690
S1132D3011994046A047834611993846A0478246D8
S1132D4011993046A047814611990C98A0478046B6
S1132D5011990D98A047074611990E98A047064669
S1132D6011990F98A047009011991098A0470190CD
S1132D702846144DA84704465846A8470443E4B2DD
S1132D805046A8470443E4B24846A8470443E4B283
S1132D904046A8470443E4B23846A8470443E4B293
S1132DA03046A8470443E4B20098A8470443E4B279
S1132DB00198A8472043C0B203B0BDE8F08F00BF1C
S1132DC0F52C0000A12900002DE9F04F83B0064640
S1132DD08B4692469946119DDFF8EC80C0470195D9
S1132DE0002400942346224601213046344FB8473C
S1132DF029463046334EB0475846C04701950094A3
S1132E000123224619465846B84729465846B04732
S1132E105046C0470195009423460122114650466E
S1132E20B84729465046B0474846C04701950094E4
S1132E302346224602214846B84729464846B04719
S1132E400C98C047019500940123224602210C9856
S1132E50B84729460C98B0470D98C047019500948F
S1132E602346012202210D98B84729460D98B04700
S1132E700E98C047019500942346224603210E98DC
S1132E80B84729460E98B0470F98C047019500945B
S1132E900123224603210F98B84729460F98B047CB
S1132EA01098C047019500942346012203211098ED
S1132EB0B84729461098B04703B0BDE8F08F00BF6B
S1132EC0952B0000B92C00000D22000070B50D4EAA
S1132ED00D4CA41BA4100025A54209D10B4E0C4C8B
S1132EE000F010F9A41BA4100025A54205D170BD63
S1132EF056F8253098470135EEE756F825309847BF
S1132F000135F2E7103100001031000010310000EB
S1132F101431000008000020120000204E000020A0
S1132F20380000204B0000202E2E2F68616C2F7378
S1132F3072632F68616C5F6932635F6D5F73796E72
S1132F40632E63002E2E2F68616C2F7372632F68BB
S1132F50616C5F696F2E63002E2E2F68616C2F7376
S1132F6072632F68616C5F7370695F6D5F646D611C
S1132F702E630000000E200000001008000F200047
S1132F800000101400000000000000000000000019
S1132F90000000000000000000000000000000002D
S1132FA0000000000000000000000000000000001D
S1132FB0000000000000000000000000000000000D
S1132FC000000000000000000000000000000000FD
S1132FD000000000000000000000000000000000ED
S1132FE000000000000000000000000000000000DD
S1132FF000000000000000000000000000000000CD
S113300000000000000000000000000000000000BC
S113301000000000000000000000000000000000AC
S1133020000000000000000000000000000000009C
S1133030000000000000000000000000000000008C
S1133040000000000000000000000000000000007C
S1133050000000000000000000000000000000006C
S1133060000000000000000000000000000000005C
S11330700000000000300040003400400020014106
S113308000400141000000430004004300080043E5
S1133090000C0043000000000000000000000000DD
S11330A00000000000000000000000000300000019
S11330B01400207000010000FF0000000000D70091
S11330C000E1F50500000000000000000000000021
S11330D0000000000C0030000000020000000000AE
S11330E00400FF01050000002E2E2F68706C2F7362
S11330F06572636F6D2F68706C5F736572636F6D5B
S11331002E630000F8B500BFF8BC08BC9E467047AB
S113311089020000F8B500BFF8BC08BC9E467047A1
S10731206502000040
S113312461000020030074FFFFFFFF030064FFFF3E
S1133134FFFF0243080000000000000040000000FC
S11331440000000040034308FFFFFFFFFFFFFFFFF1
S1133154FFFFFFFFFFFFFFFF0243080011400000D1
S113316400008000184000000000800300000200FA
S11331742000000000000000000000000000000027
S11331840000000000024310001140000000008011
S113319400000000F003002030040020DD000020C3
S11331A4030074FFFFFFFF030064FFFFFFFF0243FC
S11331B408000000000000004000000000000000BF
S11331C440034308FFFFFFFFFFFFFFFFFFFFFFFF75
S11331D4FFFFFFFF024308001140000000008000CD
S11331E418400000000080030000020020000000DA
S11331F400000000000000000000000000000000C7
S11332040002431000114000000000800000000090
S9030000FC
