:10000000781D0120E1020000DD020000DD02000099
:10001000DD020000DD020000DD0200000000000043
:10002000000000000000000000000000DD020000F1
:10003000DD02000000000000DD020000DD02000023
:10004000DD020000DD020000DD020000DD02000034
:10005000DD020000DD020000DD020000DD02000024
:10006000DD020000DD020000DD020000DD02000014
:10007000DD020000DD020000DD020000DD02000004
:10008000DD020000DD020000DD020000DD020000F4
:10009000DD020000DD020000DD020000DD020000E4
:1000A000DD020000DD020000DD020000DD020000D4
:1000B000DD020000DD020000DD0200006110000032
:1000C0006D100000791000008510000091100000F4
:1000D000DD020000DD020000DD020000DD020000A4
:1000E000DD020000DD020000000000000000000052
:1000F000000000006D110000DD020000DD020000C4
:10010000DD020000DD020000DD020000DD02000073
:10011000DD020000DD020000DD020000DD02000063
:10012000DD020000DD020000DD020000DD02000053
:10013000DD020000DD020000DD020000DD02000043
:10014000DD020000DD020000DD020000DD02000033
:10015000DD020000DD020000DD020000DD02000023
:10016000DD020000DD020000DD020000DD02000013
:10017000DD020000DD020000DD020000DD02000003
:10018000DD020000DD020000DD020000DD020000F3
:10019000DD020000DD020000DD020000DD020000E3
:1001A000DD020000DD020000DD020000DD020000D3
:1001B000DD020000DD020000DD020000DD020000C3
:1001C000DD020000DD020000DD020000DD020000B3
:1001D000DD020000DD020000DD020000DD020000A3
:1001E000DD020000DD020000DD020000DD02000093
:1001F000DD020000DD0200007D250000DD020000C0
:10020000DD020000DD020000F5070000DD02000055
:10021000DD020000DD020000DD020000DD02000062
:10022000DD020000DD020000DD020000DD02000052
:10023000DD020000DD020000DD020000DD02000042
:10024000DD020000DD020000DD020000DD02000032
:10025000DD020000DD020000DD020000DD02000022
:10026000DD02000010B5054C237833B9044B13B1FF
:100270000448AFF300800123237010BD600100200B
:1002800000000000E46B00000C4B43B10C480D492A
:1002900010B5AFF300800C48036823B910BD0A48BD
:1002A000036833B97047094B002BF7D0BDE8104005
:1002B0001847064B002BF5D0184700BF0000000080
:1002C000E46B000064010020E46B0000000000000B
:1002D00008B5014B984708BD01060000FEE7000085
:1002E00008B5154B154A9A4209D0134B134A03E03F
:1002F000116819600433043211498B42F8D3114B51
:1003000002E000221A6004330F4A9342F9D30F4BE4
:100310000F4A22F07F029A60D3F8882042F47002DC
:10032000C3F88820BFF34F8FBFF36F8F094B9847F7
:10033000094B9847FEE700BF00000020E46B000077
:100340005401002060010020741D002000ED00E039
:10035000000000000D6900003D220000164B93F8DC
:10036000562002F0FB0283F8562093F8562002F044
:10037000FE0242F0010283F8562093F83B2002F07F
:10038000F00242F0020283F83B2093F8572002F07B
:10039000FB0283F8572093F8572002F0FE0242F048
:1003A000010283F8572093F83B2002F00F0242F03D
:1003B000200283F83B20704700800041064B40221A
:1003C000C3F8E0204322C3F88C20044A936943F425
:1003D00080639361704700BF001C0040000800402C
:1003E00008B5044B984704490448054B9847054B0A
:1003F000984708BDBD03000000400141D003002024
:10040000010B00005D0300002C4B4FF48032C3F859
:100410009420C3F888204FF08041C3F8A810284AE0
:10042000C3F8A82093F8D02002F0FE0242F00102A7
:1004300083F8D02093F8B82002F0F00242F00202D4
:1004400083F8B8204FF40032C3F89420C3F8882012
:10045000C3F8A8101B4AC3F8A82093F8D12002F0D3
:10046000FE0242F0010283F8D12093F8B82002F096
:100470000F0242F0200283F8B8200222C3F8842041
:10048000114AC3F8A820114AC3F8A82093F8C12044
:1004900002F0FB0283F8C12093F8C12002F0FE02B3
:1004A00042F0010283F8C12093F8B02002F00F025D
:1004B00042F0300283F8B020704700BF0080004156
:1004C000010000C0020000C002000240000002C0A3
:1004D000064B4022C3F80C214322C3F88C20044A67
:1004E000136A43F002031362704700BF001C004010
:1004F0000008004008B5044B984704490448054BE0
:100500009847054B984708BDD104000000040043FC
:10051000A0030020350C000009040000164B93F8DE
:10052000C82102F0FB0283F8C82193F8C82102F029
:10053000FE0242F0010283F8C82193F8B42102F0D0
:10054000F00242F0020283F8B42193F8C92102F0CC
:10055000FB0283F8C92193F8C92102F0FE0242F0A0
:10056000010283F8C92193F8B42102F00F0242F08E
:10057000200283F8B421704700800041064B4022DE
:10058000C3F814214322C3F88C20044A136A43F0B1
:1005900008031362704700BF001C004000080040C1
:1005A00008B5044B984704490448054B9847054B48
:1005B000984708BD7D050000000C00438003002023
:1005C000010B00001D050000044A936943F48043B9
:1005D00093614022024BC3F8E820704700080040B6
:1005E000001C0040044A136A43F040031362402297
:1005F000024BC3F81C21704700080040001C00405B
:1006000008B5194B9847194B40225A619A6002F17C
:1006100080429A624FF04041996293F8462002F07E
:10062000FE0283F846200122C3F89820C3F88820F0
:1006300002F18042C3F8A820C3F8A81093F8C020A4
:1006400002F0FE0283F8C020094B9847094B9847F7
:10065000094B9847094B9847094B9847094B9847CE
:10066000094B984708BD00BF210D000000800041E4
:10067000E1030000F5040000A1050000C905000029
:10068000991D0000E50500005D1E00000122114BD0
:10069000C3F8982003F500539B6BDA680E4B9A421F
:1006A0000DD00E4B022283F8442001200949C1F8E5
:1006B000940083F854200022094B1A7070470123DC
:1006C000074A1370074A13704FF48022064BDA6012
:1006D000704700BF008000417805002000A0004165
:1006E000880500204005002000E100E030B40C88BF
:1006F000A4B244F001040C800C88A4B244F00604B7
:100700000C800C88A4B224F01804BDF80C50ED0045
:1007100005F018052C430C800C88A4B224F4407416
:10072000A4B20C80032814D8DFE800F00239254B6E
:10073000088880B240F480600880088880B220F485
:10074000006080B208801A4448684A608A68264A75
:100750008A600A8892B222F4805292B20A800A8891
:10076000C2F30C020A809BB24A884B80CB68029B82
:10077000CB6030BC70470A8892B222F4806292B299
:100780000A800A8892B222F4006292B20A80174A62
:10079000126848684A608A68134A8A60D9E70888FC
:1007A00080B220F4806080B20880088880B240F473
:1007B0000060088048680C4848601A4488688A606D
:1007C000C7E70A8892B222F4806292B20A800A884D
:1007D00092B222F4006292B20A804A68024A4A60E7
:1007E0008A68034A8A60B4E7280400435469000019
:1007F00040040020F0B583B0164A937A43F0010319
:1008000093720122144B1A70144B1B7883B100238E
:1008100001931146124AC2F8941002F500520221C7
:1008200082F8441082F854100C4A137003B0F0BDE3
:100830000B4B0125C3F89850084E00243470C3F8C0
:10084000945021462046074FB84721462846B847CE
:100850003470EBE7001800434105002088050020B4
:1008600000800041151000002DE9F04F83B0DFF843
:10087000B881614F02260196DFF8B091CDF8009063
:100880001323D8F80420394600205C4DA847D8F837
:1008900008B001965A4C009443235A46494600201A
:1008A000A847584B1A68DFF888910196CDF8009058
:1008B0000B2321460020A84700240194DFF874A1EF
:1008C000CDF800A003235A4649462046A847019682
:1008D000DFF864B1CDF800B040234B4A51462046C2
:1008E000A8470196DFF854A1CDF800A01323D8F84B
:1008F0000C2059462046A847D8F810200194DFF86C
:100900004081CDF80080032351462046A847019638
:10091000CDF800904023224641463046A847DFF8F4
:1009200024810196DFF82091CDF800901323224610
:1009300041460320A8470196DFF810A1CDF800A09A
:100940004323224649460320A847DFF80491019635
:10095000CDF800900B23224651460320A84701966C
:10096000DFF8F0A0CDF800A043232246494603203B
:10097000A8470196DFF8E0B0CDF800B01323224677
:1009800051460320A8470194DFF8D0A0CDF800A07D
:100990000323224659461846A8470196CDF80090F1
:1009A0004023194A1A4451460120A847174D184AB6
:1009B00031462846174B9847D8F80C30009398E8F2
:1009C0000E002046144EB047FB68009397E80E00D7
:1009D0000120B0472846114B98470126104BC3F819
:1009E0009460214620460F4DA84721463046A8472F
:1009F00003B0BDE8F08F00BF30050020ED06000019
:100A0000580500200000002080040020A0030020E2
:100A10008D060000A90C00009D100000810C000054
:100A2000008000411510000054690000600400209F
:100A3000100400203004002020050020680500205C
:100A40002004002070040020000500201005002074
:100A500078050020F0030020000400204805002055
:100A600010B5044B1C68044B984701462046034BC5
:100A7000984710BD7C010020E10C0000190D00001A
:100A800010B5044B1C68044B984701462046034BA5
:100A9000984710BD7C010020F90C0000190D0000E2
:100AA00010B584B00389ADF80430144602924FF4B7
:100AB0000043ADF80630039101A91438034B984761
:100AC00010B9204604B010BD0446FAE7A117000093
:100AD00010B584B00389ADF804301446029248F290
:100AE0000103ADF80630039101A91438034B984770
:100AF00010B9204604B010BD0446FAE7A117000063
:100B000038B50D4604465E220849003018BF012062
:100B1000074B984729462046064B9847034618B985
:100B2000054AA261054A6261184638BD686900003D
:100B3000D90C0000F9160000D10A0000A10A00003B
:100B400008B5014B984708BD29170000C1F30901FA
:100B500002F480620A4382831046704714300860B2
:100B60000020704770B50D461646044668B151B175
:100B7000012034220649074B98472368324629460C
:100B80002046984770BD0020F3E70020F1E700BF42
:100B900084690000D90C000070B50D461646044665
:100BA00068B151B101203D220649074B984763685F
:100BB000324629462046984770BD0020F3E70020C2
:100BC000F1E700BF84690000D90C000070B50D4644
:100BD0001646044698220749003018BF0120064BEC
:100BE0009847334600222946A4F12000034CA04731
:100BF00070BD00BF98690000D90C0000851C000082
:100C000070B50D461646044681220749003018BFCC
:100C10000120064B984733462A460021A4F12000C4
:100C2000034CA04770BD00BF98690000D90C0000BC
:100C3000851C000038B50C460546A8B191B10120CD
:100C40003B220A490A4B9847284640F8044F214660
:100C5000084B9847034618B9074AAA62074A6A62CE
:100C6000184638BD0020EBE70020E9E7986900004E
:100C7000D90C0000511A0000010C0000CD0B00003F
:100C800010B5044651220549003018BF0120044B1D
:100C90009847201D034B984710BD00BF986900007E
:100CA000D90C0000CD1B000070B50D461646044659
:100CB000A8220649003018BF0120054B984732464C
:100CC0002946201D034B984770BD00BF986900005E
:100CD000D90C0000011C000000B900BE70470000E4
:100CE000642303FB00F00230024BA3FB00304008FA
:100CF000704700BFABAAAAAA642303FB00F3023328
:100D00000448A0FB03235B084FF47A7000FB03F058
:100D1000704700BFABAAAAAA0139FDD8704700BF2F
:100D200008B50D4A13889BB243F4C06313800B4B84
:100D300098470B4B98470B4B98470B4B984740F6FF
:100D4000FF700A4B98470A4A136943F40073136112
:100D5000084B984708BD00BF00400041F910000053
:100D60000D110000ED10000029110000C910000055
:100D700000080040F90D000008B51D4A138C03F06F
:100D80001F031C4800EB0310128C12F4807F0AD161
:100D9000174A128C12F4007F10D1154A128C12F4EB
:100DA000806F17D108BD1B0103F1824202F520427A
:100DB000012182F84E104368984708BD1B0103F1DA
:100DC000824202F52042022182F84E10094AD3588D
:100DD000984708BD1B0103F1824202F5204204211D
:100DE00082F84E10034A13449B689847DAE700BF25
:100DF00000A000418001002030B43D4A13889BB21E
:100E000023F002039BB2138053889BB223F47C53DC
:100E10009BB2538013889BB243F001031380344B81
:100E20001B8813F0010FFAD1314A4FF4706313801D
:100E3000537B03F0FE0343F001035373002353611C
:100E40002C4951632C49916316E02C4A52F83350D7
:100E5000274C191D09016018655002EBC302117976
:100E6000417151798171D48822491A0188188C52B4
:100E70000022C2600133DBB21F2BE6D900230AE057
:100E800003F11F010AB2002A10DA002A1CDA002A34
:100E900024DA0133DBB2042BF2D9154A13889BB252
:100EA00043F002031380002030BC7047500901F06A
:100EB0001F050124AC402030114D45F82040BFF300
:100EC0004F8FBFF36F8FE0E7500901F01F0501243A
:100ED000AC4060300A4D45F82040D8E7520901F097
:100EE0001F01012000FA01F1054840F82210D0E767
:100EF00000A000419005002090070020B469000088
:100F000000E100E091B942B9000100F1824000F532
:100F10002040022380F84C307047000100F18240ED
:100F200000F52040022380F84D307047012902D09F
:100F3000022912D070473AB9000100F1824000F551
:100F4000204080F84C107047000100F1824000F50D
:100F50002040012380F84D30704742B1000100F17C
:100F6000824000F52040042380F84D30E2E7000184
:100F700000F1824000F52040042380F84C30704797
:100F8000024B03EB001081600020704790050020A9
:100F9000024B03EB001041600020704790050020D9
:100FA000054A0001135A9BB223F4806343EA81216E
:100FB00089B21152002070479005002030B4144CC3
:100FC0000201A3189D68A35AC3F30123A25A12F485
:100FD000006F06D001FA03F42C440D4A02EB001214
:100FE00094600B4C0201A5186D68A25A12F4806F30
:100FF00005D001FA03F32B4404EB0012536089B2CD
:10100000034B03EB00104180002030BC704700BF51
:101010009005002010B40C4C0201A35A9BB243F07F
:101020000103A352094C031D1B01E25842F00202C6
:10103000E25029B1012303FA00F022691043206134
:1010400000205DF8044B70479005002000A000418F
:10105000024B03EB0111016000207047800100206A
:1010600008B5014B984708BD790D000008B5014B44
:10107000984708BD790D000008B5014B984708BD99
:10108000790D000008B5014B984708BD790D0000A7
:1010900008B5014B984708BD790D000084B070B4C5
:1010A00085B0064609A880E80E000FC88DE80F003D
:1010B000044D05EB061585E80F0005B070BC04B0C3
:1010C000704700BF9005002010F0010F08D0054ABE
:1010D000054B1A62044B5A6843F6FD731A42F9D164
:1010E000704700BF08010100001C00400122014BB5
:1010F0005A71704700080040034BDA6902F47C52D1
:10110000DA6101221A74704700140040044A054B4A
:101110009A61044B1B6913F0020FFAD0704700BFAD
:10112000062600030010004031220E4B9A640D4B3E
:101130001B6D13F0060FFAD10A4B0B4ADA64022238
:1011400083F84420074B1B6D13F0020FFAD1054BB7
:101150005B6D13F0010F04D1024B5B6D13F0020FB6
:10116000F5D07047001000406000020000B583B069
:101170000D4B9B78DBB20193019B13F0020F06D05D
:101180000A4B1B681BB1084A5068984709E0019B4D
:1011900013F0010F05D0054B5B6813B1024A50688C
:1011A000984703B05DF804FB00000241900900205D
:1011B00070B489B006466C460C4D0FCD0FC495E84F
:1011C0000F0084E80F00002007280AD808AB03EBC3
:1011D000800353F8203CB34201D00130F4E7C0B2A1
:1011E00000E0002009B070BC704700BFB46A000086
:1011F000C36913F0010F09D1036843F002030360D0
:10120000C36913F0030FFBD1002070476FF0030098
:101210007047C36913F0040F09D1436843F40033E6
:101220004360C36913F0170FFBD1002070476FF0C4
:1012300003007047C36913F0040F09D1436823F416
:1012400000334360C36913F0170FFBD100207047D0
:101250006FF0030070472830704728307047000057
:1012600008B5044B9847052801D0002008BD01208F
:1012700008BD00BFB111000008B5044B9847052810
:1012800001D0002008BD012008BD00BFB111000041
:1012900008B5074B9847072807D8DFE800F0040493
:1012A000040404060404012008BD002008BD00BF9A
:1012B000B111000008B5C3689B6803B1984708BD29
:1012C00008B5C368DB6803B1984708BD08B5C368B3
:1012D0005B6803B1984708BD08B5C3681B6903B1D3
:1012E000984708BD08B50E4B98470023012B0DD831
:1012F00003EB4302D1000B4A0A4492F83820904293
:1013000002D00133DBB2F1E758B208BD40F2A73298
:1013100005490020054B98474FF0FF3008BD00BF3E
:10132000B1110000B46A0000406B0000D90C00004D
:1013300038B505460C460846334B9847C0B2E369BA
:1013400013F0010F22D100EB4003DA002F4B1344BE
:10135000DA6B02F01C02E36913F0030FFBD1236880
:1013600013F0020F0BD0236823F002032360E3691C
:1013700013F0030FFBD1E36913F0020FFBD142F02E
:1013800001022260E36913F0030FFBD1E36913F05C
:10139000010FFBD100EB4003DA001C4B1344DB6B65
:1013A0002360E36913F0030FFBD100EB4003DA0085
:1013B000164B13441B6C6360E36913F0040FFBD1FD
:1013C00042000244D100114B0B445A6CE26093F886
:1013D0003F3003F00303AB81012B94BF00230123B3
:1013E000626A22F4804242EA83336362E36913F063
:1013F000040FFBD100EB4000C200044B1344B3F8D0
:101400004A30EB81002038BDE5120000B46A0000CC
:1014100070B5054604692668C6F3C06640F2A65258
:101420009949003018BF0120984B98476B68012BF1
:1014300057D0636823F480236360E36913F0040FDB
:10144000FBD12B8813F4806F56D06A8812F0010FFD
:1014500004D06A8892B242F480626A8040F2FE72DE
:1014600002EA4302E36913F0040FFBD1636A03F459
:101470008043134343F400436362E36913F0040FB2
:10148000FBD12E694FF6FF72337EDBB21846511E38
:101490001AB10A4613F0030FF6D02268C2F3C062F5
:1014A000E36913F0040FFBD1638B9BB210F0010FC3
:1014B00000F09C8013F0020F32D0012222766A885D
:1014C00092B242F480526A806A8892B222F48072A8
:1014D00092B26A8013F0010F00F0D1806FF0040027
:1014E00070BD002EA5D0636843F480236360E36978
:1014F00013F0040FFBD1A4E75B00DBB26A8802F0B3
:1015000001021A43E36913F0040FFBD1636A03F489
:10151000804313436362E36913F0040FFBD1B0E728
:1015200013F0040F1FD16B8813F4806F39D02B8810
:101530001B125B0003F00602E36913F0040FFBD1FA
:10154000636A03F48043134343F0F1036362E36986
:1015500013F0040FFBD16B889BB223F480639BB222
:101560006B80002070BD6B68002B04DD6B889BB224
:1015700043F480536B806B8813F4004F08D16B8861
:101580009BB223F480739BB26B806FF0010070BD3F
:10159000636843F440336360E36913F0040FFBD1E5
:1015A000EDE7686898B96B8813F4004F06D16B8833
:1015B0009BB223F480739BB26B8070BD636843F46D
:1015C00040336360E36913F0040FFBD1EFE7AB68CE
:1015D0001B78A362E36913F0040FFBD1AB680133FE
:1015E000AB606B68013B6B60002070BD10F0020FB8
:1015F00048D0696800293DD013F0040F3AD1013971
:10160000696001B9E2B1012918D06B684BB96B88E8
:1016100013F4004F1DD16B889BB223F480739BB2EF
:101620006B80AA68531CAB60E36913F0040FFBD115
:10163000A36A137002232376002070BD002AE4D031
:10164000636843F480236360E36913F0040FFBD104
:10165000DBE7636823F480736360E36913F0040FCE
:10166000FBD1636843F440336360E36913F0040F14
:10167000FBD1D0E7022323766FF0010070BD6FF03D
:10168000030070BD002070BD406B0000D90C00004D
:1016900010B5044668B103684BB1012040F6FE3234
:1016A0000549064B98472068054B984710BD002018
:1016B000F4E70020F2E700BF406B0000D90C000007
:1016C0001312000010B5044668B103684BB1012045
:1016D00040F605420549064B98472068054B984758
:1016E00010BD0020F4E70020F2E700BF406B0000CF
:1016F000D90C00003512000038B50D46044640F202
:1017000019520649003018BF0120054B9847256142
:1017100029462046034B984738BD00BF406B000068
:10172000D90C00003113000070B51B4E044640F286
:1017300036523146003018BF0120184DA8472469A1
:1017400040F206623146201C18BF0120A8472368DA
:1017500043F002032360E36913F0030FFBD104217C
:101760004FF6FF72E36913F0040FFBD1638BC3F3F1
:101770000113012B0BD0013A002AF3DC013908D008
:1017800010236383E36913F0040FFBD1E8E7002023
:1017900070BD6FF0050070BD406B0000D90C0000FB
:1017A0002DE9F04105460E460469DFF8A08240F2BB
:1017B000D1524146003018BF0120A24FB8472869D6
:1017C00040F2D2524146003018BF0120B84740F2E3
:1017D000D3524146301C18BF0120B8476B8813F420
:1017E000807F40F02A8173889BB243F480737380BA
:1017F00096E8070085E80700636843F48073636038
:10180000E36913F0040FFBD128468F4B984703463A
:10181000002800F0B0806A8892B222F4807292B2FE
:101820006A80BDE8F0816FF00400B7E0738813F4BC
:10183000004F07D16B889BB223F480739BB26B80FF
:10184000BDE8F081636843F440336360E36913F0FB
:10185000040FFBD1EEE713F0040F1FD16B8813F4D4
:10186000806F39D02B881B125B0003F00602E369FE
:1018700013F0040FFBD1636A03F48043134343F076
:10188000F1036362E36913F0040FFBD16B889BB231
:1018900023F480639BB26B8000206BE06B68002BAD
:1018A00004DD6B889BB243F480536B806B8813F428
:1018B000004F08D16B889BB223F480739BB26B807E
:1018C0006FF0010056E0636843F440336360E369FE
:1018D00013F0040FFBD1EDE7686898B96B8813F437
:1018E000004F06D16B889BB223F480739BB26B8050
:1018F00040E0636843F440336360E36913F0040F2E
:10190000FBD1EFE7AB681B78A362E36913F0040F28
:10191000FBD1AB680133AB606B68013B6B600020AF
:1019200028E017F0020F00F083806968002977D063
:1019300013F0040F74D10139696009B9002A55D038
:10194000012951D06B684BB96B8813F4004F56D105
:101950006B889BB223F480739BB26B80AA68531C84
:10196000AB60E36913F0040FFBD1A36A1370022389
:101970002376002003466A8812F4807F5AD02869B3
:101980004FF6FF72037EDBB21F46511E002A3FF462
:101990004AAF0A4613F0030FF4D0002000287FF46A
:1019A00045AF2268C2F3C062E36913F0040FFBD1B4
:1019B000638B9BB217F0010FB3D013F0020F3FF40B
:1019C0004AAF012222766A8892B242F480526A803B
:1019D0006A8892B222F4807292B26A8013F0010F88
:1019E00023D06FF00400C5E7002AABD0636843F44E
:1019F00080236360E36913F0040FFBD1A2E76368FF
:101A000023F480736360E36913F0040FFBD1636810
:101A100043F440336360E36913F0040FFBD197E7AD
:101A2000022323766FF00100A4E76FF00300A1E723
:101A300000209FE71846BDE8F0816FF00500BDE883
:101A4000F08100BFD90C000011140000406B0000B1
:101A500070B505460C460846504B98470023002BAE
:101A600072D00026002D7BD0002C77D0012040F6CC
:101A7000B3424B494B4B9847002E00F08B80E369F3
:101A800013F0010F1DD1336803F01C02E36913F05A
:101A9000030FFBD1236813F0020F0BD0236823F050
:101AA00002032360E36913F0030FFBD1E36913F032
:101AB000020FFBD142F001022260E36913F0030F31
:101AC000FBD1E36913F0010FFBD12C60002C4BD04C
:101AD000002E47D0012040F60A123149314B984779
:101AE000336823F4817323F001032360E36913F067
:101AF000030FFBD1736823F4383323F4107343F4DA
:101B000000336360E36913F0170FFBD1337B23735A
:101B1000737B84F830302046234B984730BB2046F7
:101B2000224B9847014605F11C00214B9847EB6971
:101B3000DD60EB691F4A1A60EB691F4A5A60EB6966
:101B40001E4A9A60002070BD052802D00133DBB226
:101B500085E703EB03161A4B1E4483E7002086E754
:101B6000002084E70020B6E70020B4E72046154BAC
:101B70009847014605F11C000D4B9847EB69DD6065
:101B8000EB69114A1A60EB690B4A5A60EB690B4A20
:101B90009A60C4E76FF00C0070BD00BFB111000087
:101BA000406B0000D90C00007912000061120000A7
:101BB00051100000CD120000D9120000C112000027
:101BC0002C6B000091120000B512000010B5044605
:101BD00068B103684BB1012040F6E1420549064B6C
:101BE00098472068054B984710BD0020F4E7002077
:101BF000F2E700BF406B0000D90C0000F1110000BB
:101C000070B505461446032935D8DFE801F0020D0A
:101C10002A186A600068184B9847221C18BF0122D6
:101C20000021164B984770BDAA600068144B984776
:101C3000221C18BF01220021104B984770BD2A6159
:101C400000680F4B9847003418BF01242246012139
:101C50000A4EB0472868084B984722460121B047F2
:101C600070BDEA600068064B9847221C18BF01222D
:101C70000221024B984770BD61120000050F000061
:101C8000911200002DE9F0470546894690461F460F
:101C900004682046334B98470023002B3FD04FF079
:101CA000000A2046304B9847064620462F4B98475F
:101CB0000446B8F1000F3CD028462D4B98472868C1
:101CC0002C4B9847014630462B4B984741463046AF
:101CD0002A4B984739463046294B984700213046D1
:101CE000284B9847B9F1000F27D049462046224B90
:101CF00098472868244B9847014620461F4B984731
:101D000001212046214B9847394620461C4B9847D5
:101D1000002120461B4B98470020BDE8F08705288E
:101D200002D00133DBB2B8E703EB031A184B9A4435
:101D3000B7E72846174B9847D4E70AF10E0120462B
:101D40000D4B98472868104B9847014620460B4B8F
:101D50009847002120460D4B984739462046084BAE
:101D60009847D5E7B1110000911200006112000000
:101D70009116000057120000910F0000810F000023
:101D8000BD0F0000151000005B120000A10F000045
:101D90002C6B0000C51600002F4B1B6913F0010FC0
:101DA00020D12D4B1B6913F0030FFAD12A4B1B686E
:101DB00013F0020F0ED0284A136823F002031360B9
:101DC000254B1B6913F0030FFAD1234B1B6913F04A
:101DD000020FFAD10122204B1A601F4B1B6913F02E
:101DE000030FFAD11C4B1B6913F0010FFAD14FF40A
:101DF000A062194B1A60184B1B6913F0030FFAD13C
:101E0000154B00225A71FF221A7101221A7343F6F0
:101E100008529A83104B1B6913F0C00FFAD141F698
:101E200069020D4BDA830C4B1B6913F0C00FFAD11A
:101E3000094B4FF48072DA8021225A72DE221A7224
:101E40001A6842F002021A60034B1B6913F0030F79
:101E5000FAD10020704700BF00C00141294B1B6927
:101E600013F0010F20D1274B1B6913F0030FFAD198
:101E7000244B1B6813F0020F0ED0224A136823F084
:101E8000020313601F4B1B6913F0030FFAD11D4BA4
:101E90001B6913F0020FFAD101221A4B1A60194B79
:101EA0001B6913F0030FFAD1164B1B6913F0010FD6
:101EB000FAD14FF48062134B1A60124B1B6913F076
:101EC000030FFAD10F4B00225A71FF221A7101221F
:101ED0001A7341F669029A830A4B1B6913F0C00F0B
:101EE000FAD1084B01225A72FE221A721A6842F085
:101EF00002021A60034B1B6913F0030FFAD1002092
:101F0000704700BF001800432DE9F04704460D4616
:101F10001646022900F08580032900F0018101297D
:101F200001D0BDE8F08700F54677034600F58472DE
:101F300000F504713846DFF80083C047394628466B
:101F4000B94B984704F5876804F59A6904F5AD6ABA
:101F500053464A4641463846B44FB84753464A4628
:101F6000414604F51960B24FB847B24B1A68D4F82D
:101F7000181311601B68D4F824235A60D4F8302356
:101F80009A60D4F81C235A61D4F828239A61D4F8B3
:101F90003423DA61D4F82023DA62D4F82C231A63CC
:101FA000D4F838235A63012E0FD0022E20D094F893
:101FB000D829013A02EB42022A4407EE902AF8EEB1
:101FC000E77AC3ED087ABDE8F087D4F86023DA60D9
:101FD000D4F86C231A61D4F864235A62D4F87023BD
:101FE0009A62D4F868239A63D4F87423DA63DEE73C
:101FF00004F519621268DA6004F6941212681A6124
:1020000004F6981212685A6204F69C1212689A62D8
:1020100004F51A6212689A6304F6A4121268DA636D
:10202000C5E700F55E7700F1580300F5B07200F5E2
:102030001A713846DFF80082C047394628467A4B85
:10204000984704F5C06804F5D36904F5E66A534679
:102050004A4641463846754FB84753464A46414678
:1020600004F6A810724FB847724B1A68D4F8781368
:1020700011601B68D4F884235A60D4F890239A60C6
:10208000D4F87C235A61D4F888239A61D4F8942335
:10209000DA61D4F88023DA62D4F88C231A63D4F896
:1020A00098235A63012E0FD0022E20D094F8D829FD
:1020B000013A02EB42022A4407EE902AF8EEE77A50
:1020C000C3ED087ABDE8F087D4F8C023DA60D4F80D
:1020D000CC231A61D4F8C4235A62D4F8D0239A626C
:1020E000D4F8C8239A63D4F8D423DA63DEE704F67D
:1020F000A8121268DA6004F6AC1212681A6104F5CC
:102100001B6212685A6204F6B41212689A6204F6EC
:10211000B81212689A6304F6BC121268DA63C5E753
:1021200000F5767700F1B00300F5DC7200F5307150
:102130003846DFF80481C047394628463A4B98476D
:1021400004F5F96804F5066904F6F80A53464A46A8
:1021500041463846354FB84753464A46414604F54E
:102160001C60334FB847334B1A68D4F8D81311604A
:102170001B68D4F8E4235A60D4F8F0239A60D4F8AA
:10218000DC235A61D4F8E8239A61D4F8F423DA61A5
:10219000D4F8E023DA62D4F8EC231A63D4F8F823F5
:1021A0005A63012E0ED0022E25D094F8D829013A78
:1021B00002EB4202154407EE905AF8EEE77AC3EDBF
:1021C000087AAEE604F584621268DA6004F22C4202
:1021D00012681A6104F2244212685A6204F5866297
:1021E00012689A6204F5856212689A6304F23442B6
:1021F0001268DA63D9E704F51C621268DA6004F643
:10220000C41212681A6104F6C81212685A6204F6FF
:10221000CC1212689A6204F51D6212689A6304F681
:10222000D4121268DA63C0E751350000815C000007
:10223000395D000074000020A934000080B588B02A
:10224000A34B9847A34B9847DFF8F082A24E414634
:102250003046A24FB8473046A14CA047A14DA249F5
:102260002846B8472846A0474022A04B5A61002381
:102270009F4A13709F4A13709F4A13709F4A1370AE
:102280009F4D28469F4B98479F4B188001239F4A9C
:1022900013709F4A13709F4A13709F4F02223A7027
:1022A000A5F5307484F8D839D8F80030069305962F
:1022B000049504F51A73039304F50473029304F56B
:1022C000DC73019304F5B073009304F5847304F197
:1022D000B00204F158012046904DA84704F6F803D7
:1022E000049304F50663039304F5F963029304F57C
:1022F000E663019304F5D363009304F5C06304F52A
:10230000AD6204F59A6104F58760854CA0470A2008
:10231000844B98473B78022B50D00A20814B98473A
:102320004FF48042804BDA60724B1B78002B7ED0DA
:102330006F4B1B788BB1704B1B7873B9744B1B7848
:10234000012B7ED0724B1B78022B00F0988000226C
:10235000674B1A700122684B1A70674B1B78002B71
:10236000E2D0724B1B78002BDED0644B1B78002B25
:10237000DAD1674B1B78012B00F09F80644B1B78F0
:10238000022B00F0E580614A13780133DBB2137051
:10239000664A1278042BC7D101225C4B1A705C4943
:1023A0000B781344DBB20B7054490A705A4A127806
:1023B0009342B9D90122564B1A70B5E75C4C84F8A8
:1023C000D839494B1B680693464B059304F5307387
:1023D000049304F51A73039304F50473029304F54C
:1023E000DC73019304F5B073009304F5847304F176
:1023F000B00204F158012046A84704F6F8030493FC
:1024000004F50663039304F5F963029304F5E663A8
:10241000019304F5D363009304F5C06304F5AD6242
:1024200004F59A6104F587603D4CA04775E73220BA
:10243000404B984701222F4B1A7000222E4B1A70E6
:1024400076E73D49A1F584703C4B1B680693224B0F
:10245000059300F53073049300F51A73039300F5A8
:102460000473029300F5DC73019300F5B0730093DD
:102470000B46A1F15802B039314CA04762E731490F
:10248000A1F58470184B1B680693164B059300F555
:102490003073049300F51A73039300F504730293E9
:1024A00000F5DC73019300F5B07300930B46A1F1C6
:1024B0005802B039224CA04749E7164B1A78134B03
:1024C00019782148214B98470220164B984755E729
:1024D000D102000069080000D00300205D0B00005D
:1024E000410B0000800300208C130020008000417D
:1024F00080130020941300208913002091130020E2
:1025000058160020612D000092130020A009002021
:1025100096130020951300209013002049330000EB
:10252000615C0000810A000000E100E0400500203D
:10253000A409002049320000A014002084130020C8
:102540008D320000AC0A002098130020091F000003
:10255000054B1A78054B19780548064B9847022019
:10256000054B98470FE700BF95130020A0090020F6
:10257000A4090020091F0000810A00000F4B9B7A6C
:1025800013F0010F10D10D4B9B7A13F0200F0AD0DE
:102590000A4A937A43F0200393720122084B1A707F
:1025A0000022084B1A707047044A937A43F00103E3
:1025B00093720022044B1A70704700BF00C00141A3
:1025C0008013002091130020941300200139032967
:1025D00005D8DFE801F00206090C0C2343704078AF
:1025E000704710234370FAE714234370F7E718236A
:1025F0004370F4E7F0B583B0064617461D4602ABBC
:1026000003F8041D012219460A4B984701280DD1F1
:1026100004462A4639463046074B9847A84202D11D
:10262000204603B0F0BD4FF0FF34F9E74FF0FF3420
:10263000F6E700BF650B0000990B000070B582B093
:102640000D4616461C464FF4006201783046084B92
:102650009847012301AA29462046064CA047002896
:1026600003DD9DF8040002B070BDFF20FBE700BF52
:102670004D0B0000F525000070B582B005461E46E2
:10268000BDF818408DF804108DF80520022201A92C
:10269000094B984702280CD1224631462846074B61
:1026A0009847A04202D1012002B070BD4FF0FF3028
:1026B000FAE74FF0FF30F7E7650B0000990B0000D9
:1026C00010B582B004468DF80410110A8DF805107B
:1026D0008DF806208DF8073004220DEB0201094B1E
:1026E000984704280BD1012204992046064B9847AD
:1026F000012801D102B010BD4FF0FF30FAE74FF0D2
:10270000FF30F7E7650B0000990B0000082380F805
:102710003830704708B50022427002700E4A82605D
:102720004FF08142C2600D4A02610D4A42614FF092
:10273000804282610B4AC2610B4A02624FF07E52B4
:1027400042620A4A82620A4AC2620A4A02630A4A28
:1027500042630A4B984708BD0000A040000040407B
:10276000000020405555D53FABAAAA3F39B4483E9A
:10277000C1CAA13E9A99193ED9CE773E0D270000D5
:10278000012303FA01F101F0080190F838301943F0
:1027900080F83810704702290CD801F11C0300EBB7
:1027A00043035A8001238B4090F8381021EA03013B
:1027B00080F8381070470000F0B585B004460D462B
:1027C00017464FF4006201781846104B9847AA004C
:1027D0000323009303AB02F0FC0250210A980C4E35
:1027E000B047002803DCFF26304605B0F0BD9DF859
:1027F0000C609DF80D309DF80E2042EA03223A80CD
:1028000029462046034B9847EEE700BF4D0B0000DA
:10281000792600009727000070B504460D4616463D
:10282000064B984733462A46F0212046044CA047E1
:1028300004460320034B9847204670BD0D27000037
:102840003D260000810A000010B513460A4680218B
:10285000014CA04710BD00BF3D2600002DE9F04708
:1028600084B005460C461046984601F00F0646F027
:1028700040064FF4006229783C4B984714F0080951
:102880005BD0022314F0040A59D00222134404F04E
:1028900002073B44DAB214F0010452D0022313447D
:1028A000DBB20133DBB201AA31464046304EB047BD
:1028B000002859DD002C46D09DF805209DF80630F3
:1028C00043EA0223A5F840300323002F40D004AA96
:1028D0001A4412F80C0C591C04AA114411F80C2CBF
:1028E00042EA0022A5F842200233DBB2BAF1000F1F
:1028F00032D004AA1A4412F80C0C591C04AA114430
:1029000011F80C2C42EA0022A5F844200233DBB275
:10291000B9F1000F24D004AA1A4412F80C2C013388
:1029200004A90B4413F80C3C43EA0223A5F84630F3
:102930009DF8040004B0BDE8F0870023A2E7002260
:10294000A4E70023ABE70023A5F840300123BCE750
:102950000022A5F84220C9E70022A5F84420D7E7C5
:102960000023A5F84630E3E7FF20E3E74D0B000026
:10297000F525000070B4428FC2F3021302F00F027B
:10298000C18FC1F3471101F03F0501F00301C5F309
:1029900081062D09848FC4F380240C2A00F09180D5
:1029A00090ED0A5AD0ED0B4A023300EB8303D3EDCE
:1029B000005A002C00F08A80B0F8423006EE903ABF
:1029C000F8EEE66ADFEDE07A76EEE76A65EE266A13
:1029D00065EEA66A012202FA01F107EE901AB8EE3E
:1029E000E76A66EE266AC0ED136A002C00F0D48018
:1029F000B0F8443007EE103AB8EEC77ADFEDD27A7D
:102A000037EE677A25EE077A25EE877A0123B34001
:102A100007EE903AF8EEE76A26EE877A80ED147AB0
:102A2000002C00F01C81B0F8463007EE903AF8EE2A
:102A3000E77A9FEDC57A77EEC77A64EEA77A65EEFE
:102A4000A77A012303FA05F507EE105AB8EEC77A04
:102A500067EE277AC0ED157AB0F8403007EE903A6D
:102A6000F8EEE77A9FEDB97A77EEC77ADFEDB86ACC
:102A700087EEA67AF3EE097A77EE277AC0ED127A1E
:102A8000D0ED137A9FEDB37AF4EEC77AF1EE10FA37
:102A900040F34A8180ED137AD0ED147A9FEDAD7A40
:102AA000F4EEC77AF1EE10FA00F349819FEDAA7AAD
:102AB000F4EEC77AF1EE10FA40F1438180ED147A1A
:102AC0003FE190ED0C5AD0ED0D4A6DE703298CD80B
:102AD000DFE801F002182E48B0F9423007EE903AD4
:102AE000F8EEE77A67EE857A25EEA77A012303FAF6
:102AF00001F107EE901AF8EEE77A67EE877AC0EDFB
:102B0000137A72E7B0F9423007EE903AF8EEE77ABE
:102B100067EE857A25EEA77A012303FA01F107EE25
:102B2000901AF8EEE77A67EE877AC0ED137A5CE7E1
:102B3000B0F8423007EE903AF8EEE77A9FED827AED
:102B400077EEC77A65EE277A65EEA77A012303FA56
:102B500001F107EE101AB8EEC77A67EE277AC0EDDA
:102B6000137A42E7B0F8423007EE903AF8EEE77A8F
:102B70009FED7A7A77EEC77A65EE277A65EEA77AC7
:102B8000012303FA01F107EE101AB8EEC77A67EED7
:102B9000277AC0ED137A28E7032E3FF641AFDFE82E
:102BA00006F002172C45B0F9443007EE103AB8EEA3
:102BB000C77A27EE057A25EE875A0123B34007EE40
:102BC000903AB8EEE77A27EE057A80ED147A27E797
:102BD000B0F9443007EE103AB8EEC77A27EE057A1E
:102BE00025EE875A0123B34007EE903AB8EEE77A14
:102BF00027EE057A80ED147A12E7B0F8443007EE3C
:102C0000103AB8EEC77ADFED507A37EE677A25EEE4
:102C1000077A25EE877A0123B34007EE903AB8EEA3
:102C2000E75A25EE077A80ED147AF9E6B0F84430D9
:102C300007EE103AB8EEC77ADFED487A37EE677ADA
:102C400025EE077A25EE877A0123B34007EE903A06
:102C5000B8EEE75A25EE077A80ED147AE0E6032D08
:102C60003FF6FAAEDFE805F002172C46B0F9463021
:102C700007EE903AF8EEE77A67EEA47A65EEA75A87
:102C80000123AB4007EE903AF8EEE77A67EEA57ABB
:102C9000C0ED157AE0E6B0F9463007EE903AF8EE6E
:102CA000E77A67EEA47A65EEA75A0123AB4007EEF8
:102CB000903AF8EEE77A67EEA57AC0ED157ACBE6A2
:102CC000B0F8463007EE903AF8EEE77A9FED1E7ABC
:102CD00077EEC77A64EEA77A65EEA77A012303FA46
:102CE00005F507EE105AF8EEC75A65EEA77AC0ED63
:102CF000157AB1E6B0F8463007EE903AF8EEE77A8A
:102D00009FED167A77EEC77A64EEA77A65EEA77A1A
:102D1000012303FA05F507EE105AF8EEC75A65EEDF
:102D2000A77AC0ED157A97E69FED0B7AF4EEC77A95
:102D3000F1EE10FA7FF5B0AE80ED137AACE680EDDF
:102D4000147A70BC704700BF0000004700A43447ED
:102D5000CDCC344200504347005043C7000080466A
:102D600010B4C28F02F00303C2F3C124C2F3820184
:102D700001228A4002329A4002EB4202930103F19F
:102D8000C900C023A34043331844054BA3FB0030C4
:102D9000C0F34F10083080B25DF8044B704700BF9D
:102DA0001F85EB51000980F0010000F00100704721
:102DB000F0B585B005460E4617461C46124B98479F
:102DC0004FF4006229782046104B9847B30003AABD
:102DD000009203F0FC033A4660210A980C4CA0478D
:102DE00000280EDD9DF80C4020460A4B984708B994
:102DF000204607E03A4631462846074B984720468A
:102E000000E0FF2005B0F0BD812700004D0B000061
:102E1000C1260000A52D000097270000C0F3001078
:102E2000704700002DE9F04182B090F8384004B3BB
:102E3000174688460546002401E00134E4B2022C1E
:102E400016D895F83830234113F0010FF5D004F16E
:102E50001C0205EB420200974346023221462846F7
:102E6000064EB047064B98470028E6D0FF2400E006
:102E70000024204602B0BDE8F08100BFB927000061
:102E80001D2E0000F8B507460C4615461E461A468C
:102E90002946064B984704F00F0133462A4641F075
:102EA00030013846024CA047F8BD00BF252E000077
:102EB0003D26000010F0100F01D0FF2070470020C9
:102EC000704700002DE9F04385B0804689461546DD
:102ED0001E46002404AA22F8024D00932B462146E8
:102EE000104FB8470746BDF80E2022F0700212B20C
:102EF0004FEA091909F0700942EA090200962B46C7
:102F000092B221464046084CA04706463846074D37
:102F1000A84704463046A8472043C0B205B0BDE8E4
:102F2000F08300BFB9270000B12D0000B52E0000CE
:102F3000F0B585B006460B9D1B0103F030039200EF
:102F400002F00C021A4301F0030142EA010404AA50
:102F5000002322F8023D00950A9B02210D4FB8473D
:102F60000746BDF80E2022F4FC6212B242EA441277
:102F700000950A9B92B202213046074CA0470646B4
:102F80003846064DA84704463046A8472043C0B2FD
:102F900005B0F0BDB9270000B12D0000B52E00002E
:102FA0002DE9F04184B00746884614461D4604AA20
:102FB000002322F8023D0095234602210F4EB04720
:102FC0000646BDF80E2022F0030212B208F00308F4
:102FD00042EA08020095234692B202213846084C84
:102FE000A04707463046074DA84704463846A8473D
:102FF0002043C0B204B0BDE8F08100BFB927000093
:10300000B12D0000B52E00002DE9F04184B0074637
:10301000884614461D4604AA002322F8023D009566
:1030200023460221104EB0470646BDF80E2022F07E
:103030001C0212B24FEA880808F01C0842EA080293
:103040000095234692B202213846084CA047074615
:103050003046074DA84704463846A8472043C0B22B
:1030600004B0BDE8F08100BFB9270000B12D000019
:10307000B52E00002DE9F04184B0074614461D46E8
:1030800011F1000818BF4FF0010804AA002322F82C
:10309000023D0095234601210E4EB0470646BDF87D
:1030A0000E2022F4806212B242EA88220095234662
:1030B00092B201213846084CA04707463046074DDA
:1030C000A84704463846A8472043C0B204B0BDE82C
:1030D000F08100BFB9270000B12D0000B52E00001F
:1030E0002DE9F04F83B0044690461F460D9D0E9E7D
:1030F000284B984794F90120B8F1000F47D10023DD
:103100001343002F18BF43F0010323709DF83030A4
:10311000A3703246294620461F4B9847324629461F
:1031200020461E4B98471E4B9847824633462A46F8
:10313000012120461B4FB847834601960095002386
:103140001A4619462046184FB847814633462A4644
:1031500001212046154FB847804633462A460221B2
:103160002046134FB847074633462A4600212046DB
:10317000104CA0474AEA0B0A49EA0A0948EA09083A
:1031800047EA08073843C0B203B0BDE8F08F022316
:10319000B6E700BFCD25000049280000192800002F
:1031A000B52E0000C52E0000312F0000A12F000019
:1031B00009300000753000002DE9F04184B08046F0
:1031C0000C4615461E4604AA002322F8023D00962E
:1031D0002B4601210F4FB8470746BDF80E2022F4B9
:1031E000006213B2A2B2D20202F400621A43009645
:1031F0002B4692B201214046074CA047064638466E
:10320000064DA84704463046A8472043C0B204B044
:10321000BDE8F081B9270000B12D0000B52E0000F7
:10322000F8B506460C46154613460A460121044FDA
:10323000B8472B4622460E213046024CA047F8BD27
:10324000B9310000852E000038B5034C4025A5613A
:10325000024B9847656138BD00800041610A00005B
:1032600038B5054613460A460E21054CA0470446CC
:103270002846044B98472046034B984738BD00BF6B
:103280005D28000075290000B52E00002DE9F04FE3
:1032900083B0884617461E46129A1199284CA047BB
:1032A0000546129A11994046A0478346129A1199F1
:1032B0003846A0478246129A11993046A047814667
:1032C000129A11990C98A0478046129A11990D985C
:1032D000A0470746129A11990E98A0470646129ADF
:1032E00011990F98A0470090129A11991098A04731
:1032F00001902846134DA84704465846A847044362
:10330000E4B25046A8470443E4B24846A847044301
:10331000E4B24046A8470443E4B23846A847044311
:10332000E4B23046A8470443E4B20098A8470443F7
:10333000E4B20198A8472043C0B203B0BDE8F08FC3
:1033400061320000B52E00002DE9F04F87B007462E
:103350008B4604920593159D169EDFF840A1D04739
:103360000296019500240094234622460121384606
:10337000DFF82C91C847324629463846DFF82481C9
:10338000C0470520444FB8475846D047029601959C
:1033900000940123224619465846C847324629461A
:1033A0005846C0470520B847DDF810B05846D0470A
:1033B0000296019500942346012211465846C847BB
:1033C000324629465846C0470520B847DDF814B0B4
:1033D0005846D04702960195009423462246022182
:1033E0005846C847324629465846C0470520B84780
:1033F0001098D0470296019500940123224602219D
:103400001098C847324629461098C0470520B8474B
:103410001198D0470296019500942346012202217B
:103420001198C847324629461198C0470520B84729
:103430001298D04702960195009423462246032114
:103440001298C847324629461298C0470520B84707
:103450001398D04702960195009401232246032138
:103460001398C847324629461398C0470520B847E5
:103470001498D04702960195009423460122032117
:103480001498C847324629461498C0470520B847C3
:1034900007B0BDE8F08F00BF810A000015270000CB
:1034A000E130000021320000F8B50446D1ED137A76
:1034B000C0ED007A91ED147A80ED037A496D816157
:1034C000D16C4160116D0161526DC261DA6C826034
:1034D0001A6D42615B6D036267EEA77A27EE077A89
:1034E00077EE877AC0ED097A164F17EE900AB84743
:1034F000154EB047154DA8476062D4ED017A67EECE
:10350000A77A94ED047A27EE077A77EE877AC4EDEE
:103510000A7A17EE900AB847B047A847A062D4EDE0
:10352000027A67EEA77A94ED057A27EE077A77EEAE
:10353000877AC4ED0B7A17EE900AB847B047A847D0
:10354000E062F8BD59620000595D0000616800004A
:103550002DE9F04F2DED068B89B08A46022800F048
:103560002D86032801F04E84012804D009B0BDEC5B
:10357000068BBDE8F08FD1ED008ACB4D18EE900A96
:10358000A847CA4C9CA3D3E90023A047C84E0246D3
:103590000B469BA1D1E90001B047804689469AEDD0
:1035A000068A18EE100AA847CDE9000196A3D3E9D0
:1035B0000023A047BF4F02460B4640464946B84746
:1035C0008046894628EEA89A19EE100AA84790A3CB
:1035D000D3E90023A04702460B4640464946B84778
:1035E0008046894668EE887A17EE900AA8478AA333
:1035F000D3E90023A04702460B4640464946B04760
:103600008046894628EE08AA1AEE100AA847CDE996
:10361000020183A3D3E90023A04702460B4640469C
:103620004946B8478046894668EE097A17EE900AFF
:10363000A8477DA3D3E90023A04702460B46404696
:103640004946B8478046894668EE8A7A17EE900A5E
:10365000A84777A3D3E90023A04702460B4640467C
:103660004946B0478046894668EE0A7A17EE900AC6
:10367000A847CDE9040170A3D3E90023A04702467F
:103680000B4640464946B847DFF82CB2D84708EE0B
:10369000900ACAF830009AED039A19EE100AA8476A
:1036A00067A3D3E90023A04702460B4666A1D1E9F0
:1036B0000001B0478046894665A3D3E90023DDE9D0
:1036C0000001A04702460B4640464946B84780469F
:1036D000894669EE099A19EE900AA8475EA3D3E9D4
:1036E0000023A04702460B4640464946B84780465D
:1036F000894668EE097A17EE900AA84758A3D3E9DD
:103700000023A04702460B4640464946B047804644
:10371000894655A3D3E90023DDE90201A04702460B
:103720000B4640464946B8478046894668EE297AA6
:1037300017EE900AA8474EA3D3E90023A0470246FC
:103740000B4640464946B847804689466AEE097AA4
:1037500017EE900AA84748A3D3E90023A0470246E2
:103760000B4640464946B0478046894644A3D3E9C4
:103770000023DDE90401A04702460B4640464946C6
:10378000B847D84709EE100ACAF83C00DAED099AA2
:1037900019EE900AA8473CA3D3E90023A0470246AC
:1037A0000B463BA1D1E90001B047804689463AA3C8
:1037B000D3E90023DDE90001A04702460B4640465D
:1037C0004946B8478046894669EEA9AA1AEE900A8A
:1037D000A84733A3D3E90023A04702460B4640463F
:1037E0004946B8478046894668EE297A17EE900A1E
:1037F000A84763E0AFF300806214048F6FEF6A3F65
:10380000295C8FC2F5A82A4079909E2287886B3F59
:103810006EEB46D61C4BA83E96D61D529ECEA43EBD
:103820000FAA468B89CF913E6481B8056FDCCA3DF3
:10383000077295C6B19BBA3DEB19AA544F019D3D45
:10384000C7968A32C0AA3F3F643BDF4F8D97064040
:10385000E0BA6246787B503F5A85BB1D5B7BA13E38
:103860007A4DD9F254C39A3E51F6D88E901E823EBC
:10387000FE7F75373196C13DEA8ECE8C27F8B73D75
:103880002D1C877CF83C953D3FABCC94D6DF723F36
:10389000B81E85EB517838407F69519FE40E7B3F1D
:1038A0005174C1FE82D49A3E596200000163000047
:1038B000995F00009D5F000061680000F5A3D3E9F7
:1038C0000023A04702460B4640464946B047804683
:1038D0008946F2A3D3E90023DDE90201A0470246AD
:1038E0000B4640464946B8478046894668EE2A7AE4
:1038F00017EE900AA847EBA3D3E90023A04702469E
:103900000B4640464946B847804689466AEE297AC2
:1039100017EE900AA847E5A3D3E90023A047024683
:103920000B4640464946B04780468946E1A3D3E965
:103930000023DDE90401A04702460B464046494604
:10394000B847D847CAF8480068EEA88A29EE099A0D
:1039500078EE898ACAED158A18EE900AA847CC4BF2
:103960009847D847CAF85400DAED018A18EE900A51
:10397000A8479BA3D3E90023A04702460B469AA180
:10398000D1E90001B047804689469AED078A18EED2
:10399000100AA847CDE9000195A3D3E90023A04769
:1039A00002460B4640464946B8478046894628EEBF
:1039B000A89A19EE100AA8478FA3D3E90023A047BD
:1039C00002460B4640464946B8478046894668EE5F
:1039D000887A17EE900AA84789A3D3E90023A04765
:1039E00002460B4640464946B0478046894628EE87
:1039F00008AA1AEE100AA847CDE9020182A3D3E96A
:103A00000023A04702460B4640464946B847804639
:103A1000894668EE097A17EE900AA8477CA3D3E995
:103A20000023A04702460B4640464946B847804619
:103A3000894668EE8A7A17EE900AA84776A3D3E9FA
:103A40000023A04702460B4640464946B047804601
:103A5000894668EE0A7A17EE900AA847CDE9040174
:103A60006FA3D3E90023A04702460B4640464946D0
:103A7000B847D84708EE900ACAF834009AED049A7D
:103A800019EE100AA84768A3D3E90023A04702460D
:103A90000B4667A1D1E90001B0478046894666A37D
:103AA000D3E90023DDE90001A04702460B4640466A
:103AB0004946B8478046894669EE099A19EE900A48
:103AC000A8475FA3D3E90023A04702460B46404620
:103AD0004946B0478046894668EE097A17EE900A53
:103AE000A84759A3D3E90023A04702460B46404606
:103AF0004946B0478046894655A3D3E90023DDE90E
:103B00000201A04702460B4640464946B847804658
:103B1000894668EE297A17EE900AA8474EA3D3E9A2
:103B20000023A04702460B4640464946B047804620
:103B300089466AEE097A17EE900AA84748A3D3E9A6
:103B40000023A04702460B4640464946B047804600
:103B5000894645A3D3E90023DDE90401A0470246D5
:103B60000B4640464946B847D84709EE100ACAF8FE
:103B70004000DAED0A9A19EE900AA8473CA3D3E96F
:103B80000023A04702460B463BA1D1E90001B04704
:103B9000804689463AA3D3E90023DDE90001A04726
:103BA00002460B4640464946B8478046894669EE7C
:103BB000A9AA1AEE900AA84733A3D3E90023A04785
:103BC00002460B4640464946B8478046894668EE5D
:103BD000297A17EE900AA84770E000BFAFF3008083
:103BE0003A1A2C41EB86323FFA7E6ABC7493F63F58
:103BF00005B4BE92F5E5363F38D408A9964E863E08
:103C00001004C317F81A8A3E34D6663D3229633E43
:103C1000B247401B0AA1A83DAC44CF6F9B12A43D04
:103C2000524CE52987AF733DA38FF9804067723FFF
:103C3000736891ED7C3F1F40520DFB3DB14E653FD7
:103C40003C9ED4A7F5EF7C3EFA36BA4F79B0A83E39
:103C50006A217BD7BDA9913EE2A312967925AA3DA0
:103C600068361682C1BDBC3D78881F9D463BA13D8C
:103C7000CD1FD3DA34B6773FEC51B81E856B2C409C
:103C80004AD1CABDC0AC703F8B3E6960A0B6A13EB0
:103C9000595D0000FE670CF4024CA63EEE8C580203
:103CA000A7C2A13EB89943884D319E3DBBC3C53CD8
:103CB0007809BB3D23D65CFE444FA73DF6A3D3E96C
:103CC0000023A04702460B4640464946B04780467F
:103CD0008946F3A3D3E90023DDE90201A0470246A8
:103CE0000B4640464946B8478046894668EE2A7AE0
:103CF00017EE900AA847ECA3D3E90023A047024699
:103D00000B4640464946B847804689466AEE297ABE
:103D100017EE900AA847E6A3D3E90023A04702467E
:103D20000B4640464946B04780468946E2A3D3E960
:103D30000023DDE90401A04702460B464046494600
:103D4000B847D847CAF84C0068EEA88A29EE099A05
:103D500078EE898ACAED168A18EE900AA847CC4BED
:103D60009847D847CAF858009AED028A18EE100A08
:103D7000A8479BA3D3E90023A04702460B469AA17C
:103D8000D1E90001B04780468946DAED088A18EE8D
:103D9000900AA847CDE9000195A3D3E90023A047E5
:103DA00002460B4640464946B0478046894628EEC3
:103DB000089A19EE100AA8478FA3D3E90023A04759
:103DC00002460B4640464946B0478046894668EE63
:103DD000287A17EE900AA84789A3D3E90023A047C1
:103DE00002460B4640464946B0478046894668EE43
:103DF000A89A19EE900AA847CDE9020182A3D3E957
:103E00000023A04702460B4640464946B04780463D
:103E1000894668EE897A17EE900AA8477CA3D3E911
:103E20000023A04702460B4640464946B04780461D
:103E3000894668EE297A17EE900AA84776A3D3E957
:103E40000023A04702460B4640464946B0478046FD
:103E5000894668EEA97A17EE900AA847CDE90401D1
:103E60006FA3D3E90023A04702460B4640464946CC
:103E7000B047D84708EE100ACAF838009AED059AFC
:103E800019EE100AA84768A3D3E90023A04768A346
:103E9000D3E90023B0478046894667A3D3E90023CE
:103EA000DDE90001A04702460B4640464946B047BF
:103EB0008046894629EE09AA1AEE100AA84760A38F
:103EC000D3E90023A04702460B4640464946B8477F
:103ED000804689462E4668EE897A17EE900AA847F2
:103EE00059A3D3E90023A0473D4602460B4640466E
:103EF0004946B8478046894655A3D3E90023DDE902
:103F00000201A047634F02460B4640464946B84768
:103F10008046894668EE8A7A17EE900AB0474EA32B
:103F2000D3E90023A04702460B4640464946A8472E
:103F30008046894669EE897A17EE900AB04748A311
:103F4000D3E90023A04702460B4640464946A8470E
:103F50008046894644A3D3E90023DDE90401A04754
:103F600002460B4640464946B847D84708EE900AF5
:103F7000CAF844009AED0B9A19EE100AB047CDE941
:103F800004013BA3D3E90023A04702460B463AA114
:103F9000D1E90001B8478046894639A3D3E9002317
:103FA000DDE90001A04702460B4640464946A847C6
:103FB0008046894669EE097A17EE900AB047CDE946
:103FC000060131A3D3E90023A04702460B46404631
:103FD0004946A8478046894672E000BFAFF300809B
:103FE000F2B0506B9A776C3F295C8FC2F5A824C061
:103FF0002A1E17D522A2683FC6C5ED69A9A9A53E0C
:104000007E99BC81C1AEA83EEDB99FDECB47923E02
:10401000353439827C37C83D62629CE13A77C13DD4
:104020008F1276743C6DA03D2FDFFAB0DEA8653F9D
:1040300054E3A59BC4200140ECDD1FEF552B433F0B
:10404000DC65B8EB70EEA23ECF6686EAB53B853EF6
:1040500006A89957C093613EDA3CCECE2029C63DD2
:10406000584F56D5F53D683D09C74D662B6C623DEE
:10407000CAFACDC47421763F5C8FC2F5289C3940C2
:104080003526C45C52B57D3FE6E2E488F915B23EC0
:10409000595D0000995F00008D7D54022CB2A93E4D
:1040A000C41F7C22F3B3963E7CA546F987A5B03D9C
:1040B00068361682C1BDBC3D8644DE022F8E9A3D15
:1040C00034A3D3E90023DDE90401A04702460B46EF
:1040D000DDE90001A04702460B4640464946B84785
:1040E000804689462DA3D3E90023DDE90201A047DC
:1040F00002460B4640464946A8478046894629A3C2
:10410000D3E90023DDE90601A04702460B46DDE9BD
:104110000001A04702460B4640464946A847804654
:10412000894622A3D3E90023DDE90401A047024622
:104130000B46DDE90201A04702460B4640464946D0
:10414000B847804689461BA3D3E90023DDE9020175
:10415000A04702460B46DDE90001A04702460B4698
:1041600040464946A847D847CAF8500028EE088A72
:1041700068EEA88A38EE288A8AED178A18EE100AA7
:10418000B047034B9847D847CAF85C00FFF7EEB931
:10419000595D00003637725A8173A73E558A8B4E9F
:1041A000977FA43E4DE78FA44376CE3D116F1BE66B
:1041B0002814B73DDF7F7E44E7D9AC3DD1ED008ABE
:1041C000CB4D18EE900AA847CA4C9DA3D3E9002313
:1041D000A047C94E02460B469BA1D1E90001B0475A
:1041E000804689469AED068A18EE100AA847CDE95E
:1041F000000197A3D3E90023A047C04F02460B4616
:1042000040464946B8478046894628EEA89A19EEA6
:10421000100AA84790A3D3E90023A04702460B4603
:1042200040464946B8478046894668EE887A17EE88
:10423000900AA8478AA3D3E90023A04702460B4669
:1042400040464946B0478046894628EE08AA1AEEFD
:10425000100AA847CDE9020183A3D3E90023A047B0
:1042600002460B4640464946B8478046894668EEB6
:10427000097A17EE900AA8477DA3D3E90023A04747
:1042800002460B4640464946B8478046894668EE96
:104290008A7A17EE900AA84777A3D3E90023A047AC
:1042A00002460B4640464946B0478046894668EE7E
:1042B0000A7A17EE900AA847CDE9040170A3D3E962
:1042C0000023A04702460B4640464946B847DFF860
:1042D00030B2D84708EE900ACAF830009AED039A37
:1042E00019EE100AA84768A3D3E90023A0470246A5
:1042F0000B4667A1D1E90001B0478046894666A315
:10430000D3E90023DDE90001A04702460B46404601
:104310004946B8478046894669EE099A19EE900ADF
:10432000A8475FA3D3E90023A04702460B464046B7
:104330004946B8478046894668EE097A17EE900AE2
:10434000A84759A3D3E90023A04702460B4640469D
:104350004946B0478046894655A3D3E90023DDE9A5
:104360000201A04702460B4640464946B8478046F0
:10437000894668EE297A17EE900AA8474EA3D3E93A
:104380000023A04702460B4640464946B8478046B0
:1043900089466AEE097A17EE900AA84748A3D3E93E
:1043A0000023A04702460B4640464946B047804698
:1043B000894645A3D3E90023DDE90401A04702466D
:1043C0000B4640464946B847D84709EE100ACAF896
:1043D0003C00DAED099A19EE900AA8473CA3D3E90C
:1043E0000023A04702460B463BA1D1E90001B0479C
:1043F000804689463AA3D3E90023DDE90001A047BE
:1044000002460B4640464946B8478046894669EE13
:10441000A9AA1AEE900AA84733A3D3E90023A0471C
:1044200002460B4640464946B8478046894668EEF4
:10443000297A17EE900AA84764E000BFAFF3008026
:104440006214048F6FEF6A3F295C8FC2F5A82A407F
:1044500079909E2287886B3F6EEB46D61C4BA83E18
:1044600096D61D529ECEA43E0FAA468B89CF913E72
:104470006481B8056FDCCA3D077295C6B19BBA3D31
:10448000EB19AA544F019D3DC7968A32C0AA3F3FFF
:10449000643BDF4F8D970640E0BA6246787B503F21
:1044A0005A85BB1D5B7BA13E7A4DD9F254C39A3E1F
:1044B00051F6D88E901E823EFE7F75373196C13DF3
:1044C000EA8ECE8C27F8B73D2D1C877CF83C953DB5
:1044D0003FABCC94D6DF723FB81E85EB51783840A5
:1044E0007F69519FE40E7B3F5174C1FE82D49A3E96
:1044F0005962000001630000995F00009D5F0000A9
:1045000061680000F5A3D3E90023A04702460B46EB
:1045100040464946B04780468946F2A3D3E9002386
:10452000DDE90201A04702460B4640464946B8472E
:104530008046894668EE2A7A17EE900AA847EBA3D0
:10454000D3E90023A04702460B4640464946B847F8
:10455000804689466AEE297A17EE900AA847E5A3B5
:10456000D3E90023A04702460B4640464946B047E0
:1045700080468946E1A3D3E90023DDE90401A04791
:1045800002460B4640464946B847D847CAF8480055
:1045900068EEA88A29EE099A78EE898ACAED158A0A
:1045A00018EE900AA847CC4B9847D847CAF8540051
:1045B000DAED018A18EE900AA8479BA3D3E90023FD
:1045C000A04702460B469AA1D1E90001B0478046B8
:1045D00089469AED078A18EE100AA847CDE900012E
:1045E00095A3D3E90023A04702460B46404649461F
:1045F000B8478046894628EEA89A19EE100AA847BF
:104600008FA3D3E90023A04702460B464046494604
:10461000B8478046894668EE887A17EE900AA84720
:1046200089A3D3E90023A04702460B4640464946EA
:10463000B0478046894628EE08AA1AEE100AA84715
:10464000CDE9020182A3D3E90023A04702460B462D
:1046500040464946B8478046894668EE097A17EED3
:10466000900AA8477CA3D3E90023A04702460B4643
:1046700040464946B8478046894668EE8A7A17EE32
:10468000900AA84776A3D3E90023A04702460B4629
:1046900040464946B0478046894668EE0A7A17EE9A
:1046A000900AA847CDE904016FA3D3E90023A047EE
:1046B00002460B4640464946B847D84708EE900A9E
:1046C000CAF834009AED049A19EE100AA84768A3B4
:1046D000D3E90023A04702460B4667A1D1E90001B8
:1046E000B0478046894666A3D3E90023DDE900018F
:1046F000A04702460B4640464946B8478046894691
:1047000069EE099A19EE900AA8475FA3D3E900233E
:10471000A04702460B4640464946B0478046894678
:1047200068EE097A17EE900AA84759A3D3E9002347
:10473000A04702460B4640464946B0478046894658
:1047400055A3D3E90023DDE90201A04702460B4649
:1047500040464946B8478046894668EE297A17EEB2
:10476000900AA8474EA3D3E90023A04702460B4670
:1047700040464946B047804689466AEE097A17EEB8
:10478000900AA84748A3D3E90023A04702460B4656
:1047900040464946B0478046894645A3D3E90023B1
:1047A000DDE90401A04702460B4640464946B847AA
:1047B000D84709EE100ACAF84000DAED0A9A19EE55
:1047C000900AA8473CA3D3E90023A04702460B4622
:1047D0003BA1D1E90001B047804689463AA3D3E91D
:1047E0000023DDE90001A04702460B46404649464A
:1047F000B8478046894669EEA9AA1AEE900AA847EA
:1048000033A3D3E90023A04702460B46404649465E
:10481000B8478046894668EE297A17EE900AA8477D
:1048200070E000BFAFF300803A1A2C41EB86323FB4
:10483000FA7E6ABC7493F63F05B4BE92F5E5363F46
:1048400038D408A9964E863E1004C317F81A8A3E3B
:1048500034D6663D3229633EB247401B0AA1A83DCB
:10486000AC44CF6F9B12A43D524CE52987AF733DFA
:10487000A38FF9804067723F736891ED7C3F1F40C2
:10488000520DFB3DB14E653F3C9ED4A7F5EF7C3EFB
:10489000FA36BA4F79B0A83E6A217BD7BDA9913EBE
:1048A000E2A312967925AA3D68361682C1BDBC3DA9
:1048B00078881F9D463BA13DCD1FD3DA34B6773FA4
:1048C000EC51B81E856B2C404AD1CABDC0AC703FBC
:1048D0008B3E6960A0B6A13E595D0000FE670CF4F6
:1048E000024CA63EEE8C5802A7C2A13EB89943885E
:1048F0004D319E3DBBC3C53C7809BB3D23D65CFE14
:10490000444FA73DF6A3D3E90023A04702460B4638
:1049100040464946B04780468946F3A3D3E9002381
:10492000DDE90201A04702460B4640464946B8472A
:104930008046894668EE2A7A17EE900AA847ECA3CB
:10494000D3E90023A04702460B4640464946B847F4
:10495000804689466AEE297A17EE900AA847E6A3B0
:10496000D3E90023A04702460B4640464946B047DC
:1049700080468946E2A3D3E90023DDE90401A0478C
:1049800002460B4640464946B847D847CAF84C004D
:1049900068EEA88A29EE099A78EE898ACAED168A05
:1049A00018EE900AA847CC4B9847D847CAF8580049
:1049B0009AED028A18EE100AA8479BA3D3E90023B8
:1049C000A04702460B469AA1D1E90001B0478046B4
:1049D0008946DAED088A18EE900AA847CDE9000169
:1049E00095A3D3E90023A04702460B46404649461B
:1049F000B0478046894628EE089A19EE100AA84763
:104A00008FA3D3E90023A04702460B464046494600
:104A1000B0478046894668EE287A17EE900AA84784
:104A200089A3D3E90023A04702460B4640464946E6
:104A3000B0478046894668EEA89A19EE900AA847C2
:104A4000CDE9020182A3D3E90023A04702460B4629
:104A500040464946B0478046894668EE897A17EE57
:104A6000900AA8477CA3D3E90023A04702460B463F
:104A700040464946B0478046894668EE297A17EE97
:104A8000900AA84776A3D3E90023A04702460B4625
:104A900040464946B0478046894668EEA97A17EEF7
:104AA000900AA847CDE904016FA3D3E90023A047EA
:104AB00002460B4640464946B047D84708EE100A22
:104AC000CAF838009AED059A19EE100AA84768A3AB
:104AD000D3E90023A04768A3D3E90023B047804669
:104AE000894667A3D3E90023DDE90001A047024618
:104AF0000B4640464946B0478046894629EE09AAFA
:104B00001AEE100AA84760A3D3E90023A047024683
:104B10000B4640464946B847804689462E4668EED1
:104B2000897A17EE900AA84759A3D3E90023A04732
:104B30003D4602460B4640464946B84780468946B0
:104B400055A3D3E90023DDE90201A047634F0246E4
:104B50000B4640464946B8478046894668EE8A7A01
:104B600017EE900AB0474EA3D3E90023A0470246B0
:104B70000B4640464946A8478046894669EE897AF1
:104B800017EE900AB04748A3D3E90023A047024696
:104B90000B4640464946A8478046894644A3D3E988
:104BA0000023DDE90401A04702460B464046494682
:104BB000B847D84708EE900ACAF844009AED0B9A15
:104BC00019EE100AB047CDE904013BA3D3E9002355
:104BD000A04702460B463AA1D1E90001B8478046FA
:104BE000894639A3D3E90023DDE90001A047024645
:104BF0000B4640464946A8478046894669EE097AF1
:104C000017EE900AB047CDE9060131A3D3E900239E
:104C1000A04702460B4640464946A847804689467B
:104C200072E000BFAFF30080F2B0506B9A776C3F38
:104C3000295C8FC2F5A824C02A1E17D522A2683F7E
:104C4000C6C5ED69A9A9A53E7E99BC81C1AEA83EA5
:104C5000EDB99FDECB47923E353439827C37C83D73
:104C600062629CE13A77C13D8F1276743C6DA03D43
:104C70002FDFFAB0DEA8653F54E3A59BC4200140B6
:104C8000ECDD1FEF552B433FDC65B8EB70EEA23E29
:104C9000CF6686EAB53B853E06A89957C093613E2C
:104CA000DA3CCECE2029C63D584F56D5F53D683D5D
:104CB00009C74D662B6C623DCAFACDC47421763F9C
:104CC0005C8FC2F5289C39403526C45C52B57D3FC7
:104CD000E6E2E488F915B23E595D0000995F0000F4
:104CE0008D7D54022CB2A93EC41F7C22F3B3963EA4
:104CF0007CA546F987A5B03D68361682C1BDBC3D8E
:104D00008644DE022F8E9A3D34A3D3E90023DDE9E9
:104D10000401A04702460B46DDE90001A047024618
:104D20000B4640464946B847804689462DA3D3E9FD
:104D30000023DDE90201A04702460B4640464946F2
:104D4000A8478046894629A3D3E90023DDE9060167
:104D5000A04702460B46DDE90001A04702460B468C
:104D600040464946A8478046894622A3D3E9002306
:104D7000DDE90401A04702460B46DDE90201A04738
:104D800002460B4640464946B847804689461BA323
:104D9000D3E90023DDE90201A04702460B46DDE925
:104DA0000001A04702460B4640464946A847D8475F
:104DB000CAF8500028EE088A68EEA88A38EE288AD9
:104DC0008AED178A18EE100AB047034B9847D84768
:104DD000CAF85C00FEF7CABB595D00003637725A4C
:104DE0008173A73E558A8B4E977FA43E4DE78FA4D3
:104DF0004376CE3D116F1BE62814B73DDF7F7E441E
:104E0000E7D9AC3DD1ED008ACB4D18EE900AA8470A
:104E1000CA4C9DA3D3E90023A047C94E02460B46C6
:104E20009BA1D1E90001B047804689469AED068AE8
:104E300018EE100AA847CDE9000197A3D3E9002393
:104E4000A047C04F02460B4640464946B8478046F9
:104E5000894628EEA89A19EE100AA84790A3D3E92C
:104E60000023A04702460B4640464946B8478046C5
:104E7000894668EE887A17EE900AA8478AA3D3E994
:104E80000023A04702460B4640464946B0478046AD
:104E9000894628EE08AA1AEE100AA847CDE90201B1
:104EA00083A3D3E90023A04702460B464046494668
:104EB000B8478046894668EE097A17EE900AA847F7
:104EC0007DA3D3E90023A04702460B46404649464E
:104ED000B8478046894668EE8A7A17EE900AA84756
:104EE00077A3D3E90023A04702460B464046494634
:104EF000B0478046894668EE0A7A17EE900AA847BE
:104F0000CDE9040170A3D3E90023A04702460B4674
:104F100040464946B847DFF830B2D84708EE900A15
:104F2000CAF830009AED039A19EE100AA84768A350
:104F3000D3E90023A04702460B4667A1D1E900014F
:104F4000B0478046894666A3D3E90023DDE9000126
:104F5000A04702460B4640464946B8478046894628
:104F600069EE099A19EE900AA8475FA3D3E90023D6
:104F7000A04702460B4640464946B8478046894608
:104F800068EE097A17EE900AA84759A3D3E90023DF
:104F9000A04702460B4640464946B04780468946F0
:104FA00055A3D3E90023DDE90201A04702460B46E1
:104FB00040464946B8478046894668EE297A17EE4A
:104FC000900AA8474EA3D3E90023A04702460B4608
:104FD00040464946B847804689466AEE097A17EE48
:104FE000900AA84748A3D3E90023A04702460B46EE
:104FF00040464946B0478046894645A3D3E9002349
:10500000DDE90401A04702460B4640464946B84741
:10501000D84709EE100ACAF83C00DAED099A19EEF1
:10502000900AA8473CA3D3E90023A04702460B46B9
:105030003BA1D1E90001B047804689463AA3D3E9B4
:105040000023DDE90001A04702460B4640464946E1
:10505000B8478046894669EEA9AA1AEE900AA84781
:1050600033A3D3E90023A04702460B4640464946F6
:10507000B8478046894668EE297A17EE900AA84715
:1050800064E000BFAFF300806214048F6FEF6A3FEB
:10509000295C8FC2F5A82A4079909E2287886B3FB1
:1050A0006EEB46D61C4BA83E96D61D529ECEA43E15
:1050B0000FAA468B89CF913E6481B8056FDCCA3D4B
:1050C000077295C6B19BBA3DEB19AA544F019D3D9D
:1050D000C7968A32C0AA3F3F643BDF4F8D97064098
:1050E000E0BA6246787B503F5A85BB1D5B7BA13E90
:1050F0007A4DD9F254C39A3E51F6D88E901E823E14
:10510000FE7F75373196C13DEA8ECE8C27F8B73DCC
:105110002D1C877CF83C953D3FABCC94D6DF723F8D
:10512000B81E85EB517838407F69519FE40E7B3F74
:105130005174C1FE82D49A3E59620000016300009E
:10514000995F00009D5F000061680000F5A3D3E94E
:105150000023A04702460B4640464946B0478046DA
:105160008946F2A3D3E90023DDE90201A047024604
:105170000B4640464946B8478046894668EE2A7A3B
:1051800017EE900AA847EBA3D3E90023A0470246F5
:105190000B4640464946B847804689466AEE297A1A
:1051A00017EE900AA847E5A3D3E90023A0470246DB
:1051B0000B4640464946B04780468946E1A3D3E9BD
:1051C0000023DDE90401A04702460B46404649465C
:1051D000B847D847CAF8480068EEA88A29EE099A65
:1051E00078EE898ACAED158A18EE900AA847CC4B4A
:1051F0009847D847CAF85400DAED018A18EE900AA9
:10520000A8479BA3D3E90023A04702460B469AA1D7
:10521000D1E90001B047804689469AED078A18EE29
:10522000100AA847CDE9000195A3D3E90023A047C0
:1052300002460B4640464946B8478046894628EE16
:10524000A89A19EE100AA8478FA3D3E90023A04714
:1052500002460B4640464946B8478046894668EEB6
:10526000887A17EE900AA84789A3D3E90023A047BC
:1052700002460B4640464946B0478046894628EEDE
:1052800008AA1AEE100AA847CDE9020182A3D3E9C1
:105290000023A04702460B4640464946B847804691
:1052A000894668EE097A17EE900AA8477CA3D3E9ED
:1052B0000023A04702460B4640464946B847804671
:1052C000894668EE8A7A17EE900AA84776A3D3E952
:1052D0000023A04702460B4640464946B047804659
:1052E000894668EE0A7A17EE900AA847CDE90401CC
:1052F0006FA3D3E90023A04702460B464046494628
:10530000B847D84708EE900ACAF834009AED049AD4
:1053100019EE100AA84768A3D3E90023A047024664
:105320000B4667A1D1E90001B0478046894666A3D4
:10533000D3E90023DDE90001A04702460B464046C1
:105340004946B8478046894669EE099A19EE900A9F
:10535000A8475FA3D3E90023A04702460B46404677
:105360004946B0478046894668EE097A17EE900AAA
:10537000A84759A3D3E90023A04702460B4640465D
:105380004946B0478046894655A3D3E90023DDE965
:105390000201A04702460B4640464946B8478046B0
:1053A000894668EE297A17EE900AA8474EA3D3E9FA
:1053B0000023A04702460B4640464946B047804678
:1053C00089466AEE097A17EE900AA84748A3D3E9FE
:1053D0000023A04702460B4640464946B047804658
:1053E000894645A3D3E90023DDE90401A04702462D
:1053F0000B4640464946B847D84709EE100ACAF856
:105400004000DAED0A9A19EE900AA8473CA3D3E9C6
:105410000023A04702460B463BA1D1E90001B0475B
:10542000804689463AA3D3E90023DDE90001A0477D
:1054300002460B4640464946B8478046894669EED3
:10544000A9AA1AEE900AA84733A3D3E90023A047DC
:1054500002460B4640464946B8478046894668EEB4
:10546000297A17EE900AA84770E000BFAFF30080DA
:105470003A1A2C41EB86323FFA7E6ABC7493F63FAF
:1054800005B4BE92F5E5363F38D408A9964E863E5F
:105490001004C317F81A8A3E34D6663D3229633E9B
:1054A000B247401B0AA1A83DAC44CF6F9B12A43D5C
:1054B000524CE52987AF733DA38FF9804067723F57
:1054C000736891ED7C3F1F40520DFB3DB14E653F2F
:1054D0003C9ED4A7F5EF7C3EFA36BA4F79B0A83E91
:1054E0006A217BD7BDA9913EE2A312967925AA3DF8
:1054F00068361682C1BDBC3D78881F9D463BA13DE4
:10550000CD1FD3DA34B6773FEC51B81E856B2C40F3
:105510004AD1CABDC0AC703F8B3E6960A0B6A13E07
:10552000595D0000FE670CF4024CA63EEE8C58025A
:10553000A7C2A13EB89943884D319E3DBBC3C53C2F
:105540007809BB3D23D65CFE444FA73DF6A3D3E9C3
:105550000023A04702460B4640464946B0478046D6
:105560008946F3A3D3E90023DDE90201A0470246FF
:105570000B4640464946B8478046894668EE2A7A37
:1055800017EE900AA847ECA3D3E90023A0470246F0
:105590000B4640464946B847804689466AEE297A16
:1055A00017EE900AA847E6A3D3E90023A0470246D6
:1055B0000B4640464946B04780468946E2A3D3E9B8
:1055C0000023DDE90401A04702460B464046494658
:1055D000B847D847CAF84C0068EEA88A29EE099A5D
:1055E00078EE898ACAED168A18EE900AA847CC4B45
:1055F0009847D847CAF858009AED028A18EE100A60
:10560000A8479BA3D3E90023A04702460B469AA1D3
:10561000D1E90001B04780468946DAED088A18EEE4
:10562000900AA847CDE9000195A3D3E90023A0473C
:1056300002460B4640464946B0478046894628EE1A
:10564000089A19EE100AA8478FA3D3E90023A047B0
:1056500002460B4640464946B0478046894668EEBA
:10566000287A17EE900AA84789A3D3E90023A04718
:1056700002460B4640464946B0478046894668EE9A
:10568000A89A19EE900AA847CDE9020182A3D3E9AE
:105690000023A04702460B4640464946B047804695
:1056A000894668EE897A17EE900AA8477CA3D3E969
:1056B0000023A04702460B4640464946B047804675
:1056C000894668EE297A17EE900AA84776A3D3E9AF
:1056D0000023A04702460B4640464946B047804655
:1056E000894668EEA97A17EE900AA847CDE9040129
:1056F0006FA3D3E90023A04702460B464046494624
:10570000B047D84708EE100ACAF838009AED059A53
:1057100019EE100AA84768A3D3E90023A04768A39D
:10572000D3E90023B0478046894667A3D3E9002325
:10573000DDE90001A04702460B4640464946B04716
:105740008046894629EE09AA1AEE100AA84760A3E6
:10575000D3E90023A04702460B4640464946B847D6
:10576000804689462E4668EE897A17EE900AA84749
:1057700059A3D3E90023A0473D4602460B464046C5
:105780004946B8478046894655A3D3E90023DDE959
:105790000201A047634F02460B4640464946B847C0
:1057A0008046894668EE8A7A17EE900AB0474EA383
:1057B000D3E90023A04702460B4640464946A84786
:1057C0008046894669EE897A17EE900AB04748A369
:1057D000D3E90023A04702460B4640464946A84766
:1057E0008046894644A3D3E90023DDE90401A047AC
:1057F00002460B4640464946B847D84708EE900A4D
:10580000CAF844009AED0B9A19EE100AB047CDE998
:1058100004013BA3D3E90023A04702460B463AA16B
:10582000D1E90001B8478046894639A3D3E900236E
:10583000DDE90001A04702460B4640464946A8471D
:105840008046894669EE097A17EE900AB047CDE99D
:10585000060131A3D3E90023A04702460B46404688
:105860004946A8478046894672E000BFAFF30080F2
:10587000F2B0506B9A776C3F295C8FC2F5A824C0B8
:105880002A1E17D522A2683FC6C5ED69A9A9A53E63
:105890007E99BC81C1AEA83EEDB99FDECB47923E5A
:1058A000353439827C37C83D62629CE13A77C13D2C
:1058B0008F1276743C6DA03D2FDFFAB0DEA8653FF5
:1058C00054E3A59BC4200140ECDD1FEF552B433F63
:1058D000DC65B8EB70EEA23ECF6686EAB53B853E4E
:1058E00006A89957C093613EDA3CCECE2029C63D2A
:1058F000584F56D5F53D683D09C74D662B6C623D46
:10590000CAFACDC47421763F5C8FC2F5289C394019
:105910003526C45C52B57D3FE6E2E488F915B23E17
:10592000595D0000995F00008D7D54022CB2A93EA4
:10593000C41F7C22F3B3963E7CA546F987A5B03DF3
:1059400068361682C1BDBC3D8644DE022F8E9A3D6C
:1059500034A3D3E90023DDE90401A04702460B4646
:10596000DDE90001A04702460B4640464946B847DC
:10597000804689462DA3D3E90023DDE90201A04733
:1059800002460B4640464946A8478046894629A319
:10599000D3E90023DDE90601A04702460B46DDE915
:1059A0000001A04702460B4640464946A8478046AC
:1059B000894622A3D3E90023DDE90401A04702467A
:1059C0000B46DDE90201A04702460B464046494628
:1059D000B847804689461BA3D3E90023DDE90201CD
:1059E000A04702460B46DDE90001A04702460B46F0
:1059F00040464946A847D847CAF8500028EE088ACA
:105A000068EEA88A38EE288A8AED178A18EE100AFE
:105A1000B047034B9847D847CAF85C00FDF7A6BDCE
:105A2000595D00003637725A8173A73E558A8B4EF6
:105A3000977FA43E4DE78FA44376CE3D116F1BE6C2
:105A40002814B73DDF7F7E44E7D9AC3D074B0360A8
:105A5000074B4360074B8360074BC36000234361E0
:105A600003614FF07E53C361704700BF0AD7A33C68
:105A7000CDCC4C3E000082C20000C0400023036336
:105A8000054A426383638362C363044A02644364D6
:105A9000C362034B836470479A99993F9A999940DE
:105AA0000000204107EE901A016290ED0C7AD0EDD3
:105AB0000D6A67EEA66A37EE267A80ED067A816275
:105AC000704707EE901A416290ED0F7AD0ED106AA0
:105AD00067EEA66A37EE267A80ED067AC1627047D5
