:10000000600E0120E1020000DD020000DD020000C0
:10001000DD020000DD020000DD0200000000000043
:10002000000000000000000000000000DD020000F1
:10003000DD02000000000000DD020000DD02000023
:10004000DD020000DD020000DD020000DD02000034
:10005000DD020000DD020000DD020000DD02000024
:10006000DD020000DD020000DD020000DD02000014
:10007000DD020000DD020000DD020000DD02000004
:10008000DD020000DD020000DD020000DD020000F4
:10009000DD020000DD020000DD020000DD020000E4
:1000A000DD020000DD020000DD020000DD020000D4
:1000B000DD020000DD020000DD0200006912000028
:1000C00075120000811200008D12000099120000CC
:1000D000DD020000DD020000DD020000DD020000A4
:1000E000DD020000DD020000000000000000000052
:1000F0000000000075130000DD020000DD020000BA
:10010000DD020000DD020000DD020000DD02000073
:10011000DD020000DD020000DD020000DD02000063
:10012000DD020000DD020000DD020000DD02000053
:10013000DD020000DD020000DD020000DD02000043
:10014000DD020000DD020000DD020000DD02000033
:10015000DD020000DD020000DD020000DD02000023
:10016000DD020000DD020000DD020000DD02000013
:10017000DD020000DD020000DD020000DD02000003
:10018000DD020000DD020000DD020000DD020000F3
:10019000DD020000DD020000DD020000DD020000E3
:1001A000DD020000DD020000DD020000DD020000D3
:1001B000DD020000DD020000DD020000DD020000C3
:1001C000DD020000DD020000DD020000DD020000B3
:1001D000DD020000DD020000DD020000DD020000A3
:1001E000DD020000DD020000DD020000DD02000093
:1001F000DD020000DD0200007D220000DD020000C3
:10020000DD020000DD02000051070000DD020000F9
:10021000DD020000DD020000DD020000DD02000062
:10022000DD020000DD020000DD020000DD02000052
:10023000DD020000DD020000DD020000DD02000042
:10024000DD020000DD020000DD020000DD02000032
:10025000DD020000DD020000DD020000DD02000022
:10026000DD02000010B5054C237833B9044B13B1FF
:100270000448AFF300800123237010BDE00000208C
:1002800000000000484800000C4B43B10C480D49E9
:1002900010B5AFF300800C48036823B910BD0A48BD
:1002A000036833B97047094B002BF7D0BDE8104005
:1002B0001847064B002BF5D0184700BF0000000080
:1002C00048480000E400002048480000000000000A
:1002D00008B5014B984708BD75050000FEE7000012
:1002E00008B5154B154A9A4209D0134B134A03E03F
:1002F000116819600433043211498B42F8D3114B51
:1003000002E000221A6004330F4A9342F9D30F4BE4
:100310000F4A22F07F029A60D3F8882042F47002DC
:10032000C3F88820BFF34F8FBFF36F8F094B9847F7
:10033000094B9847FEE700BF000000204848000036
:10034000D8000020E0000020600E002000ED00E05A
:1003500000000000094500003925000008B5084AE2
:10036000936943F4804393614022064BC3F8E8202D
:10037000054B9847024605490548064B984708BD76
:1003800000080040001C00403722000000C001416E
:1003900018030020090D0000164B93F8562002F0B8
:1003A000FB0283F8562093F8562002F0FE0242F03A
:1003B000010283F8562093F83B2002F0F00242F04D
:1003C000020283F83B2093F8572002F0FB0283F8E7
:1003D000572093F8572002F0FE0242F0010283F802
:1003E000572093F83B2002F00F0242F0200283F8DE
:1003F0003B20704700800041064B4022C3F8E020BC
:100400004322C3F88C20044A936943F480639361C8
:10041000704700BF001C00400008004008B5044BB6
:10042000984704490448054B9847054B984708BD31
:10043000F90300000040014164030020790A000034
:10044000990300002C4B4FF48032C3F89420C3F87A
:1004500088204FF08041C3F8A810284AC3F8A8208C
:1004600093F8D02002F0FE0242F0010283F8D0207F
:1004700093F8B82002F0F00242F0020283F8B820AC
:100480004FF40032C3F89420C3F88820C3F8A810B2
:100490001B4AC3F8A82093F8D12002F0FE0242F0D4
:1004A000010283F8D12093F8B82002F00F0242F045
:1004B000200283F8B8200222C3F88420114AC3F82E
:1004C000A820114AC3F8A82093F8C12002F0FB022B
:1004D00083F8C12093F8C12002F0FE0242F001022D
:1004E00083F8C12093F8B02002F00F0242F03002EE
:1004F00083F8B020704700BF00800041010000C0B9
:10050000020000C002000240000002C0064B402270
:10051000C3F80C214322C3F88C20044A136A43F029
:1005200002031362704700BF001C00400008004037
:1005300008B5044B984704490448054B9847054BB8
:10054000984708BD0D050000000400433403002057
:10055000AD0B000045040000044A136A43F0400359
:1005600013624022024BC3F81C2170470008004070
:10057000001C004008B5174B9847174B40225A61A2
:100580009A6002F180429A624FF04041996293F87A
:10059000462002F0FE0283F846200122C3F898208C
:1005A000C3F8882002F18042C3F8A820C3F8A8103D
:1005B00093F8C02002F0FE0283F8C020074B984752
:1005C000074B9847074B9847074B9847074B984767
:1005D00008BD00BF290F0000008000411D0400007D
:1005E000310500005D030000590500009122000064
:1005F0000122104BC3F8982003F500539B6BDA6877
:100600000D4B9A420DD00D4B022283F8442001205D
:100610000849C1F8940083F854200022084B1A704E
:1006200070470122064B1A704FF48022054BDA60A6
:10063000704700BF008000411805002000A0004165
:100640002805002000E100E030B40C88A4B244F09A
:1006500001040C800C88A4B244F006040C800C88C1
:10066000A4B224F01804BDF80C50ED0005F01805F4
:100670002C430C800C88A4B224F44074A4B20C80E7
:10068000032814D8DFE800F00239254B088880B22F
:1006900040F480600880088880B220F4006080B256
:1006A00008801A4448684A608A68264A8A600A882C
:1006B00092B222F4805292B20A800A88C2F30C02EB
:1006C0000A809BB24A884B80CB68029BCB6030BCCF
:1006D00070470A8892B222F4806292B20A800A8835
:1006E00092B222F4006292B20A80174A12684868F5
:1006F0004A608A68134A8A60D9E7088880B220F481
:10070000806080B20880088880B240F40060088071
:1007100048680C4848601A4488688A60C7E70A88B5
:1007200092B222F4806292B20A800A8892B222F4D3
:10073000006292B20A804A68024A4A608A68034AA2
:100740008A60B4E72804004350450000E00300201D
:10075000F0B583B0164A937A43F0010393720122F5
:10076000144B1A70144B1B7883B10023019311466C
:10077000124AC2F8941002F50052022182F8441085
:1007800082F854100C4A137003B0F0BD0B4B0125D6
:10079000C3F89850084E00243470C3F89450214692
:1007A0002046074FB84721462846B8473470EBE744
:1007B00000180043E00400202805002000800041CC
:1007C0001D1200002DE9F04F83B0DFF8B881614FB2
:1007D00002260196DFF8B091CDF800901323D8F8E7
:1007E0000420394600205C4DA847D8F808B001968F
:1007F0005A4C009443235A4649460020A847584B78
:100800001A68DFF888910196CDF800900B232146F5
:100810000020A84700240194DFF874A1CDF800A0BF
:1008200003235A4649462046A8470196DFF864B19B
:10083000CDF800B040234B4A51462046A8470196C8
:10084000DFF854A1CDF800A01323D8F80C205946A6
:100850002046A847D8F810200194DFF84081CDF851
:100860000080032351462046A8470196CDF800900A
:100870004023224641463046A847DFF824810196AE
:10088000DFF82091CDF80090132322464146032043
:10089000A8470196DFF810A1CDF800A04323224617
:1008A00049460320A847DFF804910196CDF800904F
:1008B0000B23224651460320A8470196DFF8F0A0FB
:1008C000CDF800A04323224649460320A8470196BD
:1008D000DFF8E0B0CDF800B01323224651460320E4
:1008E000A8470194DFF8D0A0CDF800A0032322464A
:1008F00059461846A8470196CDF800904023194A5A
:100900001A4451460120A847174D184A3146284637
:10091000174B9847D8F80C30009398E80E00204603
:10092000144EB047FB68009397E80E000120B047D3
:100930002846114B98470126104BC3F89460214676
:1009400020460F4DA84721463046A84703B0BDE8D2
:10095000F08F00BFD004002049060000F8040020FA
:10096000000000202004002034030020F1050000D6
:10097000210C0000A5120000F90B000000800041CE
:100980001D1200005045000000040020B0030020AC
:10099000D0030020C004002008050020C003002070
:1009A00010040020A0040020B0040020180500203E
:1009B00090030020A0030020E8040020EFF3108340
:1009C000036072B6BFF35F8F7047BFF35F8F03683A
:1009D00083F310887047000010B5044B1C68044B6B
:1009E000984701462046034B984710BDFC00002065
:1009F000E90E0000210F000010B5044B1C68044BE9
:100A0000984701462046034B984710BDFC00002044
:100A1000010F0000210F000010B584B00389ADF86C
:100A20000430144602924FF40043ADF806300391AF
:100A300001A91438034B984710B9204604B010BDE3
:100A40000446FAE7A519000010B584B00389ADF893
:100A500004301446029248F20103ADF806300391C7
:100A600001A91438034B984710B9204604B010BDB3
:100A70000446FAE7A519000038B50D4604465E2283
:100A80000849003018BF0120074B984729462046E7
:100A9000064B9847034618B9054AA261054A6261A8
:100AA000184638BD644500006D0E0000FD180000BA
:100AB000490A0000190A000008B5014B984708BD13
:100AC0002D190000C1F3090102F480620A438283F8
:100AD00010467047143008600020704770B50D460E
:100AE0001646044668B151B1012034220649074B2D
:100AF00098472368324629462046984770BD002013
:100B0000F3E70020F1E700BF804500006D0E000014
:100B100070B50D461646044668B151B101203D221C
:100B20000649074B9847636832462946204698474E
:100B300070BD0020F3E70020F1E700BF8045000012
:100B40006D0E000070B50D46164604469822074902
:100B5000003018BF0120064B984733460022294633
:100B6000A4F12000034CA04770BD00BF94450000D5
:100B70006D0E0000891E000070B50D461646044635
:100B800081220749003018BF0120064B98473346A1
:100B90002A460021A4F12000034CA04770BD00BFED
:100BA000944500006D0E0000891E000038B50C460B
:100BB0000546A8B191B101203B220A490A4B98474A
:100BC000284640F8044F2146084B9847034618B979
:100BD000074AAA62074A6A62184638BD0020EBE756
:100BE0000020E9E7944500006D0E0000551C000050
:100BF000790B0000450B000010B504465122054951
:100C0000003018BF0120044B9847201D034B984724
:100C100010BD00BF944500006D0E0000D11D000006
:100C200070B50D4616460446A8220649003018BF86
:100C30000120054B984732462946201D034B984713
:100C400070BD00BF944500006D0E0000051E000041
:100C5000F8B5076817B13C4600260BE00E4B9847E5
:100C6000F8BDA5682B449B1A01338D68AB4209D2AD
:100C70002646246834B163689342F2D8A5689B1A6B
:100C80002B44F2E7BC4203D03046044B9847F8BDF2
:100C9000014B9847F8BD00BF890E0000B50E00005B
:100CA000F8B54469066901360661037E13F0010F49
:100CB00005D1037E13F0020F01D1054609E0037E42
:100CC00043F002030376F8BD6F69E3682046984756
:100CD0003C469CB16368F31AA26893420ED305F1B7
:100CE00014073846064B9847237C012BECD16660ED
:100CF000324621463846034B9847E5E7F8BD00BF2A
:100D0000BD0E0000510C000038B50D46044680B100
:100D100069B101203B220849084B984729462046E3
:100D2000074B984700202061064B236038BD002008
:100D3000F0E70020EEE700BFB04500006D0E0000B8
:100D400041200000A10C000010B5044653220949BF
:100D5000003018BF0120084B98472046074B9847A2
:100D600020B92046064B9847002010BD6FF01000B8
:100D700010BD00BFB04500006D0E00002522000030
:100D8000FD21000010B5044661220949003018BF5A
:100D90000120084B98472046074B984720B1204632
:100DA000064B9847002010BD6FF0100010BD00BF2B
:100DB000B04500006D0E0000252200001122000049
:100DC00070B582B00D46044620B309B301207A22E3
:100DD0001F49204B9847237E43F00103237604F1FB
:100DE0001406294630461C4B9847A8B923696B6006
:100DF000226929463046194B9847237E03F0FE03AB
:100E00002376237E13F0020F12D1002002B070BDB2
:100E10000020DCE70020DAE7237E03F0FE032376E0
:100E20007F220B4900200B4B98476FF01100EDE734
:100E300001A80B4B9847237E03F0FD032376204641
:100E4000084B984701A8084B98470020DEE700BFF1
:100E5000B04500006D0E0000730E0000510C000044
:100E6000BD0900003D220000CB09000000B900BE12
:100E7000704703681BB18B4203D01B68FAE7002060
:100E8000704701207047000038B504460D46064BF8
:100E9000984780F0010039220449C0B2044B9847BA
:100EA00023682B60256038BD730E0000C845000024
:100EB0006D0E000003680B600160704703681BB192
:100EC0001A6802601846704700207047430900F016
:100ED0001F00012202FA00F04033024A42F82300C8
:100EE000704700BF00E100E0642303FB00F0023024
:100EF000024BA3FB00304008704700BFABAAAAAA70
:100F0000642303FB00F302330448A0FB03235B08C4
:100F10004FF47A7000FB03F0704700BFABAAAAAA97
:100F20000139FDD8704700BF08B50D4A13889BB240
:100F300043F4C06313800B4B98470B4B98470B4B04
:100F400098470B4B984740F6FF700A4B98470A4A60
:100F5000136943F400731361084B984708BD00BF41
:100F6000004000410113000015130000F5120000BD
:100F700031130000D11200000008004001100000F1
:100F800008B51D4A138C03F01F031C4800EB031027
:100F9000128C12F4807F0AD1174A128C12F4007F4F
:100FA00010D1154A128C12F4806F17D108BD1B01A5
:100FB00003F1824202F52042012182F84E1043687B
:100FC000984708BD1B0103F1824202F5204202212D
:100FD00082F84E10094AD358984708BD1B0103F107
:100FE000824202F52042042182F84E10034A134443
:100FF0009B689847DAE700BF00A00041000100208D
:1010000030B43D4A13889BB223F002039BB2138095
:1010100053889BB223F47C539BB2538013889BB2BA
:1010200043F001031380344B1B8813F0010FFAD1F6
:10103000314A4FF470631380537B03F0FE0343F097
:1010400001035373002353612C4951632C4991636D
:1010500016E02C4A52F83350274C191D090160182C
:10106000655002EBC3021179417151798171D488C5
:1010700022491A0188188C520022C2600133DBB267
:101080001F2BE6D900230AE003F11F010AB2002A50
:1010900010DA002A1CDA002A24DA0133DBB2042B2E
:1010A000F2D9154A13889BB243F002031380002043
:1010B00030BC7047500901F01F050124AC402030BE
:1010C000114D45F82040BFF34F8FBFF36F8FE0E71E
:1010D000500901F01F050124AC4060300A4D45F86D
:1010E0002040D8E7520901F01F01012000FA01F168
:1010F000054840F82210D0E700A00041300500204C
:1011000030070020E845000000E100E091B942B955
:10111000000100F1824000F52040022380F84C30AD
:101120007047000100F1824000F52040022380F862
:101130004D307047012902D0022912D070473AB9C8
:10114000000100F1824000F5204080F84C1070470B
:10115000000100F1824000F52040012380F84D306D
:10116000704742B1000100F1824000F520400423A5
:1011700080F84D30E2E7000100F1824000F52040A8
:10118000042380F84C307047024B03EB0010816061
:101190000020704730050020024B03EB0010416037
:1011A0000020704730050020054A0001135A9BB209
:1011B00023F4806343EA812189B2115200207047F1
:1011C0003005002030B4144C0201A3189D68A35AC6
:1011D000C3F30123A25A12F4006F06D001FA03F4FC
:1011E0002C440D4A02EB001294600B4C0201A5182E
:1011F0006D68A25A12F4806F05D001FA03F32B44F4
:1012000004EB0012536089B2034B03EB00104180E2
:10121000002030BC704700BF3005002010B40C4CDB
:101220000201A35A9BB243F00103A352094C031DD0
:101230001B01E25842F00202E25029B1012303FAF5
:1012400000F022691043206100205DF8044B7047D4
:101250003005002000A00041024B03EB01110160AA
:10126000002070470001002008B5014B984708BDD9
:10127000810F000008B5014B984708BD810F0000A1
:1012800008B5014B984708BD810F000008B5014B18
:10129000984708BD810F000008B5014B984708BD6D
:1012A000810F000084B070B485B0064609A880E8BC
:1012B0000E000FC88DE80F00044D05EB061585E8FC
:1012C0000F0005B070BC04B0704700BF30050020AF
:1012D00010F0010F08D0054A054B1A62044B5A68FA
:1012E00043F6FD731A42F9D1704700BF08010100AF
:1012F000001C00400122014B5A7170470008004059
:10130000034BDA6902F47C52DA6101221A747047E5
:1013100000140040044A054B9A61044B1B6913F00A
:10132000020FFAD0704700BF0626000300100040ED
:1013300031220E4B9A640D4B1B6D13F0060FFAD140
:101340000A4B0B4ADA64022283F84420074B1B6DD8
:1013500013F0020FFAD1054B5B6D13F0010F04D1AE
:10136000024B5B6D13F0020FF5D070470010004088
:101370006000020000B583B00D4B9B78DBB2019397
:10138000019B13F0020F06D00A4B1B681BB1084AE1
:101390005068984709E0019B13F0010F05D0054BF9
:1013A0005B6813B1024A5068984703B05DF804FBCC
:1013B000000002413009002070B489B006466C4636
:1013C0000C4D0FCD0FC495E80F0084E80F000020EE
:1013D00007280AD808AB03EB800353F8203CB3423C
:1013E00001D00130F4E7C0B200E0002009B070BCC9
:1013F000704700BFE8460000C36913F0010F09D130
:10140000036843F002030360C36913F0030FFBD1C9
:10141000002070476FF003007047C36913F0040F9A
:1014200009D1436843F400334360C36913F0170FD5
:10143000FBD1002070476FF003007047C36913F0C1
:10144000040F09D1436823F400334360C36913F0E8
:10145000170FFBD1002070476FF003007047283052
:10146000704728307047000008B5044B984705289E
:1014700001D0002008BD012008BD00BFB913000045
:1014800008B5044B9847052801D0002008BD01206D
:1014900008BD00BFB913000008B5074B98470728DF
:1014A00007D8DFE800F00404040404060404012063
:1014B00008BD002008BD00BFB913000008B5C3680F
:1014C0009B6803B1984708BD08B5C368DB6803B1E2
:1014D000984708BD08B5C3685B6803B1984708BD65
:1014E00008B5C3681B6903B1984708BD08B50D4B23
:1014F0009847002343B140F2A7320B4900200B4B21
:1015000098474FF0FF3008BD03EB4302D100084A73
:101510000A4492F83820904202D00133DBB2E9E766
:1015200058B208BDB91300005C4700006D0E000002
:10153000E846000038B505460C460846334B984748
:10154000C0B2E36913F0010F22D100EB4003DA00CF
:101550002F4B1344DA6B02F01C02E36913F0030F04
:10156000FBD1236813F0020F0BD0236823F0020392
:101570002360E36913F0030FFBD1E36913F0020F5B
:10158000FBD142F001022260E36913F0030FFBD1AB
:10159000E36913F0010FFBD100EB4003DA001C4BB1
:1015A0001344DB6B2360E36913F0030FFBD100EB03
:1015B0004003DA00164B13441B6C6360E36913F0BD
:1015C000040FFBD142000244D100114B0B445A6C72
:1015D000E26093F83F3003F00303AB81012B94BF2B
:1015E00000230123626A22F4804242EA8333636269
:1015F000E36913F0040FFBD100EB4000C200044B81
:101600001344B3F84A30EB81002038BDED140000DC
:10161000E846000070B5054604692668C6F3C06652
:1016200040F2A6529949003018BF0120984B9847C4
:101630006B68012B57D0636823F480236360E369F0
:1016400013F0040FFBD12B8813F4806F56D06A88F7
:1016500012F0010F04D06A8892B242F480626A806C
:1016600040F2FE7202EA4302E36913F0040FFBD179
:10167000636A03F48043134343F400436362E36902
:1016800013F0040FFBD12E694FF6FF72337EDBB2ED
:101690001846511E1AB10A4613F0030FF6D02268FD
:1016A000C2F3C062E36913F0040FFBD1638B9BB2FA
:1016B00010F0010F00F09C8013F0020F32D00122D5
:1016C00022766A8892B242F480526A806A8892B224
:1016D00022F4807292B26A8013F0010F00F0D18080
:1016E0006FF0040070BD002EA5D0636843F4802322
:1016F0006360E36913F0040FFBD1A4E75B00DBB286
:101700006A8802F001021A43E36913F0040FFBD167
:10171000636A03F4804313436362E36913F0040FC5
:10172000FBD1B0E713F0040F1FD16B8813F4806F67
:1017300039D02B881B125B0003F00602E36913F01B
:10174000040FFBD1636A03F48043134343F0F103B6
:101750006362E36913F0040FFBD16B889BB223F43F
:1017600080639BB26B80002070BD6B68002B04DD32
:101770006B889BB243F480536B806B8813F4004FEB
:1017800008D16B889BB223F480739BB26B806FF09F
:10179000010070BD636843F440336360E36913F094
:1017A000040FFBD1EDE7686898B96B8813F4004F1C
:1017B00006D16B889BB223F480739BB26B8070BDA3
:1017C000636843F440336360E36913F0040FFBD1B3
:1017D000EFE7AB681B78A362E36913F0040FFBD15A
:1017E000AB680133AB606B68013B6B60002070BD80
:1017F00010F0020F48D0696800293DD013F0040FA3
:101800003AD10139696001B9E2B1012918D06B6898
:101810004BB96B8813F4004F1DD16B889BB223F436
:1018200080739BB26B80AA68531CAB60E36913F0B2
:10183000040FFBD1A36A137002232376002070BD2E
:10184000002AE4D0636843F480236360E36913F003
:10185000040FFBD1DBE7636823F480736360E36903
:1018600013F0040FFBD1636843F440336360E36912
:1018700013F0040FFBD1D0E7022323766FF00100B1
:1018800070BD6FF0030070BD002070BD5C470000AC
:101890006D0E000010B5044668B103684BB101201D
:1018A00040F6FE320549064B98472068054B98479D
:1018B00010BD0020F4E70020F2E700BF5C47000005
:1018C0006D0E00001B14000010B5044668B10368DB
:1018D0004BB1012040F605420549064B9847206868
:1018E000054B984710BD0020F4E70020F2E700BF49
:1018F0005C4700006D0E00003D14000038B50D4639
:10190000044640F219520649003018BF0120054B29
:101910009847256129462046034B984738BD00BFAC
:101920005C4700006D0E00003515000070B51B4EC1
:10193000044640F236523146003018BF0120184D9F
:10194000A847246940F206623146201C18BF0120D6
:10195000A847236843F002032360E36913F0030FF1
:10196000FBD104214FF6FF72E36913F0040FFBD1A2
:10197000638BC3F30113012B0BD0013A002AF3DC74
:10198000013908D010236383E36913F0040FFBD1FE
:10199000E8E7002070BD6FF0050070BD5C470000F7
:1019A0006D0E00002DE9F04105460E460469DFF892
:1019B000A08240F2D1524146003018BF0120A24F10
:1019C000B847286940F2D2524146003018BF012082
:1019D000B84740F2D3524146301C18BF0120B847E7
:1019E0006B8813F4807F40F02A8173889BB243F4A4
:1019F0008073738096E8070085E80700636843F406
:101A000080736360E36913F0040FFBD128468F4BAA
:101A100098470346002800F0B0806A8892B222F40A
:101A2000807292B26A80BDE8F0816FF00400B7E086
:101A3000738813F4004F07D16B889BB223F4807333
:101A40009BB26B80BDE8F081636843F44033636010
:101A5000E36913F0040FFBD1EEE713F0040F1FD17D
:101A60006B8813F4806F39D02B881B125B0003F056
:101A70000602E36913F0040FFBD1636A03F48043A9
:101A8000134343F0F1036362E36913F0040FFBD1E6
:101A90006B889BB223F480639BB26B8000206BE069
:101AA0006B68002B04DD6B889BB243F480536B8022
:101AB0006B8813F4004F08D16B889BB223F48073BA
:101AC0009BB26B806FF0010056E0636843F44033D3
:101AD0006360E36913F0040FFBD1EDE7686898B920
:101AE0006B8813F4004F06D16B889BB223F480738C
:101AF0009BB26B8040E0636843F440336360E3690A
:101B000013F0040FFBD1EFE7AB681B78A362E36926
:101B100013F0040FFBD1AB680133AB606B68013B82
:101B20006B60002028E017F0020F00F083806968E6
:101B3000002977D013F0040F74D10139696009B915
:101B4000002A55D0012951D06B684BB96B8813F42A
:101B5000004F56D16B889BB223F480739BB26B808D
:101B6000AA68531CAB60E36913F0040FFBD1A36AAE
:101B7000137002232376002003466A8812F4807FC4
:101B80005AD028694FF6FF72037EDBB21F46511E02
:101B9000002A3FF44AAF0A4613F0030FF4D00020A6
:101BA00000287FF445AF2268C2F3C062E36913F0F6
:101BB000040FFBD1638B9BB217F0010FB3D013F06E
:101BC000020F3FF44AAF012222766A8892B242F4B1
:101BD00080526A806A8892B222F4807292B26A80DD
:101BE00013F0010F23D06FF00400C5E7002AABD03B
:101BF000636843F480236360E36913F0040FFBD14F
:101C0000A2E7636823F480736360E36913F0040F51
:101C1000FBD1636843F440336360E36913F0040F5E
:101C2000FBD197E7022323766FF00100A4E76FF062
:101C30000300A1E700209FE71846BDE8F0816FF0A0
:101C40000500BDE8F08100BF6D0E00001516000014
:101C50005C47000070B505460C460846504B984757
:101C60000023002B72D00026002D7BD0002C77D0D3
:101C7000012040F6B3424B494B4B9847002E00F0F1
:101C80008B80E36913F0010F1DD1336803F01C0250
:101C9000E36913F0030FFBD1236813F0020F0BD09D
:101CA000236823F002032360E36913F0030FFBD1E1
:101CB000E36913F0020FFBD142F001022260E369F5
:101CC00013F0030FFBD1E36913F0010FFBD12C607C
:101CD000002C4BD0002E47D0012040F60A1231498B
:101CE000314B9847336823F4817323F00103236059
:101CF000E36913F0030FFBD1736823F4383323F443
:101D0000107343F400336360E36913F0170FFBD1E2
:101D1000337B2373737B84F830302046234B984702
:101D200030BB2046224B9847014605F11C00214B51
:101D30009847EB69DD60EB691F4A1A60EB691F4A3F
:101D40005A60EB691E4A9A60002070BD052802D0D7
:101D50000133DBB285E703EB03161A4B1E4483E71E
:101D6000002086E7002084E70020B6E70020B4E7E3
:101D70002046154B9847014605F11C000D4B98472E
:101D8000EB69DD60EB69114A1A60EB690B4A5A6036
:101D9000EB690B4A9A60C4E76FF00C0070BD00BF9E
:101DA000B91300005C4700006D0E000081140000B4
:101DB0006914000059120000D5140000E11400005D
:101DC000C91400004847000099140000BD14000029
:101DD00010B5044668B103684BB1012040F6E142FA
:101DE0000549064B98472068054B984710BD0020D1
:101DF000F4E70020F2E700BF5C4700006D0E000032
:101E0000F913000070B505461446032935D8DFE8FC
:101E100001F0020D2A186A600068184B9847221CCE
:101E200018BF01220021164B984770BDAA600068B8
:101E3000144B9847221C18BF01220021104B9847D1
:101E400070BD2A6100680F4B9847003418BF012409
:101E5000224601210A4EB0472868084B984722467F
:101E60000121B04770BDEA600068064B9847221C0C
:101E700018BF01220221024B984770BD691400006F
:101E80000D110000991400002DE9F0470546894620
:101E900090461F4604682046334B98470023002B8A
:101EA0003FD04FF0000A2046304B98470646204668
:101EB0002F4B98470446B8F1000F3CD028462D4BD5
:101EC000984728682C4B9847014630462B4B98473B
:101ED000414630462A4B984739463046294B984769
:101EE00000213046284B9847B9F1000F27D04946CA
:101EF0002046224B98472868244B984701462046A5
:101F00001F4B984701212046214B984739462046D0
:101F10001C4B9847002120461B4B98470020BDE8EA
:101F2000F087052802D00133DBB2B8E703EB031AD0
:101F3000184B9A44B7E72846174B9847D4E70AF15D
:101F40000E0120460D4B98472868104B98470146D4
:101F500020460B4B9847002120460D4B98473946A9
:101F60002046084B9847D5E7B913000099140000A4
:101F700069140000951800005F140000991100001A
:101F800089110000C51100001D120000631400003B
:101F9000A911000048470000C918000008B5C3682F
:101FA0009A7A12F0010F00D108BD01229A720368DB
:101FB0009847F9E7034B984200D07047024B1960ED
:101FC000FBE700BF00C001410003002070B588B0EE
:101FD00006466C46174D0FCD0FC495E80F0084E8F8
:101FE0000F000023072B0AD808AA02EB830252F83D
:101FF000202CB24201D00133F4E7DBB200E0002331
:1020000000224AB14FF49F720B4900200B4B9847B6
:102010004FF0FF3008B070BD02EB82018800054927
:10202000014491F82010994202D00132D2B2E8E77F
:1020300050B2EFE778470000AC4700006D0E00009B
:1020400070B506460C460846664B98470546F46050
:102050008F2265490120654B9847236913F0010FD2
:1020600019D1236913F0030FFBD1236813F0020F7A
:102070000BD0236823F002032360236913F0030FBE
:10208000FBD1236913F0020FFBD1012323602369E5
:1020900013F0030FFBD1236913F0010FFBD105EB04
:1020A00085039A00524B13445B6A2360236913F043
:1020B000030FFBD1AA002A4491004D4B0B4493F827
:1020C0002A20E2731A8DE280012222735B6A03F0F8
:1020D0000C03082B56D0002B63D105EB85039A0027
:1020E000434B13449B8DA383236913F0C00FFBD193
:1020F0000023E383236913F0C00FFBD10123637234
:10210000314620463B4B984705EB85039A00384BF8
:102110001344B3F92230002B0DDB5A0903F01F03DF
:10212000012101FA03F32032334941F82230BFF391
:102130004F8FBFF36F8F05EB85039A002C4B134431
:10214000B3F92230002B09DB5A0903F01F030121E8
:1021500001FA03F36032284941F8223005EB850586
:10216000AA00234B1344B3F92230002B08DB590992
:1021700003F01F03012202FA03F31F4A42F8213041
:10218000002070BD1A4B0B44DB6AE361236913F036
:10219000C00FFBD100232362236913F0C00FFBD1D2
:1021A000ACE7042BAAD105EB85039A00104B13442E
:1021B00093F82C302377236913F0C00FFBD1002351
:1021C0006377236913F0C00FFBD105EB85039A00F9
:1021D000074B134493F82B30E376236913F0200F59
:1021E000FBD18BE7CD1F0000AC4700006D0E000057
:1021F00078470000B51F000000E100E0C2681368E6
:1022000043F002031360136913F0030FFBD170470F
:10221000C268136823F002031360136913F0030FFD
:10222000FBD17047C268136913F0030FFBD110682C
:10223000C0F34000704700207047000010B5C06830
:10224000094B9847044640F2111208490120084BF7
:10225000984704EB8404A200064B134493F8220031
:10226000054B984710BD00BFCD1F0000AC470000D4
:102270006D0E000078470000CD0E000008B5024B3F
:102280001868024B984708BD000300209D1F0000FE
:10229000294B1B6913F0010F20D1274B1B6913F049
:1022A000030FFAD1244B1B6813F0020F0ED0224A01
:1022B000136823F0020313601F4B1B6913F0030F15
:1022C000FAD11D4B1B6913F0020FFAD101221A4BF0
:1022D0001A60194B1B6913F0030FFAD1164B1B69D7
:1022E00013F0010FFAD14FF48062134B1A60124BB6
:1022F0001B6913F0030FFAD10F4B00225A71FF2212
:102300001A7101221A7341F669029A830A4B1B69FA
:1023100013F0C00FFAD1084B01225A72FE221A7232
:102320001A6842F002021A60034B1B6913F0030F94
:10233000FAD10020704700BF0018004310B586B0E6
:102340000D4B1B6805930D4B04930D4B03930D4BE5
:1023500002930D4B01930D4B00930D4B0D4A0E490B
:102360000E480F4CA04701220E4B1A700E480F4B1F
:10237000984706B010BD00BF840A0020FC0B002067
:10238000AC0D00202C0A0020480B0020580C002027
:10239000B00C0020A00B0020040E0020080D00202F
:1023A00091320000280A002018030020850D00004B
:1023B00008B505498860054BCB6001230B740448C0
:1023C000044B984708BD00BF040300203D230000D4
:1023D00018030020C10D000070B584B002282FD072
:1023E000032857D0012801D004B070BD3E49CB6C02
:1023F0003E4CE3620B6D23634B6D63633C4AD36CCD
:102400006361136DA361536DE3613A4BD86C206037
:10241000186D6060586DA060374D2846374EB04744
:10242000374B0293374B0193374B0093374B384A66
:1024300038492846384DA8474FF07E532362D3E7EA
:102440003649CB6C294CE3620B6D23634B6D6363A0
:10245000334AD36C6361136DA361536DE361314BF8
:10246000D86C2060186D6060586DA060224D2846C1
:10247000224EB047224B0293224B0193224B0093F2
:10248000224B234A23492846234DA8474FF0804337
:102490002362A9E72449CB6C144CE3620B6D2363E0
:1024A0004B6D6363214AD36C6361136DA361536DFC
:1024B000E3611F4BD86C2060186D6060586DA060A0
:1024C0000D4D28460D4EB0470D4B02930D4B019319
:1024D0000D4B00930D4B0E4A0E4928460E4DA84752
:1024E000144B236280E700BF080D00202004002069
:1024F000B00C00202C0A0020240B002041340000E6
:102500008C09002040090020D80A0020600D00201E
:10251000DC090020880A0020CD380000040E0020CD
:10252000580C0020AC0D0020A00B0020480B002010
:10253000FC0B00200000404080B586B02D4B984732
:102540002D4B98472D4E2E4C314620462D4B98470B
:1025500020462D4B98472D4C40256561A561336879
:1025600005932B4E04962B4B03932B4B02932B4B33
:1025700001932B4B00932B4B2B4A2C492C482D4F6E
:10258000B8472D4B01932D4B00932D4B2D4A2E49CF
:102590002E482F4FB847656100232E4A13702E4AEC
:1025A000137030462D4B98472D4B18802D4B984774
:1025B00001222D4B1A7002E0264B1B7883B9264B63
:1025C0001B78002BF8D10022284B1A623220284BAE
:1025D00098472848284B984701221F4B1A70EBE771
:1025E000214B1878254B984700231A4A13701A4A32
:1025F0001370E4E7D1020000C5070000840A002040
:1026000064030020D50A0000B90A000000800041E0
:10261000FC0B0020AC0D00202C0A0020480B0020F1
:10262000580C0020B00C0020A00B0020040E00204D
:10263000080D00203D3300008C09002040090020D7
:10264000D80A0020600D0020DC090020880A002044
:1026500081380000280A0020540C0020C12D000001
:10266000F80B0020B1230000D8090020200400202E
:102670005D32000018030020490D0000D92300003E
:102680000139032905D8DFE801F00206090C0C2303
:1026900043704078704710234370FAE71423437067
:1026A000F7E718234370F4E7F0B583B00646174602
:1026B0001D4602AB03F8041D012219460A4B984738
:1026C00001280DD104462A4639463046074B984723
:1026D000A84202D1204603B0F0BD4FF0FF34F9E725
:1026E0004FF0FF34F6E700BFDD0A0000110B0000D9
:1026F00030B583B00D4614464FF4006201780848A7
:10270000084B9847012301AA29462046064CA047BA
:10271000002803DD9DF8040003B030BDFF20FBE777
:1027200064030020C50A0000A926000070B582B02D
:1027300005461E46BDF818408DF804108DF805209A
:10274000022201A9094B984702280CD122463146A2
:102750002846074B9847A04202D1012002B070BD25
:102760004FF0FF30FAE74FF0FF30F7E7DD0A0000E7
:10277000110B000010B582B004468DF80410110A48
:102780008DF805108DF806208DF8073004220DEB2A
:102790000201094B984704280BD1012204992046D5
:1027A000064B9847012801D102B010BD4FF0FF3011
:1027B000FAE74FF0FF30F7E7DD0A0000110B0000E9
:1027C000082380F83830704708B500224270027044
:1027D0000E4A82604FF08142C2600D4A02610D4A8A
:1027E00042614FF0804282610B4AC2610B4A026231
:1027F0004FF07E5242620A4A82620A4AC2620A4A22
:1028000002630A4A42630A4B984708BD0000A04091
:1028100000004040000020405555D53FABAAAA3FDC
:1028200039B4483EC1CAA13E9A99193ED9CE773EE5
:10283000C1270000012303FA01F101F0080190F81B
:102840003830194380F83810704702290CD801F14C
:102850001C0300EB43035A8001238B4090F838108F
:1028600021EA030180F8381070470000F0B585B008
:1028700004460D4617461E464FF400620178104884
:10288000104B9847AA000323009303AB02F0FC020D
:10289000502130460C4EB047002803DCFF2630465E
:1028A00005B0F0BD9DF80C609DF80D309DF80E2030
:1028B00042EA03223A8029462046044B9847EEE735
:1028C00064030020C50A00002D2700004B280000EB
:1028D00038B504460D46064B98472A46F021204657
:1028E000044B984704460320034B9847204638BDC5
:1028F000C1270000F1260000F909000008B50A46CA
:102900008021014B984708BDF12600002DE9F047D2
:1029100084B005460C46904601F00F0646F040068E
:102920004FF4006201783D483D4B984714F0080988
:102930005BD0022314F0040A59D00222134404F09D
:1029400002073B44DAB214F0010452D002231344CC
:10295000DBB20133DBB201AA31464046314EB0470B
:10296000002859DD002C46D09DF805209DF8063042
:1029700043EA0223A5F840300323002F40D004AAE5
:102980001A4412F80C0C591C04AA114411F80C2C0E
:1029900042EA0022A5F842200233DBB2BAF1000F6E
:1029A00032D004AA1A4412F80C0C591C04AA11447F
:1029B00011F80C2C42EA0022A5F844200233DBB2C5
:1029C000B9F1000F24D004AA1A4412F80C2C0133D8
:1029D00004A90B4413F80C3C43EA0223A5F8463043
:1029E0009DF8040004B0BDE8F0870023A2E70022B0
:1029F000A4E70023ABE70023A5F840300123BCE7A0
:102A00000022A5F84220C9E70022A5F84420D7E714
:102A10000023A5F84630E3E7FF20E3E76403002046
:102A2000C50A0000A926000070B4428FC2F3021349
:102A300002F00F02C18FC1F3471101F03F0501F011
:102A40000301C5F381062D09848FC4F380240C2A69
:102A500000F09D8090ED0A5AD0ED0B4A023300EB56
:102A60008303D3ED005A002C00F09680B0F842307A
:102A700006EE903AF8EEE66ADFEDCB7A76EEE76A9C
:102A800065EE266A65EEA66A012202FA01F107EEFA
:102A9000901AB8EEE76A66EE266AC0ED136A002C5B
:102AA00000F0CA80B0F8443007EE103AB8EEC77AAA
:102AB000DFEDBD7A37EE677A25EE077A25EE877A65
:102AC0000123B34007EE903AF8EEE76A26EE877AE4
:102AD00080ED147A002C00F0FD80B0F8463007EE4F
:102AE000903AF8EEE77A9FEDB07A77EEC77A64EE27
:102AF000A77A65EEA77A012303FA05F507EE105AC7
:102B0000B8EEC77A67EE277AC0ED157AB0F8403094
:102B100007EE903AF8EEE77A9FEDA47A77EEC77A5F
:102B2000DFEDA36A87EEA67AF3EE097A77EE277ACD
:102B3000C0ED127AD0ED137A9FED9E7AF4EEC77A4B
:102B4000F1EE10FA40F3168180ED137AD0ED147A8D
:102B50009FED987AF4EEC77AF1EE10FA40F3158102
:102B600080ED147AD0ED157A9FED927AF4EEC77A63
:102B7000F1EE10FA00F314819FED8F7AF4EEC77A2C
:102B8000F1EE10FA40F10E8180ED157A0AE190ED38
:102B90000C5AD0ED0D4A61E7032980D8DFE801F037
:102BA00002021832B0F9423007EE903AF8EEE77AB6
:102BB00067EE857A25EEA77A012303FA01F107EE85
:102BC000901AF8EEE77A67EE877AC0ED137A66E737
:102BD000B0F8423007EE903AF8EEE77A9FED727A5D
:102BE00077EEC77A65EE277A65EEA77A012303FAB6
:102BF00001F107EE101AB8EEC77A67EE277AC0ED3A
:102C0000137A4CE7B0F8423007EE903AF8EEE77AE4
:102C10009FED6A7A77EEC77A65EE277A65EEA77A36
:102C2000012303FA01F107EE101AB8EEC77A67EE36
:102C3000277AC0ED137A32E7032E3FF64BAFDFE879
:102C400006F002021730B0F9443007EE103AB8EE41
:102C5000C77A27EE057A25EE875A0123B34007EE9F
:102C6000903AB8EEE77A27EE057A80ED147A31E7EC
:102C7000B0F8443007EE103AB8EEC77ADFED4A7A82
:102C800037EE677A25EE077A25EE877A0123B3407F
:102C900007EE903AB8EEE75A25EE077A80ED147AFF
:102CA00018E7B0F8443007EE103AB8EEC77ADFED17
:102CB000437A37EE677A25EE077A25EE877A012385
:102CC000B34007EE903AB8EEE75A25EE077A80ED6A
:102CD000147AFFE6032D3FF619AFDFE805F0020294
:102CE0001731B0F9463007EE903AF8EEE77A67EE22
:102CF000A47A65EEA75A0123AB4007EE903AF8EEAE
:102D0000E77A67EEA57AC0ED157AFFE6B0F84630AF
:102D100007EE903AF8EEE77A9FED237A77EEC77ADE
:102D200064EEA77A65EEA77A012303FA05F507EEAC
:102D3000105AF8EEC75A65EEA77AC0ED157AE5E6A7
:102D4000B0F8463007EE903AF8EEE77A9FED1B7A3E
:102D500077EEC77A64EEA77A65EEA77A012303FAC5
:102D600005F507EE105AF8EEC75A65EEA77AC0EDE2
:102D7000157ACBE69FED107AF4EEC77AF1EE10FAF1
:102D80007FF5E4AE80ED137AE0E69FED0B7AF4EE8A
:102D9000C77AF1EE10FA7FF5E5AE80ED147AE1E640
:102DA00080ED157A70BC70470000004700A43447DE
:102DB000CDCC344200504347005043C7000080460A
:102DC00010B4C28F02F00303C2F3C124C2F3820124
:102DD00001228A4002329A4002EB4202930103F13F
:102DE000C900C023A34043331844054BA3FB003064
:102DF000C0F34F10083080B25DF8044B704700BF3D
:102E00001F85EB51000980F0010000F001007047C0
:102E1000F0B585B005460E4617461C46124B98473E
:102E20004FF4006229781148114B9847B30003AA68
:102E3000009203F0FC033A46602120460D4CA04767
:102E400000280EDD9DF80C4020460B4B984708B932
:102E5000204607E03A4631462846084B9847204628
:102E600000E0FF2005B0F0BD35280000640300201D
:102E7000C50A000075270000052E00004B28000041
:102E8000C0F300107047000090F838200AB3F8B57E
:102E90000E460546002401E00134E4B2022C15D8A8
:102EA00095F83830234113F0010FF5D004F11C02DE
:102EB00005EB42023346023221462846064FB84708
:102EC000064B98470028E7D0FF2200E0002210467A
:102ED000F8BD1046704700BF6D280000812E00002D
:102EE00070B506460C4615461146054B984704F04A
:102EF0000F012A4641F030013046024B984770BD21
:102F0000892E0000F126000010F0100F01D0FF20E4
:102F100070470020704700002DE9F04182B007465D
:102F200088461546002402AA22F8024D2B46214667
:102F30000F4EB0470646BDF8062022F0700212B2CE
:102F40004FEA081808F0700842EA08022B4692B2CD
:102F500021463846074CA04707463046064DA8474D
:102F600004463846A8472043C0B202B0BDE8F0810D
:102F70006D280000112E0000092F0000F0B583B06D
:102F800005461B0103F03003920002F00C021A43C5
:102F900001F0030142EA010402AA002322F8023DE3
:102FA000089B02210D4EB0470746BDF8062022F4CB
:102FB000FC6212B242EA4412089B92B202212846F5
:102FC000074CA04706463846064DA84704463046FB
:102FD000A8472043C0B203B0F0BD00BF6D28000079
:102FE000112E0000092F0000F0B583B007460C46F3
:102FF000154602AA002322F8023D2B4602210E4E5E
:10300000B0470646BDF8062022F0030212B204F0D3
:10301000030422432B4692B202213846074CA047B4
:1030200007463046064DA84704463846A847204381
:10303000C0B203B0F0BD00BF6D280000112E00002B
:10304000092F0000F0B583B007460C46154602AACA
:10305000002322F8023D2B4602210E4EB0470646C1
:10306000BDF8062022F01C0212B2A40004F01C04D9
:1030700022432B4692B202213846074CA04707460E
:103080003046064DA84704463846A8472043C0B2FC
:1030900003B0F0BD6D280000112E0000092F0000C4
:1030A000F0B583B0064614460F1C18BF012702AACC
:1030B000002322F8023D234601210D4DA847054675
:1030C000BDF8062022F4806212B242EA872223462B
:1030D00092B201213046074CA04706462846064DCD
:1030E000A84704463046A8472043C0B203B0F0BD0D
:1030F0006D280000112E0000092F00002DE9F04777
:1031000082B0044617461E460B9D244B984794F9FF
:103110000120002F3FD100231343002E18BF43F09E
:10312000010323709DF82830A370294620461C4BCC
:103130009847294620461B4B98471B4B984781468A
:103140002A4603212046194B9847824600950123C1
:103150001A4619462046164EB04780462A46012197
:103160002046144B984707462A4602212046124B18
:10317000984706462A4600212046104B984749EAC0
:103180000A0948EA090847EA08073E433043C0B243
:1031900002B0BDE8F0870223BEE700BF8126000031
:1031A000FD280000D1280000092F0000192F000081
:1031B0007D2F0000E92F000045300000A130000005
:1031C000F0B583B007460C46154602AA002322F844
:1031D000023D2B4601210F4EB0470646BDF80620A2
:1031E00022F4006213B2A2B2D20202F400621A43C5
:1031F0002B4692B201213846074CA047074630467D
:10320000064DA84704463846A8472043C0B203B03D
:10321000F0BD00BF6D280000112E0000092F000036
:1032200038B505460C460A460121044B984722460C
:103230000E212846024B984738BD00BFC13100001F
:10324000E12E000038B5034C4025A561024B98479C
:10325000656138BD00800041D909000008B5014B07
:10326000984708BD4532000038B505460A460E218C
:10327000044B984704462846034B98472046034B87
:10328000984738BD0D290000292A0000092F0000A9
:103290002DE9F04F83B0884617461E461199254CFC
:1032A000A047054611994046A047834611993846E4
:1032B000A047824611993046A047814611990C9843
:1032C000A047804611990D98A047074611990E987E
:1032D000A047064611990F98A047009011991098A1
:1032E000A04701902846144DA84704465846A847D1
:1032F0000443E4B25046A8470443E4B24846A84712
:103300000443E4B24046A8470443E4B23846A84721
:103310000443E4B23046A8470443E4B20098A84707
:103320000443E4B20198A8472043C0B203B0BDE80B
:10333000F08F00BF69320000092F00002DE9F04F27
:1033400083B006468B4692469946119DDFF8EC8085
:10335000C0470195002400942346224601213046AF
:10336000344FB84729463046334EB0475846C047D9
:10337000019500940123224619465846B84729462C
:103380005846B0475046C047019500942346012255
:1033900011465046B84729465046B0474846C047B0
:1033A000019500942346224602214846B847294603
:1033B0004846B0470C98C047019500940123224627
:1033C00002210C98B84729460C98B0470D98C04781
:1033D000019500942346012202210D98B847294601
:1033E0000D98B0470E98C047019500942346224699
:1033F00003210E98B84729460E98B0470F98C0474A
:10340000019500940123224603210F98B8472946CD
:103410000F98B0471098C0470195009423460122A9
:1034200003211098B84729461098B04703B0BDE86B
:10343000F08F00BFFD30000021320000C9270000DE
:103440002DE9F04F85B00446894690469B46D1ED64
:10345000137A67EEA77A91ED147A27EE077A77EE62
:10346000877AC0ED007A8E4F17EE900AB8478D4DDF
:10347000A847DFF83CA2D0472060D8ED137A67EE6A
:10348000A77A98ED147A27EE077A77EE877AC4ED5B
:10349000017A17EE900AB847A847D0476060DBED85
:1034A000137A67EEA77A9BED147A27EE077A77EE08
:1034B000877AC4ED027A17EE900AB847A847D0473A
:1034C000A0602068B847CDE90001774D50A3D3E94B
:1034D0000023A847754E50A3D3E90023B047CDE998
:1034E0000201D9F85400B8474DA3D3E90023A847F7
:1034F00002460B46DDE90201B047D047E0604AA32F
:10350000D3E90023DDE90001A84749A3D3E900235B
:10351000B047CDE90201D9F85400B84746A3D3E932
:103520000023A84702460B46DDE90201B047D04719
:10353000A06143A3D3E90023DDE90001A847DFF838
:10354000749141A3D3E90023C847CDE90201D8F81B
:103550005400B8473EA3D3E90023A84702460B46D0
:10356000DDE90201B047D04720613BA3D3E9002346
:10357000DDE90001A8473AA3D3E90023C847CDE914
:103580000201D8F85400B84737A3D3E90023A8476D
:1035900002460B46DDE90201B047D047E06134A3A3
:1035A000D3E90023DDE90001A84733A3D3E90023D1
:1035B000B04780468946DBF85400B84730A3D3E9CA
:1035C0000023A84702460B4640464946B047D0472D
:1035D00060612DA3D3E90023DDE90001A8472CA3F6
:1035E000D3E90023B04780468946DBF85400B8474A
:1035F00029A3D3E90023A84702460B464046494683
:10360000B047D047206205B0BDE8F08FAFF300802F
:103610005F07CE1951DA7B3FFA7E6ABC749349404A
:1036200039B4C876BE9F8A3FA167B3EA73B5853FB8
:10363000FFB27BF2B0F0214094F6065F984C653FF4
:10364000C7BAB88D06F0563F1904560E2DE2364023
:103650005F07CE1951DA5B3F1361C3D32B65693F16
:10366000158C4AEA04342440C7BAB88D06F056BF18
:1036700039B4C876BE9F8ABFA52C431CEBA241403B
:10368000158C4AEA0434813FB81E85EB51B87EBFE1
:103690008CDB68006FE1234094F6065F984C553F41
:1036A000553E000055390000FD3E0000993B0000EA
:1036B0005D440000953B0000074B0360074B4360EF
:1036C000074B8360074BC3600023436103614FF0E6
:1036D0007E53C361704700BF0AD7A33CCDCC4C3E9C
:1036E000000082C20000C04000230363054A426319
:1036F00083638362C363044A02644364C362034B0B
:1037000083647047FA7EAA3E0000204000002041FA
:1037100007EE901A016290ED0C7AD0ED0D6A67EE1B
:10372000A66A37EE267A80ED067A8162704707EE48
:10373000901A416290ED0F7AD0ED106A67EEA66A9A
:1037400037EE267A80ED067AC162704700000000ED
:103750002DE9F0472DED048B82B090ED048AF3EE55
:103760000E7AB4EEE78AF1EE10FA6CDA08EE902ADF
:103770008A46044690ED059A3B4D18EE100AA8477C
:1037800080468946394F36A3D3E90023B84702461D
:103790000B46CDE9008940464946B84780468946F0
:1037A000F1EE047A68EE277A17EE900AA847304EB9
:1037B00002460B4640464946B04700222D4BB047D3
:1037C0008046894619EE100AA84702460B46404635
:1037D0004946DFF8A880C047804689465046A8473A
:1037E00042464B46B0478046894618EE900AA847A5
:1037F00042464B46B84702460B46DDE90001B0475A
:103800001D4B984707EE900A2061B3EE0E7AF4EE56
:10381000C77AF1EE10FA01DD84ED047AD4ED007A76
:1038200094ED017A28EE078A38EE498A27EE888AD5
:1038300068EE888A79EE288AC4ED058A02B0BDEC6C
:10384000048BBDE8F0878368036190ED037AD0EDC7
:10385000057A77EE877AC0ED057AEFE7AFF300805F
:103860007B14AE47E17AA43F553E0000FD3E0000C8
:10387000993B0000008061405D440000953B0000E2
:103880002DE9F0410446884617461E460D4DA847CF
:1038900020460D4CA0474046A8474046A047384622
:1038A000A8473846A0473046A8473046A047069864
:1038B000A8470698A0470798A8470798A047BDE8DB
:1038C000F08100BFB9360000E93600002DE9F84F5D
:1038D00005460C46914698460A9F0B9EC1682046B5
:1038E000DFF868B0D847A9694846DFF864A0D04738
:1038F000E269A1692046144CA047D9F81C20D9F8E8
:1039000018104846A04729694046D847E969384613
:10391000D047D8F81C20D8F818104046A047FA69BC
:10392000B9693846A04769693046D847296A0C9872
:10393000D047F269B1693046A0470C9BDA699969B2
:103940001846A047BDE8F88F513700001137000036
:103950002F3700002DE9F04F8BB004460D4600F0E4
:1039600057F8294B93F900A0BAF1FF3F06460F46DE
:1039700012D022462B462046294600F059FD8346A8
:1039800050B94FF000084FF0000942464B46204620
:10399000294600F025FD20B9304639460BB0BDE878
:1039A000F08F1A4BCDF820B00122CDE90445CDE9C6
:1039B00002458DE80C00BAF1000F17D042464B4685
:1039C0004046494600F0C4FBBAF1020FCDE90601BA
:1039D0000ED100F093FD21230360089B73B9DDE94C
:1039E0000667304639460BB0BDE8F08FCDE9068951
:1039F000684600F0C9F80028EFD1EAE700F07EFD44
:103A0000089B0360EBE700BF72000020C047000086
:103A10002DE9F8435B4F8F4305460C4600F092803A
:103A200000290B4602466FDD0F157BD0A7F2FF374A
:103A3000C3F31303F80743F480135CD403EBD27190
:103A400000260B447F105200B64616204FF400119A
:103A50000EEB01049C424FEAD2754FEA420203DCAE
:103A60001B1B04EB010E0E44013805EB43034FEA28
:103A70005101EDD1844620244FF0004109E020D0CF
:103A800003EBD275013C4FEA51012B444FEA42024D
:103A900020D0734501EB0C05F1DD002D05EB010C89
:103AA00009DBF0469542A3EB0E0300D9013B521B04
:103AB0000844C646E4E7BCF1000FF2DB0EF1010852
:103AC000F0E79542DCD8002D05EB010C44DB98466D
:103AD0000023ECE7134313D14008731003F17F5325
:103AE00003F50013F20703EB075948BF40F000400D
:103AF0004946BDE8F8835B0003EBD27352009DE7B3
:103B0000411C2DD00130E7E7064621F000473E4337
:103B1000EFD069BB0F46D30A153F5205002BFAD0F0
:103B2000DE0220D4002400E004465B00DD0204F144
:103B30000100F9D5C0F1200122FA01F10B433F1B2E
:103B4000824073E702460B4600F0D8F92A46234626
:103B500000F022F8BDE8F883BCF1000FAEDAB6E75A
:103B600001362046B9E7002020214FF0FF34E3E77B
:103B700002460B4600F00EF802460B4600F0E8FA4B
:103B8000B7E700BF0000F07F0020704781F00041E0
:103B900002E000BF83F0004330B54FEA41044FEA32
:103BA000430594EA050F08BF90EA020F1FBF54EACD
:103BB000000C55EA020C7FEA645C7FEA655C00F069
:103BC000E2804FEA5454D4EB5555B8BF6D420CDD3A
:103BD0002C4480EA020281EA030382EA000083EABD
:103BE000010180EA020281EA0303362D88BF30BD5D
:103BF00011F0004F4FEA01314FF4801C4CEA1131B3
:103C000002D0404261EB410113F0004F4FEA033311
:103C10004CEA133302D0524263EB430394EA050F9C
:103C200000F0A780A4F10104D5F1200E0DDB02FA0B
:103C30000EFC22FA05F2801841F1000103FA0EF29F
:103C4000801843FA05F359410EE0A5F120050EF165
:103C5000200E012A03FA0EFC28BF4CF0020C43FA96
:103C600005F3C01851EBE37101F0004507D54FF0A3
:103C7000000EDCF1000C7EEB00006EEB0101B1F5F3
:103C8000801F1BD3B1F5001F0CD349085FEA300039
:103C90004FEA3C0C04F101044FEA445212F5800F44
:103CA00080F09A80BCF1004F08BF5FEA500C50F1E1
:103CB000000041EB045141EA050130BD5FEA4C0CC4
:103CC000404141EB010111F4801FA4F10104E9D14D
:103CD00091F0000F04BF01460020B1FA81F308BF44
:103CE0002033A3F10B03B3F120020CDA0C3208DD10
:103CF00002F1140CC2F10C0201FA0CF021FA02F1EB
:103D00000CE002F11402D8BFC2F1200C01FA02F15A
:103D100020FA0CFCDCBF41EA0C019040E41AA2BF7F
:103D200001EB0451294330BD6FEA04041F3C1CDA47
:103D30000C340EDC04F11404C4F1200220FA04F067
:103D400001FA02F340EA030021FA04F345EA030111
:103D500030BDC4F10C04C4F1200220FA02F001FAD3
:103D600004F340EA0300294630BD21FA04F0294655
:103D700030BD94F0000F83F4801306BF81F48011EE
:103D80000134013D4EE77FEA645C18BF7FEA655C61
:103D900029D094EA050F08BF90EA020F05D054EA33
:103DA000000C04BF1946104630BD91EA030F1EBF38
:103DB0000021002030BD5FEA545C05D1400049413C
:103DC00028BF41F0004130BD14F580043CBF01F52F
:103DD000801130BD01F0004545F0FE4141F4700115
:103DE0004FF0000030BD7FEA645C1ABF19461046F0
:103DF0007FEA655C1CBF0B46024650EA013406BFF1
:103E000052EA033591EA030F41F4002130BD00BFAF
:103E100090F0000F04BF0021704730B54FF480646C
:103E200004F132044FF000054FF0000150E700BFED
:103E300090F0000F04BF0021704730B54FF480644C
:103E400004F1320410F0004548BF40424FF0000139
:103E50003EE700BF42004FEAE2014FEA31014FEA7C
:103E600002701FBF12F07F4393F07F4F81F06051CB
:103E7000704792F0000F14BF93F07F4F704730B53A
:103E80004FF4607401F0004521F0004120E700BFCD
:103E900050EA010208BF704730B54FF000050AE054
:103EA00050EA010208BF704730B511F0004502D555
:103EB000404261EB41014FF4806404F132045FEA57
:103EC000915C3FF4DCAE4FF003025FEADC0C18BFFC
:103ED00003325FEADC0C18BF033202EBDC02C2F1F2
:103EE000200300FA03FC20FA02F001FA03FE40EA84
:103EF0000E0021FA02F11444C1E600BF70B54FF084
:103F0000FF0C4CF4E06C1CEA11541DBF1CEA135565
:103F100094EA0C0F95EA0C0F00F0DEF82C4481EACD
:103F2000030621EA4C5123EA4C5350EA013518BFED
:103F300052EA033541F4801143F4801338D0A0FBDA
:103F400002CE4FF00005E1FB02E506F00042E0FB87
:103F500003E54FF00006E1FB03569CF0000F18BF8D
:103F60004EF0010EA4F1FF04B6F5007F64F5407435
:103F700004D25FEA4E0E6D4146EB060642EAC621C8
:103F800041EA55514FEAC52040EA5E504FEACE2E35
:103F9000B4F1FD0C88BFBCF5E06F1ED8BEF1004F38
:103FA00008BF5FEA500E50F1000041EB045170BDB4
:103FB00006F0004646EA010140EA020081EA0301F8
:103FC000B4EB5C04C2BFD4EB0C0541EA045170BDF4
:103FD00041F480114FF0000E013C00F3AB8014F16E
:103FE000360FDEBF002001F0004170BDC4F10004B7
:103FF000203C35DA0C341BDC04F11404C4F1200538
:1040000000FA05F320FA04F001FA05F240EA020092
:1040100001F0004221F0004110EBD37021FA04F6C8
:1040200042EB06015EEA430E08BF20EAD37070BD82
:10403000C4F10C04C4F1200500FA04F320FA05F0E1
:1040400001FA04F240EA020001F0004110EBD370E3
:1040500041F100015EEA430E08BF20EAD37070BD53
:10406000C4F1200500FA05F24EEA020E20FA04F32C
:1040700001FA05F243EA020321FA04F001F00041DB
:1040800021FA04F220EA020000EBD3705EEA430E4C
:1040900008BF20EAD37070BD94F0000F0FD101F07B
:1040A0000046400041EB010111F4801F08BF013CB4
:1040B000F7D041EA060195F0000F18BF704703F0F2
:1040C0000046520043EB030313F4801F08BF013D79
:1040D000F7D043EA0603704794EA0C0F0CEA135535
:1040E00018BF95EA0C0F0CD050EA410618BF52EAEF
:1040F0004306D1D181EA030101F000414FF00000F5
:1041000070BD50EA410606BF1046194652EA430602
:1041100019D094EA0C0F02D150EA013613D195EA76
:104120000C0F05D152EA03361CBF104619460AD1BE
:1041300081EA030101F0004141F0FE4141F47001C8
:104140004FF0000070BD41F0FE4141F4780170BDB8
:1041500070B54FF0FF0C4CF4E06C1CEA11541DBF1D
:104160001CEA135594EA0C0F95EA0C0F00F0A7F81F
:10417000A4EB050481EA030E52EA03354FEA01314C
:1041800000F088804FEA03334FF0805545EA13135F
:1041900043EA12634FEA022245EA111545EA106527
:1041A0004FEA00260EF000419D4208BF964244F1BE
:1041B000FD0404F5407402D25B084FEA3202B61ADD
:1041C00065EB03055B084FEA32024FF480104FF4B1
:1041D000002CB6EB020E75EB030E22BFB61A754625
:1041E00040EA0C005B084FEA3202B6EB020E75EBB8
:1041F000030E22BFB61A754640EA5C005B084FEA20
:104200003202B6EB020E75EB030E22BFB61A7546EC
:1042100040EA9C005B084FEA3202B6EB020E75EBF7
:10422000030E22BFB61A754640EADC0055EA060EB8
:1042300018D04FEA051545EA16754FEA06164FEAFB
:10424000C30343EA52734FEAC2025FEA1C1CC0D1A7
:1042500011F4801F0BD141EA00014FF000004FF034
:10426000004CB6E711F4801F04BF01430020B4F1F5
:10427000FD0C88BFBCF5E06F3FF6AFAEB5EB030CAD
:1042800004BFB6EB020C5FEA500C50F1000041EBAA
:10429000045170BD0EF0004E4EEA113114EB5C0477
:1042A000C2BFD4EB0C0541EA045170BD41F480114A
:1042B0004FF0000E013C90E645EA060E8DE60CEA52
:1042C000135594EA0C0F08BF95EA0C0F3FF43BAF6F
:1042D00094EA0C0F0AD150EA01347FF434AF95EA26
:1042E0000C0F7FF425AF104619462CE795EA0C0F0A
:1042F00006D152EA03353FF4FDAE1046194622E7D7
:1043000050EA410618BF52EA43067FF4C5AE50EAB0
:1043100041047FF40DAF52EA43057FF4EBAE12E7A0
:104320004FF0FF3C06E000BF4FF0010C02E000BF81
:104330004FF0010C4DF804CD4FEA410C7FEA6C5C64
:104340004FEA430C18BF7FEA6C5C1BD001B050EA07
:10435000410C0CBF52EA430C91EA030F02BF90EAF2
:10436000020F0020704710F1000F91EA030F58BFB1
:10437000994208BF90422CBFD8176FEAE37040F013
:10438000010070474FEA410C7FEA6C5C02D150EAB1
:10439000013C07D14FEA430C7FEA6C5CD6D152EA6C
:1043A000033CD3D05DF8040B704700BF8446104631
:1043B00062468C461946634600E000BF01B5FFF730
:1043C000B7FF002848BF10F1000F01BD4DF808ED00
:1043D000FFF7F4FF0CBF012000205DF808FB00BFD1
:1043E0004DF808EDFFF7EAFF34BF012000205DF82B
:1043F00008FB00BF4DF808EDFFF7E0FF94BF012078
:1044000000205DF808FB00BF4DF808EDFFF7CEFF78
:1044100094BF012000205DF808FB00BF4DF808EDB7
:10442000FFF7C4FF34BF012000205DF808FB00BF88
:104430004FEA410C7FEA6C5C02D150EA013C0AD1A0
:104440004FEA430C7FEA6C5C02D152EA033C02D192
:104450004FF0000070474FF0010070474FEA4102F3
:10446000B2F1E04324BFB3F5001CDCF1FE5C0DD9D2
:1044700001F0004C4FEAC0024CEA5070B2F1004F1C
:1044800040EB830008BF20F00100704711F0804F1F
:1044900021D113F13872BCBF01F00040704741F4E4
:1044A00080114FEA5252C2F11802C2F1200C10FAE8
:1044B0000CF320FA02F018BF40F001004FEAC123CC
:1044C0004FEAD32303FA0CFC40EA0C0023FA02F370
:1044D0004FEA4303CCE77FEA625307D150EA013346
:1044E0001EBF4FF0FE4040F44000704701F0004016
:1044F00040F0FE4040F40000704700BF014B1868D8
:10450000704700BF7400002070B50D4E0D4CA41B09
:10451000A4100025A54209D10B4E0C4C00F084F9E3
:10452000A41BA4100025A54205D170BD56F8253066
:1045300098470135EEE756F8253098470135F2E700
:104540003448000034480000344800003848000077
:1045500008000020120000204E000020380000203B
:104560004B0000202E2E2F68616C2F7372632F6812
:10457000616C5F6932635F6D5F73796E632E630098
:104580002E2E2F68616C2F7372632F68616C5F69C8
:104590006F2E63002E2E2F68616C2F7372632F684D
:1045A000616C5F7370695F6D5F646D612E630000A5
:1045B0002E2E2F68616C2F7372632F68616C5F748D
:1045C000696D65722E6300002E2E2F68616C2F7549
:1045D00074696C732F7372632F7574696C735F6C7D
:1045E0006973742E63000000000E200000001008A4
:1045F000000F200000001014000000000000000068
:1046000000000000000000000000000000000000AA
:10461000000000000000000000000000000000009A
:10462000000000000000000000000000000000008A
:10463000000000000000000000000000000000007A
:10464000000000000000000000000000000000006A
:10465000000000000000000000000000000000005A
:10466000000000000000000000000000000000004A
:10467000000000000000000000000000000000003A
:10468000000000000000000000000000000000002A
:10469000000000000000000000000000000000001A
:1046A000000000000000000000000000000000000A
:1046B00000000000000000000000000000000000FA
:1046C00000000000000000000000000000000000EA
:1046D00000000000000000000000000000000000DA
:1046E00000000000000000000030004000340040E6
:1046F000002001410040014100000043000400434C
:1047000000080043000C004300000000000000000F
:104710000000000000000000000000000000000099
:10472000030000001400207000010000930000004E
:104730000000D70000E1F5050000000000000000C7
:1047400000000000000000000C003000000002002B
:10475000000000000400FF01050000002E2E2F685D
:10476000706C2F736572636F6D2F68706C5F73650B
:1047700072636F6D2E63000000380040003C004003
:1047800000A0014100C00141001400420018004295
:10479000001400430018004303006E0008030000EB
:1047A00000000000E2040000000000002E2E2F6830
:1047B000706C2F74632F68706C5F74632E630000DD
:1047C000737172740000000000000000000000001F
:1047D00000000000000000000000000000000000D9
:1047E00000000000000000000000000000000000C9
:1047F00000000000000000000000000000000000B9
:1048000000000000000000000000000000000000A8
:104810000000000000000000000000000000000098
:104820000000000000000000F8B500BFF8BC08BCA4
:104830009E46704789020000F8B500BFF8BC08BC6E
:084840009E467047650200006E
:1048480061000020030074FFFFFFFF030064FFFF07
:10485800FFFF0243080000000000000040000000C5
:104868000000000040034308FFFFFFFFFFFFFFFFBA
:10487800FFFFFFFFFFFFFFFF02430800114000009A
:1048880000008000184000000000800300000200C3
:1048980020000000000000000000000000000000F0
:1048A80000000000000243100011400000000080DA
:1048B800000001007800002000000000E847000028
:1048C80008480000C8470000000000000000000081
:1048D80000000000000000000000000000000000D0
:1048E80000000000000000000000000000000000C0
:1048F80000000000000000000000000000000000B0
:10490800000000000000000000000000000000009F
:08491800000000000000000097
:00000001FF
