S022000053656E736F724172726179526561646F757445746865724341542E73726563E5
S1130000680E0120E1020000DD020000DD020000B4
S1130010DD020000DD020000DD020000000000003F
S1130020000000000000000000000000DD020000ED
S1130030DD02000000000000DD020000DD0200001F
S1130040DD020000DD020000DD020000DD02000030
S1130050DD020000DD020000DD020000DD02000020
S1130060DD020000DD020000DD020000DD02000010
S1130070DD020000DD020000DD020000DD02000000
S1130080DD020000DD020000DD020000DD020000F0
S1130090DD020000DD020000DD020000DD020000E0
S11300A0DD020000DD020000DD020000DD020000D0
S11300B0DD020000DD020000DD020000A90F0000E7
S11300C0B50F0000C10F0000CD0F0000D90F0000D4
S11300D0DD020000DD020000DD020000DD020000A0
S11300E0DD020000DD02000000000000000000004E
S11300F000000000B5100000DD020000DD02000079
S1130100DD020000DD020000DD020000DD0200006F
S1130110DD020000DD020000DD020000DD0200005F
S1130120DD020000DD020000DD020000DD0200004F
S1130130DD020000DD020000DD020000DD0200003F
S1130140DD020000DD020000DD020000DD0200002F
S1130150DD020000DD020000DD020000DD0200001F
S1130160DD020000DD020000DD020000DD0200000F
S1130170DD020000DD020000DD020000DD020000FF
S1130180DD020000DD020000DD020000DD020000EF
S1130190DD020000DD020000DD020000DD020000DF
S11301A0DD020000DD020000DD020000DD020000CF
S11301B0DD020000DD020000DD020000DD020000BF
S11301C0DD020000DD020000DD020000DD020000AF
S11301D0DD020000DD020000DD020000DD0200009F
S11301E0DD020000DD020000DD020000DD0200008F
S11301F0DD020000DD0200009D210000DD020000A0
S1130200DD020000DD02000039070000DD0200000D
S1130210DD020000DD020000DD020000DD0200005E
S1130220DD020000DD020000DD020000DD0200004E
S1130230DD020000DD020000DD020000DD0200003E
S1130240DD020000DD020000DD020000DD0200002E
S1130250DD020000DD020000DD020000DD0200001E
S1130260DD02000010B5054C237833B9044B13B1FB
S11302700448AFF300800123237010BD6001002007
S113028000000000904B00000C4B43B10C480D499A
S113029010B5AFF300800C48036823B910BD0A48B9
S11302A0036833B97047094B002BF7D0BDE8104001
S11302B01847064B002BF5D0184700BF000000007C
S11302C0904B000064010020904B000000000000EF
S11302D008B5014B984708BD55050000FEE700002E
S11302E008B5154B154A9A4209D0134B134A03E03B
S11302F0116819600433043211498B42F8D3114B4D
S113030002E000221A6004330F4A9342F9D30F4BE0
S11303100F4A22F07F029A60D3F8882042F47002D8
S1130320C3F88820BFF34F8FBFF36F8F094B9847F3
S1130330094B9847FEE700BF00000020904B0000E7
S11303405401002060010020680E002000ED00E050
S113035000000000D14800003D200000164B93F837
S1130360562002F0FB0283F8562093F8562002F040
S1130370FE0242F0010283F8562093F83B2002F07B
S1130380F00242F0020283F83B2093F8572002F077
S1130390FB0283F8572093F8572002F0FE0242F044
S11303A0010283F8572093F83B2002F00F0242F039
S11303B0200283F83B20704700800041064B402216
S11303C0C3F8E0204322C3F88C20044A936943F421
S11303D080639361704700BF001C00400008004028
S11303E008B5044B984704490448054B9847054B06
S11303F0984708BDBD03000000400141B003002040
S1130400450A00005D0300002C4B4FF48032C3F812
S11304109420C3F888204FF08041C3F8A810284ADC
S1130420C3F8A82093F8D02002F0FE0242F00102A3
S113043083F8D02093F8B82002F0F00242F00202D0
S113044083F8B8204FF40032C3F89420C3F888200E
S1130450C3F8A8101B4AC3F8A82093F8D12002F0CF
S1130460FE0242F0010283F8D12093F8B82002F092
S11304700F0242F0200283F8B8200222C3F884203D
S1130480114AC3F8A820114AC3F8A82093F8C12040
S113049002F0FB0283F8C12093F8C12002F0FE02AF
S11304A042F0010283F8C12093F8B02002F00F0259
S11304B042F0300283F8B020704700BF0080004152
S11304C0010000C0020000C002000240000002C09F
S11304D0064B4022C3F80C214322C3F88C20044A63
S11304E0136A43F002031362704700BF001C00400C
S11304F00008004008B5044B984704490448054BDC
S11305009847054B984708BDD104000000040043F8
S113051080030020790B000009040000044A936959
S113052043F4804393614022024BC3F8E8207047B0
S113053000080040001C0040044A136A43F04003D2
S113054013624022024BC3F81C217047000800408C
S1130550001C004008B5184B9847184B40225A61BC
S11305609A6002F180429A624FF04041996293F896
S1130570462002F0FE0283F846200122C3F89820A8
S1130580C3F8882002F18042C3F8A820C3F8A81059
S113059093F8C02002F0FE0283F8C020084B98476D
S11305A0084B9847084B9847084B9847084B98477F
S11305B0084B984708BD00BF690C0000008000414B
S11305C0E1030000F50400001D050000DD1C00002F
S11305D039050000A11D00000122104BC3F898202A
S11305E003F500539B6BDA680D4B9A420DD00D4B0B
S11305F0022283F8442001200849C1F8940083F8BA
S113060054200022084B1A7070470122064B1A70BE
S11306104FF48022054BDA60704700BF0080004130
S11306205805002000A000416805002000E100E01A
S113063030B40C88A4B244F001040C800C88A4B239
S113064044F006040C800C88A4B224F01804BDF80D
S11306500C50ED0005F018052C430C800C88A4B256
S113066024F44074A4B20C80032814D8DFE800F00A
S11306700239254B088880B240F4806008800888DD
S113068080B220F4006080B208801A4448684A604E
S11306908A68264A8A600A8892B222F4805292B208
S11306A00A800A88C2F30C020A809BB24A884B80F3
S11306B0CB68029BCB6030BC70470A8892B222F4AC
S11306C0806292B20A800A8892B222F4006292B2E4
S11306D00A80174A126848684A608A68134A8A601E
S11306E0D9E7088880B220F4806080B20880088846
S11306F080B240F40060088048680C4848601A449E
S113070088688A60C7E70A8892B222F4806292B24B
S11307100A800A8892B222F4006292B20A804A687D
S1130720024A4A608A68034A8A60B4E7280400439C
S11307301849000020040020F0B583B0164A937ACB
S113074043F0010393720122144B1A70144B1B786B
S113075083B1002301931146124AC2F8941002F5A2
S11307600052022182F8441082F854100C4A13708B
S113077003B0F0BD0B4B0125C3F89850084E00247C
S11307803470C3F8945021462046074FB847214699
S11307902846B8473470EBE70018004320050020D2
S11307A068050020008000415D0F00002DE9F04F36
S11307B083B0DFF8B881614F02260196DFF8B0916B
S11307C0CDF800901323D8F80420394600205C4D5E
S11307D0A847D8F808B001965A4C009443235A46C7
S11307E049460020A847584B1A68DFF888910196BB
S11307F0CDF800900B2321460020A8470024019443
S1130800DFF874A1CDF800A003235A4649462046D8
S1130810A8470196DFF864B1CDF800B040234B4AF5
S113082051462046A8470196DFF854A1CDF800A010
S11308301323D8F80C2059462046A847D8F810208E
S11308400194DFF84081CDF800800323514620460F
S1130850A8470196CDF800904023224641463046F1
S1130860A847DFF824810196DFF82091CDF80090A5
S11308701323224641460320A8470196DFF810A11E
S1130880CDF800A04323224649460320A847DFF8B9
S113089004910196CDF800900B2322465146032083
S11308A0A8470196DFF8F0A0CDF800A04323224624
S11308B049460320A8470196DFF8E0B0CDF800B020
S11308C01323224651460320A8470194DFF8D0A001
S11308D0CDF800A00323224659461846A84701969E
S11308E0CDF800904023194A1A4451460120A847E4
S11308F0174D184A31462846174B9847D8F80C30FC
S1130900009398E80E002046144EB047FB6800930D
S113091097E80E000120B0472846114B984701265E
S1130920104BC3F89460214620460F4DA84721463A
S11309303046A84703B0BDE8F08F00BF1005002083
S1130940310600003805002000000020600400206B
S113095080030020D9050000ED0B0000E50F000026
S1130960C50B0000008000415D0F00001849000025
S113097040040020F00300201004002000050020A3
S1130980480500200004002050040020E00400205A
S1130990F004002058050020D0030020E0030020CC
S11309A02805002010B5044B1C68044B98470146E9
S11309B02046034B984710BD7C010020250C000005
S11309C0610C000010B5044B1C68044B98470146A9
S11309D02046034B984710BD7C0100203D0C0000CD
S11309E0610C000010B584B00389ADF804301446DE
S11309F002924FF40043ADF80630039101A9143874
S1130A00034B984710B9204604B010BD0446FAE7DA
S1130A10E516000010B584B00389ADF8043014461F
S1130A20029248F20103ADF80630039101A914388B
S1130A30034B984710B9204604B010BD0446FAE7AA
S1130A40E516000038B50D4604465E22084900301C
S1130A5018BF0120074B984729462046064B984764
S1130A60034618B9054AA261054A6261184638BDB1
S1130A702C4900001D0C00003D160000150A000062
S1130A80E509000008B5014B984708BD6D16000044
S1130A90C1F3090102F480620A438283104670475D
S1130AA0143008600020704770B50D4616460446A1
S1130AB068B151B1012034220649074B9847236895
S1130AC0324629462046984770BD0020F3E70020AF
S1130AD0F1E700BF484900001D0C000070B50D4649
S1130AE01646044668B151B101203D220649074B20
S1130AF098476368324629462046984770BD0020CF
S1130B00F3E70020F1E700BF484900001D0C000096
S1130B1070B50D461646044698220749003018BFA2
S1130B200120064B9847334600222946A4F12000B1
S1130B30034CA04770BD00BF5C4900001D0C0000C1
S1130B40C91B000070B50D461646044681220749AC
S1130B50003018BF0120064B984733462A4600212F
S1130B60A4F12000034CA04770BD00BF5C49000005
S1130B701D0C0000C91B000038B50C460546A8B181
S1130B8091B101203B220A490A4B9847284640F874
S1130B90044F2146084B9847034618B9074AAA62EE
S1130BA0074A6A62184638BD0020EBE70020E9E7EF
S1130BB05C4900001D0C000095190000450B000065
S1130BC0110B000010B5044651220549003018BF2E
S1130BD00120044B9847201D034B984710BD00BFCC
S1130BE05C4900001D0C0000111B000070B50D468F
S1130BF016460446A8220649003018BF0120054BBA
S1130C00984732462946201D034B984770BD00BFC4
S1130C105C4900001D0C0000451B000000B900BE2B
S1130C2070470000642303FB00F00230024BA3FB77
S1130C3000304008704700BFABAAAAAA642303FB94
S1130C4000F302330448A0FB03235B084FF47A70DB
S1130C5000FB03F0704700BFABAAAAAA0000000083
S1130C600139FDD8704700BF08B50D4A13889BB2FF
S1130C7043F4C06313800B4B98470B4B98470B4BC3
S1130C8098470B4B984740F6FF700A4B98470A4A1F
S1130C90136943F400731361084B984708BD00BF00
S1130CA000400041411000005510000035100000C4
S1130CB0711000001110000000080040410D0000F8
S1130CC008B51D4A138C03F01F031C4800EB0310E6
S1130CD0128C12F4807F0AD1174A128C12F4007F0E
S1130CE010D1154A128C12F4806F17D108BD1B0164
S1130CF003F1824202F52042012182F84E1043683A
S1130D00984708BD1B0103F1824202F520420221EB
S1130D1082F84E10094AD358984708BD1B0103F1C5
S1130D20824202F52042042182F84E10034A134401
S1130D309B689847DAE700BF00A0004180010020CB
S1130D4030B43D4A13889BB223F002039BB2138054
S1130D5053889BB223F47C539BB2538013889BB279
S1130D6043F001031380344B1B8813F0010FFAD1B5
S1130D70314A4FF470631380537B03F0FE0343F056
S1130D8001035373002353612C4951632C4991632C
S1130D9016E02C4A52F83350274C191D09016018EB
S1130DA0655002EBC3021179417151798171D48884
S1130DB022491A0188188C520022C2600133DBB226
S1130DC01F2BE6D900230AE003F11F010AB2002A0F
S1130DD010DA002A1CDA002A24DA0133DBB2042BED
S1130DE0F2D9154A13889BB243F002031380002002
S1130DF030BC7047500901F01F050124AC4020307D
S1130E00114D45F82040BFF34F8FBFF36F8FE0E7DC
S1130E10500901F01F050124AC4060300A4D45F82B
S1130E202040D8E7520901F01F01012000FA01F126
S1130E30054840F82210D0E700A0004170050020CA
S1130E40700700207849000000E100E091B942B940
S1130E50000100F1824000F52040022380F84C306C
S1130E607047000100F1824000F52040022380F821
S1130E704D307047012902D0022912D070473AB987
S1130E80000100F1824000F5204080F84C107047CA
S1130E90000100F1824000F52040012380F84D302C
S1130EA0704742B1000100F1824000F52040042364
S1130EB080F84D30E2E7000100F1824000F5204067
S1130EC0042380F84C307047024B03EB0010816020
S1130ED00020704770050020024B03EB00104160B6
S1130EE00020704770050020054A0001135A9BB288
S1130EF023F4806343EA812189B2115200207047B0
S1130F007005002030B4144C0201A3189D68A35A44
S1130F10C3F30123A25A12F4006F06D001FA03F4BA
S1130F202C440D4A02EB001294600B4C0201A518EC
S1130F306D68A25A12F4806F05D001FA03F32B44B2
S1130F4004EB0012536089B2034B03EB00104180A1
S1130F50002030BC704700BF7005002010B40C4C5A
S1130F600201A35A9BB243F00103A352094C031D8F
S1130F701B01E25842F00202E25029B1012303FAB4
S1130F8000F022691043206100205DF8044B704793
S1130F907005002000A00041024B03EB0111016029
S1130FA0002070478001002008B5014B984708BD18
S1130FB0C10C000008B5014B984708BDC10C0000E6
S1130FC008B5014B984708BDC10C000008B5014B9A
S1130FD0984708BDC10C000008B5014B984708BDEF
S1130FE0C10C000084B070B485B0064609A880E83E
S1130FF00E000FC88DE80F00044D05EB061585E8BB
S11310000F0005B070BC04B0704700BF700500202D
S113101010F0010F08D0054A054B1A62044B5A68B8
S113102043F6FD731A42F9D1704700BF080101006D
S1131030001C00400122014B5A7170470008004017
S1131040034BDA6902F47C52DA6101221A747047A4
S113105000140040044A054B9A61044B1B6913F0C9
S1131060020FFAD0704700BF0626000300100040AC
S113107031220E4B9A640D4B1B6D13F0060FFAD1FF
S11310800A4B0B4ADA64022283F84420074B1B6D97
S113109013F0020FFAD1054B5B6D13F0010F04D16D
S11310A0024B5B6D13F0020FF5D070470010004047
S11310B06000020000B583B00D4B9B78DBB2019356
S11310C0019B13F0020F06D00A4B1B681BB1084AA0
S11310D05068984709E0019B13F0010F05D0054BB8
S11310E05B6813B1024A5068984703B05DF804FB8B
S11310F0000002417009002070B489B006466C46B5
S11311000C4D0FCD0FC495E80F0084E80F000020AC
S113111007280AD808AB03EB800353F8203CB342FA
S113112001D00130F4E7C0B200E0002009B070BC87
S1131130704700BF784A0000C36913F0010F09D15A
S1131140036843F002030360C36913F0030FFBD188
S1131150002070476FF003007047C36913F0040F59
S113116009D1436843F400334360C36913F0170F94
S1131170FBD1002070476FF003007047C36913F080
S1131180040F09D1436823F400334360C36913F0A7
S1131190170FFBD1002070476FF003007047283011
S11311A0704728307047000008B5044B984705285D
S11311B001D0002008BD012008BD00BFF9100000C7
S11311C008B5044B9847052801D0002008BD01202C
S11311D008BD00BFF910000008B5074B9847072861
S11311E007D8DFE800F00404040404060404012022
S11311F008BD002008BD00BFF910000008B5C36891
S11312009B6803B1984708BD08B5C368DB6803B1A0
S1131210984708BD08B5C3685B6803B1984708BD23
S113122008B5C3681B6903B1984708BD08B50D4BE1
S11312309847002343B140F2A7320B4900200B4BDF
S113124098474FF0FF3008BD03EB4302D100084A32
S11312500A4492F83820904202D00133DBB2E9E725
S113126058B208BDF9100000EC4A00001D0C000043
S1131270784A000038B505460C460846334B984773
S1131280C0B2E36913F0010F22D100EB4003DA008E
S11312902F4B1344DA6B02F01C02E36913F0030FC3
S11312A0FBD1236813F0020F0BD0236823F0020351
S11312B02360E36913F0030FFBD1E36913F0020F1A
S11312C0FBD142F001022260E36913F0030FFBD16A
S11312D0E36913F0010FFBD100EB4003DA001C4B70
S11312E01344DB6B2360E36913F0030FFBD100EBC2
S11312F04003DA00164B13441B6C6360E36913F07C
S1131300040FFBD142000244D100114B0B445A6C30
S1131310E26093F83F3003F00303AB81012B94BFE9
S113132000230123626A22F4804242EA8333636227
S1131330E36913F0040FFBD100EB4000C200044B3F
S11313401344B3F84A30EB81002038BD2D1200005D
S1131350784A000070B5054604692668C6F3C0667D
S113136040F2A6529949003018BF0120984B984783
S11313706B68012B57D0636823F480236360E369AF
S113138013F0040FFBD12B8813F4806F56D06A88B6
S113139012F0010F04D06A8892B242F480626A802B
S11313A040F2FE7202EA4302E36913F0040FFBD138
S11313B0636A03F48043134343F400436362E369C1
S11313C013F0040FFBD12E694FF6FF72337EDBB2AC
S11313D01846511E1AB10A4613F0030FF6D02268BC
S11313E0C2F3C062E36913F0040FFBD1638B9BB2B9
S11313F010F0010F00F09C8013F0020F32D0012294
S113140022766A8892B242F480526A806A8892B2E2
S113141022F4807292B26A8013F0010F00F0D1803E
S11314206FF0040070BD002EA5D0636843F48023E0
S11314306360E36913F0040FFBD1A4E75B00DBB244
S11314406A8802F001021A43E36913F0040FFBD126
S1131450636A03F4804313436362E36913F0040F84
S1131460FBD1B0E713F0040F1FD16B8813F4806F26
S113147039D02B881B125B0003F00602E36913F0DA
S1131480040FFBD1636A03F48043134343F0F10375
S11314906362E36913F0040FFBD16B889BB223F4FE
S11314A080639BB26B80002070BD6B68002B04DDF1
S11314B06B889BB243F480536B806B8813F4004FAA
S11314C008D16B889BB223F480739BB26B806FF05E
S11314D0010070BD636843F440336360E36913F053
S11314E0040FFBD1EDE7686898B96B8813F4004FDB
S11314F006D16B889BB223F480739BB26B8070BD62
S1131500636843F440336360E36913F0040FFBD171
S1131510EFE7AB681B78A362E36913F0040FFBD118
S1131520AB680133AB606B68013B6B60002070BD3E
S113153010F0020F48D0696800293DD013F0040F61
S11315403AD10139696001B9E2B1012918D06B6857
S11315504BB96B8813F4004F1DD16B889BB223F4F5
S113156080739BB26B80AA68531CAB60E36913F071
S1131570040FFBD1A36A137002232376002070BDED
S1131580002AE4D0636843F480236360E36913F0C2
S1131590040FFBD1DBE7636823F480736360E369C2
S11315A013F0040FFBD1636843F440336360E369D1
S11315B013F0040FFBD1D0E7022323766FF0010070
S11315C070BD6FF0030070BD002070BDEC4A0000D8
S11315D01D0C000010B5044668B103684BB101202E
S11315E040F6FE320549064B98472068054B98475C
S11315F010BD0020F4E70020F2E700BFEC4A000031
S11316001D0C00005B11000010B5044668B10368AE
S11316104BB1012040F605420549064B9847206826
S1131620054B984710BD0020F4E70020F2E700BF07
S1131630EC4A00001D0C00007D11000038B50D4679
S1131640044640F219520649003018BF0120054BE8
S11316509847256129462046034B984738BD00BF6B
S1131660EC4A00001D0C00007512000070B51B4E02
S1131670044640F236523146003018BF0120184D5E
S1131680A847246940F206623146201C18BF012095
S1131690A847236843F002032360E36913F0030FB0
S11316A0FBD104214FF6FF72E36913F0040FFBD161
S11316B0638BC3F30113012B0BD0013A002AF3DC33
S11316C0013908D010236383E36913F0040FFBD1BD
S11316D0E8E7002070BD6FF0050070BDEC4A000023
S11316E01D0C00002DE9F04105460E460469DFF8A3
S11316F0A08240F2D1524146003018BF0120A24FCF
S1131700B847286940F2D2524146003018BF012040
S1131710B84740F2D3524146301C18BF0120B847A5
S11317206B8813F4807F40F02A8173889BB243F462
S11317308073738096E8070085E80700636843F4C4
S113174080736360E36913F0040FFBD128468F4B69
S113175098470346002800F0B0806A8892B222F4C9
S1131760807292B26A80BDE8F0816FF00400B7E045
S1131770738813F4004F07D16B889BB223F48073F2
S11317809BB26B80BDE8F081636843F440336360CF
S1131790E36913F0040FFBD1EEE713F0040F1FD13C
S11317A06B8813F4806F39D02B881B125B0003F015
S11317B00602E36913F0040FFBD1636A03F4804368
S11317C0134343F0F1036362E36913F0040FFBD1A5
S11317D06B889BB223F480639BB26B8000206BE028
S11317E06B68002B04DD6B889BB243F480536B80E1
S11317F06B8813F4004F08D16B889BB223F4807379
S11318009BB26B806FF0010056E0636843F4403391
S11318106360E36913F0040FFBD1EDE7686898B9DE
S11318206B8813F4004F06D16B889BB223F480734A
S11318309BB26B8040E0636843F440336360E369C8
S113184013F0040FFBD1EFE7AB681B78A362E369E5
S113185013F0040FFBD1AB680133AB606B68013B41
S11318606B60002028E017F0020F00F083806968A5
S1131870002977D013F0040F74D10139696009B9D4
S1131880002A55D0012951D06B684BB96B8813F4E9
S1131890004F56D16B889BB223F480739BB26B804C
S11318A0AA68531CAB60E36913F0040FFBD1A36A6D
S11318B0137002232376002003466A8812F4807F83
S11318C05AD028694FF6FF72037EDBB21F46511EC1
S11318D0002A3FF44AAF0A4613F0030FF4D0002065
S11318E000287FF445AF2268C2F3C062E36913F0B5
S11318F0040FFBD1638B9BB217F0010FB3D013F02D
S1131900020F3FF44AAF012222766A8892B242F46F
S113191080526A806A8892B222F4807292B26A809B
S113192013F0010F23D06FF00400C5E7002AABD0F9
S1131930636843F480236360E36913F0040FFBD10D
S1131940A2E7636823F480736360E36913F0040F10
S1131950FBD1636843F440336360E36913F0040F1D
S1131960FBD197E7022323766FF00100A4E76FF021
S11319700300A1E700209FE71846BDE8F0816FF05F
S11319800500BDE8F08100BF1D0C000055130000E8
S1131990EC4A000070B505460C460846504B984783
S11319A00023002B72D00026002D7BD0002C77D092
S11319B0012040F6B3424B494B4B9847002E00F0B0
S11319C08B80E36913F0010F1DD1336803F01C020F
S11319D0E36913F0030FFBD1236813F0020F0BD05C
S11319E0236823F002032360E36913F0030FFBD1A0
S11319F0E36913F0020FFBD142F001022260E369B4
S1131A0013F0030FFBD1E36913F0010FFBD12C603A
S1131A10002C4BD0002E47D0012040F60A12314949
S1131A20314B9847336823F4817323F00103236017
S1131A30E36913F0030FFBD1736823F4383323F401
S1131A40107343F400336360E36913F0170FFBD1A1
S1131A50337B2373737B84F830302046234B9847C1
S1131A6030BB2046224B9847014605F11C00214B10
S1131A709847EB69DD60EB691F4A1A60EB691F4AFE
S1131A805A60EB691E4A9A60002070BD052802D096
S1131A900133DBB285E703EB03161A4B1E4483E7DD
S1131AA0002086E7002084E70020B6E70020B4E7A2
S1131AB02046154B9847014605F11C000D4B9847ED
S1131AC0EB69DD60EB69114A1A60EB690B4A5A60F5
S1131AD0EB690B4A9A60C4E76FF00C0070BD00BF5D
S1131AE0F9100000EC4A00001D0C0000C1110000B8
S1131AF0A9110000990F0000151200002112000026
S1131B0009120000D84A0000D9110000FD1100009C
S1131B1010B5044668B103684BB1012040F6E142B8
S1131B200549064B98472068054B984710BD00208F
S1131B30F4E70020F2E700BFEC4A00001D0C0000AF
S1131B403911000070B505461446032935D8DFE87D
S1131B5001F0020D2A186A600068184B9847221C8D
S1131B6018BF01220021164B984770BDAA60006877
S1131B70144B9847221C18BF01220021104B984790
S1131B8070BD2A6100680F4B9847003418BF0124C8
S1131B90224601210A4EB0472868084B984722463E
S1131BA00121B04770BDEA600068064B9847221CCB
S1131BB018BF01220221024B984770BDA9110000F1
S1131BC04D0E0000D91100002DE9F0470546894665
S1131BD090461F4604682046334B98470023002B49
S1131BE03FD04FF0000A2046304B98470646204627
S1131BF02F4B98470446B8F1000F3CD028462D4B94
S1131C00984728682C4B9847014630462B4B9847F9
S1131C10414630462A4B984739463046294B984727
S1131C2000213046284B9847B9F1000F27D0494688
S1131C302046224B98472868244B98470146204663
S1131C401F4B984701212046214B9847394620468F
S1131C501C4B9847002120461B4B98470020BDE8A9
S1131C60F087052802D00133DBB2B8E703EB031A8F
S1131C70184B9A44B7E72846174B9847D4E70AF11C
S1131C800E0120460D4B98472868104B9847014693
S1131C9020460B4B9847002120460D4B9847394668
S1131CA02046084B9847D5E7F9100000D9110000E9
S1131CB0A9110000D51500009F110000D90E0000E5
S1131CC0C90E0000050F00005D0F0000A311000005
S1131CD0E90E0000D84A0000091600002F4B1B69CA
S1131CE013F0010F20D12D4B1B6913F0030FFAD110
S1131CF02A4B1B6813F0020F0ED0284A136823F0F6
S1131D0002031360254B1B6913F0030FFAD1234B15
S1131D101B6913F0020FFAD10122204B1A601F4BEA
S1131D201B6913F0030FFAD11C4B1B6913F0010F4D
S1131D30FAD14FF4A062194B1A60184B1B6913F0C7
S1131D40030FFAD1154B00225A71FF221A71012296
S1131D501A7343F608529A83104B1B6913F0C00F91
S1131D60FAD141F669020D4BDA830C4B1B6913F06F
S1131D70C00FFAD1094B4FF48072DA8021225A72D3
S1131D80DE221A721A6842F002021A60034B1B69BF
S1131D9013F0030FFAD10020704700BF00C00141C7
S1131DA0294B1B6913F0010F20D1274B1B6913F03A
S1131DB0030FFAD1244B1B6813F0020F0ED0224AF2
S1131DC0136823F0020313601F4B1B6913F0030F06
S1131DD0FAD11D4B1B6913F0020FFAD101221A4BE1
S1131DE01A60194B1B6913F0030FFAD1164B1B69C8
S1131DF013F0010FFAD14FF48062134B1A60124BA7
S1131E001B6913F0030FFAD10F4B00225A71FF2202
S1131E101A7101221A7341F669029A830A4B1B69EB
S1131E2013F0C00FFAD1084B01225A72FE221A7223
S1131E301A6842F002021A60034B1B6913F0030F85
S1131E40FAD10020704700BF0018004370B50D465A
S1131E50022848D0032800F08980012800D070BDF2
S1131E60634C644B644A65492046654EB04720463E
S1131E70644B9847644B1A68216811601B68E268D8
S1131E805A60A2699A6062685A6122699A61E26939
S1131E90DA61A268DA6262691A63226A5A63012DFE
S1131EA005D0022D11D04FF07E521A6270BD504AF7
S1131EB0916CD960516D1961D16C5962916D9962BF
S1131EC0116D9963D26DDA63EDE7504A1168D960F8
S1131ED05168196191685962D1689962116999636D
S1131EE05269DA63DFE74A4C4A4B4B4A4B49204676
S1131EF0434EB0472046434B9847434B1A682168EA
S1131F0011601B68E2685A60A2699A6062685A614B
S1131F1022699A61E269DA61A268DA6262691A6323
S1131F20226A5A63012D05D0022D11D04FF0804250
S1131F301A6270BD364A916CD960516D1961D16CC9
S1131F405962916D9962116D9963D26DDA63EDE70F
S1131F50334A1168D9605168196191685962D1682E
S1131F609962116999635269DA63DFE72D4C2E4B4C
S1131F702E4A2F492046224EB0472046214B9847EF
S1131F80214B1A68216811601B68E2685A60A269D3
S1131F909A6062685A6122699A61E269DA61A268A8
S1131FA0DA6262691A63226A5A63012D04D0022D2F
S1131FB010D0204A1A6252E71A4A916CD960516DC6
S1131FC01961D16C5962916D9962116D9963D26DE9
S1131FD0DA63EEE7184A1168D960516819619168AB
S1131FE05962D1689962116999635269DA63E0E7C9
S1131FF0040E0020E00C0020880C0020180A0020A9
S113200019300000C130000074000020A00B002033
S1132010B8090020AC0D0020280C00204C0D002035
S1132020780A0020900A0020480B0020F00A0020C3
S1132030CC0B0020000040408809002080B586B009
S1132040394B9847394B9847394E3A4C31462046DC
S1132050394B98472046394B9847394C40256561A0
S1132060A56133680593374E0496374B0393374B7A
S11320700293374B0193374B0093374B374A384918
S11320803848394FB84765610023384A1370384AD5
S11320901370384A13703046374B9847374B1880C3
S11320A04FF48042364BDA600222364B1A7001221A
S11320B0354B1A702E4B1B78002B27D02B4B1B78DB
S11320C0002BF7D02B4B1B78002BF3D1184B1B683C
S11320D005931C4B04931C4B03931C4B02931C4B06
S11320E001931C4B00931C4B1C4A1D491D48274C53
S11320F0A047254B1978234B1878254B9847002285
S11321001A4B1A7001221B4B1A70D3E7214B1B6820
S113211000221A623220204B98470122144B1A7075
S11321200022144B1A70C9E7D1020000AD07000069
S1132130700A0020B0030020A10A0000850A0000F4
S113214000800041CC0B00204C0D0020180A002018
S1132150F00A0020280C0020880C0020480B0020E6
S1132160AC0D0020E00C0020E52E0000AC0900209E
S1132170240C0020750A002075290000B80B0020EB
S113218000E100E0A0090020380D0020392E0000F5
S11321904D1E000074000020F92D00000D4B9B7AA9
S11321A013F0010F0DD10B4B9B7A13F0200F07D0C6
S11321B0084A937A43F0200393720122064B1A7063
S11321C07047044A937A43F0010393720022034B4D
S11321D01A70704700C00141AC090020240C002093
S11321E00139032905D8DFE801F00206090C0C23A4
S11321F043704078704710234370FAE71423437008
S1132200F7E718234370F4E7F0B583B006461746A2
S11322101D4602AB03F8041D012219460A4B9847D8
S113222001280DD104462A4639463046074B9847C3
S1132230A84202D1204603B0F0BD4FF0FF34F9E7C5
S11322404FF0FF34F6E700BFA90A0000DD0A0000E2
S113225030B583B00D4614464FF400620178084847
S1132260084B9847012301AA29462046064CA0475B
S1132270002803DD9DF8040003B030BDFF20FBE718
S1132280B0030020910A00000922000070B582B05A
S113229005461E46BDF818408DF804108DF805203B
S11322A0022201A9094B984702280CD12246314643
S11322B02846074B9847A04202D1012002B070BDC6
S11322C04FF0FF30FAE74FF0FF30F7E7A90A0000BC
S11322D0DD0A000010B582B004468DF80410110A1E
S11322E08DF805108DF806208DF8073004220DEBCB
S11322F00201094B984704280BD101220499204676
S1132300064B9847012801D102B010BD4FF0FF30B1
S1132310FAE74FF0FF30F7E7A90A0000DD0A0000F2
S1132320082380F83830704708B5002242700270E4
S11323300E4A82604FF08142C2600D4A02610D4A2A
S113234042614FF0804282610B4AC2610B4A0262D1
S11323504FF07E5242620A4A82620A4AC2620A4AC2
S113236002630A4A42630A4B984708BD0000A04032
S113237000004040000020405555D53FABAAAA3F7D
S113238039B4483EC1CAA13E9A99193ED9CE773E86
S113239021230000012303FA01F101F0080190F860
S11323A03830194380F83810704702290CD801F1ED
S11323B01C0300EB43035A8001238B4090F8381030
S11323C021EA030180F8381070470000F0B585B0A9
S11323D004460D4617461E464FF400620178104825
S11323E0104B9847AA000323009303AB02F0FC02AE
S11323F0502130460C4EB047002803DCFF263046FF
S113240005B0F0BD9DF80C609DF80D309DF80E20D0
S113241042EA03223A8029462046044B9847EEE7D5
S1132420B0030020910A00008D220000AB230000BD
S113243038B504460D46064B98472A46F0212046F7
S1132440044B984704460320034B9847204638BD65
S11324502123000051220000C509000008B50A46E6
S11324608021014B984708BD512200002DE9F04717
S113247084B005460C46904601F00F0646F040062F
S11324804FF4006201783D483D4B984714F0080929
S11324905BD0022314F0040A59D00222134404F03E
S11324A002073B44DAB214F0010452D0022313446D
S11324B0DBB20133DBB201AA31464046314EB047AC
S11324C0002859DD002C46D09DF805209DF80630E3
S11324D043EA0223A5F840300323002F40D004AA86
S11324E01A4412F80C0C591C04AA114411F80C2CAF
S11324F042EA0022A5F842200233DBB2BAF1000F0F
S113250032D004AA1A4412F80C0C591C04AA11441F
S113251011F80C2C42EA0022A5F844200233DBB265
S1132520B9F1000F24D004AA1A4412F80C2C013378
S113253004A90B4413F80C3C43EA0223A5F84630E3
S11325409DF8040004B0BDE8F0870023A2E7002250
S1132550A4E70023ABE70023A5F840300123BCE740
S11325600022A5F84220C9E70022A5F84420D7E7B5
S11325700023A5F84630E3E7FF20E3E7B00300209B
S1132580910A00000922000070B4428FC2F30213C2
S113259002F00F02C18FC1F3471101F03F0501F0B2
S11325A00301C5F381062D09848FC4F380240C2A0A
S11325B000F0918090ED0A5AD0ED0B4A023300EB03
S11325C08303D3ED005A002C00F08A80B0F8423027
S11325D006EE903AF8EEE66ADFEDE07A76EEE76A28
S11325E065EE266A65EEA66A012202FA01F107EE9B
S11325F0901AB8EEE76A66EE266AC0ED136A002CFC
S113260000F0D480B0F8443007EE103AB8EEC77A40
S1132610DFEDD27A37EE677A25EE077A25EE877AF0
S11326200123B34007EE903AF8EEE76A26EE877A84
S113263080ED147A002C00F01C81B0F8463007EECF
S1132640903AF8EEE77A9FEDC57A77EEC77A64EEB2
S1132650A77A65EEA77A012303FA05F507EE105A67
S1132660B8EEC77A67EE277AC0ED157AB0F8403035
S113267007EE903AF8EEE77A9FEDB97A77EEC77AEB
S1132680DFEDB86A87EEA67AF3EE097A77EE277A59
S1132690C0ED127AD0ED137A9FEDB37AF4EEC77AD7
S11326A0F1EE10FA40F34A8180ED137AD0ED147AFA
S11326B09FEDAD7AF4EEC77AF1EE10FA00F349819A
S11326C09FEDAA7AF4EEC77AF1EE10FA40F1438155
S11326D080ED147A3FE190ED0C5AD0ED0D4A6DE790
S11326E003298CD8DFE801F002182E48B0F94230F3
S11326F007EE903AF8EEE77A67EE857A25EEA77A48
S1132700012303FA01F107EE901AF8EEE77A67EE77
S1132710877AC0ED137A72E7B0F9423007EE903A47
S1132720F8EEE77A67EE857A25EEA77A012303FAB5
S113273001F107EE901AF8EEE77A67EE877AC0EDBA
S1132740137A5CE7B0F8423007EE903AF8EEE77A95
S11327509FED827A77EEC77A65EE277A65EEA77ADF
S1132760012303FA01F107EE101AB8EEC77A67EEF7
S1132770277AC0ED137A42E7B0F8423007EE903A78
S1132780F8EEE77A9FED7A7A77EEC77A65EE277AE4
S113279065EEA77A012303FA01F107EE101AB8EEE9
S11327A0C77A67EE277AC0ED137A28E7032E3FF63F
S11327B041AFDFE806F002172C45B0F9443007EECC
S11327C0103AB8EEC77A27EE057A25EE875A012328
S11327D0B34007EE903AB8EEE77A27EE057A80ED3B
S11327E0147A27E7B0F9443007EE103AB8EEC77A06
S11327F027EE057A25EE875A0123B34007EE903A77
S1132800B8EEE77A27EE057A80ED147A12E7B0F88D
S1132810443007EE103AB8EEC77ADFED507A37EE5F
S1132820677A25EE077A25EE877A0123B34007EE0F
S1132830903AB8EEE75A25EE077A80ED147AF9E675
S1132840B0F8443007EE103AB8EEC77ADFED487AB4
S113285037EE677A25EE077A25EE877A0123B340AF
S113286007EE903AB8EEE75A25EE077A80ED147A2F
S1132870E0E6032D3FF6FAAEDFE805F002172C463A
S1132880B0F9463007EE903AF8EEE77A67EEA47AAC
S113289065EEA75A0123AB4007EE903AF8EEE77ACB
S11328A067EEA57AC0ED157AE0E6B0F9463007EE9A
S11328B0903AF8EEE77A67EEA47A65EEA75A012318
S11328C0AB4007EE903AF8EEE77A67EEA57AC0EDF2
S11328D0157ACBE6B0F8463007EE903AF8EEE77A90
S11328E09FED1E7A77EEC77A64EEA77A65EEA77A33
S11328F0012303FA05F507EE105AF8EEC75A65EE00
S1132900A77AC0ED157AB1E6B0F8463007EE903AF2
S1132910F8EEE77A9FED167A77EEC77A64EEA77A37
S113292065EEA77A012303FA05F507EE105AF8EECF
S1132930C75A65EEA77AC0ED157A97E69FED0B7A34
S1132940F4EEC77AF1EE10FA7FF5B0AE80ED137AAB
S1132950ACE680ED147A70BC704700BF00000047FD
S113296000A43447CDCC344200504347005043C701
S11329700000804610B4C28F02F00303C2F3C124E6
S1132980C2F3820101228A4002329A4002EB4202DF
S1132990930103F1C900C023A34043331844054BFA
S11329A0A3FB0030C0F34F10083080B25DF8044B35
S11329B0704700BF1F85EB51000980F0010000F053
S11329C001007047F0B585B005460E4617461C4613
S11329D0124B98474FF4006229781148114B9847DD
S11329E0B30003AA009203F0FC033A466021204698
S11329F00D4CA04700280EDD9DF80C4020460B4BE3
S1132A00984708B9204607E03A4631462846084B1D
S1132A109847204600E0FF2005B0F0BD9523000054
S1132A20B0030020910A0000D5220000B92900005B
S1132A30AB230000C0F300107047000090F838206A
S1132A400AB3F8B50E460546002401E00134E4B2A9
S1132A50022C15D895F83830234113F0010FF5D026
S1132A6004F11C0205EB4202334602322146284699
S1132A70064FB847064B98470028E7D0FF2200E0EE
S1132A8000221046F8BD1046704700BFCD23000059
S1132A90352A000070B506460C4615461146054B0E
S1132AA0984704F00F012A4641F030013046024BAA
S1132AB0984770BD3D2A00005122000010F0100F0D
S1132AC001D0FF2070470020704700002DE9F0413D
S1132AD082B0074688461546002402AA22F8024D11
S1132AE02B4621460F4EB0470646BDF8062022F07D
S1132AF0700212B24FEA081808F0700842EA08029D
S1132B002B4692B221463846074CA047074630462A
S1132B10064DA84704463846A8472043C0B202B031
S1132B20BDE8F081CD230000C5290000BD2A0000C6
S1132B30F0B583B005461B0103F03003920002F0A8
S1132B400C021A4301F0030142EA010402AA002321
S1132B5022F8023D089B02210D4EB0470746BDF8FE
S1132B60062022F4FC6212B242EA4412089B92B29A
S1132B7002212846074CA04706463846064DA8477A
S1132B8004463046A8472043C0B203B0F0BD00BF9E
S1132B90CD230000C5290000BD2A0000F0B583B094
S1132BA007460C46154602AA002322F8023D2B468E
S1132BB002210E4EB0470646BDF8062022F003025D
S1132BC012B204F0030422432B4692B20221384687
S1132BD0074CA04707463046064DA84704463846EA
S1132BE0A8472043C0B203B0F0BD00BFCD2300000E
S1132BF0C5290000BD2A0000F0B583B007460C4685
S1132C00154602AA002322F8023D2B4602210E4E4D
S1132C10B0470646BDF8062022F01C0212B2A400FA
S1132C2004F01C0422432B4692B202213846074C7E
S1132C30A04707463046064DA84704463846A847ED
S1132C402043C0B203B0F0BDCD230000C52900006D
S1132C50BD2A0000F0B583B0064614460F1C18BF09
S1132C60012702AA002322F8023D234601210D4D2B
S1132C70A8470546BDF8062022F4806212B242EA53
S1132C808722234692B201213046074CA0470646CC
S1132C902846064DA84704463046A8472043C0B2FC
S1132CA003B0F0BDCD230000C5290000BD2A0000FB
S1132CB02DE9F04782B0044617461E460B9D244B6F
S1132CC0984794F90120002F3FD100231343002E8D
S1132CD018BF43F0010323709DF82830A3702946E0
S1132CE020461C4B9847294620461B4B98471B4BB4
S1132CF0984781462A4602212046194B9847824626
S1132D00009500231A4619462046164EB0478046C1
S1132D102A4601212046144B984707462A46022199
S1132D202046124B984706462A4600212046104B5F
S1132D30984749EA0A0948EA090847EA08073E4366
S1132D403043C0B202B0BDE8F0870223BEE700BF43
S1132D50E12100005D24000031240000BD2A0000B0
S1132D60CD2A0000312B00009D2B0000F92B000020
S1132D70552C0000F0B583B007460C46154602AA50
S1132D80002322F8023D2B4601210F4EB047064690
S1132D90BDF8062022F4006213B2A2B2D20202F4F9
S1132DA000621A432B4692B201213846074CA047D1
S1132DB007463046064DA84704463846A8472043F0
S1132DC0C0B203B0F0BD00BFCD230000C529000090
S1132DD0BD2A000038B505460C460A460121044BBD
S1132DE0984722460E212846024B984738BD00BF1B
S1132DF0752D0000952A000038B5034C4025A561C7
S1132E00024B9847656138BD00800041A509000068
S1132E1038B505460A460E21044B98470446284611
S1132E20034B98472046034B984738BD6D24000058
S1132E3089250000BD2A00002DE9F04F83B08846A3
S1132E4017461E461199254CA04705461199404640
S1132E50A047834611993846A047824611993046C7
S1132E60A047814611990C98A047804611990D9866
S1132E70A047074611990E98A047064611990F9846
S1132E80A047009011991098A04701902846144D2E
S1132E90A84704465846A8470443E4B25046A84706
S1132EA00443E4B24846A8470443E4B24046A84772
S1132EB00443E4B23846A8470443E4B23046A84782
S1132EC00443E4B20098A8470443E4B20198A84735
S1132ED02043C0B203B0BDE8F08F00BF112E000044
S1132EE0BD2A00002DE9F04F85B006468B46924678
S1132EF00393139DDFF81891C847019500240094AB
S1132F002346224601213046DFF80881C04729467E
S1132F1030463D4FB84701203C4EB0475846C8475D
S1132F20019500940123224619465846C047294674
S1132F305846B8470120B0475046C8470195009409
S1132F402346012211465046C04729465046B847F9
S1132F500120B047DDF80CA05046C8470195009405
S1132F602346224602215046C04729465046B847C8
S1132F700120B0470E98C8470195009401232246CA
S1132F8002210E98C04729460E98B8470120B04741
S1132F900F98C847019500942346012202210F98F7
S1132FA0C04729460F98B8470120B0471098C84732
S1132FB0019500942346224603211098C0472946D0
S1132FC01098B8470120B0471198C847019500945C
S1132FD00123224603211198C04729461198B84776
S1132FE00120B0471298C847019500942346012256
S1132FF003211298C04729461298B8470120B047C8
S113300005B0BDE8F08F00BFD52D0000C509000054
S113301029230000B12C0000F8B50446D1ED137A41
S1133020C0ED007A91ED147A80ED037A496D8161E7
S1133030D16C4160116D0161526DC261DA6C8260C4
S11330401A6D42615B6D036267EEA77A27EE077A19
S113305077EE877AC0ED097A164F17EE900AB847D3
S1133060154EB047154DA8476062D4ED017A67EE5E
S1133070A77A94ED047A27EE077A77EE877AC4ED7F
S11330800A7A17EE900AB847B047A847A062D4ED71
S1133090027A67EEA77A94ED057A27EE077A77EE3F
S11330A0877AC4ED0B7A17EE900AB847B047A84761
S11330B0E062F8BD1D4200001D3D000025480000EF
S11330C02DE9F04F2DED068B89B08246D0ED008AB4
S11330D0CB4D18EE900AA847CA4C9DA3D3E9002310
S11330E0A047C94E02460B469BA1D1E90001B04757
S11330F0804689469AED068A18EE100AA847CDE95B
S1133100000197A3D3E90023A047C04F02460B4612
S113311040464946B8478046894628EEA89A19EEA3
S1133120100AA84790A3D3E90023A04702460B4600
S113313040464946B8478046894668EE887A17EE85
S1133140900AA8478AA3D3E90023A04702460B4666
S113315040464946B0478046894628EE08AA1AEEFA
S1133160100AA847CDE9020183A3D3E90023A047AD
S113317002460B4640464946B8478046894668EEB3
S1133180097A17EE900AA8477DA3D3E90023A04744
S113319002460B4640464946B8478046894668EE93
S11331A08A7A17EE900AA84777A3D3E90023A047A9
S11331B002460B4640464946B0478046894668EE7B
S11331C00A7A17EE900AA847CDE9040170A3D3E95F
S11331D00023A04702460B4640464946B847DFF85D
S11331E030B2D84708EE900ACAF830009AED039A34
S11331F019EE100AA84768A3D3E90023A0470246A2
S11332000B4667A1D1E90001B0478046894666A311
S1133210D3E90023DDE90001A04702460B464046FE
S11332204946B8478046894669EE099A19EE900ADC
S1133230A8475FA3D3E90023A04702460B464046B4
S11332404946B8478046894668EE097A17EE900ADF
S1133250A84759A3D3E90023A04702460B4640469A
S11332604946B0478046894655A3D3E90023DDE9A2
S11332700201A04702460B4640464946B8478046ED
S1133280894668EE297A17EE900AA8474EA3D3E937
S11332900023A04702460B4640464946B8478046AD
S11332A089466AEE097A17EE900AA84748A3D3E93B
S11332B00023A04702460B4640464946B047804695
S11332C0894645A3D3E90023DDE90401A04702466A
S11332D00B4640464946B847D84709EE100ACAF893
S11332E03C00DAED099A19EE900AA8473CA3D3E909
S11332F00023A04702460B463BA1D1E90001B04799
S1133300804689463AA3D3E90023DDE90001A047BA
S113331002460B4640464946B8478046894669EE10
S1133320A9AA1AEE900AA84733A3D3E90023A04719
S113333002460B4640464946B8478046894668EEF1
S1133340297A17EE900AA84764E000BFAFF3008023
S11333506214048F6FEF6A3F295C8FC2F5A82A407C
S113336079909E2287886B3F6EEB46D61C4BA83E15
S113337096D61D529ECEA43E0FAA468B89CF913E6F
S11333806481B8056FDCCA3D077295C6B19BBA3D2E
S1133390EB19AA544F019D3DC7968A32C0AA3F3FFC
S11333A0643BDF4F8D970640E0BA6246787B503F1E
S11333B05A85BB1D5B7BA13E7A4DD9F254C39A3E1C
S11333C051F6D88E901E823EFE7F75373196C13DF0
S11333D0EA8ECE8C27F8B73D2D1C877CF83C953DB2
S11333E03FABCC94D6DF723FB81E85EB51783840A2
S11333F07F69519FE40E7B3F5174C1FE82D49A3E93
S11334001D420000C54200005D3F0000613F000016
S113341025480000F5A3D3E90023A04702460B4644
S113342040464946B04780468946F2A3D3E9002383
S1133430DDE90201A04702460B4640464946B8472B
S11334408046894668EE2A7A17EE900AA847EBA3CD
S1133450D3E90023A04702460B4640464946B847F5
S1133460804689466AEE297A17EE900AA847E5A3B2
S1133470D3E90023A04702460B4640464946B047DD
S113348080468946E1A3D3E90023DDE90401A0478E
S113349002460B4640464946B847D847CAF8480052
S11334A068EEA88A29EE099A78EE898ACAED158A07
S11334B018EE900AA847CC4B9847D847CAF854004E
S11334C0DAED018A18EE900AA8479BA3D3E90023FA
S11334D0A04702460B469AA1D1E90001B0478046B5
S11334E089469AED078A18EE100AA847CDE900012B
S11334F095A3D3E90023A04702460B46404649461C
S1133500B8478046894628EEA89A19EE100AA847BB
S11335108FA3D3E90023A04702460B464046494601
S1133520B8478046894668EE887A17EE900AA8471D
S113353089A3D3E90023A04702460B4640464946E7
S1133540B0478046894628EE08AA1AEE100AA84712
S1133550CDE9020182A3D3E90023A04702460B462A
S113356040464946B8478046894668EE097A17EED0
S1133570900AA8477CA3D3E90023A04702460B4640
S113358040464946B8478046894668EE8A7A17EE2F
S1133590900AA84776A3D3E90023A04702460B4626
S11335A040464946B0478046894668EE0A7A17EE97
S11335B0900AA847CDE904016FA3D3E90023A047EB
S11335C002460B4640464946B847D84708EE900A9B
S11335D0CAF834009AED049A19EE100AA84768A3B1
S11335E0D3E90023A04702460B4667A1D1E90001B5
S11335F0B0478046894666A3D3E90023DDE900018C
S1133600A04702460B4640464946B847804689468D
S113361069EE099A19EE900AA8475FA3D3E900233B
S1133620A04702460B4640464946B0478046894675
S113363068EE097A17EE900AA84759A3D3E9002344
S1133640A04702460B4640464946B0478046894655
S113365055A3D3E90023DDE90201A04702460B4646
S113366040464946B8478046894668EE297A17EEAF
S1133670900AA8474EA3D3E90023A04702460B466D
S113368040464946B047804689466AEE097A17EEB5
S1133690900AA84748A3D3E90023A04702460B4653
S11336A040464946B0478046894645A3D3E90023AE
S11336B0DDE90401A04702460B4640464946B847A7
S11336C0D84709EE100ACAF84000DAED0A9A19EE52
S11336D0900AA8473CA3D3E90023A04702460B461F
S11336E03BA1D1E90001B047804689463AA3D3E91A
S11336F00023DDE90001A04702460B464046494647
S1133700B8478046894669EEA9AA1AEE900AA847E6
S113371033A3D3E90023A04702460B46404649465B
S1133720B8478046894668EE297A17EE900AA8477A
S113373070E000BFAFF300803A1A2C41EB86323FB1
S1133740FA7E6ABC7493F63F05B4BE92F5E5363F43
S113375038D408A9964E863E1004C317F81A8A3E38
S113376034D6663D3229633EB247401B0AA1A83DC8
S1133770AC44CF6F9B12A43D524CE52987AF733DF7
S1133780A38FF9804067723F736891ED7C3F1F40BF
S1133790520DFB3DB14E653F3C9ED4A7F5EF7C3EF8
S11337A0FA36BA4F79B0A83E6A217BD7BDA9913EBB
S11337B0E2A312967925AA3D68361682C1BDBC3DA6
S11337C078881F9D463BA13DCD1FD3DA34B6773FA1
S11337D0EC51B81E856B2C404AD1CABDC0AC703FB9
S11337E08B3E6960A0B6A13E1D3D0000FE670CF44F
S11337F0024CA63EEE8C5802A7C2A13EB89943885B
S11338004D319E3DBBC3C53C7809BB3D23D65CFE10
S1133810444FA73DF6A3D3E90023A04702460B4635
S113382040464946B04780468946F3A3D3E900237E
S1133830DDE90201A04702460B4640464946B84727
S11338408046894668EE2A7A17EE900AA847ECA3C8
S1133850D3E90023A04702460B4640464946B847F1
S1133860804689466AEE297A17EE900AA847E6A3AD
S1133870D3E90023A04702460B4640464946B047D9
S113388080468946E2A3D3E90023DDE90401A04789
S113389002460B4640464946B847D847CAF84C004A
S11338A068EEA88A29EE099A78EE898ACAED168A02
S11338B018EE900AA847CC4B9847D847CAF8580046
S11338C09AED028A18EE100AA8479BA3D3E90023B5
S11338D0A04702460B469AA1D1E90001B0478046B1
S11338E08946DAED088A18EE900AA847CDE9000166
S11338F095A3D3E90023A04702460B464046494618
S1133900B0478046894628EE089A19EE100AA8475F
S11339108FA3D3E90023A04702460B4640464946FD
S1133920B0478046894668EE287A17EE900AA84781
S113393089A3D3E90023A04702460B4640464946E3
S1133940B0478046894668EEA89A19EE900AA847BF
S1133950CDE9020182A3D3E90023A04702460B4626
S113396040464946B0478046894668EE897A17EE54
S1133970900AA8477CA3D3E90023A04702460B463C
S113398040464946B0478046894668EE297A17EE94
S1133990900AA84776A3D3E90023A04702460B4622
S11339A040464946B0478046894668EEA97A17EEF4
S11339B0900AA847CDE904016FA3D3E90023A047E7
S11339C002460B4640464946B047D84708EE100A1F
S11339D0CAF838009AED059A19EE100AA84768A3A8
S11339E0D3E90023A04768A3D3E90023B047804666
S11339F0894667A3D3E90023DDE90001A047024615
S1133A000B4640464946B0478046894629EE09AAF6
S1133A101AEE100AA84760A3D3E90023A047024680
S1133A200B4640464946B847804689462E4668EECE
S1133A30897A17EE900AA84759A3D3E90023A0472F
S1133A403D4602460B4640464946B84780468946AD
S1133A5055A3D3E90023DDE90201A047634F0246E1
S1133A600B4640464946B8478046894668EE8A7AFE
S1133A7017EE900AB0474EA3D3E90023A0470246AD
S1133A800B4640464946A8478046894669EE897AEE
S1133A9017EE900AB04748A3D3E90023A047024693
S1133AA00B4640464946A8478046894644A3D3E985
S1133AB00023DDE90401A04702460B46404649467F
S1133AC0B847D84708EE900ACAF844009AED0B9A12
S1133AD019EE100AB047CDE904013BA3D3E9002352
S1133AE0A04702460B463AA1D1E90001B8478046F7
S1133AF0894639A3D3E90023DDE90001A047024642
S1133B000B4640464946A8478046894669EE097AED
S1133B1017EE900AB047CDE9060131A3D3E900239B
S1133B20A04702460B4640464946A8478046894678
S1133B3072E000BFAFF30080F2B0506B9A776C3F35
S1133B40295C8FC2F5A824C02A1E17D522A2683F7B
S1133B50C6C5ED69A9A9A53E7E99BC81C1AEA83EA2
S1133B60EDB99FDECB47923E353439827C37C83D70
S1133B7062629CE13A77C13D8F1276743C6DA03D40
S1133B802FDFFAB0DEA8653F54E3A59BC4200140B3
S1133B90ECDD1FEF552B433FDC65B8EB70EEA23E26
S1133BA0CF6686EAB53B853E06A89957C093613E29
S1133BB0DA3CCECE2029C63D584F56D5F53D683D5A
S1133BC009C74D662B6C623DCAFACDC47421763F99
S1133BD05C8FC2F5289C39403526C45C52B57D3FC4
S1133BE0E6E2E488F915B23E1D3D00005D3F0000A9
S1133BF08D7D54022CB2A93EC41F7C22F3B3963EA1
S1133C007CA546F987A5B03D68361682C1BDBC3D8A
S1133C108644DE022F8E9A3D36A3D3E90023DDE9E4
S1133C200401A04702460B46DDE90001A047024615
S1133C300B4640464946B847804689462FA3D3E9F8
S1133C400023DDE90201A04702460B4640464946EF
S1133C50A847804689462BA3D3E90023DDE9060162
S1133C60A04702460B46DDE90001A04702460B4689
S1133C7040464946A8478046894624A3D3E9002301
S1133C80DDE90401A04702460B46DDE90201A04735
S1133C9002460B4640464946B847804689461DA31E
S1133CA0D3E90023DDE90201A04702460B46DDE922
S1133CB00001A04702460B4640464946A847D8475C
S1133CC0CAF8500028EE088A68EEA88A38EE288AD6
S1133CD08AED178A18EE100AB047054B9847D84763
S1133CE0CAF85C0009B0BDEC068BBDE8F08F00BFDC
S1133CF01D3D00003637725A8173A73E558A8B4E9C
S1133D00977FA43E4DE78FA44376CE3D116F1BE60B
S1133D102814B73DDF7F7E44E7D9AC3D2DE9F04F51
S1133D208BB004460D4600F057F8294B93F900A0D8
S1133D30BAF1FF3F06460F4612D022462B462046D4
S1133D40294600F059FD834650B94FF000084FF062
S1133D50000942464B462046294600F025FD20B97D
S1133D60304639460BB0BDE8F08F1A4BCDF820B081
S1133D700122CDE90445CDE902458DE80C00BAF1F4
S1133D80000F17D042464B464046494600F0C4FB5C
S1133D90BAF1020FCDE906010ED100F093FD212303
S1133DA00360089B73B9DDE90667304639460BB0FA
S1133DB0BDE8F08FCDE90689684600F0C9F800280F
S1133DC0EFD1EAE700F07EFD089B0360EBE700BF5C
S1133DD0EE000020084B00002DE9F8435B4F8F43B1
S1133DE005460C4600F0928000290B4602466FDD22
S1133DF00F157BD0A7F2FF37C3F31303F80743F47F
S1133E0080135CD403EBD27100260B447F10520064
S1133E10B64616204FF400110EEB01049C424FEA03
S1133E20D2754FEA420203DC1B1B04EB010E0E4465
S1133E30013805EB43034FEA5101EDD184462024B8
S1133E404FF0004109E020D003EBD275013C4FEA6A
S1133E5051012B444FEA420220D0734501EB0C057B
S1133E60F1DD002D05EB010C09DBF0469542A3EBD7
S1133E700E0300D9013B521B0844C646E4E7BCF1DB
S1133E80000FF2DB0EF10108F0E79542DCD8002DBB
S1133E9005EB010C44DB98460023ECE7134313D1F4
S1133EA04008731003F17F5303F50013F20703EB8B
S1133EB0075948BF40F000404946BDE8F8835B001D
S1133EC003EBD27352009DE7411C2DD00130E7E78C
S1133ED0064621F000473E43EFD069BB0F46D30AA4
S1133EE0153F5205002BFAD0DE0220D4002400E056
S1133EF004465B00DD0204F10100F9D5C0F12001A4
S1133F0022FA01F10B433F1B824073E702460B4642
S1133F1000F0D8F92A46234600F022F8BDE8F883D9
S1133F20BCF1000FAEDAB6E701362046B9E700204F
S1133F3020214FF0FF34E3E702460B4600F00EF871
S1133F4002460B4600F0E8FAB7E700BF0000F07F36
S1133F500020704781F0004102E000BF83F000437D
S1133F6030B54FEA41044FEA430594EA050F08BF10
S1133F7090EA020F1FBF54EA000C55EA020C7FEAD4
S1133F80645C7FEA655C00F0E2804FEA5454D4EB51
S1133F905555B8BF6D420CDD2C4480EA020281EA1B
S1133FA0030382EA000083EA010180EA020281EA53
S1133FB00303362D88BF30BD11F0004F4FEA0131A5
S1133FC04FF4801C4CEA113102D0404261EB4101B4
S1133FD013F0004F4FEA03334CEA133302D052423A
S1133FE063EB430394EA050F00F0A780A4F10104F6
S1133FF0D5F1200E0DDB02FA0EFC22FA05F2801830
S113400041F1000103FA0EF2801843FA05F3594115
S11340100EE0A5F120050EF1200E012A03FA0EFC94
S113402028BF4CF0020C43FA05F3C01851EBE371BE
S113403001F0004507D54FF0000EDCF1000C7EEBDB
S113404000006EEB0101B1F5801F1BD3B1F5001F19
S11340500CD349085FEA30004FEA3C0C04F1010438
S11340604FEA445212F5800F80F09A80BCF1004F61
S113407008BF5FEA500C50F1000041EB045141EAE3
S1134080050130BD5FEA4C0C404141EB010111F4E4
S1134090801FA4F10104E9D191F0000F04BF01468F
S11340A00020B1FA81F308BF2033A3F10B03B3F16D
S11340B020020CDA0C3208DD02F1140CC2F10C02FD
S11340C001FA0CF021FA02F10CE002F11402D8BF5B
S11340D0C2F1200C01FA02F120FA0CFCDCBF41EA27
S11340E00C019040E41AA2BF01EB0451294330BDF6
S11340F06FEA04041F3C1CDA0C340EDC04F11404D3
S1134100C4F1200220FA04F001FA02F340EA0300A9
S113411021FA04F345EA030130BDC4F10C04C4F1EF
S1134120200220FA02F001FA04F340EA03002946CF
S113413030BD21FA04F0294630BD94F0000F83F419
S1134140801306BF81F480110134013D4EE77FEAFC
S1134150645C18BF7FEA655C29D094EA050F08BF48
S113416090EA020F05D054EA000C04BF1946104629
S113417030BD91EA030F1EBF0021002030BD5FEA6D
S1134180545C05D14000494128BF41F0004130BD95
S113419014F580043CBF01F5801130BD01F00045E9
S11341A045F0FE4141F470014FF0000030BD7FEA5C
S11341B0645C1ABF194610467FEA655C1CBF0B4657
S11341C0024650EA013406BF52EA033591EA030F6E
S11341D041F4002130BD00BF90F0000F04BF002166
S11341E0704730B54FF4806404F132044FF0000599
S11341F04FF0000150E700BF90F0000F04BF002112
S1134200704730B54FF4806404F1320410F0004577
S113421048BF40424FF000013EE700BF42004FEA72
S1134220E2014FEA31014FEA02701FBF12F07F43EF
S113423093F07F4F81F06051704792F0000F14BFEC
S113424093F07F4F704730B54FF4607401F0004530
S113425021F0004120E700BF50EA010208BF704787
S113426030B54FF000050AE050EA010208BF70477C
S113427030B511F0004502D5404261EB41014FF4E5
S1134280806404F132045FEA915C3FF4DCAE4FF0E9
S113429003025FEADC0C18BF03325FEADC0C18BFD0
S11342A0033202EBDC02C2F1200300FA03FC20FA21
S11342B002F001FA03FE40EA0E0021FA02F114446E
S11342C0C1E600BF70B54FF0FF0C4CF4E06C1CEA83
S11342D011541DBF1CEA135594EA0C0F95EA0C0FF8
S11342E000F0DEF82C4481EA030621EA4C5123EA6B
S11342F04C5350EA013518BF52EA033541F480119A
S113430043F4801338D0A0FB02CE4FF00005E1FB4C
S113431002E506F00042E0FB03E54FF00006E1FB96
S113432003569CF0000F18BF4EF0010EA4F1FF04D9
S1134330B6F5007F64F5407404D25FEA4E0E6D4119
S113434046EB060642EAC62141EA55514FEAC5202A
S113435040EA5E504FEACE2EB4F1FD0C88BFBCF5A6
S1134360E06F1ED8BEF1004F08BF5FEA500E50F157
S1134370000041EB045170BD06F0004646EA01011D
S113438040EA020081EA0301B4EB5C04C2BFD4EB4F
S11343900C0541EA045170BD41F480114FF0000E48
S11343A0013C00F3AB8014F1360FDEBF002001F0B6
S11343B0004170BDC4F10004203C35DA0C341BDC30
S11343C004F11404C4F1200500FA05F320FA04F002
S11343D001FA05F240EA020001F0004221F0004136
S11343E010EBD37021FA04F642EB06015EEA430EA9
S11343F008BF20EAD37070BDC4F10C04C4F12005D9
S113440000FA04F320FA05F001FA04F240EA02008B
S113441001F0004110EBD37041F100015EEA430E5C
S113442008BF20EAD37070BDC4F1200500FA05F27C
S11344304EEA020E20FA04F301FA05F243EA0203FB
S113444021FA04F001F0004121FA04F220EA02000A
S113445000EBD3705EEA430E08BF20EAD37070BD50
S113446094F0000F0FD101F00046400041EB010130
S113447011F4801F08BF013CF7D041EA060195F012
S1134480000F18BF704703F00046520043EB0303CC
S113449013F4801F08BF013DF7D043EA06037047B9
S11344A094EA0C0F0CEA135518BF95EA0C0F0CD0C4
S11344B050EA410618BF52EA4306D1D181EA03010A
S11344C001F000414FF0000070BD50EA410606BF04
S11344D01046194652EA430619D094EA0C0F02D149
S11344E050EA013613D195EA0C0F05D152EA03368E
S11344F01CBF104619460AD181EA030101F00041AC
S113450041F0FE4141F470014FF0000070BD41F0F4
S1134510FE4141F4780170BD70B54FF0FF0C4CF4CE
S1134520E06C1CEA11541DBF1CEA135594EA0C0FED
S113453095EA0C0F00F0A7F8A4EB050481EA030E3A
S113454052EA03354FEA013100F088804FEA033321
S11345504FF0805545EA131343EA12634FEA0222EF
S113456045EA111545EA10654FEA00260EF00041B0
S11345709D4208BF964244F1FD0404F5407402D202
S11345805B084FEA3202B61A65EB03055B084FEA93
S113459032024FF480104FF4002CB6EB020E75EB90
S11345A0030E22BFB61A754640EA0C005B084FEAB8
S11345B03202B6EB020E75EB030E22BFB61A754635
S11345C040EA5C005B084FEA3202B6EB020E75EB80
S11345D0030E22BFB61A754640EA9C005B084FEAF8
S11345E03202B6EB020E75EB030E22BFB61A754605
S11345F040EADC0055EA060E18D04FEA051545EAF4
S113460016754FEA06164FEAC30343EA52734FEA9C
S1134610C2025FEA1C1CC0D111F4801F0BD141EA15
S113462000014FF000004FF0004CB6E711F4801F7A
S113463004BF01430020B4F1FD0C88BFBCF5E06F5A
S11346403FF6AFAEB5EB030C04BFB6EB020C5FEA6A
S1134650500C50F1000041EB045170BD0EF0004EBF
S11346604EEA113114EB5C04C2BFD4EB0C0541EAF1
S1134670045170BD41F480114FF0000E013C90E6EE
S113468045EA060E8DE60CEA135594EA0C0F08BFB2
S113469095EA0C0F3FF43BAF94EA0C0F0AD150EAB1
S11346A001347FF434AF95EA0C0F7FF425AF104644
S11346B019462CE795EA0C0F06D152EA03353FF46C
S11346C0FDAE1046194622E750EA410618BF52EAE9
S11346D043067FF4C5AE50EA41047FF40DAF52EABD
S11346E043057FF4EBAE12E74FF0FF3C06E000BF5A
S11346F04FF0010C02E000BF4FF0010C4DF804CD67
S11347004FEA410C7FEA6C5C4FEA430C18BF7FEA26
S11347106C5C1BD001B050EA410C0CBF52EA430C54
S113472091EA030F02BF90EA020F0020704710F1D4
S1134730000F91EA030F58BF994208BF90422CBF63
S1134740D8176FEAE37040F0010070474FEA410C5C
S11347507FEA6C5C02D150EA013C07D14FEA430C7A
S11347607FEA6C5CD6D152EA033CD3D05DF8040BEB
S1134770704700BF8446104662468C46194663461D
S113478000E000BF01B5FFF7B7FF002848BF10F1F4
S1134790000F01BD4DF808EDFFF7F4FF0CBF012039
S11347A000205DF808FB00BF4DF808EDFFF7EAFFB5
S11347B034BF012000205DF808FB00BF4DF808ED70
S11347C0FFF7E0FF94BF012000205DF808FB00BF65
S11347D04DF808EDFFF7CEFF94BF012000205DF8EF
S11347E008FB00BF4DF808EDFFF7C4FF34BF0120FC
S11347F000205DF808FB00BF4FEA410C7FEA6C5CC7
S113480002D150EA013C0AD14FEA430C7FEA6C5CC6
S113481002D152EA033C02D14FF0000070474FF03E
S1134820010070474FEA4102B2F1E04324BFB3F5FF
S1134830001CDCF1FE5C0DD901F0004C4FEAC00213
S11348404CEA5070B2F1004F40EB830008BF20F0F7
S11348500100704711F0804F21D113F13872BCBFB1
S113486001F00040704741F480114FEA5252C2F106
S11348701802C2F1200C10FA0CF320FA02F018BF4F
S113488040F001004FEAC1234FEAD32303FA0CFCA2
S113489040EA0C0023FA02F34FEA4303CCE77FEA31
S11348A0625307D150EA01331EBF4FF0FE4040F47B
S11348B04000704701F0004040F0FE4040F400002A
S11348C0704700BF014B1868704700BFF00000201C
S11348D070B50D4E0D4CA41BA4100025A54209D1A2
S11348E00B4E0C4C00F044F9A41BA4100025A54267
S11348F005D170BD56F8253098470135EEE756F8D6
S1134900253098470135F2E77C4B00007C4B0000D2
S11349107C4B0000804B00000800002012000020A7
S11349204E000020380000204B0000202E2E2F685F
S1134930616C2F7372632F68616C5F6932635F6DA2
S11349405F73796E632E63002E2E2F68616C2F7354
S113495072632F68616C5F696F2E63002E2E2F685F
S1134960616C2F7372632F68616C5F7370695F6D24
S11349705F646D612E630000000E200000001008CB
S1134980000F2000000010140000000000000000D0
S11349900000000000000000000000000000000013
S11349A00000000000000000000000000000000003
S11349B000000000000000000000000000000000F3
S11349C000000000000000000000000000000000E3
S11349D000000000000000000000000000000000D3
S11349E000000000000000000000000000000000C3
S11349F000000000000000000000000000000000B3
S1134A0000000000000000000000000000000000A2
S1134A100000000000000000000000000000000092
S1134A200000000000000000000000000000000082
S1134A300000000000000000000000000000000072
S1134A400000000000000000000000000000000062
S1134A500000000000000000000000000000000052
S1134A600000000000000000000000000000000042
S1134A70000000000000000000300040003400404E
S1134A8000200141004001410000004300040043B4
S1134A9000080043000C0043000000000000000078
S1134AA00000000000000000000000000000000002
S1134AB0030000001400207000010000FF0000004B
S1134AC00000D70000E1F505000000000000000030
S1134AD000000000000000000C0030000000020094
S1134AE0000000000400FF01050000002E2E2F68C6
S1134AF0706C2F736572636F6D2F68706C5F736574
S1134B0072636F6D2E630000737172740000000095
S1134B100000000000000000000000000000000091
S1134B200000000000000000000000000000000081
S1134B300000000000000000000000000000000071
S1134B400000000000000000000000000000000061
S1134B500000000000000000000000000000000051
S1134B600000000000000000000000000000000041
S1134B70F8B500BFF8BC08BC9E4670478902000027
S1134B80F8B500BFF8BC08BC9E467047650200003B
S1134B9061000020030074FFFFFFFF030064FFFFB8
S1134BA0FFFF024308000000000000004000000076
S1134BB00000000040034308FFFFFFFFFFFFFFFF6B
S1134BC0FFFFFFFFFFFFFFFF02430800114000004B
S1134BD00000800018400000000080030000020074
S1134BE020000000000000000000000000000000A1
S1134BF0000000000002431000114000000000808B
S1134C000000000060040020A0040020DD0000205B
S1134C10030074FFFFFFFF030064FFFFFFFF024375
S1134C200800000000000000400000000000000038
S1134C3040034308FFFFFFFFFFFFFFFFFFFFFFFFEE
S1134C40FFFFFFFF02430800114000000000800046
S1134C501840000000008003000002002000000053
S1134C600000000000000000000000000000000040
S1134C700002431000114000000000800000010009
S1134C80F400002000000000304B0000504B0000F6
S1134C90104B0000000000000000000000000000B5
S1134CA00000000000000000000000000000000000
S1134CB000000000000000000000000000000000F0
S1134CC000000000000000000000000000000000E0
S1134CD000000000000000000000000000000000D0
S1074CE000000000CC
S9030000FC
