:1000000060080120E10200007D0300007D03000084
:100010007D0300007D0300007D0300000000000060
:100020000000000000000000000000007D03000050
:100030007D030000000000007D0300007D03000040
:100040007D0300007D0300007D0300007D030000B0
:100050007D0300007D0300007D0300007D030000A0
:100060007D0300007D0300007D0300007D03000090
:100070007D0300007D0300007D0300007D03000080
:100080007D0300007D0300007D0300007D03000070
:100090007D0300007D0300007D0300007D03000060
:1000A0007D0300007D0300007D0300007D03000050
:1000B0007D0300007D0300007D0300007D03000040
:1000C0007D0300007D0300007D0300007D03000030
:1000D0007D0300007D0300007D0300007D03000020
:1000E0007D0300007D030000000000000000000010
:1000F00000000000011E00007D0300007D030000E1
:100100007D0300007D0300007D0300007D030000EF
:100110007D0300007D0300007D0300007D030000DF
:100120007D0300007D0300007D0300007D030000CF
:100130007D0300007D0300007D0300007D030000BF
:100140007D0300007D0300007D0300007D030000AF
:100150007D0300007D0300007D0300007D0300009F
:100160007D0300007D0300007D0300007D0300008F
:100170007D0300007D0300007D0300007D0300007F
:100180007D0300007D0300007D0300007D0300006F
:100190007D0300007D0300007D0300007D0300005F
:1001A0007D0300007D0300007D0300007D0300004F
:1001B0007D0300007D0300007D0300007D0300003F
:1001C0007D0300007D0300007D0300007D0300002F
:1001D0007D0300007D0300007D0300007D0300001F
:1001E0007D0300007D0300007D0300007D0300000F
:1001F0007D0300007D030000793700007D030000CF
:100200007D0300007D0300007D0300007D030000EE
:100210007D0300007D0300007D0300007D030000DE
:100220007D0300007D0300007D0300007D030000CE
:100230007D0300007D0300007D0300007D030000BE
:100240007D0300007D0300007D0300007D030000AE
:100250007D0300007D0300007D0300007D0300009E
:100260007D03000010B5054C237833B9044B13B15E
:100270000448AFF300800123237010BD74040020F4
:1002800000000000785300000C4B43B10C480D49AE
:1002900010B5AFF300800C48036823B910BD0A48BD
:1002A000036833B97047094B002BF7D0BDE8104005
:1002B0001847064B002BF5D0184700BF0000000080
:1002C00078530000780400207853000000000000FC
:1002D00080B500AF014B984700BF80BD350B0000D3
:1002E00080B582B000AF1C4B7B601C4B3B607A68D2
:1002F0003B689A420CD007E03B681A1D3A607A6866
:10030000111D796012681A603B68154A9342F3D355
:10031000144B3B6004E03B681A1D3A6000221A60EF
:100320003B68114A9342F6D3104B7B60104A7B68BE
:1003300023F07F0393600E4A0D4BD3F8883043F4CB
:100340007003C2F88830BFF34F8FBFF36F8F094B34
:100350009847094B9847FEE77853000000000020BB
:1003600074040020740400205C08002000000000D9
:1003700000ED00E0BD500000093A000080B400AF7D
:10038000FEE780B485B000AFF8600B467A60FB7280
:10039000FA7AFB682032796843F8221000BF1437DC
:1003A000BD465DF8047B704780B483B000AF7860D1
:1003B0007B689B6943F400727B689A6100BF0C37CD
:1003C000BD465DF8047B704780B483B000AF7860B1
:1003D0007B689B6943F480627B689A6100BF0C373D
:1003E000BD465DF8047B704780B483B000AF786091
:1003F0007B689B6943F480427B689A6100BF0C373D
:10040000BD465DF8047B704780B485B000AFF860EE
:100410000B467A60FB72FB7AFA68DB0113440833FF
:100420007A681A6000BF1437BD465DF8047B7047D8
:1004300080B485B000AFF8600B467A60FB72FB7A3F
:10044000FA68DB01134404337A681A6000BF14377A
:10045000BD465DF8047B704780B485B000AFF8609E
:100460000B467A60FB72FB7AFA68DB01134418339F
:100470007A681A6000BF1437BD465DF8047B704788
:1004800080B485B000AFF8600B467A60FB72FB7AEF
:10049000FA68DB01134414337A681A6000BF14371A
:1004A000BD465DF8047B704780B485B000AF7860CE
:1004B000084611461A460346FB700B46BB701346AE
:1004C0007B70FA78BB787968D2010A4413443033E0
:1004D0001B78FB73FB7B23F00F03FB737B7803F02C
:1004E0000F03DAB2FB7B1343FB73FA78BB787968AE
:1004F000D2010A4413443033FA7B1A7000BF143718
:10050000BD465DF8047B704780B485B000AF78606D
:10051000084611461A460346FB700B46BB7013464D
:100520007B70FA78BB787968D2010A44134430337F
:100530001B78FB73FB7B03F00F03FB737B781B01C2
:10054000DAB2FB7B1343FB73FA78BB787968D2018C
:100550000A4413443033FA7B1A7000BF1437BD4687
:100560005DF8047B704780B485B000AF78600846C2
:1005700011461A460346FB700B46BB7013467B7050
:10058000FA78BB787968D2010A44134440331B7867
:10059000FB73FB7B23F00103FB737A78FB7B134334
:1005A000FB73FA78BB787968D2010A44134440336C
:1005B000FA7B1A7000BF1437BD465DF8047B7047A4
:1005C00090B482B000AF78600B46FB701346BB70EE
:1005D000FA78BB78F878B9787C68C0012044014487
:1005E00040310978C9B241F00401C8B27968D2013A
:1005F0000A441344403302461A7000BF0837BD4610
:1006000090BC704790B482B000AF78600B46FB702E
:100610001346BB70FA78BB78F878B9787C68C0016B
:100620002044014440310978C9B221F00401C8B224
:100630007968D2010A441344403302461A7000BF5D
:100640000837BD4690BC704780B485B000AFF860F5
:100650000B467A60FB72FB7AFA68DB01134428339D
:100660007A681A6000BF1437BD465DF8047B704796
:1006700080B582B000AF03463960FB711346BB7191
:10068000BB79012B1CD0022B37D0002B4ED1FB792C
:100690003A6819462A482B4B98473B689BB243F06F
:1006A0008042FB7919462648274B98473B681B0C2C
:1006B00043F04042FB7919462148234B98473AE0E2
:1006C000FB793A6819461E481E4B98473B689BB217
:1006D00043F0804343F40033F9791A4618481A4B23
:1006E00098473B681B0C43F0404343F40033F979CF
:1006F0001A461348144B98471DE0FB793A6819468F
:100700000F48124B98473B689BB243F08042FB79FD
:1007100019460B480C4B98473B681B0C43F0404272
:10072000FB7919460648084B984704E046220849D9
:100730000020084B984700BF0837BD4680BD00BF6A
:100740000080004131040000490600000904000057
:100750002C520000A914000080B582B000AF0346FF
:100760003960FB711346BB71BB79002B06D0FB7956
:100770003A6819460648074B984705E0FB793A68FE
:1007800019460348044B984700BF0837BD4680BD53
:1007900000800041590400008104000080B582B04F
:1007A00000AF0346FB710B46BB7113467B717B792F
:1007B000012B0AD0022B1FD0002B34D1BA79FB7940
:1007C00019461E481E4B984733E0BB7901229A40D8
:1007D000FB79194619481B4B9847BA79FB7919469A
:1007E0001648194B9847BB7901229A40FB79194664
:1007F0001248164B98471CE0BB7901229A40FB79BE
:1008000019460E480F4B9847BA79FB7919460B48A1
:100810000D4B9847BB7901229A40FB79194607484E
:100820000B4B984705E089220A4900200A4B98475C
:1008300000BF00BF0837BD4680BD00BF008000413B
:100840000506000031040000C10500005904000045
:10085000810400002C520000A914000090B585B05E
:1008600000AF786039607B685B09FB737B68DBB243
:1008700003F01F03BB733B68B3F1FF3F06D1BA7BA4
:10088000F97B00231248134CA0471DE0BA7BF97B8B
:1008900001230F480F4CA047BB7B03F00103002B43
:1008A00009D0BB7B5B08DAB23B68DBB2F97B084856
:1008B000094CA04708E0BB7B5B08DAB23B68DBB2BF
:1008C000F97B0348054CA04700BF1437BD4690BDD7
:1008D000008000416705000009050000A904000030
:1008E00080B582B000AF03460A46FB711346BB7168
:1008F000FB795B09D8B2FB7903F01F03DBB2BA794D
:100900001946034B984700BF0837BD4680BD00BF5E
:100910009D07000080B582B000AF7860396039680B
:100920007868034B984700BF0837BD4680BD00BFBD
:100930005D08000080B582B000AF03460A46FB7137
:100940001346BB71FB795B09D8B2FB7903F01F0337
:10095000012202FA03F3BA791946034B984700BF04
:100960000837BD4680BD00BF7106000080B582B06B
:1009700000AF03460A46FB711346BB71FB795B0966
:10098000D8B2FB7903F01F03012202FA03F3BA790C
:100990001946034B984700BF0837BD4680BD00BFCE
:1009A0005907000080B500AF014B984700BF80BDDC
:1009B000C118000080B500AF04493920044B9847A6
:1009C00004493820024B984700BF80BD030039001E
:1009D000150900000300380080B500AF412217213F
:1009E0000648074B9847432203210448044B984785
:1009F0000448054B984700BF80BD00BF001C004065
:100A00008303000000080040A903000080B500AF88
:100A1000054B9847002205490548064B9847064B69
:100A2000984700BF80BD00BFD909000000200141E8
:100A3000AC04002059120000B509000080B500AFD9
:100A400000211620074B984707491620074B984767
:100A500000211720034B984705491720034B98475F
:100A600000BF80BDE108000002001600150900006B
:100A70000200170080B500AF412218210648074B3D
:100A80009847432203210448044B98470448054BE8
:100A9000984700BF80BD00BF001C004083030000DA
:100AA00000080040C903000080B500AF044B984720
:100AB00004490548054B9847054B984700BF80BD42
:100AC000750A000000400141B80400202D0D00000F
:100AD0003D0A000080B500AF0248034B984700BFB5
:100AE00080BD00BF10E000E0FD0B000080B500AF4E
:100AF0000848094B984741221A210848084B984753
:100B0000084B984703461A4607490848084B984738
:100B100000BF80BD00080040E9030000001C004049
:100B200083030000D136000000C00141D80400203A
:100B3000E50E000080B500AF144B98470021062059
:100B4000134B984702210620124B98474FF0FF3174
:100B50000620114B984702212E200E4B984700216A
:100B60002E200B4B984700212E200C4B98470C2130
:100B70002E20094B98470A4B98470A4B98470A4B37
:100B800098470A4B984700BF80BD00BFA5090000E9
:100B90006D0900003509000015090000E10800009A
:100BA0000D0A0000A90A0000D50A0000ED0A0000A5
:100BB00080B485B000AF7860EFF31083FB60FA6813
:100BC0007B681A6072B6BFF35F8F00BF1437BD46F3
:100BD0005DF8047B704780B485B000AF7860BFF3E8
:100BE0005F8F7B681B68FB60FB6883F3108800BF26
:100BF0001437BD465DF8047B7047000080B582B0B5
:100C000000AF7860054A7B681360044B1B68184688
:100C1000034B984700BF0837BD4680BD90040020B5
:100C2000D92F000090B583B000AF0346FB80074B7F
:100C30001C68FB881846064B984703461946204611
:100C4000044B984700BF0C37BD4690BD9004002070
:100C500031170000F52F000090B583B000AF0346B8
:100C6000FB80074B1C68FB881846064B98470346D9
:100C700019462046044B984700BF0C37BD4690BD2F
:100C80009004002065180000F52F000080B58AB0A0
:100C900000AFF860B9601346FB80FB68143B7B62D1
:100CA0007B6A9B8BBB82FB88BB6148F20103FB82A2
:100CB000BB68FB617B6A07F1140211461846064BBC
:100CC000984738623B6A002B01D03B6A00E0FB8802
:100CD00018462837BD4680BDB92C000080B58AB0C3
:100CE00000AFF860B9601346FB80FB68143B7B6281
:100CF0007B6A9B8BBB82FB88BB614FF40043FB820A
:100D0000BB68FB617B6A07F1140211461846064B6B
:100D1000984738623B6A002B01D03B6A00E0FB88B1
:100D200018462837BD4680BDB92C000080B584B078
:100D300000AF786039607B68002B14BF012300236B
:100D4000DBB25E220C4918460C4B98477B68396829
:100D500018460B4B9847F860FB68002B01D0FB68E6
:100D600006E07B68074A9A617B68074A5A6100235C
:100D700018461037BD4680BD48520000A914000037
:100D8000B52A00008D0C0000DD0C000080B582B09B
:100D900000AF78607B681846034B984703461846B7
:100DA0000837BD4680BD00BFFD2A000080B485B075
:100DB00000AFF8600B467A607B817B89C3F309033F
:100DC0001AB27B681BB203F480631BB213431BB2DD
:100DD0009AB2FB689A83FB689B8B18461437BD4612
:100DE0005DF8047B704780B483B000AF78603960F1
:100DF0007B6803F114023B681A60002318460C3725
:100E0000BD465DF8047B704780B584B000AFF860E4
:100E1000B9601346FB80FB68002B04D0BB68002B35
:100E200001D0012300E0002303F00103DBB23422F0
:100E300007491846074B9847FB681B68FA88B9684A
:100E4000F8689847034618461037BD4680BD00BF76
:100E500064520000A914000080B584B000AFF860AF
:100E6000B9601346FB80FB68002B04D0BB68002BE5
:100E700001D0012300E0002303F00103DBB23D2297
:100E800007491846074B9847FB685B68FA88B968BA
:100E9000F8689847034618461037BD4680BD00BF26
:100EA00064520000A914000080B483B000AF7860E1
:100EB0007B681B6818460C37BD465DF8047B70479D
:100EC00080B483B000AF78607B68002B02D07B6871
:100ED0001B6800E0002318460C37BD465DF8047B14
:100EE0007047000080B584B000AFF860B9607A60E8
:100EF000FB68002B04D0BB68002B01D0012300E06D
:100F0000002303F00103DBB23B220A4918460A4BD7
:100F10009847FB68B9681846084B9847FB68002259
:100F20001A61FB68064A1A60002318461037BD464E
:100F300080BD00BF78520000A9140000C13300003A
:100F40009D11000080B582B000AF78607B68002BF7
:100F500014BF01230023DBB253220B4918460B4B6D
:100F600098477B6818460A4B98470346002B02D0E7
:100F70006FF0100304E07B681846064B9847002387
:100F800018460837BD4680BD78520000A9140000FD
:100F9000B13600007136000080B582B000AF7860D5
:100FA0007B68002B14BF01230023DBB261220D49B3
:100FB00018460D4B98477B6818460C4B98470346DC
:100FC00083F00103DBB2002B02D06FF0100304E0CA
:100FD0007B681846064B9847002318460837BD46DD
:100FE00080BD00BF78520000A9140000B136000097
:100FF0009136000080B584B000AF786039607B68BE
:10100000002B04D03B68002B01D0012300E000231B
:1010100003F00103DBB27A222D4918462D4B984785
:101020007B681B7EDBB243F00103DAB27B681A7681
:101030007B68143339681846274B98470346002BC2
:101040000FD07B681B7EDBB223F00103DAB27B6832
:101050001A767F221E4900201E4B98476FF011031D
:1010600032E07B681A693B685A607B6803F11400C0
:101070007B681B691A463968184B98477B681B7E4A
:10108000DBB223F00103DAB27B681A767B681B7E41
:10109000DBB203F00203002B15D007F10C03184656
:1010A0000F4B98477B681B7EDBB223F00203DAB25A
:1010B0007B681A767B6818460A4B984707F10C0341
:1010C0001846094B9847002318461037BD4680BD87
:1010D00078520000A9140000D1140000ED100000A7
:1010E000B10B0000E1360000D70B000080B588B0DE
:1010F00000AFF860B9607A600023BB61F868234BE9
:10110000984738613B69002B04D1B968F868204BD7
:10111000984737E03B69FB6122E0FB695A687B68CE
:101120009A4208D8FB699A68FB6959687B68CB1AB0
:1011300013447B6109E0FB699A68FB695B681A44A8
:101140007B685B42134401337B61BB689A687B69AF
:101150009A4209D9FB69BB61F8690E4B9847F8615F
:10116000FB69002BD9D100E000BFFA693B699A42C4
:1011700004D1B968F868064B984703E0B968B869C4
:10118000054B98472037BD4680BD00BFA90E000023
:1011900009150000C10E00006115000080B586B081
:1011A00000AF78607B683B613B6914331846274B7E
:1011B000984778613B691B695A1C3B691A613B6916
:1011C0001B69FB603B691B7EDBB203F00103002B54
:1011D00006D13B691B7EDBB203F00203002B27D054
:1011E0003B691B7EDBB243F00203DAB23B691A763D
:1011F00029E07B69BB603B6914331846144B984760
:10120000BB681B7C012B09D1BB68FA685A603B693B
:101210001433FA68B96818460E4B98473B69143383
:1012200018460A4B98477861BB68DB68B8689847EE
:101230007B69002B07D07B695B68FA68D21A7B69EF
:101240009B689A42D5D21837BD4680BDA90E0000D2
:1012500085150000ED10000080B586B000AFF86085
:10126000B9607A60FB68002B04D0BB68002B01D00A
:10127000012300E0002303F00103DBB234220D4917
:1012800018460D4B9847FB680833B96818460B4B56
:10129000984778617B69002B01D07B6906E0FB6889
:1012A000074A5A60FB68074A1A6000231846183735
:1012B000BD4680BD90520000A914000071240000BA
:1012C000151400004D13000080B582B000AF7860A7
:1012D0007B68002B14BF01230023DBB25322074994
:1012E0001846074B98477B6808331846054B9847C4
:1012F000002318460837BD4680BD00BF905200004D
:10130000A9140000B524000080B582B000AF786059
:1013100039607B68002B04D03B68002B01D001238F
:1013200000E0002303F00103DBB2692205491846FF
:10133000054B98477A683B681A60002318460837BF
:10134000BD4680BD90520000A914000080B586B053
:1013500000AFF860B9601346FB8000237B61FB6837
:101360003B61FB68002B07D0BB68002B04D0FB88D7
:10137000002B01D0012300E0002303F00103DBB2C6
:10138000F1221F4918461F4B984700BF3B6908339D
:1013900018461D4B9847034683F00103DBB2002B30
:1013A000F4D13B6903F10800BA687B6913441B78E8
:1013B0001946164B984700BF3B6908331846124B35
:1013C0009847034683F00103DBB2002BF4D17B691D
:1013D00001337B61FB887A699A42E2D300BF3B69A3
:1013E000083318460A4B9847034683F00103DBB2E3
:1013F000002BF4D17B6918461837BD4680BD00BF6D
:1014000090520000A914000021250000D5240000FE
:101410004125000090B587B000AFF860B960134671
:10142000FB8000237B61FB683B61FB68002B07D0DE
:10143000BB68002B04D0FB88002B01D0012300E007
:10144000002303F00103DBB24FF486721249184601
:10145000124B984700BF3B6908331846104B98471A
:10146000034683F00103DBB2002BF4D1BA687B6939
:10147000D4183B69083318460A4B98470346237033
:101480007B6901337B61FB887A699A42E2D37B698D
:1014900018461C37BD4690BD90520000A9140000AC
:1014A00061250000FD24000080B485B000AF034634
:1014B000B9607A60FB73FB7B83F00103DBB2002B26
:1014C00000D000BE00BF1437BD465DF8047B7047F6
:1014D00080B485B000AF786039607B681B68FB60C2
:1014E00008E0FA683B689A4201D1012306E0FB68F4
:1014F0001B68FB60FB68002BF3D1002318461437F0
:10150000BD465DF8047B704780B582B000AF78605F
:101510003960396878680F4B98470346002B14BF31
:1015200001230023DBB283F00103DBB203F00103EC
:10153000DBB2392208491846084B98477B681A687D
:101540003B681A607B683A681A6000BF0837BD467E
:1015500080BD00BFD1140000AC520000A9140000EF
:1015600080B483B000AF786039607B681A683B68EC
:101570001A607B683A681A6000BF0C37BD465DF898
:10158000047B704780B485B000AF78607B681B68CF
:10159000002B09D07B681B68FB607B681B681A689E
:1015A0007B681A60FB6800E0002318461437BD46CC
:1015B0005DF8047B7047000080B483B000AF034641
:1015C000FB80B7F90630002B0CDB0949B7F9063070
:1015D0005B09FA8802F01F02012000FA02F2403390
:1015E00041F8232000BF0C37BD465DF8047B7047EF
:1015F00000E100E080B582B000AF0346FB71FB79EB
:101600001BB21846024B984700BF0837BD4680BD45
:10161000B915000080B483B000AF03463960FB8089
:1016200013467B717B79043B052B65D801A252F8E8
:1016300023F000BFD9160000BB1600009D16000065
:101640007F1600005F1600004D160000FB883A6808
:101650003149A1FB0212920C02FB03F356E0FB8816
:101660003A6852092D49A1FB0212D20902FB03F389
:10167000013B2B4AA2FB0323DB08013346E0FB8836
:101680003A682849A1FB0212520B02FB03F3013B0B
:10169000254AA2FB03235B09013337E0FB883A6844
:1016A0002249A1FB0212920902FB03F3013B1F4AEC
:1016B000A2FB03239B09013328E0FB883A681A49FF
:1016C000A1FB0212520902FB03F3013B154AA2FBE4
:1016D00003235B0B013319E0FB883A681049A1FB37
:1016E0000212D20802FB03F3013B5B090B4AA2FB87
:1016F0000323DB09013309E0FB883A6802FB03F3AB
:10170000013B054AA2FB03239B0C013318460C370F
:10171000BD465DF8047B704783DE1B43C55A7C0AD7
:10172000CDCCCCCC5917B7D11F85EB51D34D62101E
:1017300080B582B000AF0346FB80FB8808220449D5
:101740001846044B9847034618460837BD4680BDE7
:10175000001BB7001516000080B483B000AF03462D
:101760003960FB8013467B717B79043B052B5DD888
:1017700001A252F823F000BF0F180000F11700007B
:10178000DF170000C5170000AB170000911700001D
:10179000FB883A682D49A1FB0212920C02FB03F36D
:1017A0004FF47A7202FB03F34AE0FB883A6852096D
:1017B0002749A1FB0212D20902FB03F3642202FBB8
:1017C00003F33DE0FB883A682249A1FB0212520B69
:1017D00002FB03F213469B0013445B0030E0FB88DE
:1017E0003A681D49A1FB0212920902FB03F327E0AC
:1017F000FB883A681949A1FB0212520902FB03F364
:10180000013B174AA2FB0323DB08013318E0FB88E6
:101810003A681349A1FB0212D20802FB03F3013B11
:101820000E4AA2FB03235B09013309E0FB883A68F7
:1018300002FB03F3013B084AA2FB03239B0901338C
:1018400018460C37BD465DF8047B704783DE1B43AA
:10185000C55A7C0A5917B7D1D34D62101F85EB5179
:10186000CDCCCCCC80B582B000AF0346FB80FB88EA
:10187000082204491846044B98470346184608377F
:10188000BD4680BD001BB7005917000080B483B06F
:1018900000AF78600B467B807B681B889AB27B88A0
:1018A0001B029BB203F470639BB213439AB27B6832
:1018B0001A8000BF0C37BD465DF8047B70470000FE
:1018C00080B500AF05210848084B9847084B98475A
:1018D000084B9847084B9847084B984740F6FF70CD
:1018E000074B984700BF80BD004000418D180000A5
:1018F000B91A0000ED1C0000D9190000551D0000A8
:101900005919000080B483B000AF7860396000BF1F
:101910007B685A683B681340002BF9D100BF0C3735
:10192000BD465DF8047B704780B584B000AFF860B9
:101930000B467A60FB72FA7AFB680832796843F8E2
:10194000221043F6FD71F868024B984700BF10372C
:10195000BD4680BD0519000080B582B000AF78603B
:101960007B6803F00103002B04D00E4A00210E48CF
:101970000E4B98477B6803F00203002B04D00C4AFF
:1019800001210948094B98477B6803F00803002BA5
:1019900004D0084A03210448044B984700BF083785
:1019A000BD4680BD01090100001C0040291900004E
:1019B000010101000501010080B483B000AF78602F
:1019C0000B46FB707B68FA785A7100BF0C37BD4636
:1019D0005DF8047B7047000080B582B000AF054B16
:1019E0007B6001217868044B984700BF0837BD46EB
:1019F00080BD00BF00080040B919000080B483B06A
:101A000000AF78600B46FB707B68FA781A7400BFF1
:101A10000C37BD465DF8047B704780B483B000AFDF
:101A200078600B467B807B687A889A8200BF0C378F
:101A3000BD465DF8047B704780B483B000AF78602A
:101A40000B46FB707B68FA789A7500BF0C37BD4671
:101A50005DF8047B704780B483B000AF78600B46BC
:101A6000FB707B68FA78DA7500BF0C37BD465DF80D
:101A7000047B704780B485B000AF78607B68DB6919
:101A8000FB60FB681B0A03F03F03FB60FB68184622
:101A90001437BD465DF8047B704780B483B000AF57
:101AA000786039607B683A68DA6100BF0C37BD4600
:101AB0005DF8047B7047000080B582B000AF134B27
:101AC0007B6000237B8042F28E317868104B984710
:101AD000002178680F4B9847002178680E4B984793
:101AE00078680E4B984703467B807B881B0203F483
:101AF0007C53194678680A4B984701217868094B4E
:101B0000984700BF0837BD4680BD00BF00140040A5
:101B10001B1A0000391A0000571A0000751A00003D
:101B20009B1A0000FD19000080B485B000AFF8607A
:101B30000B467A60FB7200BFFA7AF96813469B0085
:101B400013449B000B443C331A687B681340002B02
:101B5000F2D100BF1437BD465DF8047B704780B4F6
:101B600083B000AF78600B46FB70FA787968134653
:101B70009B0013449B000B4440331B6803F001039C
:101B8000002B14BF01230023DBB218460C37BD46DF
:101B90005DF8047B704780B483B000AF78600B467B
:101BA000FB70FA78796813469B0013449B000B4442
:101BB00040331B685B0803F00103002B14BF0123B3
:101BC0000023DBB218460C37BD465DF8047B704736
:101BD00080B582B000AF78600B46FB701346BB70D7
:101BE000FA78796813469B0013449B000B4430330A
:101BF000BA781A70FB78022219467868024B984727
:101C000000BF0837BD4680BD291B000080B584B0E9
:101C100000AFF8600B467A60FB72FA7AF9681346F7
:101C20009B0013449B000B4434337A681A60FB7AA0
:101C300006221946F868034B984700BF1037BD4687
:101C400080BD00BF291B000080B485B000AFF860E4
:101C50000B467A60FB72FA7AF96813469B001344CC
:101C60009B000B4438337A681A6000BF1437BD46B6
:101C70005DF8047B704780B483B000AF78607B6808
:101C80001B6903F00103002B14BF01230023DBB207
:101C900018460C37BD465DF8047B704780B483B0AE
:101CA00000AF78607B681B695B0803F00103002BC1
:101CB00014BF01230023DBB218460C37BD465DF884
:101CC000047B704780B485B000AFF8600B467A6043
:101CD000FB72FB7AFA6804339B0013447A685A60FB
:101CE00000BF1437BD465DF8047B704780B582B0F5
:101CF00000AF124B7B60124A00217868114B984765
:101D000000BF7868104B9847034683F00103DBB2AD
:101D1000002BF6D10D4A012178680A4B984700BF85
:101D200078680B4B9847034683F00103DBB2002B26
:101D3000F6D100BF0837BD4680BD00BF001000408F
:101D400002260003C51C0000771C000006260003C5
:101D50009D1C000080B582B000AF154B7B60312226
:101D600000217868134B9847134A00217868134B79
:101D70009847022200217868114B984700BF002144
:101D80007868104B9847034683F00103DBB2002BC1
:101D900009D0002178680C4B9847034683F0010373
:101DA000DBB2002BEBD100BF0837BD4680BD00BFC2
:101DB000001000400D1C000040000200491C000003
:101DC000D11B00005F1B0000971B000080B483B094
:101DD00000AF78607B689B78DBB218460C37BD4655
:101DE0005DF8047B704780B483B000AF78607B6897
:101DF0005B6818460C37BD465DF8047B70470000F1
:101E000090B583B000AF174B7B601748174B9847CE
:101E100003463B603B6803F00203002B0CD07B6859
:101E20001B68002B08D07B681C680F48104B984734
:101E300003461846A04712E03B6803F00103002B5D
:101E40000CD07B685B68002B08D07B685C68064818
:101E5000074B984703461846A04700E000BF0C37E1
:101E6000BD4690BDF404002000000241CD1D0000DD
:101E7000E71D000080B483B000AF7860396000BF18
:101E80007B68DA693B681340002BF9D100BF0C373F
:101E9000BD465DF8047B704780B483B000AF7860C6
:101EA00039607B68DA693B681340002B14BF01235B
:101EB0000023DBB218460C37BD465DF8047B704743
:101EC00080B483B000AF7860396000BF7B68DA69A6
:101ED0003B681340002BF9D100BF0C37BD465DF8BD
:101EE000047B704780B483B000AF786039607B6852
:101EF000DA693B681340002B14BF01230023DBB2D7
:101F000018460C37BD465DF8047B704780B483B03B
:101F100000AF78607B6801221A7600BF0C37BD469F
:101F20005DF8047B704780B483B000AF78607B6855
:101F300002221A7600BF0C37BD465DF8047B70475D
:101F400080B483B000AF78607B681B7EDBB218463C
:101F50000C37BD465DF8047B704780B483B000AF9A
:101F600078607B681B7EDBB203F00103002B14BF9B
:101F700001230023DBB218460C37BD465DF8047B15
:101F8000704780B483B000AF78607B681B7EDBB2A3
:101F90005B0803F00103002B14BF01230023DBB215
:101FA00018460C37BD465DF8047B704780B483B09B
:101FB00000AF78607B681B7EDBB29B0803F00103F7
:101FC000002B14BF01230023DBB218460C37BD469B
:101FD0005DF8047B7047000080B582B000AF786088
:101FE0007B681B6843F002027B681A6003217868F3
:101FF000024B984700BF0837BD4680BD751E0000E4
:1020000080B582B000AF78607B681B6823F0020265
:102010007B681A6003217868024B984700BF083735
:10202000BD4680BD751E000080B485B000AF7860ED
:102030007B681B68FB60FB68DB0E03F00103FB6041
:10204000FB68002B14BF01230023DBB218461437B2
:10205000BD465DF8047B704780B584B000AF786002
:10206000396003217868074B98477B681B68FB60E1
:10207000FA683B681340FB60FB6818461037BD46A2
:1020800080BD00BF751E000080B582B000AF7860D3
:1020900039607B683A681A6003217868024B984778
:1020A00000BF0837BD4680BD751E000080B582B0F8
:1020B00000AF78607B681B6843F002027B681A609F
:1020C00003217868024B984700BF0837BD4680BDA2
:1020D000C11E000080B582B000AF78607B681B68CD
:1020E00023F002027B681A6003217868024B98474C
:1020F00000BF0837BD4680BDC11E000080B584B05A
:1021000000AF7860396003217868074B98477B6897
:102110001B68FB60FA683B681340FB60FB6818466D
:102120001037BD4680BD00BFC11E000080B582B023
:1021300000AF786039607B683A681A60032178687C
:10214000024B984700BF0837BD4680BDC11E000046
:1021500080B582B000AF78607B685B6843F48072C2
:102160007B685A6004217868024B984700BF0837A3
:10217000BD4680BD751E000080B582B000AF78609E
:102180007B685B6823F480727B685A6004217868FE
:10219000024B984700BF0837BD4680BD751E000042
:1021A00080B582B000AF78607B685B6843F48022C2
:1021B0007B685A6004217868024B984700BF083753
:1021C000BD4680BD751E000080B582B000AF78604E
:1021D0007B685B6823F480227B685A6004217868FE
:1021E000024B984700BF0837BD4680BD751E0000F2
:1021F00080B582B000AF786039607B685A683B6810
:102200001B0403F440331A437B685A600421786846
:10221000024B984700BF0837BD4680BD751E0000C1
:1022200080B582B000AF786039607B683A685A60E8
:1022300004217868024B984700BF0837BD4680BD2F
:10224000751E000080B582B000AF786039607B6891
:102250003A685A601F217868024B984700BF0837D8
:10226000BD4680BDC11E000080B483B000AF786061
:1022700039607B683A689A6000BF0C37BD465DF8EC
:10228000047B704780B483B000AF786039607B68AE
:102290003A68DA6000BF0C37BD465DF8047B7047D2
:1022A00080B483B000AF78600B467B807B687A880F
:1022B0009A8100BF0C37BD465DF8047B704780B43F
:1022C00083B000AF78600B46FB707B68FA789A7336
:1022D00000BF0C37BD465DF8047B704780B584B005
:1022E00000AF78600B46FB707B685B6AFB60FB6845
:1022F00023F48043FB60FB789B031A46FB6813437F
:10230000FB607B68FA685A6204217868024B984740
:1023100000BF1037BD4680BD751E000080B582B07D
:1023200000AF786039607B683A685A620421786847
:10233000024B984700BF0837BD4680BD751E0000A0
:1023400080B582B000AF786004217868034B98476D
:102350007B685B6A18460837BD4680BD751E000065
:1023600080B582B000AF786039607B683A689A6265
:1023700004217868024B984700BF0837BD4680BDEE
:10238000751E000080B582B000AF786004217868C7
:10239000034B98477B689B6A18460837BD4680BD4B
:1023A000751E000080B483B000AF786039607B6830
:1023B0003A689A6200BF0C37BD465DF8047B7047EF
:1023C00080B483B000AF78607B689B6A18460C3796
:1023D000BD465DF8047B704780B483B000AF786081
:1023E0000B46FB707B68FA7883F8302000BF0C370F
:1023F000BD465DF8047B704780B582B000AF786061
:1024000004217868064B98477B685B8B9BB21B095D
:102410009BB203F003039BB218460837BD4680BD4C
:10242000751E000080B582B000AF78600421786826
:10243000044B98477B685B8B9BB218460837BD46B8
:1024400080BD00BF751E000080B582B000AF78600F
:102450000B467B807B687A885A8304217868034B1B
:10246000984700BF0837BD4680BD00BF751E0000FD
:1024700080B582B000AF786039607B68002B14BFF4
:1024800001230023DBB2BB2207491846074B9847BC
:102490007B683A681A603868054B984703461846C7
:1024A0000837BD4680BD00BFCC520000A914000013
:1024B0004126000080B582B000AF78607B681B6861
:1024C0001846034B984700BF0837BD4680BD00BF84
:1024D000AD20000080B582B000AF78600B46FB7085
:1024E0007B681B68FA7811461846034B984700BF73
:1024F0000837BD4680BD00BFA523000080B582B06F
:1025000000AF78607B681B681846044B9847034609
:10251000DBB218460837BD4680BD00BFC1230000AE
:1025200080B582B000AF78607B681B681846034BAB
:102530009847034618460837BD4680BD5B1F00001C
:1025400080B582B000AF78607B681B681846034B8B
:102550009847034618460837BD4680BD831F0000D4
:1025600080B582B000AF78607B681B681846034B6B
:102570009847034618460837BD4680BDAD1F00008A
:10258000B0B48DB000AF7860134B07F10C041D465A
:102590000FCD0FC495E80F0084E80F000023FB6205
:1025A00010E0FB6A9B0007F13002134453F8243C0F
:1025B0001A467B689A4202D1FB6ADBB206E0FB6AEC
:1025C0000133FB62FB6A072BEBD900231846343733
:1025D000BD46B0BC704700BFE852000080B584B073
:1025E00000AF78607868124B98470346BB730023AE
:1025F000FB730FE0FA7B0F4913465B001344DB00CB
:102600000B441B78BA7B9A4201D1FB7B0CE0FB7B2D
:102610000133FB73FB7B002BECD040F247220649D1
:102620000020064B9847002318461037BD4680BD52
:102630008125000000000020CC520000A9140000F9
:1026400080B584B000AF78607868614B98470346E6
:10265000FB73012178685F4B9847034683F00103C1
:10266000DBB2002B20D0FA7B5B4913465B0013449E
:10267000DB000B4404331B6803F01C03BB60022126
:102680007868564B98470346002B06D07868544B21
:10269000984702217868534B9847BB6843F0010381
:1026A00019467868504B9847012178684D4B9847F8
:1026B000FA7B494913465B001344DB000B440433A7
:1026C0001B6819467868484B9847FA7B424913467D
:1026D0005B001344DB000B4408331B681946786821
:1026E000424B9847FA7B3C4913465B001344DB009E
:1026F0000B440C331B68194678683D4B9847FA7BAE
:10270000354913465B001344DB000B4404331B685C
:1027100003F40053002B0CD1FA7B2F4913465B00C6
:102720001344DB000B4404331B6803F4C043002B49
:1027300022D0FA7B284913465B001344DB000B448C
:1027400010331B88C3F30C0399B27A68938961F341
:102750000C039381FA7B204913465B001344DB0092
:102760000B4412331B7803F00703D9B27A689389BC
:1027700061F34F3393810CE0FA7B174913465B00FA
:102780001344DB000B4410331B8819467868194B3F
:102790009847FA7B104913465B001344DB000B4457
:1027A00013331B7819467868134B9847FA7B0A490C
:1027B00013465B001344DB000B4414331B781946AB
:1027C00078680E4B9847002318461037BD4680BDE9
:1027D000DD250000E51E000000000020FD200000B7
:1027E000D5200000C11E00002D2100004522000060
:1027F00069220000A1220000BF220000D9230000AE
:1028000080B584B000AF78607868134B9847034672
:10281000BB730023FB7310E0FA7B104913465B0087
:102820001344DB000B441B78BA7B9A4202D197F920
:102830000F300DE0FB7B0133FB73FB7B002BEBD0F8
:1028400040F2A63206490020064B98474FF0FF336E
:1028500018461037BD4680BD8125000018000020B5
:10286000CC520000A914000080B582B000AF78609F
:1028700003217868024B984700BF0837BD4680BDEA
:10288000F121000090B587B000AFF860B9607A60C0
:10289000F8687D4B984703467B61F8687B4B984707
:1028A00003467B82BB6803F00103002B00F0958098
:1028B0007B8A03F00203002B1DD0F868744B984705
:1028C0007B685B889BB243F480539AB27B685A80E2
:1028D0007B685B889BB223F480739AB27B685A80D2
:1028E0007B8A03F00103002B02D06FF00403C6E0E3
:1028F0006FF00303C3E07B8A03F00403002B1FD0B7
:102900007B685B68002B07DD7B685B889BB243F4C8
:1029100080539AB27B685A807B685B889BB21BB2FB
:10292000002B02DAF8685B4B98477B685B889BB2A8
:1029300023F480739AB27B685A806FF001039EE0A3
:102940007B685B889BB203F48063002B1CD07B68A0
:102950001B881B125B0003F00604F8684E4B984777
:10296000034603F48043234343F0F1031946F86818
:102970004A4B98477B685B889BB223F480639AB28A
:102980007B685A8000237AE07B685B68002B11D15A
:102990007B685B889BB21BB2002B02DAF8683D4B68
:1029A00098477B685B889BB223F480739AB27B68FC
:1029B0005A8010E07B689B681B781946F868384B92
:1029C00098477B689B685A1C7B689A607B685B6849
:1029D0005A1E7B685A60002351E0BB6803F0020373
:1029E000002B4BD07B685B68002B41D07B8A03F0C7
:1029F0000403002B3CD17B685B685A1E7B685A60DD
:102A00007B685B68002B02D17B69002B06D07B685A
:102A10005B68012B05D17B69002B02D0F868214B44
:102A200098477B685B68002B13D17B685B889BB2FF
:102A30001BB2002B05DAF8681B4B9847F868154B5A
:102A400098477B685B889BB223F480739AB27B685B
:102A50005A807B689C68621C7B689A60F868134B9C
:102A600098470346DBB22370F868114B984705E09E
:102A7000F8680F4B98476FF0010300E000231846F9
:102A80001C37BD4690BD00BF292000002524000052
:102A90000D1F000069280000412300001D230000D5
:102AA00061230000A121000079210000852300009E
:102AB000271F000080B582B000AF786039607B6866
:102AC000002B14BF01230023DBB24FF4A36208499B
:102AD0001846084B98477B683A681A617B683968E2
:102AE0001846054B9847034618460837BD4680BD33
:102AF000CC520000A9140000712E000080B582B0F5
:102B000000AF78607B68002B14BF01230023DBB289
:102B100040F2355206491846064B98477B681B69B8
:102B20001846054B9847034618460837BD4680BDF2
:102B3000CC520000A9140000E52D000080B584B03F
:102B400000AF786039604FF6FF73FB607B681B69EC
:102B5000BB60B8680F4B984703461A463B681A603B
:102B6000FB685A1EFA60002B02D16FF004030CE0E0
:102B70003B681B6803F00103002B05D13B681B6811
:102B800003F00203002BE4D0002318461037BD46A3
:102B900080BD00BF411F000090B587B000AF7860D6
:102BA0007B681B697B617B683B617869394B98471F
:102BB0000346FB607B68002B14BF01230023DBB2BC
:102BC00040F2A55234491846344B98473B695B683C
:102BD000012B06D1FB68002B03D07869304B984756
:102BE00002E078692F4B98473B691B8803F48063A8
:102BF000002B22D03B695B889BB203F00103002BC2
:102C000007D03B695B889BB243F480639AB23B690F
:102C10005A803B691B885B0040F2FE741C40786957
:102C2000214B9847034603F48043234343F4004376
:102C3000194678691D4B98471AE03B691B885B0071
:102C4000DBB23A69528892B202F00102002A14BF44
:102C500001220022D2B213431C467869124B9847D6
:102C6000034603F480432343194678690F4B984782
:102C700007F10803194678680D4B9847BB683A6915
:102C8000194678690B4B9847034618461C37BD46D2
:102C900090BD00BF29200000CC520000A914000004
:102CA000A1210000C9210000412300001D230000D4
:102CB0003D2B00008528000080B586B000AF78600D
:102CC00039607B681B693B617B68002B14BF012363
:102CD0000023DBB24FF4BA623B4918463B4B98479E
:102CE0007B681B69002B14BF01230023DBB240F279
:102CF000D15235491846354B98473B68002B14BFD5
:102D000001230023DBB240F2D2522F4918462F4B49
:102D100098477B685B889BB203F48073002B02D0DA
:102D20006FF005034CE03B685B889BB243F4807313
:102D30009AB23B685A807B683A6807CA83E8070002
:102D40003869234B98477868224B984778617B69AC
:102D5000002B2DD07B685B889BB223F480739AB2E2
:102D60007B685A807B692BE007F10C031946786871
:102D7000194B984778617B69002B12D03B685B88C0
:102D80009BB21BB2002B02DA3869144B98477B6860
:102D90005B889BB223F480739AB27B685A807B690C
:102DA0000EE0FB687A68194638690D4B98477861E0
:102DB0007B685B889BB203F48073002BD4D17B6962
:102DC00018461837BD4680BDCC520000A91400003B
:102DD00051210000992B00003D2B000069280000C4
:102DE0008528000080B584B000AF78604FF6FF738F
:102DF000FB600423BB607B68002B14BF012300230E
:102E0000DBB240F2056215491846154B98477868C1
:102E1000144B984716E0FB68013BFB60FB68002BF6
:102E200010DCBB68013BBB60BB68002B07D04FF6D2
:102E3000FF73FB60102178680B4B984702E06FF03E
:102E4000050306E07868094B98470346012BE2D159
:102E5000002318461037BD4680BD00BFCC5200008D
:102E6000A9140000D91F000049240000F923000024
:102E700080B584B000AF786039603868424B9847BD
:102E80000346FB7301213868404B9847034683F0A3
:102E90000103DBB2002B20D0FA7B3D4913465B00D7
:102EA0001344DB000B4404331B6803F01C03BB60BA
:102EB00002213868374B98470346002B06D0386804
:102EC000354B984702213868344B9847BB6843F02C
:102ED000010319463868324B9847012138682F4B57
:102EE0009847FA7B2A4913465B001344DB000B44E6
:102EF00004331B6819463868294B9847FA7B2449E4
:102F000013465B001344DB000B4408331B6819466F
:102F10003868244B9847FA7B1D4913465B001344DD
:102F2000DB000B440C331B68194638681E4B98476E
:102F3000FA7B174913465B001344DB000B44043350
:102F40001B681B0E9BB203F003039AB27B689A8145
:102F50007B689B89012B8CBF01230023DBB21946C0
:102F60003868124B9847FA7B094913465B001344B3
:102F7000DB000B4412331A887B68DA810023184681
:102F80001037BD4680BD00BF01280000991E00001B
:102F9000180000205920000001200000751E0000CC
:102FA000892000002122000085220000DD2200008F
:102FB00080B483B000AF7860064B6FF07F425A60F8
:102FC000044B05221A6000BF0C37BD465DF8047B38
:102FD000704700BF10E000E080B582B000AF7860BD
:102FE0007868034B984700BF0837BD4680BD00BFD7
:102FF000B12F000080B485B000AF786039603B68C5
:103000001B0EFB733B68BB6013E0164B6FF07F42F7
:103010005A60144B6FF07F429A6000BF114B1B68DF
:1030200003F48033002BF9D0BB6803F17F430133F5
:10303000BB60FB7B5A1EFA73002BE6D1094ABB68C2
:103040005360084ABB68936000BF064B1B6803F4DB
:103050008033002BF9D000BF1437BD465DF8047BE8
:10306000704700BF10E000E080B483B000AF0346BB
:10307000FB80B7F90630002B0BDB0949B7F90630A6
:103080005B09FA8802F01F02012000FA02F241F8FF
:10309000232000BF0C37BD465DF8047B704700BF9E
:1030A00000E100E080B483B000AF0346FB80B7F9D5
:1030B0000630002B10DB0B49B7F906305B09FA88A4
:1030C00002F01F02012000FA02F2203341F823200F
:1030D000BFF34F8FBFF36F8F00BF0C37BD465DF856
:1030E000047B704700E100E080B483B000AF03468A
:1030F000FB80B7F90630002B0CDB0949B7F9063025
:103100005B09FA8802F01F02012000FA02F2603324
:1031100041F8232000BF0C37BD465DF8047B7047A3
:1031200000E100E080B483B000AF7860396000BF98
:103130007B681A693B681340002BF9D100BF0C373C
:10314000BD465DF8047B704780B483B000AF786003
:1031500039607B681A693B681340002B14BF012358
:103160000023DBB218460C37BD465DF8047B704780
:1031700080B483B000AF78607B689B7ADBB203F0E9
:103180000103002B14BF01230023DBB218460C37C8
:10319000BD465DF8047B704780B483B000AF7860B3
:1031A0007B6801229A7200BF0C37BD465DF8047B34
:1031B000704780B483B000AF78607B6801225A7298
:1031C00000BF0C37BD465DF8047B704780B582B008
:1031D00000AF78607B681B6843F002027B681A606E
:1031E00003217868024B984700BF0837BD4680BD71
:1031F0002531000080B584B000AF78600321786885
:10320000094B98477B681B68FB60FB685B0803F011
:103210000103FB60FB68002B14BF01230023DBB21A
:1032200018461037BD4680BD2531000080B582B0FC
:1032300000AF78607B681B6823F002027B681A602D
:1032400003217868024B984700BF0837BD4680BD10
:103250002531000080B584B000AF7860396003216B
:103260007868074B98477B681B68FB60FA683B6887
:103270001340FB60FB6818461037BD4680BD00BF99
:103280002531000080B582B000AF786039607B687E
:103290003A681A6003217868024B984700BF0837E4
:1032A000BD4680BD2531000080B483B000AF78609A
:1032B0000B467B807B687A88DA8000BF0C37BD467E
:1032C0005DF8047B704780B483B000AF78600B4634
:1032D000FB707B68FA781A7300BF0C37BD465DF847
:1032E000047B704780B483B000AF78600B46FB70FE
:1032F0007B68FA78DA7300BF0C37BD465DF8047B53
:103300007047000080B582B000AF78600B46FB705C
:103310007B68FA78DA7620217868034B984700BFFB
:103320000837BD4680BD00BF2531000080B582B0A2
:1033300000AF78600B46FB701346BB70FB787A6871
:103340001344BA781A77C0217868034B984700BFB6
:103350000837BD4680BD00BF2531000080B582B072
:1033600000AF78600B46FB7013463B80FB787A68B1
:103370000C335B0013443A889A80C0217868034B71
:10338000984700BF0837BD4680BD00BF253100000B
:1033900080B584B000AFF8600B467A60FB72FB7AB0
:1033A000FA6806339B0013447A685A60C021F868B3
:1033B000024B984700BF1037BD4680BD2531000045
:1033C00080B584B000AF786039603868934B984717
:1033D0000346FB737B683A68DA608D2290490120CE
:1033E000904B9847012138688F4B9847034683F0EC
:1033F0000103DBB2002B11D0022138688B4B9847B8
:103400000346002B06D03868894B9847022138685C
:10341000884B984701213868874B984701213868C5
:10342000844B984797F90F20844913469B00134417
:103430009B000B4404331B68194638687E4B984741
:1034400097F90F207D4913469B0013449B000B44C2
:103450000A331B7819463868794B984797F90F203B
:10346000764913469B0013449B000B4408331B888A
:1034700019463868734B984701213868724B984752
:1034800097F90F206D4913469B0013449B000B4492
:1034900004331B6803F00C03082B1ED197F90F208F
:1034A000664913469B0013449B000B440C331B6876
:1034B0001A4600213868654B984797F90F205F49F5
:1034C00013469B0013449B000B4410331B681A46A1
:1034D000012138685D4B98476AE097F90F205749FA
:1034E00013469B0013449B000B4404331B6803F0FA
:1034F0000C03002B20D197F90F20504913469B0055
:1035000013449B000B440C331B689BB21A460021EA
:1035100038684F4B984797F90F20484913469B004E
:1035200013449B000B4410331B689BB21A460121C5
:103530003868474B98473BE097F90F203F491346BF
:103540009B0013449B000B4404331B6803F00C03E3
:10355000042B2DD197F90F20384913469B001344B3
:103560009B000B440C331B68DBB21A460021386801
:10357000384B984797F90F20304913469B00134466
:103580009B000B4410331B68DBB21A4601213868DC
:10359000304B984797F90F20284913469B00134456
:1035A0009B000B440B331B78194638682A4B98470D
:1035B00038682A4B984779683868294B984797F9B3
:1035C0000F201E4913469B0013449B000B440233FB
:1035D000B3F900301846234B984797F90F20174945
:1035E00013469B0013449B000B440233B3F9003095
:1035F00018461D4B984797F90F20104913469B001A
:1036000013449B000B440233B3F900301846174BA8
:103610009847002318461037BD4680BD95370000F7
:103620001C530000A914000049310000553200006D
:103630002D320000253100008532000030000020CE
:10364000E5320000A9320000C732000091330000CB
:103650005D3300002D33000005330000B33100005E
:10366000FD370000A5300000E9300000693000009F
:1036700080B582B000AF78607B68DB681846034B8A
:10368000984700BF0837BD4680BD00BFCD31000060
:1036900080B582B000AF78607B68DB681846034B6A
:1036A000984700BF0837BD4680BD00BF2D320000DF
:1036B00080B582B000AF78607B68DB681846034B4A
:1036C0009847034618460837BD4680BDF5310000CF
:1036D00080B400AF00231846BD465DF8047B7047F8
:1036E00080B584B000AF78607B68DB68FB60F86809
:1036F0000E4B98470346FB7240F20F120C49012013
:103700000C4B984797F90B200B4913469B00134429
:103710009B000B440233B3F90030DBB21846074B71
:10372000984700BF1037BD4680BD00BF95370000E9
:103730001C530000A914000030000020F515000003
:1037400080B584B000AF78607B68DB68FB60F868A8
:10375000074B98470346002B06D0F868054B98475F
:103760007B681B687868984700BF1037BD4680BDEE
:10377000713100009931000080B500AF034B1B6828
:103780001846034B984700BF80BD00BF940400203B
:103790004137000080B584B000AF78607868134B83
:1037A00098470346BB730023FB7310E0FA7B104974
:1037B00013469B0013449B000B441B78BA7B9A4230
:1037C00002D197F90F300DE0FB7B0133FB73FB7BDC
:1037D000002BEBD04FF49E7206490020064B984711
:1037E0004FF0FF3318461037BD4680BD2938000022
:1037F000300000201C530000A914000080B483B0E6
:1038000000AF786039607B68054A934202D1054A6F
:103810003B68136000BF0C37BD465DF8047B704702
:1038200000C0014194040020B0B48DB000AF7860B6
:10383000134B07F10C041D460FCD0FC495E80F0084
:1038400084E80F000023FB6210E0FB6A9B0007F195
:103850003002134453F8243C1A467B689A4202D142
:10386000FB6ADBB206E0FB6A0133FB62FB6A072BF3
:10387000EBD9002318463437BD46B0BC704700BFB3
:103880003053000080B485B000AFF8600B467A601A
:10389000FB72FB7AFA68DB01134418337A681A600A
:1038A00000BF1437BD465DF8047B704780B485B017
:1038B00000AFF8600B467A60FB72FB7AFA68DB01B6
:1038C000134414337A681A6000BF1437BD465DF89C
:1038D000047B704780B582B000AF03463960FB714E
:1038E0001346BB71BB79002B06D0FB793A681946A9
:1038F0000648074B984705E0FB793A6819460348A4
:10390000044B984700BF0837BD4680BD008000418A
:1039100085380000AD38000080B582B000AF0346A6
:103920000A46FB711346BB71FB795B09D8B2FB7980
:1039300003F01F03012202FA03F3BA791946034B7D
:10394000984700BF0837BD4680BD00BFD53800008E
:1039500090B589B006AF78600E4B1B6805930E4B8F
:1039600004930E4B03930E4B02930E4B01930E4B9D
:1039700000930E4B0E4A0F490F48104CA047104BB6
:1039800001221A700F48104B984700BF0C37BD46F4
:1039900090BD00BF600500202006002084070020A5
:1039A00008050020680500207C060020D4060020C1
:1039B000C0050020DC0700202C070020B54F0000C8
:1039C00004050020D8040020990F000080B582B0C3
:1039D00000AF0346FB80FB88074A9360064B074A0B
:1039E000DA60054B01221A7403490548054B9847D4
:1039F00000BF0837BD4680BD980400205139000043
:103A0000D8040020F50F000090B583B002AF7E4BC4
:103A100098477E497E487F4B98477D487E4B984724
:103A20007E497F487F4B98477D487F4B98470021D0
:103A300006207E4B9847012106207C4B98477C4806
:103A40007C4B9847714B1B68019300230093002324
:103A5000002201217648784CA0476C4B1B68194620
:103A60007348764B98477648724B9847674B1B686C
:103A700001930023009301230022012170486E4C22
:103A8000A047624B1B6819466D486C4B98476D48C0
:103A9000684B98475D4B1B680193002300930023FC
:103AA000012201216748644CA047584B1B68194606
:103AB0006448624B984764485E4B9847534B1B6879
:103AC0000193002300930023002202215E485A4CF8
:103AD000A0474E4B1B6819465B48584B98475B48BC
:103AE000544B9847494B1B680193002300930123D3
:103AF000002202215548504CA047444B1B681946F0
:103B000052484E4B984752484A4B98473F4B1B6888
:103B10000193002300930023012202214C48464CCC
:103B2000A0473A4B1B6819464948444B98474948B7
:103B3000404B9847354B1B680193002300930023AB
:103B40000022032143483C4CA047304B1B681946D8
:103B500040483A4B98474048364B98472B4B1B6898
:103B60000193002300930123002203213A48324CA1
:103B7000A047264B1B6819463748304B98473748B3
:103B80002C4B9847214B1B68019300230093002383
:103B9000012203213148284CA0471C4B1B681946C1
:103BA0002E48264B984700210620204B98472C4B47
:103BB00000221A702B4B00221A7028482A4B984773
:103BC00003461A46294B1A80284B1B881846284B57
:103BD0009847244B1B7883F00103DBB2002B08D0FD
:103BE0003220244B98472448244B98471D4B0122F0
:103BF0001A701B4B1B78002BEBD0194B00221A704C
:103C0000184B00221A70E4E7D10200006005002082
:103C1000B8040020E70D00008D0D000018060020FC
:103C2000AC04002009130000C9120000193900007B
:103C30002C070020813C0000713D0000F54E000083
:103C4000DC070020C0050020D40600207C060020F0
:103C500068050020080500208407002020060020B9
:103C60000405002078060020354D00001C060020C9
:103C7000CD390000594F0000D8040020450F000046
:103C800080B582B000AF78607B6800225A707B6894
:103C900000221A707B68164A9A607B684FF0814256
:103CA000DA607B68134A1A617B68134A5A617B6841
:103CB0004FF080429A617B68104ADA617B68104A53
:103CC0001A627B684FF07E525A627B680D4A9A6294
:103CD0007B680D4ADA627B680C4A1A637B680C4A7F
:103CE0005A6378680B4B984700BF0837BD4680BDC4
:103CF0000000A04000004040000020405555D53F46
:103D0000ABAAAA3F39B4483EC1CAA13E9A99193E0E
:103D1000D9CE773E3D41000080B483B000AF7860DB
:103D200039603B68013B032B1AD801A252F823F0FB
:103D3000413D0000493D0000513D0000593D00005B
:103D40007B680C225A700BE07B6810225A7007E0E7
:103D50007B6814225A7003E07B6818225A7000BFF7
:103D60007B685B7818460C37BD465DF8047B70476E
:103D700090B589B002AFF860B96011461A460B469B
:103D8000FB711346BB71B968F868324B9847FB6802
:103D90005B785AB2FB79002B01D0022300E00023AC
:103DA00013435AB2BB79002B14BF01230023DBB2AB
:103DB0005BB213435BB2DAB2FB681A70FB6897F828
:103DC00028209A70F96AF868234B9847F96AF868CE
:103DD000224B984703461846214B98470346FB75EC
:103DE000FA6A0321F8681F4B98470346BB75FB6AC4
:103DF0000093012301220121F8681B4CA0470346D0
:103E00007B75FA6A0121F868184B984703463B75A1
:103E1000FA6A0221F868164B98470346FB74FA6A5F
:103E20000021F868134B98470346BB74FA7DBB7DAD
:103E30001343DAB27B7D1343DAB23B7D1343DAB22C
:103E4000FB7C1343DAB2BB7C1343DBB218461C374E
:103E5000BD4690BD193D0000D14500006142000003
:103E6000014E00009D42000019430000CD430000B8
:103E700049440000C544000090B587B000AFF86029
:103E80000B467A60FB72FB681B781BB24FF4006232
:103E900019460A480A4B984707F11002F97A01239C
:103EA0007868084CA04778617B69002B01DCFF2310
:103EB00000E03B7C18461C37BD4690BDB80400208E
:103EC000AD0D0000F53F000090B58BB002AFF8607B
:103ED0007A603B600B46FB72FB681B781BB24FF4A9
:103EE0000062194619481A4B98475023FB77FB7A12
:103EF0009B00BB7707F11000BA7FF97F0323009383
:103F000003463868134CA047B861BB69002B01DC3D
:103F1000FF2317E03B7CFB757B7CBB75BB7C7B7513
:103F2000BB7D1B021AB27B7D1BB213431BB29AB23C
:103F30007B681A807B681A88FB7A1946F868064BFA
:103F40009847FB7D18462437BD4690BDB804002035
:103F5000AD0D0000594000009541000090B58BB0B8
:103F600002AFF8607B600B46FB7213463B81FB7A25
:103F70001946F868194B9847FB681B781BB24FF439
:103F8000006219461648174B98476023FB77FB7A67
:103F90009B00BB77B87F3A89F97F07F11403009340
:103FA00003467868104CA047B861BB69002B01DC60
:103FB000FF230FE03B7DFB75FB7D18460B4B9847BD
:103FC0000346002B05D03A89FB7A1946F868084B5E
:103FD0009847FB7D18462437BD4690BD59410000E7
:103FE000B8040020AD0D0000C1400000B54D000038
:103FF0009541000080B586B000AFF8607A601A463F
:104000000B46FB7213463B81FB7A3B7407F11003AE
:1040100001221946F8680E4B984778617B69012B9D
:1040200002D04FF0FF330EE03B891A467968F868FA
:10403000084B984778613A897B699A4202D04FF0E1
:10404000FF3300E0012318461837BD4680BD00BF8E
:10405000090E0000590E000080B586B000AFF86070
:104060007B600B46FB721346BB7200233B82FB7ADC
:104070003B74BB7A7B7407F1100302221946F8687F
:104080000D4B984778617B69022B02D04FF0FF33CC
:104090000EE03B8C1A467968F868084B98477861BF
:1040A0003A8C7B699A4202D04FF0FF3300E0012343
:1040B00018461837BD4680BD090E0000590E000095
:1040C00080B584B000AF7860084611461A460346B2
:1040D000FB700B463B801346BB700023BB60FB7834
:1040E0003B723B881B0A9BB2DBB27B723B88DBB224
:1040F000BB72BB78FB7207F108030422194678688B
:104100000C4B9847F860FB68042B02D04FF0FF334C
:104110000CE00122B9697868074B9847F860FB68A2
:10412000012B02D04FF0FF3300E001231846103777
:10413000BD4680BD090E0000590E000080B483B05A
:1041400000AF78607B68082283F8382000BF0C3706
:10415000BD465DF8047B704780B483B000AF7860E3
:104160000B46FB707B6893F838305AB2FB7801211C
:1041700001FA03F35BB203F008035BB213435BB2D3
:10418000DAB27B6883F8382000BF0C37BD465DF893
:10419000047B704780B483B000AF78600B46FB703F
:1041A00013463B80FB78022B17D8FB787A681C33C8
:1041B0005B0013443A885A807B6893F838305AB2CF
:1041C000FB78012101FA03F35BB2DB435BB21340DE
:1041D0005BB2DAB27B6883F8382000BF0C37BD468B
:1041E0005DF8047B7047000090B585B000AF786043
:1041F00039607B6893F83830002B27D00023FB739D
:1042000021E07B6893F838301A46FB7B42FA03F3CF
:1042100003F00103002B13D0FB7B1C335B007A6897
:1042200013449A1CF97B3B6878680B4CA047034603
:1042300018460A4B98470346002B01D0FF2306E09F
:10424000FB7B0133FB73FB7B022BDAD9002318467F
:104250001437BD4690BD00BFC93E0000DB4D0000D5
:1042600080B584B000AF786039607868084B9847B3
:104270003A68F0217868074B98470346FB730320A0
:10428000054B9847FB7B18461037BD4680BD00BFE5
:104290003D410000793E0000590C000090B587B008
:1042A00000AFF8600B467A60FB720023BB8207F117
:1042B00014027B680021F868144CA0470346FB7584
:1042C000BB8A1BB223F070031AB2FB7A1B011BB22C
:1042D00003F070031BB213431BB29AB27B68002138
:1042E000F8680B4CA0470346BB75FB7D1846094B8D
:1042F000984703461C46BB7D1846064B9847034625
:104300002343DBB218461C37BD4690BDC93E0000B2
:104310005D3F0000014E000090B585B000AF7860B1
:10432000084611461A460346FB700B46BB701346FF
:104330007B707B781B011BB203F030031AB2BB7891
:104340009B001BB203F00C031BB213431AB2FB78A1
:104350001BB203F003031BB213431BB2FB81002308
:104360007B8107F10A023B6A02217868144CA0475E
:1043700003467B737B891BB223F4FC631AB2FB896F
:104380005B011BB203F4FC631BB213431BB29AB272
:104390003B6A022178680B4CA04703463B737B7B4A
:1043A0001846094B984703461C463B7B1846064B6C
:1043B000984703462343DBB218461437BD4690BDE9
:1043C000C93E00005D3F0000014E000090B587B07F
:1043D00000AFF8600B467A60FB720023BB8207F1E6
:1043E00014027B680221F868144CA0470346FB7551
:1043F000BB8A1BB223F003031AB2FB7A1BB203F091
:1044000003031BB213431BB29AB27B680221F86804
:104410000B4CA0470346BB75FB7D1846094B9847DC
:1044200003461C46BB7D1846064B9847034623436C
:10443000DBB218461C37BD4690BD00BFC93E000028
:104440005D3F0000014E000090B587B000AFF860FE
:104450000B467A60FB720023BB8207F114027B6873
:104460000221F868144CA0470346FB75BB8A1BB2B7
:1044700023F01C031AB2FB7A9B001BB203F01C034F
:104480001BB213431BB29AB27B680221F8680B4C33
:10449000A0470346BB75FB7D1846094B984703466A
:1044A0001C46BB7D1846064B984703462343DBB2A8
:1044B00018461C37BD4690BDC93E00005D3F000058
:1044C000014E000090B587B000AFF8600B467A60EF
:1044D000FB72FB7A002B14BF01230023DBB2FB75B8
:1044E00000237B8207F112027B680121F868154CDA
:1044F000A0470346BB757B8A1BB223F480631AB2C4
:10450000FB7D9B021BB203F480631BB213431BB2FF
:104510009AB27B680121F8680B4CA04703467B7573
:10452000BB7D1846094B984703461C467B7D1846C1
:10453000064B984703462343DBB218461C37BD465B
:1045400090BD00BFC93E00005D3F0000014E00006D
:1045500090B587B000AFF8600B467A60FB7200231D
:10456000BB8207F114027B680121F868154CA04753
:104570000346FB75BB8A1BB223F400631AB297F99A
:104580000B309BB2DB021BB203F400631BB213437C
:104590001BB29AB27B680121F8680B4CA047034616
:1045A000BB75FB7D1846094B984703461C46BB7DEF
:1045B0001846064B984703462343DBB218461C3780
:1045C000BD4690BDC93E00005D3F0000014E0000A9
:1045D00080B582B000AF786039603A688021786831
:1045E000034B9847034618460837BD4680BD00BFB9
:1045F000793E000080B586B000AFF8600B467A6067
:10460000FB727968F8680B4B984797F90B3003F009
:104610000F035BB243F030035BB2FB75FB7D7A683E
:104620001946F868044B9847034618461837BD46A4
:1046300080BD00BFE9410000793E000090B58BB01D
:1046400000AFF8600B467A60FB7297F90B3003F00D
:104650000F035BB243F040035BB287F82630FB6880
:104660001B781BB24FF4006219466E486E4B984798
:10467000FB7A03F00803002B01D0022200E00022A5
:10468000FB7A03F00403002B01D0022300E0002397
:104690001344DAB2FB7A03F00203DBB21344DAB25A
:1046A000FB7A03F00103002B01D0022300E000237A
:1046B0001344DBB2013387F8253097F825309BB2DD
:1046C00007F1140297F826107868584CA047386212
:1046D0003B6A002B01DCFF239FE0012387F8273092
:1046E000FB7A03F00103002B1DD097F8273007F168
:1046F0002802134413F8143C1B021AB297F827300F
:10470000013307F128010B4413F8143C1BB2134387
:104710001BB29AB2FB68A3F8402097F82730023307
:1047200087F8273003E0FB680022A3F84020FB7ADB
:1047300003F00203002B1DD097F8273007F1280261
:10474000134413F8143C1B021AB297F827300133B4
:1047500007F128010B4413F8143C1BB213431BB29E
:104760009AB2FB68A3F8422097F82730023387F803
:10477000273003E0FB680022A3F84220FB7A03F015
:104780000403002B1DD097F8273007F128021344AB
:1047900013F8143C1B021AB297F82730013307F1C3
:1047A00028010B4413F8143C1BB213431BB29AB2FA
:1047B000FB68A3F8442097F82730023387F82730A6
:1047C00003E0FB680022A3F84420FB7A03F008030F
:1047D000002B1DD097F8273007F12802134413F857
:1047E000143C1B021AB297F82730013307F1280155
:1047F0000B4413F8143C1BB213431BB29AB2FB6870
:10480000A3F8462097F82730023387F8273003E0D3
:10481000FB680022A3F846203B7D18462C37BD4696
:1048200090BD00BFB8040020AD0D0000F53F0000B2
:1048300080B489B000AF78607B685B8F1B11DBB2FE
:1048400003F00703FB757B685B8FDBB203F00F039C
:10485000BB757B68DB8F5B11DBB203F03F037B75BD
:104860007B7D03F003033B757B7D9B08DBB203F08C
:104870000303FB747B7D1B09DBB203F00303BB74F2
:104880007B689B8F9B12DBB203F001037B74BB7DC3
:104890000C2B06D07B689B6AFB617B68DB6ABB6183
:1048A00006E07B681B6BFB617B685B6BBB6100BFD9
:1048B000FB7D03F007037A6802339B0013441B68F7
:1048C000FB607B7C002B20D07B68B3F8423007EE86
:1048D000903AF8EEE77A9FEDC67A37EEC77AD7EDD1
:1048E000077A27EE277AD7ED037A27EE277A3B7DE2
:1048F000012202FA03F307EE903AF8EEE77A67EE48
:10490000277A7B68C3ED137A6EE03B7D032B6BD86F
:1049100001A252F823F000BF2949000029490000F4
:1049200065490000A74900007B68B3F842301BB21C
:1049300007EE903AB8EEE77AD7ED077A27EE277AB6
:10494000D7ED037A27EE277A3B7D012202FA03F3A3
:1049500007EE903AF8EEE77A67EE277A7B68C3EDC8
:10496000137A41E07B68B3F8423007EE903AF8EEF4
:10497000E77A9FED9F7A37EEC77AD7ED077A27EE71
:10498000277AD7ED037A27EE277A3B7D012202FAB8
:1049900003F307EE903AF8EEE77A67EE277A7B6842
:1049A000C3ED137A20E07B68B3F8423007EE903A0B
:1049B000F8EEE77A9FED8F7A37EEC77AD7ED077A70
:1049C00027EE277AD7ED037A27EE277A3B7D01225F
:1049D00002FA03F307EE903AF8EEE77A67EE277AE9
:1049E0007B68C3ED137A00BF7B7C002B20D07B68F3
:1049F000B3F8443007EE903AF8EEE77A9FED7C7A10
:104A000037EEC77AD7ED077A27EE277AD7ED037A04
:104A100027EE277AFB7C012202FA03F307EE903A95
:104A2000F8EEE77A67EE277A7B68C3ED147A6DE0DB
:104A3000FB7C032B6AD801A252F823F04D4A0000F8
:104A40004D4A0000894A0000CB4A00007B68B3F859
:104A500044301BB207EE903AB8EEE77AD7ED077A0A
:104A600027EE277AD7ED037A27EE277AFB7C0122FF
:104A700002FA03F307EE903AF8EEE77A67EE277A48
:104A80007B68C3ED147A41E07B68B3F8443007EEED
:104A9000903AF8EEE77A9FED567A37EEC77AD7ED7F
:104AA000077A27EE277AD7ED037A27EE277AFB7C61
:104AB000012202FA03F307EE903AF8EEE77A67EE86
:104AC000277A7B68C3ED147A20E07B68B3F8443022
:104AD00007EE903AF8EEE77A9FED467A37EEC77A1E
:104AE000D7ED077A27EE277AD7ED037A27EE277AD4
:104AF000FB7C012202FA03F307EE903AF8EEE77A24
:104B000067EE277A7B68C3ED147A00BF7B7C002BAD
:104B100020D07B68B3F8463007EE903AF8EEE77A9B
:104B20009FED337A37EEC77AD7ED067A27EE277AEC
:104B3000D7ED037A27EE277ABB7C012202FA03F332
:104B400007EE903AF8EEE77A67EE277A7B68C3EDD6
:104B5000157A78E0BB7C032B75D801A252F823F0BC
:104B6000714B0000714B0000AD4B0000054C000084
:104B70007B68B3F846301BB207EE903AB8EEE77A9E
:104B8000D7ED067A27EE277AD7ED037A27EE277A34
:104B9000BB7C012202FA03F307EE903AF8EEE77AC3
:104BA00067EE277A7B68C3ED157A4CE07B68B3F833
:104BB000463007EE903AF8EEE77A9FED0D7A37EE41
:104BC000C77AD7ED067A27EE277AD7ED037A27EE54
:104BD000277ABB7C012202FA03F307EE903AF8EE43
:104BE000E77A67EE277A7B68C3ED157A2BE000BF82
:104BF000000000470000804600A43447CDCC34427A
:104C0000005043477B68B3F8463007EE903AF8EE21
:104C1000E77A1FED087A37EEC77AD7ED067A27EEE6
:104C2000277AD7ED037A27EE277ABB7C012202FA96
:104C300003F307EE903AF8EEE77A67EE277A7B689F
:104C4000C3ED157A00BF7B68B3F8403007EE903AA9
:104C5000F8EEE77A1FED187A37EEC77A5FED196A3A
:104C6000C7EE267AB3EE097A77EE877A7B68C3EDD2
:104C7000127A7B68D3ED137A1FED1F7AF4EEC77AB0
:104C8000F1EE10FA03DD7B68264ADA640CE07B68FB
:104C9000D3ED137A9FED247AF4EEC77AF1EE10FA91
:104CA00002D57B68214ADA647B68D3ED147A9FEDE4
:104CB000207AF4EEC77AF1EE10FA03DD7B68194A28
:104CC0001A650CE07B68D3ED147A9FED177AF4EE49
:104CD000C77AF1EE10FA02D57B68144A1A657B6830
:104CE000D3ED157A9FED127AF4EEC77AF1EE10FA51
:104CF00003DD7B680B4A5A650DE07B68D3ED157ABE
:104D00009FED097AF4EEC77AF1EE10FA00D402E0D2
:104D10007B68064A5A6500BF2437BD465DF8047BB0
:104D2000704700BF00504347005043C7005043C77F
:104D30000050434780B487B000AF78607B68DB8F5A
:104D4000DBB203F00303FB757B68DB8FDB12DBB2A6
:104D500003F00303BB757B68DB8F9B10DBB203F0B2
:104D600007037B7503233B753B7D7A7D012101FAA7
:104D700002F2911CFA7D01FA02F29201433202FB27
:104D800003F2BB7DC02101FA03F3433313443B61BB
:104D90003B69074AA2FB03235B099BB20833FB81F3
:104DA000FB8918461C37BD465DF8047B704700BF81
:104DB0001F85EB5180B483B000AF0346FB71FB79D4
:104DC00003F01003002B0CBF01230023DBB21846B5
:104DD0000C37BD465DF8047B704780B483B000AFEC
:104DE0000346FB71FB7903F01003002B14BF012372
:104DF0000023DBB218460C37BD465DF8047B7047D4
:104E000080B483B000AF0346FB71FB7903F010035D
:104E1000002B01D0FF2300E0002318460C37BD46CD
:104E20005DF8047B704780B485B000AFF8600B4636
:104E30007A60FB72FB7AFA68DB01134418337A68F4
:104E40001A6000BF1437BD465DF8047B704780B41C
:104E500085B000AFF8600B467A60FB72FB7AFA68A7
:104E6000DB01134414337A681A6000BF1437BD465F
:104E70005DF8047B7047000080B582B000AF034648
:104E80003960FB711346BB71BB79002B06D0FB79EF
:104E90003A6819460648074B984705E0FB793A6897
:104EA00019460348044B984700BF0837BD4680BDEC
:104EB00000800041274E00004F4E000080B582B0B8
:104EC00000AF03460A46FB711346BB71FB795B09D1
:104ED000D8B2FB7903F01F03012202FA03F3BA7977
:104EE0001946034B984700BF0837BD4680BD00BF39
:104EF000794E000080B582B000AF786039603A68C2
:104F000001217868054B98473A680E217868044B70
:104F1000984700BF0837BD4680BD00BF514500001F
:104F2000F545000080B582B000AF0346FB8001214B
:104F30000620074B9847FB881846064B98470021E8
:104F40000620034B984700BF0837BD4680BD00BF11
:104F5000BD4E0000250C000080B582B000AF0346B6
:104F6000FB80FB881846034B984700BF0837BD46B7
:104F700080BD00BF254F000080B584B000AF7860D1
:104F800039603A680E217868074B98470346FB73EF
:104F90007868064B9847FB7B1846054B98470346B5
:104FA00018461037BD4680BD3D4600003148000020
:104FB000014E000090B589B000AFF860B9607A602A
:104FC0003B60796CF8683B4B98470346FB77796CFC
:104FD000B868384B98470346BB77796C7868354B8F
:104FE000984703467B77796C3868324B984703467D
:104FF0003B77796C386B2F4B98470346FB76796C7F
:10500000786B2C4B98470346BB76796CB86B294B71
:10501000984703467B76796CF86B264B9847034696
:105020003B76796C386C234B98470346FB75FB7FC6
:105030001846214B984703461C46BB7F18461E4B1B
:10504000984703462343DCB27B7F18461A4B9847A8
:1050500003462343DCB23B7F1846174B9847034671
:105060002343DCB2FB7E1846134B98470346234389
:10507000DCB2BB7E1846104B984703462343DCB294
:105080007B7E18460C4B984703462343DCB23B7E9D
:105090001846094B984703462343DCB2FB7D18466C
:1050A000054B984703462343DBB218462437BD46D9
:1050B00090BD00BF794F0000014E000070B50F4E4B
:1050C0000F4D761BB61018BF002405D0013455F8DB
:1050D000043B9847A642F9D10A4E0B4D761B00F0CF
:1050E00039F9B61018BF002406D0013455F8043B36
:1050F0009847A642F9D170BD70BD00BF6053000053
:10510000605300006853000060530000024B13B16D
:10511000024800F005B87047000000002D51000063
:10512000002301461A46184600F01EB838B50A4C4E
:105130000A4D641BA4100AD004F18043013B05EB27
:105140008305013C55F804399847002CF9D1BDE896
:10515000384000F009B900BF7853000074530000D4
:10516000704700BF704700BF2DE9F8432C4D06463D
:10517000286898460F469146FFF7F2FF294B1C68B6
:10518000D4F84831002B3ED05A681F2A1CDC02F1AB
:10519000010E76B103EB82010124C1F88890D3F8A7
:1051A000880194402043022EC3F88801C1F8088189
:1051B00023D00232C3F804E0286843F82270FFF7D6
:1051C000D1FF0020BDE8F883174B0BB34FF4C87034
:1051D000AFF300800346D8B1D4F848210260002123
:1051E00041600A46C4F848014FF0010EC0F888112A
:1051F000C0F88C11002EDCD0CCE7D3F88C110C4316
:10520000C3F88C41D5E704F5A673C4F84831BBE771
:105210002868FFF7A7FF4FF0FF30BDE8F88300BF15
:105220007004002050530000000000002E2E2F6854
:10523000706C2F706F72742F68706C5F6770696F1D
:105240005F626173652E68002E2E2F68616C2F736C
:1052500072632F68616C5F6932635F6D5F73796E33
:10526000632E63002E2E2F68616C2F7372632F687C
:10527000616C5F696F2E63002E2E2F68616C2F7337
:1052800072632F68616C5F74696D65722E630000D4
:105290002E2E2F68616C2F7372632F68616C5F759F
:1052A000736172745F73796E632E63002E2E2F68A4
:1052B000616C2F7574696C732F7372632F757469C9
:1052C0006C735F6C6973742E630000002E2E2F6860
:1052D000706C2F736572636F6D2F68706C5F736590
:1052E00072636F6D2E630000003000400034004098
:1052F0000020014100400141000000430004004340
:1053000000080043000C0043000000000000000003
:105310000000000000000000000000002E2E2F689A
:10532000706C2F74632F68706C5F74632E63000061
:1053300000380040003C004000A0014100C0014195
:1053400000140042001800420014004300180043FB
:1053500048000020F8B500BFF8BC08BC9E46704766
:105360000D51000089020000F8B500BFF8BC08BC70
:085370009E4670476502000033
:10537800020000000400104000000300020070005A
:10538800ADD80000000000000300000014002070E9
:10539800000100000A0000000000D700001BB70051
:1053A80003006E00080300000000000096000000E3
:1053B800000000000000000000000000340300208E
:1053C8009C030020040400200000000000000000EE
:1053D80000000000000000000000000000000000C5
:1053E80000000000000000000000000000000000B5
:1053F80000000000000000000000000000000000A5
:105408000000000000000000000000000000000094
:105418000000000000000000000000000000000084
:105428000000000000000000000000000000000074
:105438000000000000000000000000000000000064
:105448000000000000000000000000000000000054
:105458000000000000000000000000000000000044
:1054680001000000000000000E33CDAB34126DE6E1
:10547800ECDE05000B00000000000000000000004A
:105488000000000000000000000000000000000014
:105498000000000000000000000000000000000004
:1054A80000000000000000000000000000000000F4
:1054B80000000000000000000000000000000000E4
:0457E800380800205D
:00000001FF
